:020000040800F2
:10000000D85800206902000851450008A5380008AA
:100010004D450008470900088F4A0008000000000D
:100020000000000000000000000000006D47000814
:10003000030B000800000000534500088548000835
:10004000830200088302000883020008830200087C
:10005000830200088302000883020008830200086C
:10006000830200088302000883020008830200085C
:10007000830200088302000883020008830200084C
:10008000830200088302000883020008830200083C
:10009000830200088302000883020008830200082C
:1000A000830200088302000883020008830200081C
:1000B000830200088302000883020008830200080C
:1000C00083020008830200088302000883020008FC
:1000D00083020008830200088302000883020008EC
:1000E00083020008830200088302000883020008DC
:1000F00083020008830200088302000883020008CC
:1001000083020008830200088302000883020008BB
:1001100083020008830200088302000883020008AB
:10012000830200088302000883020008830200089B
:10013000830200088302000883020008830200088B
:10014000830200088302000883020008830200087B
:10015000830200088302000883020008830200086B
:10016000830200088302000883020008830200085B
:10017000830200088302000883020008830200084B
:10018000830200088302000800F002F800F05CF827
:100190000AA090E8000C82448344AAF10107DA45E2
:1001A00001D100F051F8AFF2090EBAE80F0013F0D8
:1001B000010F18BFFB1A43F001031847F8AF000006
:1001C00018B000000A444FF0000C10F8013B13F087
:1001D000070408BF10F8014B1D1108BF10F8015BA0
:1001E000641E05D010F8016B641E01F8016BF9D193
:1001F00013F0080F1EBF10F8014BAD1C0C1B09D1EA
:100200006D1E58BF01F801CBFAD505E014F8016B5B
:1002100001F8016B6D1EF9D59142D6D370470000ED
:100220000023002400250026103A28BF78C1FBD8FF
:10023000520728BF30C148BF0B6070471FB508F098
:1002400051FC1FBD10B510BD00F0DDF91146FFF7E0
:10025000F5FF08F02DFC00F027F803B4FFF7F2FFDC
:1002600003BC00F0C9F9000009488047094800476D
:10027000FEE7FEE7FEE7FEE7FEE7FEE7FEE7FEE756
:10028000FEE7FEE704480549054A064B70470000B3
:100290000949000889010008D8520020D8580020D8
:1002A000D8540020D854002010B50446AFF3008085
:1002B0002046BDE81040FFF7D0BF40EA010310B56B
:1002C0009B070FD1042A0DD310C808C9121F9C42E6
:1002D000F8D020BA19BA884201D9012010BD4FF0D8
:1002E000FF3010BD1AB1D30703D0521C07E0002025
:1002F00010BD10F8013B11F8014B1B1B07D110F882
:10030000013B11F8014B1B1B01D1921EF1D1184684
:1003100010BD40EA0103024630B59B0710D14FF0F3
:10032000013400E008C208C91D1B9D4315EAC41F23
:10033000F8D013F0FF0102F8011B0DD01B0AF8E7FB
:1003400011F8013B002B02F8013B05D011F8013BED
:10035000002B02F8013BF3D130BD032A40F230807C
:1003600010F0030C00F0158011F8013BBCF1020FF6
:10037000624498BF11F801CB00F8013B38BF11F877
:10038000013BA2F1040298BF00F801CB38BF00F88E
:10039000013B11F0030300F06780083AC0F00880C9
:1003A00051F8043B083A51F804CBA0E80810F5E7EF
:1003B000121D5CBF51F8043B40F8043BAFF30080D2
:1003C000D20724BF11F8013B11F801CB48BF11F847
:1003D000012B24BF00F8013B00F801CB48BF00F817
:1003E000012B7047431A28BF9A427FF6B6AF032A03
:1003F0001044114440F2268010F0030F1EBF11F884
:10040000013D521E00F8013D10F0030F7FF4F6AFDE
:1004100011F0030300F0C180083AC0F00B8051F8DE
:10042000043D083A51F804CD40F8043D40F804CDAD
:10043000FFF7F3BF121D5CBF51F8043D40F8043DC7
:10044000AFF30080D20724BF11F8013D11F801CDB0
:1004500048BF11F8012C24BF00F8013D00F801CD80
:1004600048BF00F8012C704710B5203AC0F00B804F
:10047000B1E81850203AA0E81850B1E81850A0E8A8
:100480001850BFF4F5AF5FEA027C24BFB1E8185002
:10049000A0E8185044BF18C918C0BDE810405FEA72
:1004A000827C24BF51F8043B40F8043B08BF7047EE
:1004B000D20728BF31F8023B48BF11F8012B28BFF3
:1004C00020F8023B48BF00F8012B704702F0FF0301
:1004D00043EA032242EA024200F002B84FF000026F
:1004E0000429C0F0128010F0030C00F01B80CCF146
:1004F000040CBCF1020F18BF00F8012BA8BF20F8B4
:10050000022BA1EB0C0100F00DB85FEAC17C24BF07
:1005100000F8012B00F8012B48BF00F8012B7047B1
:100520004FF0000200B5134694469646203922BF8C
:10053000A0E80C50A0E80C50B1F12001BFF4F7AFD7
:10054000090728BFA0E80C5048BF0CC05DF804EBB9
:10055000890028BF40F8042B08BF704748BF20F827
:10056000022B11F0804F18BF00F8012B7047704725
:1005700070477047431A28BF9A427FF675AF104400
:1005800010F0030F11441EBF11F8013D521E00F878
:10059000013D10F0030F7FF4F6AF103AC0F00A806F
:1005A00010B531E91850103A20E91850BFF4F9AFEE
:1005B000BDE81040530724BF31E9081020E90810B6
:1005C00044BF51F8043D40F8043D12F0030F08BF4A
:1005D0007047D20728BF31F8023D48BF11F8012CFF
:1005E00028BF20F8023D48BF00F8012C70470000EA
:1005F000004870477452002001491820ABBEFEE746
:100600002600020070477546FFF7F2FFAE46050070
:100610006946534620F00700854618B020B5FFF71D
:1006200031FEBDE820404FF000064FF000074FF0CC
:1006300000084FF0000B21F00701AC46ACE8C00900
:10064000ACE8C009ACE8C009ACE8C0098D46704709
:1006500021B1826842F00102826003E0826822F0E8
:1006600001028260704700000021084A1168084AB0
:100670001140D0E900231A4383681A43C3681A4320
:100680001143044AC2F804137047000004230140D8
:10069000E030FCFF0020014030B50246002000237E
:1006A0005068104C20400D790C6844EA0524204322
:1006B000506090680C4C2040D1E903542C438D6865
:1006C0002C434D7944EA450420439060D06A20F4DD
:1006D00070000C7D641EE4B2234340EA0350D062F4
:1006E00030BD0000FFFEFFFCFDF7FFC000B58DB080
:1006F0000121084603F02EFF0121080203F04AFF02
:1007000002200B9003208DF8300000208DF833007C
:100710000BA9154800F00EFF0121080203F04AFF63
:1007200000214FF4807003F045FF002007900A90ED
:1007300009904FF48030089007A8FFF795FF00203C
:1007400001908DF808008DF80900039005900120B4
:100750008DF8180001A90548FFF79EFF0121034805
:10076000FFF776FF0DB000BD000002400020014001
:1007700038B503F02FFF012003F092FF03F0DAFFFA
:10078000044600BF002CFDD0002003F07DFF4FF495
:10079000A05003F093FF4FF4805003F09BFF07201D
:1007A00002234FF4A87208210090C80403F0A4FFAC
:1007B000012003F09BFF00BF392003F03DFF00281C
:1007C000FAD0022003F0AAFF00BF03F055FF08286B
:1007D000FBD1002003F06CFF0121084603F0BAFEB4
:1007E0000121022003F0B6FE0121042003F0B2FE35
:1007F0000121082003F0AEFE0121102003F0AAFE23
:100800000121202003F0A6FE0121402003F0A2FEDA
:1008100038BD70B50446B4F90450284601F02CF9EF
:1008200006462146284604F059F900B970BD2068F3
:100830000B280FD00C2802D00F280FD105E022463C
:100840003146284607F057FAF0E72946304607F0C8
:10085000DBFAEBE7304605F0BFFE00BF00BF2046E5
:1008600004F0C2FB00BFE1E72DE9FF4F85B006466B
:100870000F469046DDE913ABDDF8489000BF30210C
:10088000114A1FFA8AF0CDE90090CDE902214246D3
:1008900039463046089B04F00BFB04467CB12046E9
:1008A00001F0EAF8054610222846159904F09AFA54
:1008B0002022064905F12800FFF7D6FD00BF20469B
:1008C00009B0BDE8F08F000013080008B000002058
:1008D0002DE9FF4704460D4616461F46DDF83080D9
:1008E00000BFB4F90800618A0022CDE90052CDE9C9
:1008F0000210B4F91030B4F90E20B4F90CC00CEBAE
:100900000701B4F90AC00CEB0600FFF7ADFF814602
:100910004846616800F004F8484604B0BDE8F08736
:1009200070B504460D466CB1204601F0A5F80646A8
:10093000294606F1480002F033FE10B1204604F0CB
:10094000D7FD00BF70BD00BFFEE700002DE9FF5FCF
:1009500081468A4614461D46DDE90EB8109810906F
:1009600004B18DB904F0B4F847692CB91E48806908
:100970000088022101FB07042DB91B4880694088CB
:10098000022101FB070500BF1748C0686FF07041E6
:10099000884201D148F001083421144A1FFA88F036
:1009A0002B46CDE900B0CDE902212246514648460A
:1009B00004F07EFA064696B1304601F05DF807462F
:1009C00010223846119904F00DFA2822064907F141
:1009D0002800FFF749FD022087F8500000BF30468D
:1009E00004B0BDE8F09F0000D00000204364000880
:1009F0002DE9FF4704460D4616461F46DDF83080B8
:100A000000BFB4F90800618A0022CDE90052CDE9A7
:100A10000210B4F91030B4F90E20B4F90CC00CEB8C
:100A20000701B4F90AC00CEB0600FFF78FFF8146FF
:100A3000484604B0BDE8F08770B5054600262DB1E4
:100A4000284601F019F8044694F85160304670BD0C
:100A500010B504462046FFF7EFFF012800D110BD76
:100A60000020FCE770B506460D4666B1304601F041
:100A700003F8044694F85000A84204D384F8515077
:100A8000304604F035FD70BD70B504460D466CB1BE
:100A900065B1204600F0F0FF0646294606F15200F7
:100AA00002F07EFD10B1204604F022FD70BD000072
:100AB0007CB504F05FFB0546002000902B46044AFD
:100AC00003210190034801F058F9044620467CBDFB
:100AD00009890008F08A0008014800687047000092
:100AE000F800002007E046F2A81100BF0A1EA1F19D
:100AF000010399B2FAD1021EA0F1010398B2F2D11A
:100B0000704770472DE9F0470746894614461D4651
:100B1000DDF820802148007B00F00200E0B9B8F148
:100B2000000F0DD009E0268838F8162049463846CF
:100B300003F083FA6D1E7F1CA41C002DF3DC2AE059
:100B400007E022884946384603F077FA6D1E7F1C7D
:100B5000A41C002DF5DC1EE0B8F1000F0ED00AE059
:100B600026882EB138F816204946384603F065FA33
:100B70006D1E7F1CA41C002DF2DC0CE009E0268811
:100B800026B132464946384603F057FA6D1E7F1C9F
:100B9000A41C002DF3DCBDE8F0870000F04F00201E
:100BA0001CB5044611480078A0B1012000908DF8D2
:100BB000040000208DF8060003208DF805000120B8
:100BC0008DF8070069460A4800F0B4FC0020074988
:100BD000087000BF24B10121054800F021FD03E0A9
:100BE0000121034800F01AFD1CBD00006C0100202B
:100BF0000004024000B59FB00121582003F0AAFC78
:100C00000121084603F0B6FC4CF233701D9002201F
:100C10008DF8780000208DF87A0003208DF8790097
:100C200001208DF87B001DA9634800F083FC4FF67E
:100C300080701D9002208DF8780000208DF87A00D9
:100C400003208DF8790001208DF87B001DA95B48F9
:100C500000F070FC41F201001D9002208DF8780038
:100C600000208DF87A0003208DF8790001208DF89E
:100C70007B001DA9524800F05DFC0C2200214E486B
:100C800000F0A0FC0C2201214B4800F09BFC0C2240
:100C90000421494800F096FC0C220521464800F04A
:100CA00091FC0C220821444800F08CFC0C22092104
:100CB000414800F087FC0C220A213F4800F082FCEA
:100CC0000C220E213C4800F07DFC0C220F213A48FA
:100CD00000F078FC0C220721384800F073FC0C224D
:100CE0000821364800F06EFC0C220921334800F040
:100CF00069FC0C220A21314800F064FC0C220B2113
:100D00002E4800F05FFC0C2211462C4800F05AFCE3
:100D10000C220D21294800F055FC0C220E212748F9
:100D200000F050FC0C220F21244800F04BFC0C2258
:100D30000021234800F046FC0C221146204800F018
:100D400041FC0F200790002008903C2009900020D3
:100D50000A900B900C900D900920009000200190BB
:100D60000820029000200390049005900690062031
:100D70000E9000200F9010901020119000201290E3
:100D800014901390159016904FF4805017900020F7
:100D900018904FF48040199000201A9007A81B90DB
:100DA000CDF870D00EA800F0E1FA0121062000F085
:100DB000C3FA1FB000BD0000000C0240001002404A
:100DC0000018024001480088704700000008006CCD
:100DD00001490880704700000008006C0149088044
:100DE00070470000FE07006C1CB5044611480078EF
:100DF000A8B12020009001208DF8040000208DF87B
:100E0000060003208DF8050001208DF807006946D3
:100E1000094800F08FFB00200649087000BF24B984
:100E20002021054800F0FAFB03E02021024800F0F1
:100E3000F7FB1CBD6D010020000802401CB50446F4
:100E40001A48007838B30420009001208DF804007F
:100E500000208DF8060003208DF8050001208DF894
:100E600007006946124800F065FB00200F49087032
:100E70000C20009001208DF8040000208DF8060061
:100E800003208DF8050001208DF807000C2109488A
:100E900000F0C6FB00BF24B90421054800F0BEFBEA
:100EA00003E00421024800F0BBFB1CBD73010020DD
:100EB00000040240000802401CB50E48007898B1BA
:100EC0004FF48070009000208DF8040003208DF80E
:100ED000050001208DF807006946074800F02AFB4D
:100EE00000200449087000BF4FF48071024800F0F0
:100EF0008CFB1CBD74010020001402401CB504468C
:100F000013480078B0B14FF40070009001208DF8C4
:100F1000040000208DF8060003208DF80500012054
:100F20008DF8070069460B4800F004FB00200849D3
:100F3000087000BF2CB94FF40071064800F06EFB3A
:100F400004E04FF40071034800F06AFB1CBD000090
:100F500075010020001402401CB5044611480078B9
:100F6000A8B10220009001208DF8040000208DF827
:100F7000060003208DF8050001208DF80700694662
:100F8000094800F0D7FA00200649087000BF24B9CC
:100F90000221054800F042FB03E00221024800F074
:100FA0003FFB1CBD76010020000402402DE9F04FFC
:100FB00089B00746884691469B46DDE9135A45F4B9
:100FC000805548222E4BA8B21299CDE90232CDE9C4
:100FD00000105B464A464146384603F069FF064624
:100FE000002E49D0304600F047FD0446302220460E
:100FF000159903F0F7FE2022224904F12800FFF79B
:1010000033FA00204834608217982060A4F814A0B6
:101010000020E082E080E061483C04A9204600F026
:1010200078F80020184941F28272CDE90062CDE9DA
:101030000210BDF91AE0BDF916C0AEEB0C0C0CF1B4
:101040000103BDF918C0BDF914E0ACEB0E0C0CF1B6
:101050000102BDF91610704603F02AFFA4F84C00F7
:1010600042F20400284010B9304603F0F0FF304649
:10107000169900F03BF800BF304609B0BDE8F08F8C
:101080004B730008FC000020431200082DE9F043D8
:1010900087B004460D4616461F46DDF83880B4F981
:1010A0000810628A6068CDE90408CDE902210020B9
:1010B000CDE90050B4F91030B4F90E20B4F90CC0E9
:1010C0000CEB0701B4F90AC00CEB0600FFF76EFF4A
:1010D0008146484607B0BDE8F08370B504460D462A
:1010E0001CB12946204607F004FA70BD70B50446CD
:1010F0000D466CB1204600F0BFFC0646294606F1BD
:10110000500002F04DFA10B1204604F0F1F900BF92
:1011100070BD2DE9F04F85B005460C4600200490C7
:101120000390B5F94260284604F00FFD029028466E
:1011300004F013FD019095F8260000F0200010B196
:10114000B5F944000390284600F06AF88046B5F8E7
:101150004E0020B1B5F94E0004F069F804900FFA82
:1011600088F02080049800B2608030B2A08002989D
:10117000801B401E01B221810398304400EB08011E
:101180000498084401B2E1800198801B401E01B21E
:10119000618130B2A0810298801B401E01B2218281
:1011A00031B2E18106EB0800401E01B26182B5F95F
:1011B00018902FE0484600F05FFC0746B7F90000A2
:1011C000B5F90010A0EB010AB7F90400B5F9001059
:1011D000A0EB010BB7F90200B5F90210401A00901C
:1011E0000098B04214D1387F00F0800040B1B4F9CB
:1011F000100050450CDBAAF1010001B2218207E08A
:10120000B4F90C00584503DC0BF1010000B2A081D9
:10121000B7F91A90B9F1000FCCD105B0BDE8F08F45
:1012200070B50446002594F8260000F0200030B187
:10123000B4F940501DB9A06A01F0B2F8851C2846E7
:1012400070BD2DE9FE430446B4F90470B4F90400FE
:1012500003F0C3FF8046404600F00EFC0546AE6C2E
:101260002068172858D008DC0E283ED00F280BD055
:1012700014284FD0152853D14DE01F281AD020280C
:101280002ED022284CD142E06FF07041E86B8842AA
:1012900004D0E86B02F064FF00F01CFD46B194E856
:1012A00007008DE80700ADF804706846B04700BF3E
:1012B000BDE8FE83A06890B1B5F85E0040B1B5F915
:1012C0005E00B84204D0B5F95E0004F0B3FA04E061
:1012D000384604F003FBA5F85E000020A060E7E7B5
:1012E0002146404603F0FAFBE2E7A0684068002888
:1012F0000CDDA068D0F80090B9F1090F05D138468F
:1013000004F0ECFAA5F85E00D2E700BF08E0E86B55
:10131000A060CDE700BF00BF204603F065FEC7E731
:1013200000BF26B1A4F804802046B04702E0204662
:1013300003F05AFE00BFBBE751B18200A2F1C042E8
:10134000126842F001038200A2F1C042136009E07A
:101350008200A2F1C0421268034B1A408300A3F13D
:10136000C0431A6070470000FEFF0F00D0E9011271
:101370001143C268114302691143426911438269F2
:101380001143C2691143026A1143426A1143826ADE
:101390001143C26A1143026B114302689200A2F129
:1013A000C0421160816808290BD101688900A1F150
:1013B000C041096841F0400201688900A1F1C041C3
:1013C0000A60416B0968426B526841EA0211426B44
:1013D000926841EA0221426B928941EA0241426BE2
:1013E000128A41EA0251426B127D41EA0261426B6C
:1013F000926911430268521C9200A2F1C04211602E
:10140000C16AB1F5804F1BD1816B0968826B52684C
:1014100041EA0211826B926841EA0221826B128AD0
:1014200041EA0251826B127D41EA0261826B92694C
:10143000114302689200A2F1C042C2F8041107E011
:101440006FF0704201688900A1F1C041C1F8042128
:10145000704700002DE9F04387B004460E4617465A
:10146000D4F80C80002001F0ADFB0546B8F1000F68
:1014700005D098F8041011B145F0020101E025F003
:101480000201084601F09EFB206970B10122D4E9F7
:1014900002018DE80700039263882288206939469B
:1014A000D0F800C03046E0471EE0E06802F079FC6A
:1014B0008146B9F1000F06D1E088012801D0002053
:1014C00000E00C488146A188E288A068CDE90409C3
:1014D000CDE90221012000900190638822883946DD
:1014E000304602F061FA00BF284601F06BFB07B0FE
:1014F000BDE8F083F04F002010B5002001F056FB4E
:101500006FF07F4001F058FB012001F073FB0020D9
:1015100001F078FB002001F07FFB002001F052FB7E
:10152000034801F057FB002001F05CFB10BD0000F8
:1015300084930008F0B50A4600210023002400BF70
:101540003DE0012505FA01F3156805EA03049C4214
:1015500034D105684F000326BE40B54305601579B8
:101560004E00B5400668354305601579012D02D05F
:101570001579022D16D185684F000326BE40B5436C
:10158000856055794E00B54086683543856045686D
:1015900001268E40B5434560456896798E40B6B2C7
:1015A00035434560C5684F000326BE40B543C5605E
:1015B000D5794E00B540C6683543C560491C102931
:1015C000BFD3F0BDF0B5002300244D07ED0E02FAA5
:1015D00005F3CE1000F1200555F826504E07F70E02
:1015E0000F26BE40B543CF1000F1200646F8275025
:1015F000CE1000F1200555F8265045EA0304CE1020
:1016000000F1200545F82640F0BD02460020136990
:101610000B400BB1012000E0002070474183704770
:10162000018370472DE9F04F8BB005465D48B0F956
:1016300022000A905B48B0F924A080698469B4F85C
:101640000C80A84509DCE089A84206DBD4F80090AC
:10165000A5EB08064FF0FF371DE0A068D4F8049012
:10166000A8B1B0F80080A8450DDC4188A9420ADB8A
:101670000288AA1A95B2416801EB8501B1F90060B0
:10168000B1F9027006E04FF0FF36374602E04FF046
:10169000FF36374600BF701C002878D0414880696B
:1016A000007DA17C10FB01F00990207C08903D4852
:1016B0008069007D07903B48B0F92AB0584602F097
:1016C000A5FDC0B20690374A099806FB0090A17CA0
:1016D0000123CDE90231CDE9040210468069C07DC5
:1016E00011468969897DCDE900105146DDE907324F
:1016F0000A9802F059F9781CD8B14BF0020002F0B8
:1017000085FD284A099807FB0090A17C0123CDE9BB
:101710000231CDE9040210468069C07D1146896915
:10172000897DCDE900105146DDE907320A9802F0C3
:101730003BF91C488069407D1A498969097D8842C6
:1017400021DDBBF1020F1ED08BF0040002F05EFD24
:1017500014488069007DDFF84CC0DCF818C09CF8A4
:1017600015C010FB0CA10F488069407D00EB0A03F7
:101770000C48806990F816E0DDF820C00A980CFB50
:101780000E0202F0BDFA069802F040FD00BF0548C7
:10179000408C617C084400B2024948840BB0BDE82B
:1017A000F08F0000F04F00200146034880698269F5
:1017B00000BF507C70470000F04F002000BF0222A5
:1017C0000A80704730B50446A26995898D4204DCD1
:1017D000D089884201DB012030BD93683BB1188875
:1017E000884204DC5888884201DB0120F4E700BF0E
:1017F0000020F1E72DE9F04F87B005464248B0F9E7
:101800002A80014689698869294600F07FF80646E2
:10181000002E76D03188691A706800EBC104A77871
:10182000404602F0F3FC0690374901226068CDE99A
:101830000227CDE9040108468069C07D8969897D58
:10184000DFF8C4C0CDE90010DCF818C09CF81430F3
:101850002278DFF8B4C0BCF92410BCF9220002F0F1
:10186000A3F829488069407D27498969097D884214
:1018700037DD2548806990F8179023488069407DBE
:1018800010FB09FA20488069007D10FB09FBB8F1C4
:10189000020F25D000F03FFD059000F01EFD0490E2
:1018A00001F08AF9DFF860C0BCF922C094F800E0CA
:1018B0000CEB0E02DFF850C0BCF924C00CEB0A039D
:1018C000DFF844C0BCF924C00CEB0B01DFF838C0D2
:1018D000BCF9220002F014FA059801F06DF900BF7E
:1018E00000BF069802F092FC0748B0F92200617828
:1018F000054A9269927D11FB020000B202494884B8
:1019000000BF07B0BDE8F08FF04F002007E002886D
:101910008A4203DC42888A4200DB02E080680028B9
:10192000F5D100BF7047000070B504460A498969C7
:1019300088692146FFF7EAFF054655B12988611AF3
:10194000686810F8310004498969897D10FB01F04D
:1019500070BD0020FCE70000F04F002000BF012216
:101960000A80704770B504460D462946A069FFF706
:10197000CDFF06460EB1012070BD0020FCE770B51A
:1019800004460CB9002070BD204604F093FC0546C7
:101990002846F8E770B504462046FFF7F0FF0546F5
:1019A0003DB1284600F068F806462246002101F0C5
:1019B0001FFE284670BD10B5044604B910BD204670
:1019C00005F0AAFF00BFF9E710B50446B4F900001E
:1019D000FFF7F1FF0020208010BD00002DE9F0414D
:1019E000002604F093FD002510E0144830F835007F
:1019F000124901EBC50149880844104931F83710F4
:101A0000081A04B2B44200DD26463D460B4800EBFE
:101A1000C5008788002FE8D1084830F9350007490C
:101A200001EBC501B1F902100844C0F57A5004B2C7
:101A3000B44200DD26463046BDE8F0812C4000204F
:101A400040F2F5100949486088604FF47A50C88127
:101A50000882002008608881042005494880002011
:101A6000088088800120034908707047DC4F0020FF
:101A70002C4000205C000020014609B9002070477E
:101A8000024830F93100024A1044F8E72C400020A7
:101A9000AC0100202DE9F34F93B08848008800285E
:101AA00078D0874801681398814201D0012000E076
:101AB000002084490A6814998A4201D0012100E07B
:101AC000002108430028EBD07F480078002870D020
:101AD0007E480068006808907848B0F90000FFF779
:101AE000CBFF0990794800680068B0F800B07449ED
:101AF00013980968461A002E0DDD01201190002070
:101B00001290724800680068008810901098A0F148
:101B1000010A0F960DE04FF0FF301190ABF101007C
:101B200012904FF0FF30109000200F90129800EBB1
:101B3000060A644914980968471A002F0DDD012030
:101B40000D9000200E9061480068006840880C905D
:101B50000C98401E0A900B9710E04FF0FF300D904C
:101B60005A48006800684088401E0E904FF0FF30D1
:101B70000C9000200B900E9838440A900E9C8DE03B
:101B800004EB07080B98844205DB0A98844202DCC8
:101B9000012001E08FE0002007900B98804504DBD6
:101BA0000A98804501DC012000E000200690129D8B
:101BB0006FE078E0099800EB450104FB0BF001EBC6
:101BC0004000019005EB060922462946089800F0DE
:101BD0002FFB03900F98854205DB554503DC0798E2
:101BE00008B1012000E0002005900F98814505DB39
:101BF000D14503DC069808B1012000E000200490E4
:101C0000039898B1059828B1E21BA91B089800F029
:101C10000FFB58B9019B1A882D4BB3F902301919E3
:101C20002B4BB3F90030581906F0D2FC049840B1A0
:101C3000099800EB490108FB0BF031F81000029005
:101C40000DE0234AB2F9022002EB0801204AB2F962
:101C5000002002EB090005F0FDFE80B20290DDE9F4
:101C600001100880039890B1039805F0B9FF80B285
:101C70000090174AB2F9022002EB0801144AB2F9A7
:101C8000002002EB0900009A06F0A2FC00BF1198A8
:101C90000544109885428DD10D9804440C988442D7
:101CA0007FF46EAF00BF0649139808600549149889
:101CB000086004F0F3FB15B0BDE8F08F7C00002055
:101CC0009400002098000020870000208800002059
:101CD0007E00002010B50021084600F067FB40F6AA
:101CE000FF731A465942084600F002F810BD000082
:101CF0002DE9FC4104460D4616461F46042002F01D
:101D000085FA80461548006C04441448406C05442C
:101D10001248006C06441148406C074420B2ADF8EC
:101D2000000030B2ADF8040028B2ADF8020038B2BD
:101D3000ADF80600684603F019FF50B100BF3B46FE
:101D400032462946204601F0DBFF03F0A1FE0028C1
:101D5000F5D1404602F05AFABDE8FC81F04F002070
:101D600070B50446B4F90630B4F90420B4F9021091
:101D7000B4F90000FFF7BCFF70BD2DE9FC5F04461D
:101D80000D4616461F46DDE90C8900964B46424635
:101D900039462046D4F800C0E0478246504603F05A
:101DA000DBF90190618A504602F017FF504603F0BC
:101DB000ABFD019803F0A8FD0EE018340020009060
:101DC00003460246D4F800C020460199E047834606
:101DD000584603F099FD00BF681E051EEDDC504615
:101DE00003F07CFD1E21019803F0A2FC5046BDE8E3
:101DF000FC9F2DE9F04104460E46174654B120469B
:101E0000FFF73AFE054628683A46314603682846F9
:101E1000984700BFBDE8F0812DE9FC4704460CB9A6
:101E2000BDE8FC8700F080FA07464B48B0F92280F5
:101E300000F092FA06464848808C801B00B2464962
:101E4000888477E047F6FF71204601F005FB824663
:101E50005146204601F0DEFA05463F4890F82C0036
:101E600000F00300012807D0022807D1284605EB1F
:101E7000D0714FEA610904E0A94602E04FF0000981
:101E800000BF00BF3448408CA0EB090000B23249CB
:101E90004884ADF80000BDF800002844401E00B2A0
:101EA000ADF804000846808CADF80200BDF80200D1
:101EB0003844401E00B2ADF806006A46514620463E
:101EC00001F074F9BDF80200234988845146204688
:101ED00000F0B8FF044420780A2802D020780D28AA
:101EE0001ED11D4890F82C0000F00300012802D0FC
:101EF000022805D100BF0FFA88F01749488404E092
:101F00001548008C1449488400BF00BF20780A2877
:101F10000CD11148808C384400B20F49888405E008
:101F2000BDF80000284400B20B494884207800B96D
:101F300003E0641C2078002884D100BF0648808C10
:101F4000304400B2044988840846B0F92C0020F0DF
:101F50000300888500BF63E7F04F002070B5064698
:101F60000C46154620B20449488428B2888430467D
:101F7000FFF752FF70BD0000F04F002070B504461F
:101F80000D46164647F6FF7332462946204600F0B6
:101F900001F870BD2DE9FC4106460C4617469846EF
:101FA000C6B1002564B1204603F0A2FC05463DB150
:101FB0002A462146684601F09EFA684603F098FCDE
:101FC00043463A462146304601F05AF9284603F086
:101FD0008FFC00BFBDE8FC817CB504460D4616466B
:101FE0001348006C05441248406C064428B2ADF812
:101FF000000021880844401E00B2ADF8040030B251
:10200000ADF8020061880844401E00B2ADF8060039
:10201000684603F0ABFD48B100BF32462946204672
:10202000FFF718FA03F034FD0028F6D17CBD00005C
:10203000F04F00207CB504460D462A4621466846EE
:1020400001F09DFABDF800001749B1F840100844AE
:1020500000B2ADF80000BDF802001349B1F8441019
:10206000084400B2ADF80200BDF804000E49B1F812
:102070004010084400B2ADF80400BDF806000A495B
:10208000B1F84410084400B2ADF80600684603F009
:102090006DFD38B100BF684605F044F803F0F8FC68
:1020A0000028F8D17CBD0000F04F00207CB504462C
:1020B0000D4616461248006C05441148406C044415
:1020C0000F48006C064428B2ADF8000030B2ADF8FD
:1020D000040020B2ADF80200ADF80600684603F037
:1020E00045FD58B100BF0648806D32462146036861
:1020F0002846984703F0CCFC0028F4D17CBD0000B2
:10210000F04F00202DE9FC4105460E461746984643
:102110001848007D441E1748006C05441548406C63
:1021200006441448006C07441248406C8044281B45
:1021300000B2ADF80000381900B2ADF80400301B51
:1021400000B2ADF8020008EB040000B2ADF80600E2
:10215000684603F00BFD50B100BF43463A46314696
:10216000284605F03FF803F093FC0028F5D1BDE8C0
:10217000FC810000F04F00207CB504460D46164659
:102180001148006C04441048406C05440E48406CF3
:10219000064420B2ADF80000ADF8040028B2ADF856
:1021A000020030B2ADF80600684603F0DFFC48B12B
:1021B00000BF32462946204601F074FD03F068FC5A
:1021C0000028F6D17CBD0000F04F00202DE9FC4135
:1021D00004460D4616461F461448006C0444134836
:1021E000406C05441148006C06441048406C07449C
:1021F00020B2ADF8000030B2ADF8040028B2ADF85E
:10220000020038B2ADF80600684603F0AFFC50B1EA
:1022100000BF3B4632462946204601F071FD03F0DF
:1022200037FC0028F5D1BDE8FC810000F04F00200C
:1022300070B503460C46DD88042D29D004DC012D41
:1022400007D0022D45D113E0082D30D0102D40D1FC
:1022500033E09D88554305EBD4019D68685C04F02C
:102260000705C5F1070520FA05F505F0010032E084
:102270009D88554305EB94019D68685C062505EA39
:102280004405C5F1060520FA05F505F0030022E036
:102290009D88554305EB54019D68685C04F0010579
:1022A00015B100F00F0500E00509284613E09D88F0
:1022B00002FB05419D68685C0DE09D88554305EB78
:1022C00044019D686D5C9E680E44767845EA062060
:1022D00001E0002000BF00BF70BD70B501F04AFDF5
:1022E000054601F089FD0446204670BD70B50446E0
:1022F000034880694168204688470546284670BDE6
:10230000F04F002010B5044604B910BD204602F07D
:10231000FFFE00BFF9E770B501F032FD054601F0A0
:102320006BFD0446204670BD01498969487D7047B0
:10233000F04F002010B501F061F80446204610BDB2
:1023400070B50446204601F0CDF9054629462046E1
:1023500001F060F870BD00000020104991F82C10C9
:1023600001F00C01042904D008290ED00C2913D146
:1023700004E00A498969097D481E0DE0074A92690F
:10238000117D01EBD172501006E0044A9269117D73
:1023900001EBD172501000BF00BF7047F04F00201A
:1023A0000146087DCA7D10FB02F0704770B50646F5
:1023B0000C46304605F088FB0546204605F08CFBB0
:1023C0000543284670BD000010B52E200649087050
:1023D00000F089FE054805F087FB01F033FD044657
:1023E00002F0F2FF204610BD60000020F04F0020F8
:1023F0002DE9F041044634B90C48B0F94C00041EF4
:1024000001D1BDE8F0812046FFF736FB0746B7F95A
:10241000185045B12846FFF72FFB0646B068816883
:102420003046884700BF00BFEBE70000F04F0020B8
:1024300010B50446024A1146204600F003F810BDCC
:1024400001F0FFFF2DE9FC4106460D461746AEB3ED
:102450001B48B0F94C803046FFF70EFB044600F0F5
:102460009DFB1848854203D1B4F90050B4F90270BD
:1024700028B2ADF80000A1880844401E00B2ADF8B3
:10248000040038B2ADF80200E1880844401E00B2F2
:10249000ADF8060002F0C6FC684603F067FB48B1E1
:1024A00000BF3A462946304600F028FA03F0F0FA19
:1024B0000028F6D1404600F007F900BFBDE8FC81D6
:1024C000F04F002001F0FFFF2DE9FF4F85B081465E
:1024D0008A461648D0F800B01548B0F84C0048B904
:1024E0001348806C04681248806C45681048806C02
:1024F000866809E00E49B1F94C00FFF7BDFA0746BE
:10250000FC693D6A7E6A00BFDBF8380001A971C131
:102510001298009051464846DDE9072300F03CF947
:102520008046404609B0BDE8F08F0000AC000020B6
:10253000F04F002070B50546A5B10B48B0F94C002E
:10254000A84201D100F02AFB2846FFF795FA04467D
:10255000208B18B1B4F9180000F0B6FD2846FFF73B
:102560002AFA00BF70BD0000F04F00202DE9FF4F98
:1025700085B004468B461F466CB3B4F900000028B2
:1025800001DA002001E0B4F900008046B4F902004D
:10259000002801DA002001E0B4F90200814601F0D0
:1025A000FBFB461EB4F90400314605F031FB0490F4
:1025B00001F0F5FB461EB4F90600314605F028FB94
:1025C00003900498A0EB080000F1010A0398A0EB27
:1025D0000900451C08E04FF00008C14601F0DCFB93
:1025E000824601F0DCFB054607B96F42BAF1000FE5
:1025F00001DD002D03DC002009B0BDE8F08F12984A
:102600003B465246494600904046FFF75DFF029028
:10261000029818B90798D8470120EDE7029800F012
:1026200029F80746029800F04FF8002618E0A81B8A
:1026300001900198B84203DADDE9011000F02CF8AE
:1026400046B109EB06024146029800F065F802988F
:10265000FFF7CEFE0798D8470298FFF7E9FE3E4401
:10266000AE42E4DB0298FFF765FF002000F02CF893
:102670000020C1E770B50446002614B90548B0F93A
:102680004C402CB12046FFF7F7F90546B5F9066036
:10269000304670BDF04F002070B504460D4614B9A9
:1026A0000848B0F94C4004B970BD2046FFF7E4F982
:1026B0000646B6F90600A84201DD28B2F08000BF48
:1026C000F2E70000F04F002070B504461148B0F961
:1026D0004C5014B900F062FA19E02046FFF7CCF92B
:1026E000064602F077FC0B48B0F84C0030B90948B8
:1026F0004E3008494A680260896841600548A0F880
:102700004C400449B06A886401F058FD00BF284677
:1027100070BD0000F04F00202DE9F04180460E46CC
:102720001746B8F1000F07D11348B0F94C00B0F1CB
:10273000000801D1BDE8F0814046FFF79DF904464D
:1027400038B2608030B2208001F038FD208B88B133
:10275000B4F91800FFF790F90546B4F90400A88011
:1027600038B1B4F90600E88018B130B2288038B228
:10277000688000BF00BFDDE7F04F002070B5044661
:102780000449B1F94C00FFF777F905462046E9699D
:10279000884770BDF04F00202DE9FF4F83B0904671
:1027A0001D46DDF840904FF0000A1198C06B029072
:1027B000029908FB01F0C01D4FEAD00BFFF70EF99C
:1027C000064609F0010030B93046F11706EB917169
:1027D000891001EB4106002D0BDCA6F12C01B1FBA9
:1027E000FBF06942884201DD694200E001460D4686
:1027F00000BF09F0010040B900202B46424600907E
:10280000DDE9030100F0C0FB8246002D03DC00205F
:1028100007B0BDE8F08F05FB0BF000F12C0609F0C6
:10282000010020B130B2FFF7AAF8074603E030B24A
:10283000FFF7B0F8074617B33846FFF71DF904460F
:10284000039800B22080049800B260800FFA88F0EC
:10285000A08028B2E08001F09CFAA060C4F80CB01F
:10286000A4F818A01298E06113982062149860628E
:102870001198A062029820610020606105E0BAF121
:10288000000F02D05046FFF796F83846C0E7000028
:1028900010B50449B1F94C00FFF7EEF80446606A40
:1028A000804710BDF04F002070B505460B49B1F9C7
:1028B0004C00FFF7E1F80446208828806088688093
:1028C0002088A1880844401E00B2A8806088E18862
:1028D0000844401E00B2E88070BD0000F04F0020A8
:1028E00070B504460449B1F94C00FFF7C5F8054638
:1028F0002046296A884770BDF04F00202DE9F74F28
:102900008CB092460C98FFF7B7F80546B5F9180059
:102910000B90B5F906000A90EF68D5F810B04FEAB1
:10292000DB00099005F12C080B9800285FD00B986C
:10293000FFF7A2F80646002455E000200890B06892
:10294000224608A94369304698478146B5F90400F4
:10295000484523D1079400E0641CB068621C08A9B4
:102960004369304698474845F6D00020CDE902B784
:10297000CDE904800120009001900798201A431CA3
:10298000B5F9042007980AEB00010D9801F00CF846
:102990000798201A401C00FB078823E01EE0002156
:1029A000DDE9082002FB0080CDE902B7CDE9040192
:1029B000012000900AEB04010190089B0D9AD018A9
:1029C00001234A4600F0F0FF089848440890B06898
:1029D000224608A94369304698478146B9F1000F5D
:1029E000DDD1B844641C0A988442A6DB0EE00020C6
:1029F000CDE902B7CDE90480012000900190B5F93E
:102A0000042051460A9B0D9800F0CEFF0FB0BDE8A0
:102A1000F08F10B570B371B36AB3B1F90030B2F989
:102A20000040A34202DDB2F9003001E0B1F900300C
:102A30000380B1F90230B2F90240A34202DDB2F9DB
:102A4000023001E0B1F902304380B1F90430B2F94B
:102A50000440A34202DDB1F9043001E0B2F90430D0
:102A60008380B1F90630B2F90640A34204DDB1F922
:102A7000063003E00CE003E0B2F90630C38010BD7D
:102A800009B10B4600E013461C6804605B684360B4
:102A900000BFF4E778B103880B441BB2038083883E
:102AA0000B441BB28380438813441BB24380C3880A
:102AB00013441BB2C38070470146054B0DCB81E820
:102AC0000D00087A08B1012070470020FCE70000E3
:102AD0008801002010B5044605F08EF90C2221462D
:102AE0000448FDF7EAFB18B1024894E80E000EC056
:102AF00010BD00008801002070B500240C4800685B
:102B000098B10B480068401E0949086009480568EB
:102B10004168284602F038FD06484068012802D185
:102B2000284600F083F8012400BF204670BD000055
:102B30000C000020100000200246B2F90200B1F99A
:102B40000630984213DCB1F90200B2F9063098421F
:102B50000DDCB2F90000B1F90430984207DCB1F99C
:102B60000000B2F90430984201DC012070470020D7
:102B7000FCE7000010B50446602221460148FDF73D
:102B800073FC10BDF04F002010B5044660220249CE
:102B90002046FDF769FC10BDF04F002010B501F094
:102BA000CDFA01F049FB02F03DF910BD10B5044625
:102BB000204601F0D5FA10BD10B50446204601F0BC
:102BC00007FB10BD70B50446204601F01FFB05460B
:102BD000284670BD0146024A906901B19161704773
:102BE000F04F00200146024A907D91757047000029
:102BF000F04F00200146024A107D11757047000019
:102C0000F04F00200146034AB2F92C000AB2014BF2
:102C10009A857047F04F00200146034AB2F92A0016
:102C20000AB2014B5A857047F04F002002490968EB
:102C300009B90149086070471800002070B537488D
:102C4000006836494968884208DA344800683449DF
:102C50000860324840683349086007E02F48006840
:102C6000304908602D4840682D4908602B4881682C
:102C7000C068814208DA294880682B4908602748E3
:102C8000C0682A49086007E024488068274908602E
:102C90002248C068244908602548007858B900F0E7
:102CA000B0F82449086000F09CF821480078401CE6
:102CB0001F4908702FE000F095F81F49086000F0E8
:102CC0008FF81D4805681B48046815480068854250
:102CD0000BDB14480068854207DC13480068844217
:102CE00003DB12480068844205DD4FF0FF310846DF
:102CF00005F0C0FC0BE0284603F0A0FA054620468C
:102D000003F0AEFA04462146284605F0B3FC002045
:102D10000749087000BF00BF70BD000028000020F8
:102D2000380000203C00002040000020440000202B
:102D300050000020240000202000002070B505462F
:102D40000C46002D08DB002C06DB0120064908722A
:102D500008460560446002E000200349087202480A
:102D600000F004F870BD0000A001002010B504467A
:102D70000C2206492046FDF7A0FA30B1034894E83A
:102D80000E000EC02046FFF7A5FE10BD94010020E6
:102D90002DE9F04104460D460F490968601A0028E4
:102DA00001DB014600E041420E460C490968681A01
:102DB000002801DB014600E041420F46F0190228DD
:102DC00007DD054804600548056029462046FFF7F1
:102DD000B5FFBDE8F081000054000020580000203D
:102DE000704770471CB5694601A801F0C1FD28B1C4
:102DF000BDF8040040F23F11081A1CBD4FF0FF302F
:102E0000FBE71CB5694601A801F0B2FD10B1BDF8A1
:102E100000001CBD4FF0FF30FBE7000070B504461A
:102E200025680748C069016828468847064604485F
:102E3000C06941682846884705442560304670BD12
:102E4000F04F00202DE9F04105460E46002707E02F
:102E50000748C069416828468847044625442744F6
:102E6000301EA6F10106F3D13846BDE8F08100001E
:102E7000F04F00202DE9F04104460E4615461F464E
:102E8000DDF8188000BF2A466D1CA0683B4631461D
:102E9000D0F804C02046E047A8F10100B0F10008D6
:102EA000F1D1BDE8F0812DE9FF4F81B005460E4616
:102EB00091462F46B7F90000361A07F11404B7F906
:102EC0000200A9EB0000396900FB014404EBE604B1
:102ED00004983044401E00900098C010A0EBE60813
:102EE00006F00701FF2040FA01FA009800F0070001
:102EF000C0F10701FF20884000F0FF0BB8F1000F80
:102F000005D120780AEA0B010843207013E02078ED
:102F100040EA0A0004F8010BA8F10100B0F1000832
:102F200005DDFF2241462046FDF7D0FA44442078D3
:102F300040EA0B00207005B0BDE8F08FF0B51446F4
:102F40000346B3F90050491B03F11402B3F90250D0
:102F5000651B1E6905FB062202EBE102157801F0F4
:102F6000070780263E4135431570F0BD70B5044615
:102F70002546B5F906002A6900FB02F105F11400A7
:102F8000FDF7CEFA70BD00002DE9F84F07468846E0
:102F900015461E46DDF828B000BF05F10F000011F0
:102FA0004FEA400906FB09F014300090009800B287
:102FB000FEF7F0FC8246BAF1000F02D10020BDE816
:102FC000F88F5046FEF758FD044638B220800FFABD
:102FD00088F0608028B2A08030B2E0800348A06012
:102FE0000120A081C4F810905046E8E7FCB000082A
:102FF0002DE9F04705460F46944639682E46B6F946
:10300000049006F11402B6F90600604502DC0020C7
:10301000BDE8F08730690CFB002202EBE102494574
:1030200001DB0020F4E7A9F10100C010A0EBE108EA
:1030300012F8010B01F0070A00FA0AF0C3B20CE023
:10304000B8F1000F01D10020E2E712F8013BA8F12E
:10305000010801F1080020F00701002BF0D002E088
:103060005806030E491C03F080000028F8D0FF2BFF
:1030700009D00C4602E05806030E641C03F0400021
:103080000028F8D100E0CC1D04F00700072817D174
:1030900010E012F801AB5346BAF1FF0F01D108342A
:1030A00008E002E05806030E641C03F080000028CC
:1030B000F8D104E0A8F10100B0F10008E9DA00BF9E
:1030C0003960601A401CA3E770B505462846FEF734
:1030D000D3FC0446A089401E00B2A08110B9284646
:1030E000FEF769FC70BD70472DE9F05F83460C4622
:1030F00015469946BBF1000F52D05846FFF720F90C
:10310000824609F0030001280ED0022812D1B4F93A
:103110000410B4F90020891A491CA1EB0A0000EB45
:10312000D07102EB610608E0B4F90400A0EB0A00DC
:10313000461C02E0B4F9006000BF00BFFFF7F4F8DE
:10314000804609F00C00042810D0082815D00C285F
:1031500012D1B4F90610B4F90220891A491CA1EB66
:10316000080000EBD07102EB610709E0B4F906003A
:10317000A0EB0800471C03E000BFB4F9027000BFD9
:1031800000BF30B2288038B2688006EB0A00401ECB
:1031900000B2A88007EB0800401E00B2E88003E000
:1031A0002068286060686860BDE8F09F7CB50546CF
:1031B0000E4614463048006878B1002002F0D6FC74
:1031C000002858D000BF6A463146284603F022FA4C
:1031D00002F05EFC0028F6D14DE0206800906068A7
:1031E0000190BDF800002549B1F84010084400B234
:1031F000ADF80000BDF802002049B1F844100844C1
:1032000000B2ADF80200BDF804001C49B1F840104E
:10321000084400B2ADF80400BDF806001749B1F843
:103220004410084400B2ADF80600684602F09EFC67
:1032300080B100BFBDF8000010494884BDF802000D
:1032400088846A463146284603F0E4F902F020FCFF
:103250000028EFD10948408C0849B1F84010401AC5
:1032600000B2064948840846808CB1F84410401AE0
:1032700000B2024988847CBD70000020F04F00201D
:103280002DE9FF4F87B00F46154698464FF00009CD
:103290000798029000200190FFF74CF8824627B172
:1032A000386805907868069002E005A8FFF72AF8CC
:1032B00005F00C0010B9BDF916903AE044464FF005
:1032C000010B13E02146079800F0C6F80646A41B40
:1032D00031460798FFF7B6FD07990844079007A8FD
:1032E00000F0DCF800B103E00BF1010B002CE9D198
:1032F00000BF05F00C00042805D0082802D00C28D7
:1033000015D107E000BFBDF91A000BFB1A0000F150
:1033100001090CE0BDF91A10BDF91620891A491CE3
:103320000BFB1A1000EBD07102EB610900BF00BF6C
:1033300000BF44460298079057E02146079800F0E6
:103340008BF80646A41B3146079800F063F88346C5
:1033500005F0030080B1012812D0022817D1BDF971
:103360001810BDF91420891AA1EB0B0000EBD071E5
:1033700002EB610101910AE0BDF91400019006E041
:10338000BDF91800A0EB0B00401C019000BF00BF6E
:10339000019800B218494884ADF80C00BDF80C0043
:1033A0005844401E00B2ADF810000FFA89F088842E
:1033B000ADF80E0009EB0A00401E00B2ADF8120095
:1033C00003AA31460798FFF7F1FE31460798FFF749
:1033D00039FD079908440790FEF7A6FF814407A826
:1033E00000F05CF800B102E000BF002CA5D100BFE6
:1033F0000BB0BDE8F08F0000F04F0020044880695A
:10340000007D03498969C97D10FB01F07047000008
:10341000F04F002073B50C4600250098C0B10D4850
:103420008069006938B10B488069006921460268EB
:10343000009890477CBD07E06846FFF7EFFC064622
:103440003046FEF753FF0544601E041EF4DA00BF49
:103450002846EFE7F04F002073B50D460024009892
:10346000C0B10D488069006938B10B4880690069B6
:1034700029464268009890477CBD08E06846FFF7FF
:10348000CDFC06460EB10A2E00D102E0641CAC420F
:10349000F4DB00BF2046EFE7F04F002001460A684A
:1034A00012F8013B0BB9012070470A2B00D10A60CA
:1034B0000020F9E7B0F90020B1F900309A4201DAB2
:1034C0000A880280B0F90220B1F902309A4201DA8A
:1034D0004A884280B0F90420B1F904309A4201DDF3
:1034E0008A888280B0F90620B1F906309A4201DD5F
:1034F000CA88C280704710B50346B1F90000B2F91E
:103500000040A04202DDB1F9000001E0B2F9000084
:103510001880B1F90200B2F90240A04202DDB1F90F
:10352000020001E0B2F902005880B1F90400B2F9DA
:103530000440A04202DDB2F9040001E0B1F9040048
:103540009880B1F90600B2F90640A04202DDB2F956
:10355000060001E0B1F90600D880B3F90400B3F920
:103560000040A04201DA002010BDB3F90600B3F913
:103570000240A04201DA0020F6E70120F4E70B88C0
:1035800013441BB203808B889B1A1BB283804B8829
:1035900013441BB24380CB889B1A1BB2C380704775
:1035A0002DE9F04104460E460027B4F900003146EB
:1035B00000F08AF8C8B1304600F094F8401C0FFAC9
:1035C00080F84046FEF7DBF905466DB12846FEF768
:1035D00053FA804631464046FCF79BFE2046FEF7F4
:1035E000F3F92580012700BF00BF3846BDE8F08110
:1035F00070B503460D4602E003F8015B521E1AB196
:1036000003F003000028F7D19108A9B102F00302EA
:1036100005EB054606EB0624184604E010C010C072
:1036200010C010C0091F0429F8DA01E010C0491EBB
:103630000029FBD1034600BF02E003F8015B521EE4
:10364000002AFAD170BD70B503460C46154603F04A
:10365000020010B123F8024B6D1E6908A9B104EBFA
:1036600004421846042909DB00BF02604260826000
:10367000C26010300E1F3146042EF6DA01E004C09D
:10368000491E0029FBD1034600BF05F0010000B12F
:103690001C8070BD024602B90AA201B909A100BF8F
:1036A00010780B78984201D001207047491C501CBB
:1036B000024600780028F3D1087808B10120F4E729
:1036C0000020F2E70000000070B504460D46002619
:1036D0001CB12046FEF7D0F9064629463046FFF7D2
:1036E000D9FF70BD01464FF0FF3029B100BF401C2B
:1036F00011F8013B002BFAD17047000030B50446A9
:103700006148007801285FD160480088844259DD13
:103710005F480088844255DA5E480088814251DD66
:103720005D48008881424DDA5C48007801280FD15D
:1037300057480088554D2D88401B4FF4A07590FBCD
:10374000F5F0524D2D88651B95FBF0F0108012E0CE
:103750004F4800884D4D2D88401B4FF4A07590FBBD
:10376000F5F04A4D2D88651B95FBF0F01080108810
:10377000C0F5A07010804A48007801280ED1464854
:103780000088444D2D88401BF02590FBF5F0414DFD
:103790002D884D1B95FBF0F0188011E03E48008805
:1037A0003C4D2D88401BF02590FBF5F0394D2D88C0
:1037B0004D1B95FBF0F018801888C0F1F0001880C0
:1037C000012030BD0020FCE730480088814259DDEF
:1037D0002F480088814255DA2E480088844251DD06
:1037E0002D48008884424DDA2C48007801280FD1FA
:1037F00027480088254D2D88401B4FF4A07590FB6D
:10380000F5F0224D2D884D1B95FBF0F0108012E055
:103810001F4800881D4D2D88401B4FF4A07590FB5C
:10382000F5F01A4D2D884D1B95FBF0F01080108897
:10383000C0F5A07010801A48007801280ED11648F3
:103840000088144D2D88401BF02590FBF5F0114D9C
:103850002D88651B95FBF0F0188011E00E4800885C
:103860000C4D2D88401BF02590FBF5F0094D2D885F
:10387000651B95FBF0F018801888C0F1F0001880E7
:1038800001209EE700209CE7780100207C010020B9
:103890007A010020820100208001002079010020AF
:1038A0007F01002000BFFEE710B504460248806C8F
:1038B00001682046884710BDF04F002010B5014632
:1038C000C1F3C402C1F38523C1F3C44404EB431024
:1038D00000EBC22010BD07E041F2883100BF0A1E94
:1038E000A1F1010399B2FAD1021EA0F10103D8B2ED
:1038F000F2D1704770B505460E46144623460122A4
:103900003146284600F028F870BD2DE9F0470446FE
:103910000D4616461F46DDF820A03B463246294696
:10392000204600F0A7FB4FF0000810E04FF0000920
:1039300006E0504600F092FC09F101001FFA80F900
:10394000781B4845F5DA08F101001FFA80F8301BB2
:103950004045EBDABDE8F0872DE9F04705460E4615
:1039600014461F463019401E83B22819401E82B2E9
:103970003146284600F07EFB4FF000080FE04FF084
:10398000000906E0384600F069FC09F101001FFA61
:1039900080F9A145F6DB08F101001FFA80F8A04587
:1039A000EDDBBDE8F08700002DE9FF4F8BB0054649
:1039B00090461F46DDF860A0DDF868901C9E002050
:1039C0000A908648006898B11B991D98CDE902912C
:1039D000CDE904601998CDE900A0804800683B4615
:1039E0004246046828460C99A0470FB0BDE8F08F06
:1039F0000C983844401E089005EB0800401E0990C2
:103A000019984AEA000001287BD17548B0F90610E0
:103A10000C980C1A002C0ADD3F1B002F00DCE4E799
:103A20006F48B0F906000C901B9804FB00666C48C8
:103A3000B0F90A100898441A002C03DD3F1B002F30
:103A400000DCD2E76648B0F908100998441A002C47
:103A500001DDA8EB040800246148B0F90400A84285
:103A600039DD5F48B0F90400441BA8EB0408B9F144
:103A7000040F1ED006DCB9F1010F0AD0B9F1020F14
:103A800028D10EE0B9F1080F1BD0B9F1100F21D1E8
:103A90001BE006EBE406E01005EBC00504F00704AC
:103AA00018E006EBA406A01005EB800504F0030463
:103AB00010E006EB6406601005EB400504F001041D
:103AC00008E026442544002404E006EB440625448F
:103AD000002400BF00BFB8F1000F00DC85E71B9990
:103AE0001D98CDE90091CDE9026404903C48806CBA
:103AF0003B464246D0F80CC028460C99E0476AE0A5
:103B0000FFE7C9F1080005900C9C002006905EE0DC
:103B100019982044401E04903148B0F906100498CA
:103B200081424DDC2E48B0F90A00A04248DB00205B
:103B300003900196079502903EE0039838B90198EA
:103B400000780A900198401C019008200390059984
:103B50000A9840FA01FB0A9800FA09F0C0B20A90EC
:103B60000398A0EB09000390BBF1000F04D11C489F
:103B7000007B00F00200C8B91948408800901D98E9
:103B800028B11D9830F81B001549488002E0144800
:103B9000A0F802B007985044421E2146049B0798A3
:103BA00000F0AEF80E490098488000BF0298401C13
:103BB000029007985044079002984045BDDB00BF33
:103BC0000698401C0690199804441B9806440698D1
:103BD000B8429DDB00BF00BF07E700007000002077
:103BE000F04F002070B504460D4616461348B0F954
:103BF0000600A84200DD70BD1048B0F90A00A842D6
:103C000000DAF8E70D48B0F90400A04202DD0B48E5
:103C1000B0F904400948B0F90800B04202DA074898
:103C2000B0F90860A64200DAE5E70448806C324645
:103C3000294603692046984700BFDCE7F04F002083
:103C400070B504460D461648B0F90600A84200DDDE
:103C500070BD1348B0F90A00A84200DAF8E710482E
:103C6000B0F90400A04200DDF2E70D48B0F9080009
:103C7000A04200DAECE70A48007B00F0010030B116
:103C80000748806C2946826A2046904706E004482F
:103C90004288806C2946436A2046984700BFD7E790
:103CA000F04F002070B504460D4616461348B0F993
:103CB0000400A04200DD70BD1048B0F90800A04229
:103CC00000DAF8E70D48B0F90600A84202DD0B481B
:103CD000B0F906500948B0F90A00B04202DA0748C4
:103CE000B0F90A60AE4200DAE5E70448806C32467B
:103CF000294643692046984700BFDCE7F04F002083
:103D00002DE9F04104460D4616461F461848B0F905
:103D10000400A04202DD1648B0F904401448B0F98E
:103D20000800B04202DA1248B0F90860A64201DA8F
:103D3000BDE8F0810E48B0F90600A84202DD0C484B
:103D4000B0F906500A48B0F90A00B84202DA084849
:103D5000B0F90A70AF4200DAEAE70548806C3B46EA
:103D600032462946D0F818C02046E04700BFDFE7BA
:103D7000F04F00200148008870470000F04F0020FD
:103D80000148408870470000F04F00204FF6FF7058
:103D900070474FF4803070474FF4A0707047F020A8
:103DA000704710B50446204600F002F810BD000030
:103DB0002DE9F041044614B90020BDE8F081A06867
:103DC00008B90020F9E72068B0F5807F01DD002008
:103DD000F3E72668A768002507E057F82500FFF7F6
:103DE00063FD044921F815006D1CB542F5DB01485F
:103DF000E3E700005050002010B504460248806CF4
:103E000041682046884710BDF04F002030B501467C
:103E100001F01F03C1F34512C1F3C424C4EB042015
:103E20001F25B0FBF5F4C2EB02203F25B0FBF5F2F5
:103E3000C3EB03201F25B0FBF5F304EB022000EBDE
:103E4000034030BD10B5002400F0B8F900F0ECF8E4
:103E5000044300F011F8042000F0D8F940F6FF7395
:103E60001A4600210846FFF74BFF002000F0CEF96C
:103E700000F0DFF8204610BD704770B504462046BC
:103E8000FFF71CFD0546284670BD2DE9FC5F824604
:103E90000D4616469846DDF830B0DDF83890109F94
:103EA000002440E0BBF1040F20D006DCBBF1010F81
:103EB0000AD0BBF1020F32D10FE0BBF1080F1ED0C8
:103EC000BBF1100F2BD122E06119CDE900674A4602
:103ED00050460F9B02F0A8FC21E06119CDE9006774
:103EE0004A4650460F9B02F089FD18E06119CDE962
:103EF00000674A4650460F9B02F0F6FE0FE061193C
:103F000033464A465046009702F0DCFF07E061194D
:103F100033464A4650460097FCF7F4FD00BF00BF09
:103F20000D988144641C4445BCDBBDE8FC9F000047
:103F300070B504460E4615460C48007B00F00100A3
:103F400040B104E03146204600F084F8641CAC42E5
:103F5000F8DD09E006E0054842883146204600F0D9
:103F60006CF8641CAC42F6DD70BD0000F04F002020
:103F700070B506460C4615460C48007B00F0010063
:103F800040B104E02146304600F064F8641CAC42C5
:103F9000F8DD09E006E0054842882146304600F099
:103FA0004CF8641CAC42F6DD70BD0000F04F002000
:103FB000F8B504460D4616461F460A484088BBB26F
:103FC00040F23F1CACEB040C1FFA8CF2A9B240F299
:103FD0003F1CACEB060C00901FFA8CF0FFF795FC31
:103FE000F8BD0000F04F002010B5FFF7CFFE10BD68
:103FF00070B504460D46A9B240F23F12121B90B2B2
:1040000000F065F80646304670BD00210180418011
:1040100040F23F118180EF21C180704710B5044606
:104020002046FFF7F3FE10BD10B500F023F9002085
:1040300010BD704700BF00BF704770B504460D4605
:104040001646B2B2A9B240F23F131B1B98B2FFF75B
:1040500051FC70BD70B504460D4629462046FFF759
:10406000C7FF86B2C6F58030421E29462046FFF7BC
:10407000E4FF70BD2DE9F04104460D4616461F468B
:104080002A2000F0F1F8281200F0E8F8E8B200F079
:10409000E5F8381200F0E2F8F8B200F0DFF82B2073
:1040A00000F0E2F8201200F0D9F8E0B200F0D6F803
:1040B000301200F0D3F8F0B200F0D0F82C2000F06D
:1040C000D3F8BDE8F08110B5FCF794FD10BD2DE9E3
:1040D000F04104460D462B46224629462046FFF76E
:1040E000C9FF2E2000F0C0F800F015F8064600F0D9
:1040F00012F8064600F00FF88046F7B24FF6FF7050
:1041000000EA0727F012C002B91240EA411040EA63
:10411000E820BDE8F08110B5FCF754FE10BD10B5E5
:104120000020FCF761FE9620FFF7D5FB0120FCF78D
:104130005BFE3220FFF7CFFB10BD000010B5064834
:104140000068064988640020A1F84C00081D086139
:1041500000F034F810BD0000AC000020F04F00204B
:1041600070B504460648406BA04207D0044844633B
:104170002046FFF799FB054600F004F870BD0000EB
:10418000F04F002010B50446002003F00FFC024958
:1041900021F8104010BD0000F04F00201CB504466F
:1041A0000548806C016A684688476A46214602488D
:1041B000001DFFF7A0F91CBDF04F002010B503480B
:1041C000806C016A0148001D884710BDF04F002037
:1041D00070B504460648006BA04207D0044804634B
:1041E0002046FFF761FB054600F004F870BD0000B3
:1041F000F04F002010B50446012003F0D7FB024920
:1042000021F8104010BD0000F04F002010B501460D
:10421000084A107B127B4A4002F004023AB1054B77
:104220001A885B88034C238023465A8000BF014BC9
:10423000197310BDF04F002010B50749086BFFF748
:1042400033FB0446FFF7D6FF0349486BFFF72CFB0F
:104250000446FFF797FF10BDF04F002010B504464D
:104260002046FCF7B5FD10BD10B504462046FCF70E
:10427000B5FD10BD10B5FFF726FFFFF750FFCF20AB
:10428000FFF7F2FF0020FFF7E9FFC120FFF7E6FF8D
:104290003020FFF7E3FFED20FFF7E6FF6420FFF794
:1042A000DDFF0320FFF7DAFF1220FFF7D7FF8120A1
:1042B000FFF7D4FFE820FFF7D7FF8520FFF7CEFFF9
:1042C0001020FFF7CBFF7A20FFF7C8FFCB20FFF7C6
:1042D000CBFF3920FFF7C2FF2C20FFF7BFFF0020E4
:1042E000FFF7BCFF3420FFF7B9FF0220FFF7B6FF4E
:1042F000F720FFF7B9FF2020FFF7B0FFEA20FFF714
:10430000B3FF0020FFF7AAFF0020FFF7A7FFC020A0
:10431000FFF7AAFF1B20FFF7A1FFC120FFF7A4FFB3
:104320000120FFF79BFFC520FFF79EFF3020FFF71E
:1043300095FF3020FFF792FFC720FFF795FFB720CA
:10434000FFF78CFF3620FFF78FFF4820FFF786FF2F
:104350003A20FFF789FF5520FFF780FFB120FFF7D4
:1043600083FF0020FFF77AFF1A20FFF777FFB620C0
:10437000FFF77AFF0A20FFF771FFA220FFF76EFF19
:10438000F220FFF771FF0020FFF768FF2620FFF7FC
:104390006BFF0120FFF762FFE020FFF765FF0F20B2
:1043A000FFF75CFF2A20FFF759FF2820FFF756FF91
:1043B0000820FFF753FF0E20FFF750FF0820FFF7FC
:1043C0004DFF5420FFF74AFFA920FFF747FF432086
:1043D000FFF744FF0A20FFF741FF0F20FFF73EFFE2
:1043E0000020FFF73BFF0020FFF738FF0020FFF71A
:1043F00035FF0020FFF732FFE120FFF735FF0020F7
:10440000FFF72CFF1520FFF729FF1720FFF726FFE6
:104410000720FFF723FF1120FFF720FF0620FFF7FB
:104420001DFF2B20FFF71AFF5620FFF717FF3C2038
:10443000FFF714FF0520FFF711FF1020FFF70EFF15
:104440000F20FFF70BFF3F20FFF708FF3F20FFF78C
:1044500005FF0F20FFF702FF2B20FFF705FF0020CD
:10446000FFF7FCFE0020FFF7F9FE0120FFF7F6FE44
:104470003F20FFF7F3FE2A20FFF7F6FE0020FFF7AC
:10448000EDFE0020FFF7EAFE0020FFF7E7FEEF2039
:10449000FFF7E4FE1120FFF7E7FE7820FFF71BFA95
:1044A0002920FFF7E1FE3620FFF7DEFEC920FFF7E7
:1044B000D5FE10BD0120D8B902211C4A117001217E
:1044C0001B4A117040F65F711A4A11804FF4CB718C
:1044D000194A11800121194A11700221184A1170DC
:1044E00040F63771174A11809221174A11801BE05C
:1044F000012819D102210D4A117001210C4A1170B5
:1045000040F65B710B4A11804FF4B4710A4A118076
:1045100001210A4A11700A4A117040F64E71094A87
:1045200011809E21084A1180704700007801002008
:10453000790100207A0100207C0100207E0100200A
:104540007F010020800100208201002000BFFEE7E3
:104550007047704729B1064A12680243044B1A603B
:1045600004E0034A12688243014B1A60704700005E
:104570003038024029B1064A12680243044B1A60DF
:1045800004E0034A12688243014B1A60704700003E
:104590003838024029B1064A12680243044B1A60B7
:1045A00004E0034A12688243014B1A60704700001E
:1045B0004438024029B1064A12680243044B1A608B
:1045C00004E0034A12688243014B1A6070470000FE
:1045D000243802401448006840F001001249086085
:1045E00000201149083108600F4800680F49084051
:1045F0000D4908600E48091D08600E480A498431BB
:1046000008600B481038091D08600748006820F44E
:10461000802005490860002003490C3108600249E8
:104620008C3108607047000000380240FFFFF6EA56
:10463000103000240030002010B501460022002375
:1046400000204A11012A02D10A4C236808E0022AFC
:1046500003D1084C7034236802E0064C743423689C
:1046600001F01F02012494401C400CB1012000E025
:10467000002010BD003802400248006800F00C0025
:10468000704700000838024001460020034A1068C5
:1046900020F0F00008431060704700000838024026
:1046A0000021024A1170114608707047023802401A
:1046B00001490860704700000000474201460020A1
:1046C000034A106820F4E05008431060704700006F
:1046D0000838024001460020034A106820F4604078
:1046E00040EAC1001060704708380240014908667E
:1046F000704700000000474270B5049C41EA8215F3
:104700000126C6EB530645EA0645054345EA04651E
:10471000014E356070BD00000438024001460020A3
:10472000034A106820F0030008431060704700003F
:104730000838024038B5002000900024002500BF52
:104740003120FFF779FF05460098401C0090009843
:10475000B0F5A04F01D0002DF2D03120FFF76CFF53
:1047600008B1012400E00024204638BD7047000055
:104770000CB50020019000903448006840F480306F
:104780003249086000BF3148006800F400300090F2
:104790000198401C0190009818B90198B0F5A04FFD
:1047A000F1D12A48006800F4003010B101200090D7
:1047B00001E0002000900098012846D123484030B5
:1047C000006840F08050214940310860204800686E
:1047D00040F440401E4908601C48083000681B49EE
:1047E000083108600846006840F400400860084648
:1047F000006840F4A05008601648091F0860081FB0
:10480000006840F08070091F086000BF0F48006812
:1048100000F000700028F9D040F205700E490860E1
:104820000A480830006820F0030008490831086091
:104830000846006840F00200086000BF03480830E6
:10484000006800F00C000828F8D10CBD00380240C8
:104850000070004008544007003C0240042808D182
:104860004FF0E021096941F004014FF0E0221161AD
:1048700007E04FF0E021096921F004014FF0E02248
:104880001161704710B509480068401C074908606D
:1048900007480078401CC0B2054908700A2803D1B7
:1048A00000200870FEF7CAF910BD000008000020C3
:1048B0000000002030B51149481EB0F1807F00D3C0
:1048C0001BE0481E4FF0E022506150170F220028D5
:1048D00007DA13071D0E0A4B00F00F04241F1D55A5
:1048E00003E013071C0E074B1C5400BF00204FF0C1
:1048F000E02290610720106100BF30BD40900200AF
:1049000018ED00E000E400E010B51548006840F440
:104910007000134908601348006840F00100114915
:10492000086000200F49083108600E4800680E49F1
:1049300008400C4908600D48091D0860081F006800
:1049400020F48020091F0860002006490C3108600F
:10495000FFF70EFF4FF0006001498039086010BD7D
:1049600088ED00E000380240FFFFF6FE1030002422
:104970007CB504460D460C48007820B1FFF79AFD3F
:10498000002009490870694601A800F00FF82B467D
:104990002246BDF80010BDF80400FEF7AFFE08B1D6
:1049A00001207CBD0020FCE78401002070B5044696
:1049B0000D460020FCF742FA902000F044F8012058
:1049C000FCF7CAFA00BF00BF00BF0020FCF7C4FA22
:1049D00000BF00BF00BF00F017F82880D02000F013
:1049E00032F80120FCF7B8FA00BF00BF00BF00207A
:1049F000FCF7B2FA00BF00BF00BF00F005F820804E
:104A00000120FCF71BFA70BD70B50024002516E0EC
:104A10004FF6FF7000EA44040120FCF79DFA00BF46
:104A200000BF00BF0020FCF797FA00BF00BF00BF27
:104A3000FCF742FA08B1601C84B2681CC5B20C2DA8
:104A4000E6DB204670BD70B504460020FCF784FA12
:104A5000002519E004F0800018B10120FCF74EFA9F
:104A600002E00020FCF74AFA6006040E0020FCF782
:104A700073FA00BF00BF00BF0120FCF76DFA00BF52
:104A800000BF00BF681CC5B2082DE3DB70BD00BFCE
:104A9000FEE72DE9F04106460F4676B13046FCF7B9
:104AA000EBFF0546E88C20EA0704E88CA04203D01F
:104AB000EC84304600F01CFD00BFBDE8F0811CB561
:104AC000684600F025FB684603F07CFE1CBD000034
:104AD0000148006870470000200100202DE9F047E0
:104AE00081460C464846FCF7C7FF05462068162855
:104AF00045D008DC0D2832D0112821D0142863D0ED
:104B0000152867D117E01F283ED0202855D0B0F5D2
:104B1000407F5FD1286A4769A0682862286A406997
:104B20003F1A3946484603F0CBFD484600F0E0FC0A
:104B30000020BDE8F087B5F92400A0600020F8E768
:104B400095F8260000F0100040B1D4F8088098F8DD
:104B5000080010B1484600F06DFE00BF3AE0D4F8FE
:104B600008A0DAF80880B8F1000F07D098F808001C
:104B700020B1484600F080F90020DAE72AE02089D9
:104B800000B2A8840020D4E7A068012807D1E88CEF
:104B900040F00101484600F034F8082606E0E88CB1
:104BA00020F00101484600F02CF80926314648461D
:104BB00000F0DFFC0020A060BBE795F82600C0F302
:104BC0000010A0600020B4E72846A16800F0FCF8BF
:104BD0000020AEE700BF0120ABE770B506460C46EB
:104BE00076B13046FCF748FF0546E88C2040A042ED
:104BF00005D0E88C2043E884304600F079FC00BF03
:104C000070BD70B506460C463046FCF735FF0546CC
:104C1000E88CA04203D0EC84304600F069FC70BD03
:104C20007CB506460C46154696F8260000F00800AE
:104C300028B122466946304600F0DEF86C46294627
:104C40002046FDF7F7F97CBD7CB505460C461CB93E
:104C5000684600F05DFA6C4695F8260000F0080002
:104C600028B122466946284600F0C6F86C4621461F
:104C7000284602F033FB18B1286AC16820468847ED
:104C80007CBD00002DE9FC4106460C4617461D463A
:104C90004348006978B32068009060680190BDF8CF
:104CA00000003F49B1F84010084400B2ADF80000E0
:104CB000BDF802003A49B1F84410084400B2ADF81A
:104CC0000200BDF804003649B1F84010084400B2B3
:104CD000ADF80400BDF806003149B1F844100844AD
:104CE00000B2ADF806002E4908696946FDF724FFB9
:104CF00010B9BDE8FC8100E000BF002E4AD030783A
:104D0000002846D02A4639466846FEF7F4FBBDF92E
:104D100002C0ACF10103B4F90420B4F90210B4F9F3
:104D20000000FCF7E5FFBDF90630BDF900C0ACF1AD
:104D30000102BDF90210B4F90000FCF7D9FFBDF97A
:104D40000630B4F90420BDF90210BDF904C00CF11D
:104D50000100FCF7CDFFB4F90630B4F90420BDF929
:104D600006C00CF10101B4F90000FCF7C1FF3846A0
:104D700000F0BEFD80460020FDF74EFFB5F9022091
:104D8000B5F900103046FDF7E9F8404600F0B0FDF7
:104D9000AFE700BF2046FCF7E3FF00BFA9E7000034
:104DA000F04F002070B50546284600F016FA06467A
:104DB00000F0A0F904466FF07040844202D1FBF786
:104DC0008BFE0446204670BD70B504460D4629464C
:104DD000204600F028FE206A294642692846FEF750
:104DE000CEFB70BD034B1B680362C2840BB283848D
:104DF0007047000020010020F0B5B2F90050B2F970
:104E00000430B0F90460B0F90070F41BD688A61B1A
:104E100036B20E805688A61B36B28E804D80CB806F
:104E2000F0BD0000012001490870704738010020E2
:104E30002DE9F0470546EDB12846FCF71DFE044676
:104E4000284600F067FE0646A6B1284600F0C5F9E0
:104E500081464846FCF710FE07463046FCF70CFE3C
:104E60008046608BA8F81A00388B60833D8320460B
:104E700000F0F6FABDE8F08710B50446204601F0D0
:104E80008FFA10BD2DE9FF4704460D4616461F4612
:104E9000DDE90D9ADDF8308000203B463246294698
:104EA0008DE80107204600F003F804B0BDE8F08764
:104EB0002DE9F84F8046894692469B46DDE90A7502
:104EC0004048008805432FB93F48008810B13F484B
:104ED000B0F90070781C00B90027F7B13846FCF72C
:104EE000CBFD0646B6F900008044B6F902008144C5
:104EF000BAF1000F06D1B6F90400B6F90010401A55
:104F000000F1010ABBF1000F06D1B6F90600B6F9AF
:104F10000210401A00F1010B00BF0D98203000B2C2
:104F2000FCF738FD0090002849D027480088401C35
:104F3000254908800098FCF79FFD04460FFA88F089
:104F400020800FFA89F0608008EB0A00401E00B252
:104F5000A08009EB0B00401E00B2E0800C9820619D
:104F6000A08B43F68F7129400843A083009801F07D
:104F700089F93946009800F07FFE05F0200010B155
:104F8000009800F0A7FB05F0010020B11048006870
:104F9000401C0F49086005F0400010B10098FFF771
:104FA00047FF05F0020030B1A08B40F00200A08363
:104FB000009800F09DFA0121009801F036F8009861
:104FC000BDE8F88F3A0100202401002030010020C4
:104FD0004C01002010B5002002490870FFF7EEF8E0
:104FE00010BD0000380100202DE9F0410446B4F95D
:104FF0000450A6682846FCF73FFD0746206817289E
:105000000FD004DC0E280FD014281AD104E0222877
:105010000FD0282815D110E03146384600F003FDA6
:105020000FE0A560BDE8F0812146284600F088FB2E
:10503000F8E76FF07040A060F4E7284600F058FAF7
:10504000F0E700BF0020A060A06000BFEAE770B5F5
:10505000044600BF4CB12046FCF70EFD0546A88B68
:1050600042F204018843A88300BF70BD10B500243C
:1050700000E0012400F004F80028FAD1204610BD19
:1050800010B51048006810B10E48006880470E48FF
:10509000006828B10C480068804708B1012010BDA5
:1050A000FDF72AFD08B10120F9E70848007830B182
:1050B0000748008818B102F067F80120EFE70020E8
:1050C000EDE70000440100206800002038010020C6
:1050D0002601002070B504460D4616463246294684
:1050E000204600F082FC70BD0148B0F93C007047DA
:1050F000F04F00203EB504463CB1222000906946A6
:10510000204600F005FB02983EBD6FF07040FBE7C3
:1051100070B504460748008818B10648B0F9000089
:1051200002E00548B0F93C0005462146284600F05B
:1051300005F870BD50010020F04F002070B5044606
:105140000D4644B13DB12046FCF796FC0646294683
:10515000304600F068FC70BD3EB504460020029069
:10516000172000906946204600F0D2FA029800B25B
:105170003EBD00000148B0F900007047300100203A
:1051800070B504460D46002624B12946204602F09B
:1051900021FC0646304670BD10B5044624B12046B9
:1051A000FCF76AFCB0F91840204610BD70B5054602
:1051B000002635B12846FCF75FFC0446207F00F04E
:1051C0000106304670BD3EB5044615200090694684
:1051D000204600F09DFA02983EBD10B5044624B169
:1051E0002046FCF749FCB0F91640204610BD70B5CA
:1051F00005460C4655B14CB12846FCF73DFC064629
:105200001EB1306820607068606000BF70BD70B50E
:105210000446204602F0D6FB04462046FCF72CFC50
:105220000646304600F091FC0546284670BD70B534
:105230000446204602F0C6FB04462046FCF71CFC50
:105240000646304600F089FC0546284670BD000041
:1052500030B58FB0002504A8FDF72EFC0AA800F099
:105260008FFB50480068049988420AD14D48406835
:105270000599884205D14B48007A9DF8181088425C
:1052800075D0DDE90401FCF705FC04A803F0F6F88D
:10529000ADF82C00BDF92C0000F088FD002877D077
:1052A0004048007A9DF81810884223D0BDF82C00A1
:1052B00000B3BDF92C00FCF7DFFB04469DF8180095
:1052C0008DF80C003748007A8DF80D00B4F9001005
:1052D0000498401A0190B4F902100598401A0290FF
:1052E00001A80E9011200C90BDF92C000CA900F023
:1052F0007CFE00BF2B48007A9DF818100843002858
:1053000046D00C200C9001252748B0F90400BDF9C7
:105310002C1088421CD024488088C8B19DF8180001
:1053200010B100200E900AE01E48006807901D484A
:105330004068089000208DF8240007A80E901A49B4
:10534000B1F904000CA900F09BFE002016498880EA
:10535000BDF82C0060B104A807C807AB07C39DF8CF
:10536000240030B1BDF82C000F49888009E013E01B
:105370000EE00E48007808B100F022F900200A493A
:10538000888007A80E90BDF92C000CA900F078FECB
:10539000044804A90EC90EC00AA800F0C3FD28469F
:1053A0000FB030BD505200206401002040010020A9
:1053B00001460448B0F90000814201D10120704744
:1053C0000020FCE73C0100200EB51A48007880BBA5
:1053D000002019490880194908801949886319492A
:1053E0000880194908801949022240F6FF73CDE967
:1053F000002102901A460146FFF744FD1449088037
:105400006FF07040134908601149B1F9000000F0D5
:105410006FF8114800F0B4FA104800F0B1FA0C49E6
:10542000B1F9000000F056F9FFF7FCFC012001493A
:1054300008700EBD540100202801002052010020F8
:10544000F04F00202601002024010020258A0008BA
:1054500030010020340100205C01002064010020A4
:1054600070B504460748B0F9005008E021462846C8
:1054700002F06AFB2846FCF7FFFAB0F91450002D41
:10548000F4D170BD280100202DE9FF4105460E46EC
:105490003DB32846FCF7F0FA0446A78B07F002005C
:1054A000F8B1D4E90001CDE9020166B1306800909D
:1054B000706801906946204600F06AFA694602A8C1
:1054C000FDF7F8FF00BF294602A800F06CFA40B1D2
:1054D00040F601003840012804D1294602A800F016
:1054E00014FC03E002A9284602F02EFBBDE8FF8170
:1054F00010B5044600212046FFF7C6FF10BD70B569
:1055000005469DB12846FFF7F3FF2846FFF744FE06
:10551000044609E02046FCF7AFFA06462046FFF7AE
:10552000EEFFB6F91A4000BF002CF3D170BD3EB5B6
:10553000044600254CB100200290202000906946CE
:10554000204600F0E5F8029D00BF28463EBD70B53C
:105550000446204600F05CFC0546284670BD70B548
:1055600004460D46164632462946204600F066FCA3
:1055700070BD3EB505460C46262000900294694653
:10558000284600F0DDF83EBD70B586B004460D46F5
:1055900000260A48008868B1019402950E20039005
:1055A00001A8059003A90548B0F9000000F00BFD23
:1055B000012600BF304606B070BD00003E0100204D
:1055C00010B500F09BFC10BDF0B587B007460D4646
:1055D000164645EA060000B10FB907B0F0BD3846DF
:1055E000FCF74AFA0446D4E90001CDE90501DDE9FA
:1055F0000501CDE90301A5B1207F00F0800050B185
:10560000A08B00F4007030B9BDF80C00401B00B254
:10561000ADF80C0005E0BDF81000284400B2ADF86C
:105620001000A6B1A08B00F4807050B1A08B00F4E4
:10563000806030B9BDF80E00801B00B2ADF80E00DE
:1056400005E0BDF81200304400B2ADF8120003AA24
:1056500005A901A8FDF7DDF9DDE90301C4E90001B1
:1056600001A8FFF7FDFEBDF91200BDF91A10401A9E
:105670000090BDF91000BDF918C0A0EB0C03BDF9F6
:105680000E00BDF916C0A0EB0C02BDF90C00BDF96F
:1056900014C0A0EB0C01204600F00DFD214604F1E2
:1056A0000800FDF707FF0521384600F0BEFC00BFEB
:1056B00093E7000070B504460D462B4622460021B4
:1056C0000348B0F9000002F0E9FE0646304670BD1E
:1056D0002801002070B504460B48B0F93C6014B9AD
:1056E0000A48B0F90040084884872046FCF7C4F90E
:1056F0000546FEF763FDB5F9000003490864B5F9F6
:1057000002004864304670BDF04F002028010020A0
:1057100070B504460D4654B12046FCF7ADF9064677
:10572000306918B1AC8028463169884700BF70BD28
:1057300070B504460D462946204600F062FC70BD57
:1057400070B505460C4654B12846FFF746FD06469F
:1057500026B1E58021463046FFF7DAFF00BF70BD75
:1057600070B504460D460648B0F90000A04201D0CD
:1057700000F0C4FB0248048002490D7070BD0000B7
:105780003C010020400100202DE9FF4706460C4661
:1057900015463046FFF70CFE58B901213046FFF799
:1057A000DFFF208800B21D490880A08800B2488031
:1057B00032E01A49B1F900102068471A1749B1F9C7
:1057C00002106068A0EB01082DB942463946304608
:1057D000FFF7C5FE1FE002A93046FFF708FD30467F
:1057E000FFF7FBFC81466946FFF701FD424639465B
:1057F00002A8FDF74FF92A4669466846FDF7BFFE45
:10580000694602A8FDF798F920B14246394630466C
:10581000FFF7A5FE00BF00BFBDE8FF8756010020CF
:1058200010B5FBF769FE00200149886310BD000038
:10583000F04F00207FB504460020019002900390B5
:10584000002C45D02448B0F90000844240D02248C2
:10585000B0F90000ADF80000ADF802401F20019043
:10586000002003901C48008828B101A91A48B0F90B
:105870000000FFF74DFF0120039017490C802046E0
:1058800001A9FFF745FF039D0DBB07E02120019013
:10589000CDF80CD001A92046FFF73AFF2046FFF7CC
:1058A0009CFC041EF2D1BDF900402046FFF74FFEDC
:1058B00068B107E021200190CDF80CD001A9204665
:1058C000FFF726FF2046FFF788FC041EF2D100E018
:1058D0000125284604B070BD3E01002070B5044685
:1058E00000251CB1204602F04FFE0546284670BD3B
:1058F00070B504460348856B846300F019F82846A8
:1059000070BD0000F04F002070B505467DB12846FF
:10591000FCF7B2F80446207F00F0020030B9A08BFB
:1059200040F00200A0832846FFF7E9FD00BF70BDEC
:105930001CB50F48007818B10E4802F001FE16E0C1
:105940000D49B1F93C00FCF797F80446D4E9000191
:10595000CDE900010948008828B10848B0F90010D5
:10596000684600F020F8684602F0EAFD00BF1CBD62
:105970003801002064520020F04F00205001002028
:105980000249096801600149086070472C01002044
:1059900070B504460D46B4F90220B4F9001028464B
:1059A000FDF778F870BD70B506460D4600BF284675
:1059B000FCF762F80446207F00F0020008B90020DE
:1059C00070BD21463046FDF775FDE08A00B902E062
:1059D000B4F91650EBE700BF284600F00DFE002892
:1059E00001DA0020ECE70120EAE72DE9F0478046E4
:1059F0000C4615464046FCF73FF88146B9F9186059
:105A00000DE03046FCF738F8074629463046A047F7
:105A10002A4621463046FFF75DFBB7F91A60002E93
:105A2000EFD1BDE8F08700224A800A80828803888F
:105A3000D21A12B28A80C2884388D21A12B2CA809D
:105A4000704710B504462046FFF7C7FB04462CB14B
:105A50002046FCF711F8B0F9180010BD0020FCE753
:105A600070B50446002521460548B0F9000000F055
:105A70007BF910B10248B0F90050284670BD000013
:105A80003E01002082680A60C2684A6070470000D8
:105A900010B51B48007808B9002010BD19484069AE
:105AA000012806DD17484069401E1649486100205C
:105AB000F3E71548007828B100201349087013480F
:105AC000006880470F480069401C0E49086101F0DA
:105AD00081FD30B90B484069401E0A4948610020E9
