:020000040800F2
:10000000C85C0020A1020008CD86000845720008E7
:10001000C98600087B0B00085F9300080000000001
:100020000000000000000000000000004D8F0008EC
:10003000430E000800000000A58900086590000834
:10004000BB020008BB020008BB020008BB0200089C
:10005000BB020008BB020008BB020008BB0200088C
:10006000BB020008BB020008BB020008BB0200087C
:10007000BB020008BB020008BB020008BB0200086C
:10008000BB020008BB020008BB020008BB0200085C
:10009000BB020008BB020008BB020008BB0200084C
:1000A000BB020008BB020008BB020008BB0200083C
:1000B000BB020008BB020008BB020008BB0200082C
:1000C000BB020008BB020008BB020008BB0200081C
:1000D000BB020008BB020008BB020008BB0200080C
:1000E000BB020008BB020008BB020008BB020008FC
:1000F000BB020008BB020008BB020008BB020008EC
:10010000BB020008BB020008BB020008BB020008DB
:10011000BB020008BB020008BB020008BB020008CB
:10012000BB020008BB020008BB020008BB020008BB
:10013000BB020008BB020008BB020008BB020008AB
:10014000BB020008BB020008BB020008BB0200089B
:10015000BB020008BB020008BB020008BB0200088B
:10016000BB020008BB020008BB020008BB0200087B
:10017000BB020008BB020008BB020008BB0200086B
:10018000BB020008BB02000800F002F800F05EF8B5
:100190000AA090E8000C82448344AAF10107DA45E2
:1001A00001D100F053F8AFF2090EBAE80F0013F0D6
:1001B000010F18BFFB1A43F00103184754E7020070
:1001C00074E702000A444FF0000C10F8013B13F0F2
:1001D000070408BF10F8014B1D1108BF10F8015BA0
:1001E000641E05D010F8016B641E01F8016BF9D193
:1001F00013F0080F1EBF10F8014BAD1C0C1B09D1EA
:100200006D1E58BF01F801CBFAD505E014F8016B5B
:1002100001F8016B6D1EF9D59142D6D370470000ED
:100220000023002400250026103A28BF78C1FBD8FF
:10023000520728BF30C148BF0B6070471FB513F08D
:1002400004FD00F062F81FBD10B510BD00F04FFABC
:100250001146FFF7F3FF12F011FF00F05FF803B44F
:10026000FFF7F2FF03BC00F03BFA00000B49D1F8A6
:1002700000C04A685CF8043B1068184442F8040B5C
:100280008C4528BFA1F1DC0C8A4228BFA1F1DC0219
:10029000C1F800C04A6020F0004070475C56002062
:1002A0000948804709480047FEE7FEE7FEE7FEE70A
:1002B000FEE7FEE7FEE7FEE7FEE7FEE70448054946
:1002C000054A064B70470000E990000889010008C4
:1002D000C8560020C85C0020C8580020C85800201C
:1002E0000B4910B5A1F17C020A4CC2E93712372143
:1002F00006E000EB104342F82130074B00FB0340BF
:100300000B1EA1F10101F4DC10BD0120E8E70000A3
:10031000FC550020E119D666CD0D010010B504464C
:10032000AFF300802046BDE81040FFF798BF40EAD9
:10033000010310B59B070FD1042A0DD310C808C9BB
:10034000121F9C42F8D020BA19BA884201D9012064
:1003500010BD4FF0FF3010BD1AB1D30703D0521CAF
:1003600007E0002010BD10F8013B11F8014B1B1BEA
:1003700007D110F8013B11F8014B1B1B01D1921E54
:10038000F1D1184610BD40EA0103024630B59B0783
:1003900010D14FF0013400E008C208C91D1B9D4375
:1003A00015EAC41FF8D013F0FF0102F8011B0DD0AD
:1003B0001B0AF8E711F8013B002B02F8013B05D0BE
:1003C00011F8013B002B02F8013BF3D130BD10B511
:1003D000431C02E010F8011B71B18107FAD14FF004
:1003E000013202C88C1A8C4314EAC211F9D0C01A27
:1003F0000A0603D0C01E10BDC01A10BD0A0401D0E9
:10040000801E10BD0902FCD0401E10BD421E12F815
:10041000013F002BFBD111F8013B002B02F8013BFF
:10042000F9D17047032A40F2308010F0030C00F03D
:10043000158011F8013BBCF1020F624498BF11F81E
:1004400001CB00F8013B38BF11F8013BA2F10402D7
:1004500098BF00F801CB38BF00F8013B11F003034F
:1004600000F06780083AC0F0088051F8043B083A71
:1004700051F804CBA0E80810F5E7121D5CBF51F855
:10048000043B40F8043BAFF30080D20724BF11F8CF
:10049000013B11F801CB48BF11F8012B24BF00F834
:1004A000013B00F801CB48BF00F8012B7047431A0D
:1004B00028BF9A427FF6B6AF032A1044114440F297
:1004C000268010F0030F1EBF11F8013D521E00F8E8
:1004D000013D10F0030F7FF4F6AF11F0030300F0BD
:1004E000CC80083AC0F00B8051F8043D083A51F82E
:1004F00004CD40F8043D40F804CDFFF7F3BF121DD2
:100500005CBF51F8043D40F8043DAFF30080D207D2
:1005100024BF11F8013D11F801CD48BF11F8012C9D
:1005200024BF00F8013D00F801CD48BF00F8012CC0
:10053000704710B5203AC0F00B80B1E81850203A4F
:10054000A0E81850B1E81850A0E81850BFF4F5AF73
:100550005FEA027C24BFB1E81850A0E8185044BFFD
:1005600018C918C0BDE810405FEA827C24BF51F86A
:10057000043B40F8043B08BF7047D20728BF31F85E
:10058000023B48BF11F8012B28BF20F8023B48BFAF
:1005900000F8012B704702F0FF0343EA032242EA0E
:1005A000024200F002B84FF000020429C0F01280AD
:1005B00010F0030C00F01B80CCF1040CBCF1020F16
:1005C00018BF00F8012BA8BF20F8022BA1EB0C01EB
:1005D00000F00DB85FEAC17C24BF00F8012B00F8E1
:1005E000012B48BF00F8012B70474FF0000200B507
:1005F000134694469646203922BFA0E80C50A0E846
:100600000C50B1F12001BFF4F7AF090728BFA0E8F3
:100610000C5048BF0CC05DF804EB890028BF40F8BF
:10062000042B08BF704748BF20F8022B11F0804F01
:1006300018BF00F8012B704770477047704710B51E
:1006400000F04AF8006810BD10B5044600F044F808
:10065000046010BD431A28BF9A427FF66AAF104467
:1006600010F0030F11441EBF11F8013D521E00F897
:10067000013D10F0030F7FF4F6AF103AC0F00A808E
:1006800010B531E91850103A20E91850BFF4F9AF0D
:10069000BDE81040530724BF31E9081020E90810D5
:1006A00044BF51F8043D40F8043D12F0030F08BF69
:1006B0007047D20728BF31F8023D48BF11F8012C1E
:1006C00028BF20F8023D48BF00F8012C7047000009
:1006D0000048704764560020004870476456002068
:1006E00001491820ABBEFEE72600020070477546A0
:1006F000FFF7EEFFAE4605006946534620F00700BF
:10070000854618B020B5FFF7D9FDBDE820404FF071
:1007100000064FF000074FF000084FF0000B21F0EB
:100720000701AC46ACE8C009ACE8C009ACE8C009B8
:10073000ACE8C0098D46704721B1826842F00102E1
:10074000826003E0826822F001028260704700004C
:100750000021084A1168084A1140D0E900231A43D1
:1007600083681A43C3681A431143044AC2F8041346
:100770007047000004230140E030FCFF00200140EE
:1007800030B50246002000235068104C20400D79FF
:100790000C6844EA05242043506090680C4C2040CB
:1007A000D1E903542C438D682C434D7944EA450428
:1007B00020439060D06A20F470000C7D641EE4B287
:1007C000234340EA0350D06230BD0000FFFEFFFC2F
:1007D000FDF7FFC000B58DB00121084608F0E4F830
:1007E0000121080208F000F902200B9003208DF887
:1007F000300000208DF833000BA9154801F07EFF72
:100800000121080208F000F900214FF4807008F07F
:10081000FBF8002007900A9009904FF48030089070
:1008200007A8FFF795FF002001908DF808008DF8CC
:1008300009000390059001208DF8180001A90548D2
:10084000FFF79EFF01210348FFF776FF0DB000BDC3
:10085000000002400020014038B508F0E5F8012012
:1008600008F048F908F090F9044600BF002CFDD0CC
:10087000002008F033F94FF4A05008F049F94FF484
:10088000805008F051F9072002234FF4A872082184
:100890000090C80408F05AF9012008F051F900BF8F
:1008A000392008F0F3F80028FAD0022008F060F9A7
:1008B00000BF08F00BF90828FBD1002008F022F94E
:1008C0000121084608F070F80121022008F06CF8B8
:1008D0000121042008F068F80121082008F064F8DC
:1008E0000121102008F060F80121202008F05CF8B8
:1008F0000121402008F058F838BD70B50446B4F91D
:100900000450284603F0E6FE06462146284608F035
:100910004DFD00B970BD20680B280FD00C2802D007
:100920000F280FD105E02246314628460FF0E4FC9F
:10093000F0E7294630460FF078FEEBE730460BF043
:10094000E9FA00BF00BF204609F0BEF800BFE1E7AA
:100950002DE9FF4704460D4616461F46DDE90C9873
:100960000020CDE900083B4632462946CDE9020980
:10097000204600F01BF804B0BDE8F0872DE9FF47E2
:1009800004460D4616461F46DDE90DA9DDF8308008
:1009900000203B4632462946CDE9020ACDE90089CE
:1009A000204600F003F804B0BDE8F0872DE9FF4FC2
:1009B00085B006460F469046DDE913ABDDF848905A
:1009C00000BF3021114A1FFA8AF0CDE90090CDE92D
:1009D0000221424639463046089B08F0D9FF0446BA
:1009E0007CB1204603F076FE054610222846159974
:1009F00008F040FF2022064905F12800FFF799FD85
:100A000000BF204609B0BDE8F08F0000FB080008D9
:100A1000E80000202DE9FF4704460D4616461F4614
:100A2000DDF8308000BFB4F90800618A0022CDE90A
:100A30000052CDE90210B4F91030B4F90E20B4F927
:100A40000CC00CEB0701B4F90AC00CEB0600FFF771
:100A5000ADFF81464846616800F060F8484604B042
:100A6000BDE8F0872DE9F04105460C4616466DB10C
:100A7000022C0BD8284603F02DFE074607F128006C
:100A800040F82460284609F0DBFB00BFBDE8F08198
:100A900070B505460C4624B11021284608F005FD26
:100AA00003E01021284608F05CFC70BD70B50446D8
:100AB0000D4644B1204603F00DFE0646356420463F
:100AC00009F0BEFB00BF70BDF8B504460D461646E2
:100AD00000200346324629460090204600F001F8E7
:100AE000F8BD2DE9F04706460F4614461D46DDF8D1
:100AF000208042462946204604F064F981464A4651
:100B00003946304600F01DF8BDE8F08770B5044660
:100B10000D462946204608F0EBFC70BD70B5044632
:100B20000D466CB1204603F0D5FD0646294606F178
:100B3000480006F004FA10B1204609F081FB00BF1E
:100B400070BD2DE9F04105460C4616469DB128467C
:100B500003F0C0FD0746032C0CD807F14A0101EB56
:100B6000440003F02EFD07F14A0020F814602846E7
:100B700009F066FB00BFBDE8F08100BFFEE70000A2
:100B80002DE9FF5F81468A4614461D46DDE90EB811
:100B90001098109004B18DB908F002FC47692CB987
:100BA0001E4880690088022101FB07042DB91B48FB
:100BB00080694088022101FB070500BF1748C06813
:100BC0006FF07041884201D148F001083421144A85
:100BD0001FFA88F02B46CDE900B0CDE9022122466C
:100BE0005146484608F0D4FE064696B1304603F01A
:100BF00071FD074610223846119908F03BFE282265
:100C0000064907F12800FFF794FC022087F85000FE
:100C100000BF304604B0BDE8F09F0000080100208E
:100C2000EBB900082DE9FF4704460D4616461F465E
:100C3000DDF8308000BFB4F90800618A0022CDE9F8
:100C40000052CDE90210B4F91030B4F90E20B4F915
:100C50000CC00CEB0701B4F90AC00CEB0600FFF75F
:100C60008FFF8146484604B0BDE8F08770B5054661
:100C700000262DB1284603F02DFD044694F851605E
:100C8000304670BD10B504462046FFF7EFFF01283F
:100C900000D110BD0020FCE770B506460D4666B1D8
:100CA000304603F017FD044694F85000A84204D3E0
:100CB00084F85150304609F0C3FA70BD70B504464F
:100CC0000D466CB165B1204603F004FD0646294689
:100CD00006F1520006F033F910B1204609F0B0FADF
:100CE00070BD00001CB504462648408C2549B1F86B
:100CF0004010084400B2234948840846808CB1F86B
:100D00004410084400B21F498884204604F004FDC2
:100D10001C49498CADF800100844401E00B2ADF8E3
:100D2000040004F02BFD1749898CADF8021008442B
:100D3000401E00B2ADF80600684609F0E5FE38B185
:100D400000BF204601F004FB09F058FE0028F8D14E
:100D50000A2C05D0BDF80400401C00B209494884A3
:100D60000848408C0749B1F84010401A00B20549C4
:100D700048840846808CB1F84410401A00B20149FA
:100D800088841CBDE052002015488088144991F8E1
:100D90005C1010FB01F000B2124908801048C088B6
:100DA0000F4991F85C1010FB01F000B20D4948802A
:100DB0000B480089401C0A4991F85C104843401ECA
:100DC00000B20849888006484089401C044991F8CF
:100DD0005C104843401E00B20249C88070470000C2
:100DE000E0520020240000207CB508F0A5FF054655
:100DF000002000902B46044A03210190034803F091
:100E0000A5FF044620467CBD852D0108603C0108F5
:100E1000024641EA0220704701480068704700001E
:100E20003001002007E046F2A81100BF0A1EA1F120
:100E3000010399B2FAD1021EA0F1010398B2F2D1D6
:100E4000704770472DE9F04105460E4617461C468F
:100E50003119E819184B9B6D5A6890473119E81BF6
:100E6000154B9B6D5A689047F1192819124B9B6DD1
:100E70005A689047F11B28190F4B9B6D5A68904791
:100E8000BCB1311BE8190C4B9B6D5A689047311B64
:100E9000E81B094B9B6D5A689047F119281B064BBC
:100EA0009B6D5A689047F11B281B034B9B6D5A683A
:100EB0009047BDE8F0810000E05200202DE9F047A6
:100EC0000746894614461D46DDF820802148007BF0
:100ED00000F00200E0B9B8F1000F0DD009E026885B
:100EE00038F816204946384606F003FE6D1E7F1C72
:100EF000A41C002DF3DC2AE007E02288494638468E
:100F000006F0F7FD6D1E7F1CA41C002DF5DC1EE015
:100F1000B8F1000F0ED00AE026882EB138F816205E
:100F20004946384606F0E5FD6D1E7F1CA41C002DC9
:100F3000F2DC0CE009E0268826B132464946384604
:100F400006F0D7FD6D1E7F1CA41C002DF3DCBDE850
:100F5000F0870000E05200201CB5044611480078DC
:100F6000A0B1012000908DF8040000208DF806004B
:100F700003208DF8050001208DF8070069460A4816
:100F800001F0BCFB00200749087000BF24B101211B
:100F9000054801F029FC03E00121034801F022FC8F
:100FA0001CBD0000080200200004024000B59FB0F4
:100FB0000121582007F0F8FC0121084607F004FD44
:100FC0004CF233701D9002208DF8780000208DF8CF
:100FD0007A0003208DF8790001208DF87B001DA98F
:100FE000634801F08BFB4FF680701D9002208DF856
:100FF000780000208DF87A0003208DF87900012018
:101000008DF87B001DA95B4801F078FB41F20100DF
:101010001D9002208DF8780000208DF87A000320C2
:101020008DF8790001208DF87B001DA9524801F050
:1010300065FB0C2200214E4801F0A8FB0C22012187
:101040004B4801F0A3FB0C220421494801F09EFB10
:101050000C220521464801F099FB0C220821444846
:1010600001F094FB0C220921414801F08FFB0C2276
:101070000A213F4801F08AFB0C220E213C4801F076
:1010800085FB0C220F213A4801F080FB0C2207213E
:10109000384801F07BFB0C220821364801F076FB32
:1010A0000C220921334801F071FB0C220A2131483E
:1010B00001F06CFB0C220B212E4801F067FB0C2287
:1010C00011462C4801F062FB0C220D21294801F049
:1010D0005DFB0C220E21274801F058FB0C220F214A
:1010E000244801F053FB0C220021234801F04EFB61
:1010F0000C221146204801F049FB0F2007900020E8
:1011000008903C20099000200A900B900C900D90C4
:1011100009200090002001900820029000200390F8
:1011200004900590069006200E9000200F901090DD
:10113000102011900020129014901390159016908A
:101140004FF480501790002018904FF48040199071
:1011500000201A9007A81B90CDF870D00EA801F0BF
:101160001FF80121062001F001F81FB000BD0000AA
:10117000000C0240001002400018024001480088A4
:10118000704700000008006C0149088070470000AB
:101190000008006C0149088070470000FE07006CE1
:1011A0001CB5044611480078A8B120200090012009
:1011B0008DF8040000208DF8060003208DF805004E
:1011C00001208DF807006946094801F097FA0020D0
:1011D0000649087000BF24B92021054801F002FB30
:1011E00003E02021024801F0FFFA1CBD09020020A3
:1011F000000802401CB504461A48007838B30420A1
:10120000009001208DF8040000208DF806000320D6
:101210008DF8050001208DF807006946124801F09D
:101220006DFA00200F4908700C20009001208DF805
:10123000040000208DF8060003208DF80500012031
:101240008DF807000C21094801F0CEFA00BF24B93F
:101250000421054801F0C6FA03E00421024801F028
:10126000C3FA1CBD0F020020000402400008024027
:101270001CB50E48007898B14FF4807000900020A3
:101280008DF8040003208DF8050001208DF807007B
:101290006946074801F032FA00200449087000BF8F
:1012A0004FF48071024801F094FA1CBD1002002036
:1012B000001402401CB5044613480078B0B14FF446
:1012C0000070009001208DF8040000208DF80600C9
:1012D00003208DF8050001208DF8070069460B48B2
:1012E00001F00CFA00200849087000BF2CB94FF437
:1012F0000071064801F076FA04E04FF400710348EB
:1013000001F072FA1CBD000011020020001402401E
:101310001CB5044611480078A8B1022000900120B5
:101320008DF8040000208DF8060003208DF80500DC
:1013300001208DF807006946094801F0DFF9002017
:101340000649087000BF24B90221054801F04AFA95
:1013500003E00221024801F047FA1CBD12020020FE
:10136000000402402DE9F04107460D46002F6FD0E2
:10137000384603F0AFF90446002C6AD0E06C20B187
:1013800029463846E26C904794E0122D4AD008DC9A
:10139000082D53D00D2D75D0102D49D0112D73D19E
:1013A00008E0132D22D01B2D6DD01D2D57D01E2DE2
:1013B0006AD14FE0208DC0B1B4F9280003F08AF95A
:1013C00006463046216C05F0DDF90644304605F04E
:1013D000A3F98046B8F17F0F06DA08F101003070FA
:1013E0000521384608F09FFF00BF62E0208DC0B1A4
:1013F000B4F9280003F06EF906463046216C05F07A
:10140000C1F90644304605F087F98046B8F1200F4F
:1014100006DDA8F1010030700521384608F083FF91
:1014200000BF46E0206C411C204600F0E1FA40E09D
:10143000206C411E204600F0DBFA3AE0206C411E91
:10144000204600F0D5FA214638460AF096FD30E0F5
:1014500034E032E0214638460AF08FFD29E094F866
:101460004800012803D1002084F8480006E001204C
:1014700084F848002046216C00F0BAFA19E001E037
:1014800002E000E000BF14E0202D11DB94F84800DA
:1014900018B1214638460AF070FDAAB221463846F6
:1014A0000EF0D4F820B1206C411C204600F0A0FAC8
:1014B00000BF00BF384608F0C3FE00BFBDE8F081A2
:1014C0002DE9F04786B004460D4616461F46DDE975
:1014D0000FA9DDF838800020CDE901903B46324667
:1014E0002946CDE9038A0090204600F003F806B0B3
:1014F000BDE8F0872DE9FF4F85B007468846914645
:10150000DDF858B0DDE9135A00BF45F4805550228C
:101510001E4BA8B240F002001299CDE90232CDE98B
:1015200000104A4641463846089B08F031FA064604
:1015300046B3304603F0CEF80446102220461599F3
:1015400008F098F91C22124904F15400FEF7F1FF4B
:10155000012084F84900BBF1000F01D1082000E010
:10156000584600B260850020A0852085B4F92A0085
:10157000411C20460EF008F818B9304608F0D8FA99
:10158000002600BF304609B0BDE8F08F671900089B
:10159000340100202DE9F04385B004460D4616467F
:1015A0001F46DDF8309000BFB4F90810628A0023AE
:1015B0006069CDE90053CDE902210490B4F91030FF
:1015C000B4F90E20B4F90CC00CEB0701B4F90AC051
:1015D0000CEB0600FFF78EFF8046B8F1000F03D03A
:1015E000618A404600F08EF9404605B0BDE8F083C0
:1015F0002DE9F0470746884691461E4657B33846C0
:1016000003F068F804461448E06414482065C4F800
:101610003C8000202064B4F92A50002D03DC3046C1
:101620000DF09CFD0546202D00DD2025B4F92A0093
:10163000A84203D02946384600F0D6F8C4F83090C6
:101640006663012084F84800384610F059FB38469C
:1016500008F0F6FDBDE8F087AFB30008011D0108F2
:101660002DE9F34F83B00C46039800286ED0039801
:1016700003F030F80546288D002866D0B5F928001B
:1016800003F028F80190E86D04F098FE02900398AA
:1016900008F04EFC8346019804F07EF8804695F8E9
:1016A000540000F00300012809D002280ED1ABEB52
:1016B0000801481C00EBD071A4EB61040DE0ABEB1A
:1016C0000801A86D401C081A241A06E0A86D401CE9
:1016D000296A49690844241A00BF00BF019805F02F
:1016E0009FFB0646002C04DA0021284600F080F912
:1016F00024E0444504DD3146284600F079F91DE038
:101700004FF00009CA460FE001A805F027F8009045
:10171000009804F001F807460AEB0700A04200DD3C
:1017200006E0BA4409F10109B14501DAA245EBDB53
:1017300000BF4946284600F05BF900BF029804F05C
:101740003DFE039808F07CFD00BF00BF05B0BDE87A
:10175000F08F70B505460E4605B970BD284602F0FB
:10176000B9FF04461CB1E665284608F069FD00BFD4
:10177000F3E700002DE9F0470746884691461E46EC
:101780005FB3384602F0A6FF04461548E0641548EA
:101790002065C4F83C8000202064B4F92A50002D54
:1017A00003DC30460DF0E2FC0546082D00DD08257F
:1017B000B4F92A00A84203D02946384600F014F8AC
:1017C000C4F830906663012084F84800384610F071
:1017D000A9FA384608F034FD00BFBDE8F0870000E4
:1017E0004FB40008251D01082DE9F04706460D46B7
:1017F00076B3304602F06EFF0446B4F92A00A842E0
:1018000025D0B4F92A00A84216DD208DA0B1B4F984
:10181000280002F05FFF0746384605F001FB8046CE
:10182000A84508DD2946384604F0ACFF8146002073
:1018300007F8090000BF00BFA08D281A411C2046F0
:101840000DF0A2FE28B26085304608F0F9FC00BF1A
:10185000BDE8F0872DE9F04780460F46B8F1000F4C
:101860004ED0404602F036FF0446002F3DD04FF0E8
:101870000009208D50B1B4F9280002F02BFF8246F8
:101880005046FEF7A4FD00F1010900BF384605F0FF
:10189000C7FA0646B4F92A10B14201DAB4F92A604F
:1018A0003146384604F06EFF451CA5EB0901204681
:1018B0000DF0C1FFC0B1B4F9280002F00BFF824661
:1018C0002A4639465046FEF7ADFD681E2064B4F93D
:1018D0002A10206C884206D194F84800012802D1D1
:1018E000206C401E206400BF06E004F1280002F0D6
:1018F00068FE0020A0852064404608F0A1FC00BFDF
:10190000BDE8F08770B505460E4605B970BD28469E
:1019100002F0E0FE04461CB16665284608F090FC23
:1019200000BFF3E770B506460D46DEB1304602F063
:10193000D1FE0446206BA84200DD256B606BA842F7
:1019400000DA656BE06BA8420CD0E563206D10B146
:101950003046216D8847304608F072FC052130463C
:1019600008F0E1FC70BD2DE9F0410446B4F90450E3
:10197000284602F0AFFE8046284609F0D7F9074610
:101980002146284607F012FD08B9BDE8F08120681D
:101990000B2811D00C2804D00E2811D00F2821D1EB
:1019A00005E02246414628460EF001FD1AE0294690
:1019B00040460EF0B1FFE8E740460AF0BAFA11E0FF
:1019C0007FB1A068406800280BDDA0680668092E7A
:1019D00000D104E031462846FFF7C4FCD5E700BF3C
:1019E00000BF00BF00BF204608F06EF800BFCCE784
:1019F0002DE9F04104460D46208D20B3B4F92800AE
:101A000002F068FE8046404605F00AFA064694F861
:101A1000480008B1012000E000200746002D00DA50
:101A20000025B54200DD3546B4F92A00C01BA842A6
:101A300002DAB4F92A00C51B206CA84200D0256444
:101A40000020606400BFBDE8F0812DE9F04F8BB04D
:101A50000446894615469A464FF0000B74B320465B
:101A600000F028F90646204600F017F904902046B9
:101A700002F030FE0A9005A90A9800F0ABF909F0CF
:101A8000010038B1BDF92410701E081AA0EB05083A
:101A9000822704E0BDF9200000EB05080227334649
:101AA0003246CDE901A7009440460499FEF766FF4F
:101AB000834600215846FEF7EBFF00BF58460BB0A7
:101AC000BDE8F08F2DE9F04104460D461646072388
:101AD000324629462046FFF7B8FF0746054A00214F
:101AE0003846FEF7F1FF0449384608F013FD384642
:101AF000BDE8F08131C40008692E01082DE9F041EC
:101B000004460D4616460823324629462046FFF76E
:101B10009CFF0746054A00213846FEF7D5FF0449D9
:101B2000384608F0F7FC3846BDE8F0815FC400088D
:101B3000A32E01082DE9F04786B004460D4616464F
:101B40001F46DDE90F9ADDF8388000200290CDE9CC
:101B5000030453464A464146CDE9000605953846FA
:101B600000F004F806B0BDE8F08700002DE9F04F62
:101B700089B00746884691469B46DDE9135A45F4ED
:101B8000805548222E4BA8B21299CDE90232CDE9F8
:101B900000105B464A464146384607F0F9FE0646C5
:101BA000002E49D0304602F095FD044630222046F2
:101BB000159907F05FFE2022224904F12800FEF764
:101BC000B8FC00204834608217982060A4F814A064
:101BD0000020E082E080E061483C04A9204600F05B
:101BE000F9F80020184941F28272CDE90062CDE98E
:101BF0000210BDF91AE0BDF916C0AEEB0C0C0CF1E9
:101C00000103BDF918C0BDF914E0ACEB0E0C0CF1EA
:101C10000102BDF91610704607F0BAFEA4F84C0098
:101C200042F20400284010B9304607F0E3FF304686
:101C3000169900F0BCF800BF304609B0BDE8F08F3F
:101C400031E3000850010020752000082DE9F04321
:101C500087B004460D4616461F46DDF83880B4F9B5
:101C60000810628A6068CDE90408CDE902210020ED
:101C7000CDE90050B4F91030B4F90E20B4F90CC01D
:101C80000CEB0701B4F90AC00CEB0600FFF76EFF7E
:101C90008146484607B0BDE8F08370B5044600258C
:101CA00034B1204602F016FD0646B6F9425000BF98
:101CB000284670BD70B586B0044600256CB120463C
:101CC00002F008FD064601A9304600F083F8B6F997
:101CD00040500DB9BDF9045000BF284606B070BD94
:101CE00070B5044644B1204602F0F4FC054629468E
:101CF00020460DF0CFFF00BF70BD70B5044644B163
:101D0000204602F0E7FC0546294620460EF019F869
:101D100000BF70BD70B5044664B1204602F0DAFC25
:101D20000546294620460FF0ACFA294620460FF01A
:101D300075FA00BF70BD70B504460D461CB129464A
:101D400020460FF0C6FB70BD2DE9F04104460D465C
:101D50009CB1204602F0BEFC0646304600F0C1F8B9
:101D60000746B562304600F04CF93946304600F07F
:101D7000C9F8204608F064FA00BFBDE8F08170B5EC
:101D800005460E4695B1284602F0A4FC044636B13D
:101D9000B4F85C0040F01000A4F85C0005E0B4F872
:101DA0005C0020F01000A4F85C0000BF70BD70B5AE
:101DB00004460D466CB1204602F08CFC06462946CE
:101DC00006F1500005F0BBF810B1204608F038FAD3
:101DD00000BF70BD2DE9F04F85B005460C460020D0
:101DE00004900390B5F94260284608F07CFE02900A
:101DF000284608F080FE019095F8260000F02000AB
:101E000010B1B5F944000390284600F06AF8804606
:101E1000B5F84E0020B1B5F94E0008F099F80490DD
:101E20000FFA88F02080049800B2608030B2A08061
:101E30000298801B401E01B221810398304400EBC0
:101E400008010498084401B2E1800198801B401EFB
:101E500001B2618130B2A0810298801B401E01B2A4
:101E6000218231B2E18106EB0800401E01B261829D
:101E7000B5F918902FE0484602F02CFC0746B7F958
:101E80000000B5F90010A0EB010AB7F90400B5F99C
:101E90000010A0EB010BB7F90200B5F90210401ACF
:101EA00000900098B04214D1387F00F0800040B11B
:101EB000B4F9100050450CDBAAF1010001B22182F7
:101EC00007E0B4F90C00584503DC0BF1010000B247
:101ED000A081B7F91A90B9F1000FCCD105B0BDE8D7
:101EE000F08F70B50446002594F8260000F020001D
:101EF00030B1B4F940501DB9A06A03F095FC851CBF
:101F0000284670BD2DE9F04F85B00446884620462E
:101F1000FFF7E7FF04900498A0EB0805002D6DD0B3
:101F20004FF0000B00BF00208246814640F6FF7054
:101F3000019040420090B4F9186037E0304602F05A
:101F4000C9FB0746D7E90001CDE90201B4F9020057
:101F50004242B4F90000414202A804F007F9BDF979
:101F60000A10B4F9420081421ED1BDF90E00BDF93C
:101F70000A10401A401C404516D1387F00F08000FE
:101F800048B1BDF90C10009881420DDDB246BDF993
:101F90000800009008E0BDF908100198814203DABA
:101FA000B146BDF908000190B7F91A60002EC5D1FD
:101FB000B9F1000F0AD02A462946484608F0DEF952
:101FC0000BFB05F10022484608F0A3F9BAF1000F17
:101FD0000BD02A462946504608F0D0F90BFB05F0F5
:101FE00041420022504608F094F90BF1010BB9F17F
:101FF000000F98D1BAF1000F95D100BF05B0BDE830
:10200000F08F30B585B00446B4F84C0010B9B4F880
:102010004E0068B369462046FFF7DCFEB4F84C007A
:10202000B8B1BDF90620BDF90410B4F94C0008F0B0
:102030003EF9BDF90A50BDF90630EB1A5A1CBDF93C
:102040000830BDF904505B1B591CB4F94C0008F072
:1020500090FBB4F84E0050B1BDF90630BDF9025006
:102060005A1BBDF90410B4F94E0008F020F900BF66
:1020700005B030BD2DE9FE430446B4F90470B4F94F
:10208000040007F00DFF8046404602F023FB0546A2
:10209000AE6C2068172858D008DC0E283ED00F28D8
:1020A0000BD014284FD0152853D14DE01F281AD03B
:1020B00020282ED022284CD142E06FF07041E86BEE
:1020C000884204D0E86B05F0A7FD02F0CDFD46B1D3
:1020D00094E807008DE80700ADF804706846B04743
:1020E00000BFBDE8FE83A06890B1B5F85E0040B1C6
:1020F000B5F95E00B84204D0B5F95E0008F0AEFA5A
:1021000004E0384608F0FEFAA5F85E000020A06062
:10211000E7E72146404607F049F9E2E7A068406852
:1021200000280CDDA068D0F80090B9F1090F05D1A6
:10213000384608F0E7FAA5F85E00D2E700BF08E0ED
:10214000E86BA060CDE700BF00BF204607F0BCFCF5
:10215000C7E700BF26B1A4F804802046B04702E0DC
:10216000204607F0B1FC00BFBBE7000051B1820080
:10217000A2F1C042126842F001038200A2F1C04203
:10218000136009E08200A2F1C0421268034B1A40BA
:102190008300A3F1C0431A6070470000FEFF0F00E8
:1021A000D0E901121143C268114302691143426927
:1021B000114382691143C2691143026A1143426AA1
:1021C0001143826A1143C26A1143026B11430268D0
:1021D0009200A2F1C0421160816808290BD1016808
:1021E0008900A1F1C041096841F0400201688900FD
:1021F000A1F1C0410A60416B0968426B526841EA33
:102200000211426B926841EA0221426B928941EAD3
:102210000241426B128A41EA0251426B127D41EA4D
:102220000261426B926911430268521C9200A2F152
:10223000C0421160C16AB1F5804F1BD1816B096842
:10224000826B526841EA0211826B926841EA022174
:10225000826B128A41EA0251826B127D41EA02616D
:10226000826B9269114302689200A2F1C042C2F8E7
:10227000041107E06FF0704201688900A1F1C041CC
:10228000C1F80421704700002DE9F84F0746884641
:102290001446204604EBD071491004FB0411009150
:1022A000A8EB040908EB040A2848006998B12748FC
:1022B0000069B0F90600504503DA24480069B0F916
:1022C00006A022480069B0F90200484503DD1F4816
:1022D0000069B0F902900026254616E0A8EB060B2F
:1022E000CB4511DBD3450FDC00E06D1E06FB06F08D
:1022F00005FB050100988142F7DC7A19781B134928
:10230000896D0B6859469847761CA642E6DB002685
:10231000254616E008EB060BCB4511DBD3450FDC59
:1023200000E06D1E06FB06F005FB050100988142EA
:10233000F7DC7A19781B0549896D0B68594698476F
:10234000761CA642E6DBBDE8F88F0000E0520020D4
:1023500010B504460A2C02D102F0F4FD0DE00D2C5C
:102360000BD0064880690168204688470448006809
:1023700018B1204602490968884710BDE052002084
:10238000A40000202DE9F04387B004460E4617460E
:10239000D4F80C80002004F009F80546B8F1000FCD
:1023A00005D098F8041011B145F0020101E025F0C4
:1023B0000201084603F0FAFF206970B10122D4E956
:1023C00002018DE80700039263882288206939465C
:1023D000D0F800C03046E0471EE0E06805F03DFA66
:1023E0008146B9F1000F06D1E088012801D0002014
:1023F00000E00C488146A188E288A068CDE9040984
:10240000CDE902210120009001906388228839469D
:10241000304604F0C5FF00BF284603F0C7FF07B0F1
:10242000BDE8F083E05200202DE9F04707468846DA
:10243000144640F2C32060434FF47A7190FBF1F0F0
:1024400000F1010904EBD471491004FB041A26467B
:102450000023224641463846FEF7F4FC012513E0EE
:1024600005FB05F006FB0600504506DD33462A460F
:1024700041463846FEF7E6FC761E33462A4641467C
:102480003846FEF7DFFC6D1C4D45E9DDBDE8F08701
:102490002DE9F04705468846164640F2C3207043B2
:1024A0004FF47A7190FBF1F000F1010906EBD6715F
:1024B000491006FB061A3446AA19A81B2649896D3D
:1024C0000B6841469847012741E007FB07F004FBF2
:1024D0000400504524DD4C4521DD05EB070CACF133
:1024E000010208EB0401A5EB070C0CF10100DFF879
:1024F00068C0DCF858C0DCF80030984705EB070CE2
:10250000ACF10102A8EB0401A5EB070C0CF10100F2
:10251000DFF844C0DCF858C0DCF800309847641E8F
:102520002A1908EB0701281BDFF82CC0DCF858C07B
:10253000DCF8003098472A19A8EB0701281BDFF8C0
:1025400018C0DCF858C0DCF8003098477F1C4F45B5
:10255000BBDDBDE8F0870000E052002070B5044606
:102560000E4615466119601B01F0C8FF2A46314628
:102570002046FFF789FE01F0F3FE70BD2DE9F04F14
:1025800087B00646894692461F4640F6FF70069081
:102590004042059000250CE006EB8500B0F90240B2
:1025A0000698844200DA06940598844200DD05947A
:1025B0006D1C4D45F0DB41480069D8B13F480069CA
:1025C000B0F90600C11B0598814205DA3B48006955
:1025D000B0F90600C01B059038480069B0F9020048
:1025E000C11B0698814205DD34480069B0F902003C
:1025F000C01B0690069C5BE00CF0F2FF002550E04B
:10260000A9F10100A84201DD681C00E0002004904F
:1026100006EB8500B0F902B0049806EB8000B0F933
:102620000280A34524D1A0450CD1049B36F9233068
:1026300003EB0A02E11936F9253003EB0A000BF02F
:1026400099F82DE023464A46294630460CF0F3FD22
:1026500003900398A0420AD0A8EB0403CDE900A799
:1026600003990A1B36F92500214608F033FF17E0CD
:10267000A04515D0A04501DBA34503DDA3450FDB35
:10268000A0450DDC049806EB800306EB850203A948
:10269000204609F055FB10B1039808F00BFE00BF6F
:1026A0006D1C4D45ACDBE11950460CF039FA641C49
:1026B00005988442A0DD07B0BDE8F08FE05200200D
:1026C00010B5002003F055FE6FF07F4003F057FE79
:1026D000012003F08DFE002003F092FE002003F0A5
:1026E00099FE002003F062FE034803F067FE00201D
:1026F00003F076FE10BD0000084C0108F0B50A4654
:1027000000210023002400BF3DE0012505FA01F36C
:10271000156805EA03049C4234D105684F0003267E
:10272000BE40B543056015794E00B5400668354397
:1027300005601579012D02D01579022D16D1856815
:102740004F000326BE40B543856055794E00B54025
:10275000866835438560456801268E40B5434560EF
:10276000456896798E40B6B235434560C5684F00DE
:102770000326BE40B543C560D5794E00B540C66856
:102780003543C560491C1029BFD3F0BDF0B5002307
:1027900000244D07ED0E02FA05F3CE1000F12005DE
:1027A00055F826504E07F70E0F26BE40B543CF1002
:1027B00000F1200646F82750CE1000F1200555F80C
:1027C000265045EA0304CE1000F1200545F82640C6
:1027D000F0BD0246002013690B400BB1012000E060
:1027E00000207047418370470183704710B509A1ED
:1027F00012A001F0AFF800F005FE002003F0B9FDD3
:1028000002F032FA01F0A4FD032001F08BFE08F083
:102810002BFF10BD0A4578616D706C657320666F83
:1028200072207468650A6175746F6D6F746976657E
:1028300020696E6475737472696500004175746F08
:102840006D6F746976652073616D706C65730000DF
:1028500010B507A114A001F07DF84FF47F0000F03F
:10286000E1FD02F001FA08F0E5FF01F0A3FA10BD66
:1028700053686F77696E670A646966666572656E2C
:1028800074206269746D61707320776974680A617D
:102890006E6420776974686F757420636F6D7072F1
:1028A000657373696F6E00004269746D61707300C7
:1028B00010B502F069FF044607F0B9F96E2C01D09B
:1028C0004E2C02D101200C490870682C01D0482CF4
:1028D0000ED14FF4FA7002F0A6FA00BF0A2002F0FF
:1028E000A2FA07F0A4F902F04FFF0446002CF5D03D
:1028F0000148007810BD00004802002070B520A1FA
:1029000027A001F027F802F0AFF9274803F056FDA1
:102910006FF07F4003F033FDA0257826322400229B
:10292000114622A002F0E2FB22463146284602F080
:1029300019FE01F03FFA012003F038FD04F10A020C
:102940003146284602F00EFE002003F02FFD01F074
:1029500031FA18A000F034FF02F086F96FF07F40E2
:1029600003F00DFD0022114619A002F0BFFBA21ECC
:102970003146284601F002FD01F01CFA70BD00004E
:102980000A41726269747261727920636972636C60
:1029900065730A616E6420617263732E000000002B
:1029A000436972636C657300B07C010843697263AC
:1029B0006C650000436972636C65732077697468A5
:1029C0000A416E7469616C696173696E6700000029
:1029D000416E7469616C69617365640A63697263ED
:1029E0006C65000010B5002414A11CA000F0B2FF1B
:1029F0004FF47F0000F016FD02F036F909F020FCDC
:102A000040F2DC5000F032F800F0FCFC02F0FEF87E
:102A100000BF05E0134951F824000DF0D0F9641C03
:102A2000042C03D2FFF744FF0028F3D0002108460E
:102A300001F0CCFF0C4801F077FF10BD0A656D571F
:102A4000696E20737570706F7274730A736F667439
:102A50007761726520637572736F7200437572736C
:102A60006F72000094020020CC3D01082DE9FE4366
:102A7000044600271E49B1F9000006F05DFF642CF2
:102A80000EDD0E2100221B48B0F902000723CDE91C
:102A9000012100903C220A21084605F02EFE00E0AC
:102AA0000020804622460021404605F0A9FE02F0A3
:102AB0007EFE064600BF02F07AFE851B2946404690
:102AC00005F0FFFE07F0B3F80A2002F0ACF9A542CA
:102AD00003D2FFF7EDFE0028EDD0404607F028F8BE
:102AE0000FF042F907F0A3F83846BDE8FE83000076
:102AF00024020020380200202DE9F04F87B004F0B6
:102B0000A7FE834604F0A7FE0690454805900021E5
:102B100044A000F01FFFFF2000F084FC0490049804
:102B200007F07EFD04900A274FF04B08ABEB07003F
:102B3000A0F10A090698A0EB0800A0F10A0AB9F171
:102B40008C0F01DD4FF08C09BAF1780F01DD4FF0E9
:102B5000780A3B460222002138A08DE80007FEF7E4
:102B6000E9FF054601212846FFF7E5F8012128463F
:102B7000FFF705F9002201212846FEF7A3FF0122F5
:102B800011462846FEF7BAFF30492846FFF7DCF821
:102B9000284607F0C3F8039040F2827000210091AC
:102BA0000B460A46CDE901102948039905F094FA2D
:102BB0000646304607F052FD3046059905F015FCF3
:102BC00001F0F8F8002406E0304605F017FBFA2083
:102BD000FFF74CFF641C0A2C03DAFFF769FE00289C
:102BE000F2D0002406E0304605F0F2FAFA20FFF7B2
:102BF0003DFF641C0A2C03DAFFF75AFE0028F2D0CE
:102C00004FF4FA70FFF732FF304606F091FF284686
:102C100006F08EFF049807F003FD07B0BDE8F08FC3
:102C2000D80302084672616D652057696E646F773C
:102C30002026204C697374626F78000053656C65C0
:102C40006374206C616E677561676500E4940108C8
:102C50007083020870B5A024782522A128A000F076
:102C600079FE6FF07F4003F08AFB2A4803F0A6FB51
:102C70000022114628A002F039FA0A35A4F13202E6
:102C80002B460721294802F089FC2B4604F1320229
:102C90000721264802F082FC4FF47F4000F0D0FB71
:102CA0000646B6F57F4F03D04FF6FF7003F067FB83
:102CB00005F10A03224603211D4802F06FFC6FF064
:102CC0007F4003F05CFB01F043FBA5F10A0000EB41
:102CD000400304EB44020421164801F08FFB01F08D
:102CE00069F870BD0A5374616E6461726420616E2C
:102CF0006420616E7469616C6961736564000000D1
:102D000041726269747261727920506F6C79676F79
:102D10006E730000D01102084172626974726172B0
:102D2000790A506F6C79676F6E73000044D40208A3
:102D300060D402086CD402082DE9F04F87B004F08B
:102D400087FD824600EBDA70471004F084FD82466E
:102D500000EBDA7045104FF00208894903C9CDE94C
:102D600004018749083103C9CDE90201A5F1280B07
:102D70004FF00A09282D05DA0E2002904FF0010BC2
:102D80004FF004097FA187A000F0E4FD01F06CFF83
:102D90006FF07F4003F0F3FA844803F00FFB5A46CC
:102DA000394683A002F0B2F902200090DDF810A0AD
:102DB0000AEBDA7CA7EB6C005246029BE91A05F09D
:102DC00086FCADF8180002200090DDF814A00AEB94
:102DD000DA7CA7EB6C00524605EB0901039B05F07A
:102DE00076FCADF81A00BDF9180006F012FFBDF927
:102DF0001A0006F00EFF4FF44870FFF737FEBDF9DA
:102E00001A004FF4FA72002105F0FAFC00269DE04A
:102E1000BDF91800654905F0E6FCBDF918004FF44E
:102E20007F42002105F0CAFCBDF91800FF220121F4
:102E300005F0C4FC00240DE0BDF91800214605F0A2
:102E400040FDBDF91A00214605F03BFD052001F0CB
:102E5000EAFF641C642C03DCFFF72AFD0028EBD09A
:102E6000BDF9180056A105F0E4FC0EE0BDF918000C
:102E7000214605F026FDC4F1C801BDF91A0005F090
:102E800020FD052001F0CFFF641E002C03DBFFF7BF
:102E90000FFD0028EAD0BDF918004CA105F0C9FCCF
:102EA000BDF91800002105F0FDFC0EE0BDF9180089
:102EB000214605F006FD04F1C801BDF91A0005F030
:102EC00000FD052001F0AFFF641C642C03DCFFF75C
:102ED000EFFC0028EAD00EE0BDF91800214605F00D
:102EE000F0FCC4F5C871BDF91A0005F0EAFC052034
:102EF00001F099FF641E002C03DBFFF7D9FC0028CA
:102F0000EAD0BDF91800354905F06DFCBDF918008F
:102F100033A105F08EFC0EE0BDF91800214605F046
:102F2000D0FC04F5C871BDF91A0005F0CAFC0520F3
:102F300001F079FF641C642C03DCFFF7B9FC002866
:102F4000EAD04FF47A70FFF791FD761C4645FFF604
:102F50005FAF4FF47A70FFF789FDBDF9180006F0F6
:102F6000E7FDBDF91A0006F0E3FD4FF47A70FFF7B4
:102F70007DFD1F4803F022FA07B0BDE8F08F000086
:102F80007CD402080A50726F677265737362617253
:102F90007320696E0A616C6C207661726961746974
:102FA0006F6E73005769646765747300B07C0108C5
:102FB00050726F6772657373206261720000000067
:102FC00054616E6B20656D7074790000416E7920DC
:102FD00074657874202E2E2E00000000D80302089D
:102FE000416E7920666F6E74202E2E2E0000000038
:102FF0005C8401082DE9FC4136A13FA000F0AAFC49
:1030000000F0C6F8FF2000F00DFA0646304607F043
:1030100007FB06460020009003463B4A0E21019024
:103020003A4801F093FE054600240CE0384901EBD4
:10303000C4014868FFF71AFD354911F83400012131
:1030400003F08AF9641C0C2CF0D34FF47A70FFF76C
:103050000DFD002410E0284607F021F940B14FF49F
:103060009871284606F06EFE0746214605F052FF8D
:103070006420FFF7FBFC0A34642CECDD4FF448704D
:10308000FFF7F4FC284607F00AF940B11422114674
:10309000284607F034F94FF4FA70FFF7E7FC2846AA
:1030A00007F0FDF840B114223C21284607F027F92B
:1030B0004FF44870FFF7DAFC284607F0F0F810B13B
:1030C000284606F035FD00F09DF9304607F0A8FAD5
:1030D000BDE8FC810A4469616C6F6720626F7865A6
:1030E000730A63616E20656173696C792062652083
:1030F00063726561746564004469616C6F67206226
:103100006F78657300000000B12B0108DC7B0208BA
:103110002C7D020810B58C200A4908600AA117A06E
:1031200000F018FC01F0A0FD0CF064FC08F09EFF1C
:1031300000F068F909F004F800F064F908F044FFC1
:1031400010BD0000E80200200A4F7074696D697AB2
:1031500065642064726177696E6720726F75746947
:103160006E650A666F722064726177696E672067A8
:10317000726170682064617461000000447261775C
:10318000696E672061206772617068007047000097
:1031900010B50349B1F9000006F0A6FF10BD00000C
:1031A00028020020F0B58DB0A02634224A49684696
:1031B000FDF7BFF902F000FB074639466846FDF708
:1031C00025F94FF47F0000F02DF96FF07F4000F0FB
:1031D00037F901F049FD414803F0F0F80C200446AE
:1031E000024631463EA001F091FF3F4803F0E6F869
:1031F00004F117000446024631463CA001F086FF68
:10320000FF2003F0BCF8474803F0D8F804F1200091
:1032100004460246314644A001F078FF4B4803F0D3
:10322000CDF804F1120004460246314648A001F0F0
:103230006DFF4F4803F0C2F86FF07F4003F09FF836
:1032400004F10F00044602463146684601F05EFF75
:10325000224803F0B3F86FF07F4003F090F8DC22CF
:10326000A02144A001F052FFC4F1CF0004F10F01EE
:1032700001EB600543484088A5EB6005A02D00DD0B
:10328000A02540480088C0F5A07041102A463D485E
:1032900001F084FF2D4803F091F8D22200213AA0DA
:1032A00001F024FF002001F00BFEDC22002139A0F8
:1032B00001F01CFF4FF47A5001F002FEE6220021DB
:1032C00039A001F013FF41F28830FFF7CFFB00F087
:1032D00099F80DB0F0BD000088830208D0110208F3
:1032E000656D57696E00000050A60108556E69763D
:1032F000657273616C206772617068696320736FB7
:103300006674776172650A666F7220656D626564C6
:10331000646564206170706C69636174696F6E7359
:10332000000000004CC50108416E79204350552033
:103330002D20416E79204C4344202D20416E792070
:103340004170706C69636174696F6E005C84010820
:10335000436F6D70696C6564204170722032332058
:10336000323031372030393A31333A3434000000CA
:1033700074AF01087777772E7365676765722E6380
:103380006F6D000070E602084755495F4F533A20C1
:10339000000000004755495F414C4C4F435F534983
:1033A0005A453A2000000000436F6D70696C6572E9
:1033B0003A20556E6B6E6F776E00000010B503A15A
:1033C0000BA000F0C7FA0EF0A1FA10BD0A53616D10
:1033D000706C6573207573656420696E0A4E617642
:1033E00069676174696F6E2073797374656D7300BA
:1033F0004E617669676174696F6E20737973746565
:103400006D00000010B50020044908700EF0ACFCFF
:1034100003480068401C0249086010BD48020020B3
:103420004402002070B50546FF2001F084FC08B17D
:103430002C4600E00024204602F09BFF204670BD91
:1034400070B50546FF2001F076FC08B12C4601E07E
:103450006FF07F44204602F092FF204670BD0000CE
:103460002DE9F84F4FF00D0A002004F08BF9009081
:103470004FF4A07846244FF03C09A849A8A000F0DA
:1034800069FAA8EB0908C4F1F00090FBFAF56FF0B7
:103490007F4002F074FF002002F06BFF01F0E4FBBC
:1034A000A24802F08BFFA2A001F07EFDA34802F02B
:1034B00085FFA3A001F078FD4FF0FF3001F000FD83
:1034C000A4A001F071FD102001F0FAFCA2A001F00F
:1034D0006BFDA3A001F068FD009801F0F1FCA1A034
:1034E00001F062FDA2A001F05FFD40F2352001F085
:1034F000E7FCA34802F062FF6FF07F4002F03FFF5D
:10350000621900219FA001F0F1FD032000FB05429C
:1035100000219DA001F0EAFD052000FB05420021ED
:103520009BA001F0E3FD062000FB054200219AA0CC
:1035300001F0DCFD082000FB0542002198A001F00D
:10354000D5FD0A2000FB0542002197A001F0CEFD29
:103550000C2000FB0542002195A001F0C7FD0027CB
:10356000D0E0C7EB0720B0FBF8F086B209EB07000C
:103570001FFA80FB304602F002FF6019421E21460E
:10358000584601F099FFC6F1FF0101EB0121FF222E
:1035900002EB012002F0F3FE022000FB0540421E78
:1035A0006119584601F088FF300202F0E8FE03205E
:1035B00000FB0540421E022000FB0541584601F079
:1035C0007BFFC6F1FF0101EB014101F57F4002F0F5
:1035D000D6FE042000FB0540421E032000FB0541EF
:1035E000584601F069FF300402F0C9FE052000FBD7
:1035F0000540421E042000FB0541584601F05CFFD7
:10360000C6F1FF0101EB012101F57F0002F0B7FED9
:10361000062000FB0540421E052000FB05415846E0
:1036200001F04AFF06EB062101EB064002F0A7FE7F
:10363000072000FB0540421E062000FB05415846BE
:1036400001F03AFF06EB062002F099FE082000FB8D
:103650000540421E072000FB0541584601F02CFFA3
:10366000C6F1FF014FF6FF7202EB014002F087FE48
:10367000092000FB0540421E082000FB054158467A
:1036800001F01AFF06EB0621080202F078FE0A207C
:1036900000FB0540421E092000FB0541584601F091
:1036A0000BFFC6F1FF01444A881802F068FE0B20A8
:1036B00000FB0540421E0A2000FB0541584601F070
:1036C000FBFE06EB064002F05AFE0C2000FB054014
:1036D000421E0B2000FB0541584601F0EDFEC6F1ED
:1036E000FF014FF0FF1202EB012002F048FE0D2017
:1036F00000FB0540421E0C2000FB0541584601F02E
:10370000DBFE7F1C474504DAFFF7D2F800283FF4C0
:1037100028AF00F04FFBBDE8F88F0000C8E70208B3
:10372000436F6C6F7220626172000000B07C010810
:10373000436F6C6F7220626172730A0078580108DF
:103740000A4C43445F434F4E54524F4C4C45523AFF
:10375000200000000A0000002062707000000000DD
:103760002C20000020636F6C6F72730A0000000051
:1037700046697865642070616C657474653A2000F0
:103780008C5F010852656400477265656E00000039
:10379000426C75650000000047726579000000000A
:1037A00059656C6C6F7700004379616E0000000012
:1037B0004D6167656E74610000FFFF007047000097
:1037C00010B50446024804600EF0D8FA10BD00009F
:1037D0004C02002010B511A120A000F0BBF80EF0A3
:1037E0002BF80D22224923A00DF06CFF10222B494B
:1037F0002BA00DF067FF2F4A2FA13CA00DF0F6FF84
:103800003F4A40A148A00DF0F1FF4C4A4CA14FA007
:103810000DF0ECFFFFF7F6FD10BD0000656D576978
:103820006E20737570706F7274730A554E49434FF2
:1038300044452028616C6C20636861726163746523
:103840007273290A616E64205368696674204A495C
:103850005320284A6170616E29000000496E74652A
:10386000726E6174696F6E616C20666F6E74730046
:10387000C48C010841534349492063686172616304
:10388000746572730A26204575726F7065616E0AE1
:10389000657874656E73696F6E730000ECDF010804
:1038A0004869726167616E6120260A4B6174616BC1
:1038B000616E6100A4020020466F6E74436F6E76E5
:1038C000657274657220617661696C61626C6520F5
:1038D000746F2063726561746520796F7572206FF3
:1038E000776E20666F6E74732E2E2E0050726F707E
:1038F0006F7274696F6E616C0A466F6E747300004C
:10390000C0020020466F6E74732077697468206669
:103910006978656420636861726163746572207799
:10392000696474682E2E2E004D6F6E6F7370616324
:1039300065640A466F6E747300000000DC020020AC
:103940000A2B2D20302E3132333400004469676950
:10395000747300002DE9F04198B004460D466846A6
:1039600002F0E8FC2E4804602E48056002F01AFDC3
:10397000FFF70EFC4FF47F00FFF754FD6FF07F4020
:1039800002F0FDFC01F070F9274802F017FD03F08A
:1039900062FF032190FBF1F0A0F10A0703F058FF4A
:1039A000064600EBD67041103A46204601F0AEFBC9
:1039B0001C480068A8B11D4802F000FD03F04BFF51
:1039C000064600EBD6704010A0F10A0803F040FF55
:1039D000074600EBD770411042461248006801F0DC
:1039E00095FB1049096811B14FF4FA6101E04FF4F9
:1039F0007A610846FFF73AF80EF0C0F90EF0B4F914
:103A0000684602F023FC06F012F9FFF7FBFCFF20EA
:103A1000FFF708FD01F028F918B0BDE8F0810000BB
:103A20003C0200204C020020D01102087858010806
:103A3000F0B587B000265DA168A0FFF78BFF0025D9
:103A400008E0694951F8250001F061F903A921F85E
:103A500015006D1C082DF4DB01F0A9FE04460025BD
:103A60006FE005F0070103AA32F8110002F08EFCA6
:103A7000FCF7FCFB4FF4A07190FBF1F201FB12008C
:103A8000A03800B2ADF80400FCF7F0FBF02190FB89
:103A9000F1F201FB1200783800B2ADF80600FCF735
:103AA000E5FB4FF4A07190FBF1F201FB1201BDF8B0
:103AB00004001430084400B2ADF80800FCF7D6FB4F
:103AC000F02190FBF1F201FB1201BDF80600143069
:103AD000084400B2ADF80A00BDF90A30BDF908206B
:103AE000BDF90610BDF9040001F078FDBDF908002C
:103AF000B0F5A07F03DB40F23F10ADF80800BDF940
:103B00000A00F02802DBEF20ADF80A00BDF904003E
:103B1000002802DA0020ADF80400BDF90A000028F0
:103B200002DA0020ADF80A00BDF90800BDF9041062
:103B3000401ABDF90A10BDF90620891A00FB01667A
:103B40006D1C01F034FE001BB0F5FA5F03DAFEF7DE
:103B5000AFFE002885D001F02AFE001B642190FBF7
:103B6000F1F401F081F8FFF74DFC204802F026FC4B
:103B70006FF07F4002F003FC01F000FEC0F1F0079F
:103B800007EBD7704210052119A001F0AFFA04B974
:103B9000641C96FBF4F000EB80004700384601F00F
:103BA0008FF900F007F907B0F0BD00000A6D756CE1
:103BB0007469206C6179657220636C697070696EDC
:103BC000670A686967686C79206F7074696D697AD3
:103BD000656420647269766572730000486967687D
:103BE00020737065656400008CD40208CC2602083E
:103BF000506978656C732F7365633A20000000008C
:103C00002DE9F04786B003F023FE054603F023FEBE
:103C10008146284605EBD0714F10484609EBD0711C
:103C20004FEA6108FFF7EEFBFFF7B2FA00BF002092
:103C3000ADF810005020ADF8120028B2ADF8140015
:103C40007820ADF816004FF47F0002F092FB01F0EF
:103C50000BF8681E44490988A0EB010A0AEBDA70E8
:103C600041100F22404801F099FA404802F0A6FBAB
:103C70000E2204A93EA001F063FA02200321CDE93F
:103C80000010A8F11401A7F1320032236422FCF7DE
:103C90005FFEADF8080002200121CDE90010A7F178
:103CA0005A001E23502208F12801FCF751FEADF8FE
:103CB0000A00022000901E23502208F128010190E2
:103CC00007F10A00FCF744FEADF80C00BDF908004E
:103CD0002DA1FCF723FFBDF90800FF220021FCF70E
:103CE000C1FEBDF90A002BA1FCF718FFBDF90C00BD
:103CF0002BA1FCF713FFBDF908001C49FCF7D6FE09
:103D000000F060F804464CB90124BDF90A00210214
:103D1000FCF7FCFE4FF4FA70FEF7A8FE002605E063
:103D200002A931F9160005F003FF761C032EF7D324
:103D3000012C04D0022C09D0032C0AD103E00AF094
:103D400009FA044605E00AF0E5F802E00DF008FF84
:103D500000BF00BF24B16E2C02D04E2C7FF467AFA1
:103D600006B0BDE8F087000070E60208D011020836
:103D7000656D57696E20546F756368207363726553
:103D8000656E2064656D6F0043616C696272617479
:103D9000650000004B6579626F617264000000008D
:103DA000546573742063616C6962726174696F6ECB
:103DB0000000000010B54FF47A60FEF757FEFFF7E1
:103DC00021FB10BD2DE9F843002501F0F0FC00F5C2
:103DD0007A6603F040FDA0F1280803F039FDA0F158
:103DE000460902200523502241460090484604F02F
:103DF0006EFC074604E001F0C7FC051E00D00BE096
:103E000001F0D5FC341A24B1FEF752FD08B90120A7
:103E100000E000200028EED100BF384605F088FE03
:103E200005F005FF2846BDE8F88300002DE9F047BE
:103E300098B000F0EBFE00F017FF042006F0DEFB68
:103E40001E205949086014205849086003F003FDFA
:103E5000A0F13C0903F0FCFCA0F1500A3C205021E9
:103E600053460A22CDE900910290514951A0FDF735
:103E700061FE52494880B1F9020005F04FFF5049F8
:103E800048800E2148224E48B0F90200CDE90121B8
:103E90000090464803684448142102680420FCF757
:103EA0006DFD484908800E214E224548B0F90200B8
:103EB000CDE9012100903D4803683B481421026888
:103EC0002820FCF75BFD3F494880B1F900003EA186
:103ED000FCF724FE3B49B1F902003DA1FCF71EFEB0
:103EE0000DF042FF05F0A3FEFFF75CF903F0B0FC14
:103EF000814600EBD9704510412603F0A9FC471B11
:103F00004FF000083B460822002133A0CDE9008590
:103F10000296FDF70FFE29490880B1F9000005F06F
:103F20001DFF814600200A22CDE9012003460246FA
:103F30000146CDF80090039005F02AFD2049088045
:103F400005F075FE00202749086018E0684602F079
:103F5000F1F90020244908600DF006FF2349214AA9
:103F6000126851F8220080470020214908706846F5
:103F700002F06CF91B480068401C1A4908601B4895
:103F80001849096850F821000028DFD1002405E015
:103F90000A4931F9140005F0CBFD641C032CF7D35A
:103FA00018B0BDE8F0870000300200203402002085
:103FB000192D0108436F6E74726F6C002802002087
:103FC000380200202402002048616C7400000000C8
:103FD0004E65787400000000656D57696E20446579
:103FE0006D6F0000400200204402002050020020BB
:103FF000480200202DE9F04F8BB005465D48B0F92E
:1040000022000A905B48B0F924A080698469B4F862
:104010000C80A84509DCE089A84206DBD4F80090B2
:10402000A5EB08064FF0FF371DE0A068D4F8049018
:10403000A8B1B0F80080A8450DDC4188A9420ADB90
:104040000288AA1A95B2416801EB8501B1F90060B6
:10405000B1F9027006E04FF0FF36374602E04FF04C
:10406000FF36374600BF701C002878D04148806971
:10407000007DA17C10FB01F00990207C08903D4858
:104080008069007D07903B48B0F92AB0584603F09C
:1040900019FEC0B20690374A099806FB0090A17C31
:1040A0000123CDE90231CDE9040210468069C07DCB
:1040B00011468969897DCDE900105146DDE9073255
:1040C0000A9803F06DF9781CD8B14BF0020003F0A8
:1040D000F9FD284A099807FB0090A17C0123CDE94E
:1040E0000231CDE9040210468069C07D114689691C
:1040F000897DCDE900105146DDE907320A9803F0C9
:104100004FF91C488069407D1A498969097D8842B8
:1041100021DDBBF1020F1ED08BF0040003F0D2FDB5
:1041200014488069007DDFF84CC0DCF818C09CF8AA
:1041300015C010FB0CA10F488069407D00EB0A03FD
:104140000C48806990F816E0DDF820C00A980CFB56
:104150000E0203F0D1FA069803F0B4FD00BF054843
:10416000408C617C084400B2024948840BB0BDE831
:10417000F08F0000E0520020014603488069826908
:1041800000BF507C70470000E052002000BF0222B8
:104190000A80704730B50446A26995898D4204DCD7
:1041A000D089884201DB012030BD93683BB118887B
:1041B000884204DC5888884201DB0120F4E700BF14
:1041C0000020F1E72DE9F04F87B005464248B0F9ED
:1041D0002A80014689698869294600F07FF80646E9
:1041E000002E76D03188691A706800EBC104A77878
:1041F000404603F067FD0690374901226068CDE92B
:104200000227CDE9040108468069C07D8969897D5E
:10421000DFF8C4C0CDE90010DCF818C09CF81430F9
:104220002278DFF8B4C0BCF92410BCF9220003F0F6
:10423000B7F829488069407D27498969097D884206
:1042400037DD2548806990F8179023488069407DC4
:1042500010FB09FA20488069007D10FB09FBB8F1CA
:10426000020F25D001F06DFA059001F04BFA049091
:1042700002F085F8DFF860C0BCF922C094F800E0D5
:104280000CEB0E02DFF850C0BCF924C00CEB0A03A3
:10429000DFF844C0BCF924C00CEB0B01DFF838C0D8
:1042A000BCF9220003F028FA059802F068F800BF74
:1042B00000BF069803F006FD0748B0F922006178B8
:1042C000054A9269927D11FB020000B202494884BE
:1042D00000BF07B0BDE8F08FE052002007E0028881
:1042E0008A4203DC42888A4200DB02E080680028C0
:1042F000F5D100BF7047000070B504460A498969CE
:1043000088692146FFF7EAFF054655B12988611AF9
:10431000686810F8310004498969897D10FB01F053
:1043200070BD0020FCE70000E052002000BF012229
:104330000A80704770B504460D462946A069FFF70C
:10434000CDFF06460EB1012070BD0020FCE7000045
:104350000120024981F85D0070470000E052002012
:1043600010B50AF003FC0348006803498865081D7E
:10437000086110BD34000020E05200207CB50546E5
:104380000E46144606F07CFB054406F085FB064409
:10439000194890F85D0058B9174890F85C004543FB
:1043A000154890F85C004643134890F85C0044437D
:1043B000281B00F051F8ADF80000281900F04CF867
:1043C000ADF80400301B00F047F8ADF802003019DA
:1043D00000F042F8ADF80600684606F095FB48B1DB
:1043E00000BF224631462846FEF7B8F806F006FB25
:1043F0000028F6D17CBD0000E05200202DE9F041FC
:1044000006460F4614461D4606F03AFB044406F0E5
:1044100043FB0544002006F077FBC0B100BF0D4808
:10442000806C406B48B10B48806C2B462246394665
:10443000D0F834C03046E04705E02B4622463946E6
:1044400030460AF043F806F0D9FA0028E7D1BDE873
:10445000F0810000E05200200146064890F85C0020
:1044600028B1044890F85C0091FBF0F000E00846A9
:1044700000B27047E052002070B504460D46002699
:10448000002C00DA0024281BB0F5A07F01DB04F229
:104490003F15A54201DA254601260F48826D0F48D7
:1044A00006CA06C00C48806D0D4908600D480B49CE
:1044B00008600846084988650B480C4908600C48A4
:1044C00004600C48056007F097FCFCF75DFC0A48A7
:1044D00001490861304670BDE05200202C000020E8
:1044E00034000020F5D50008200300200C00002037
:1044F00010000020140000202400002070B50446A5
:104500000D46074890F85C0094FBF0F4044890F8DE
:104510005C0095FBF0F529462046FFF7ADFF70BD26
:10452000E052002010B50446024981F85C40FCF7D7
:104530002BFC10BDE05200202DE9F04105460C4651
:1045400014B90020BDE8F081204600F015F80646B9
:1045500086B1304600F0BEF807462DB12246294606
:104560003846FBF75FFF04E022460021384602F0A0
:104570000EFD00BF3046E5E770B504460CB90020DB
:1045800070BD204606F0FAFF05462846F8E770B5EC
:1045900004462046FFF7F0FF05463DB1284600F0EF
:1045A00099F806462246002102F0F1FC284670BD2B
:1045B00010B5044604B910BD20460AF041FB00BF07
:1045C000F9E710B50446B4F90000FFF7F1FF002049
:1045D000208010BD2DE9F041002607F0A7FB002543
:1045E00010E0144830F83500124901EBC501498844
:1045F0000844104931F83710081A04B2B44200DDFB
:1046000026463D460B4800EBC5008788002FE8D1C1
:10461000084830F93500074901EBC501B1F902102E
:104620000844C0F57A5004B2B44200DD2646304654
:10463000BDE8F0811C43002010B504460CB90020F1
:1046400010BD20460AF0C0FEFAE7000040F2F51067
:104650000949486088604FF47A50C8810882002078
:1046600008608881042005494880002008808880EF
:104670000120034908707047CC5200201C430020E1
:10468000940000202DE9F04705460C4620B2FFF7C4
:1046900073FF0646DEB1D5B12846FFF7CDFF804651
:1046A000A04501DA404600E020460746304600F0CB
:1046B00011F88246284600F00DF881463A464946F0
:1046C0005046FBF7AFFE2846FFF772FF00BF3046AB
:1046D000BDE8F087014609B900207047024830F96B
:1046E0003100024A1044F8E71C4300209C040020DB
:1046F0002DE9F05F0446884616464FF00009CA4689
:1047000046B131B24046FFF717FFB0F1000901D1C1
:104710004FF0010ABAF1000F1BD1B4F800B00BF151
:1047200001025100B4F90200FFF7ACFF05462DB9B4
:104730004846FFF73DFF4FF0010A09E02846FFF722
:10474000C9FF074627F81B9065802088401C208001
:1047500000BF5046BDE8F09F2DE9F0410446B4F992
:10476000027097B13846FFF7B5FF0646002504E012
:1047700006EB4500FFF725FF6D1C2088A842F7DCFB
:10478000A01CFFF71EFF00202080BDE8F08101463D
:10479000088870472DE9F04104460D464FF00008A7
:1047A0002088A84209D9B4F902702FB13846FFF722
:1047B00091FF064636F9158000BF4046BDE8F081FE
:1047C0002DE9F04105460E46002731462846FFF701
:1047D000E1FF04461CB12046FFF77CFF0746384640
:1047E000BDE8F08130B5136814680C4414600024EF
:1047F00015682C7004E000F0010430345C5440086B
:104800000C1EA1F10105E9B2F5D130BD70B5054628
:104810000C46284601F07EF8C6B2234600223146F7
:10482000284600F001F870BD2DE9FF410D461646FF
:104830001C462146684607F0CEFA281AC5B20EB1CA
:10484000681EC5B2174850F825000099884204D860
:10485000144850F82500401E00901CE02846691EB0
:10486000CDB2B04205D1104801782268501C2060BA
:1048700011700C4850F82580009890FBF8F0C7B2F2
:10488000009807FB1800009007F13000C1B22268C1
:10489000501C20601170002DE0D1002021680870AC
:1048A000BDE8FF81A83C01089800002030B51368DE
:1048B000082900DD30BD14680C441460002415681C
:1048C0002C7005E000F00F04054D2C5D5C540009D0
:1048D0000C1EA1F10105E9B2F4D100BFEAE7000026
:1048E000D03C010810B5002802DA2D22404200E039
:1048F0002B220C68631C0B60227000230C68237051
:1049000010BD000010B50AF033FE00200349087006
:10491000034908600349086010BD0000BF00002083
:10492000AC000020B00000202DE9F04705462248E9
:10493000D0F80080006885423AD02C68E0680068B2
:10494000042801DD042001E0E068006807460AE071
:10495000E068806850F82790484602F0A1FC1749AB
:1049600021F8170000BF381EA7F10107F0D10AF0A7
:10497000FFFD208861884843460011480068864250
:1049800007D01048B0F90000FFF712FE00200D49D3
:10499000088030B2FFF7FBFD0A49088001200A4970
:1049A00008700548056007F015F90CF077FE00BFA8
:1049B0004046BDE8F0870000C0000020DC00002079
:1049C000C8000020B4000020BF0000202DE9F34FF4
:1049D00093B088480088002878D0874801681398E9
:1049E000814201D0012000E0002084490A68149926
:1049F0008A4201D0012100E0002108430028EBD0C9
:104A00007F480078002870D07E48006800680890D1
:104A10007848B0F90000FFF75DFE0990794800681A
:104A20000068B0F800B0744913980968461A002E5F
:104A30000DDD01201190002012907248006800687E
:104A4000008810901098A0F1010A0F960DE04FF029
:104A5000FF301190ABF1010012904FF0FF30109039
:104A600000200F90129800EB060A64491498096818
:104A7000471A002F0DDD01200D9000200E90614897
:104A80000068006840880C900C98401E0A900B97B4
:104A900010E04FF0FF300D905A48006800684088E1
:104AA000401E0E904FF0FF300C9000200B900E989F
:104AB00038440A900E9C8DE004EB07080B98844262
:104AC00005DB0A98844202DC012001E08FE000202F
:104AD00007900B98804504DB0A98804501DC012093
:104AE00000E000200690129D6FE078E0099800EB4E
:104AF000450104FB0BF001EB4000019005EB0609BA
:104B000022462946089800F0A8FD03900F98854298
:104B100005DB554503DC079808B1012000E00020C3
:104B200005900F98814505DBD14503DC069808B157
:104B3000012000E000200490039898B1059828B166
:104B4000E21BA91B089800F088FD58B9019B1A8840
:104B50002D4BB3F9023019192B4BB3F9003058190A
:104B60000CF026FD049840B1099800EB490108FBC0
:104B70000BF031F8100002900DE0234AB2F9022048
:104B800002EB0801204AB2F9002002EB09000AF00A
:104B900023FB80B20290DDE901100880039890B1F8
:104BA00003980AF0C1FF80B20090174AB2F90220C0
:104BB00002EB0801144AB2F9002002EB0900009A46
:104BC0000CF0F6FC00BF11980544109885428DD179
:104BD0000D9804440C9884427FF46EAF00BF0649E0
:104BE0001398086005491498086006F0F3FF15B0A3
:104BF000BDE8F08FB4000020CC000020D0000020E1
:104C0000BF000020C0000020B600002010B50D48F5
:104C1000806C016A0C4888470AF0AAFC01200B4905
:104C200008700B480B4908600B480C4908600C4899
:104C3000006818B90B48FFF777FE01E00CF02EFD75
:104C400010BD0000E0520020D4000020BF00002072
:104C5000291B0108AC000020591B0108B0000020EE
:104C6000C0000020CC3D010810B50021084600F02E
:104C7000E9FD40F6FF731A465942084600F002F873
:104C800010BD00002DE9FC4104460D4616461F46A6
:104C9000042003F017F880461548006C04441448BB
:104CA000406C05441248006C06441148406C0744AF
:104CB00020B2ADF8000030B2ADF8040028B2ADF873
:104CC000020038B2ADF80600684605F01DFF50B18D
:104CD00000BF3B4632462946204602F00DFD05F056
:104CE0008DFE0028F5D1404602F0ECFFBDE8FC81C6
:104CF000E052002070B50446B4F90630B4F904203F
:104D0000B4F90210B4F90000FFF7BCFF70BD70B534
:104D10000446204602F0C4FA0546284670BD70B528
:104D20000446204602F0BCFA05B2284602F0C0FD57
:104D30000646304670BD10B504462046FFF7EFFF2B
:104D4000A04201D1012010BD0020FCE72DE9FC5F4D
:104D500004460D4616461F46DDE90C8900964B4673
:104D6000424639462046D4F800C0E04782465046C5
:104D700004F0D4FF0190618A504604F096FB50463F
:104D800005F066FD019805F063FD0EE01834002083
:104D9000009003460246D4F800C020460199E0473F
:104DA0008346584605F054FD00BF681E051EEDDC25
:104DB000504605F0A7FC1E21019805F093FB5046D4
:104DC000BDE8FC9F2DE9F04105460E4617460C2034
:104DD000FFF7DDFB8046B8F1000F0BD04046FFF730
:104DE00079FC044605482060656030B2208138B205
:104DF000608100BF4046BDE8F0810000342E02080B
:104E00002DE9F04104460E46174654B12046FFF7FF
:104E100061FC054628683A463146036828469847AB
:104E200000BFBDE8F08170B5054600F0C0FC461932
:104E300009E000F07AFB052C01DD052100E02146A8
:104E4000084601F0F1FD00F0B2FC341A002C01DD3F
:104E5000012000E000200028EBD170BD10B5044611
:104E60002046FBF73FFF10BD70B506460C461546C1
:104E70000348448485843046FBF734FF70BD00004E
:104E8000E052002070B504460D4600222946204617
:104E900000F022F870BD2DE9FF4105460E46174689
:104EA0001C4601A800906B46002221462846FFF7C9
:104EB000BBFC3A46314601A800F018F9BDE8FF8175
:104EC0001FB5044601A8009069462046FFF79EFCE6
:104ED00001A800F069F81FBD7FB504460D461646CF
:104EE00001A800906B46324629462046FFF79CFCFD
:104EF00001A800F059F87FBD7FB505460C4601A812
:104F00000090002D06DA69462846FFF7EBFC0546BF
:104F1000601EC4B2284600F0FDFCC6B205E02020A9
:104F2000009908700098401C00903046711CCEB269
:104F3000A042F4DB69462846FFF768FC01A800F0B0
:104F400033F87FBD00B500F013FC0549898C084497
:104F500000B2034988840846008C488400BD0000E4
:104F6000E052002070B504460D4600222946204636
:104F700000F001F870BD7FB505460C46164601A845
:104F8000009069462846FFF7ADFC0546601EC0B29A
:104F9000044601466B4632462846FFF745FC01A809
:104FA00000F002F87FBD00002DE9FC4704460CB973
:104FB000BDE8FC8700F0DCFB07464B48B0F92280D7
:104FC00000F008FC06464848808C801B00B2464929
:104FD000888477E047F6FF71204601F0FFFE8246A5
:104FE0005146204601F0D8FE05463F4890F82C0077
:104FF00000F00300012807D0022807D1284605EB5E
:10500000D0714FEA610904E0A94602E04FF00009BF
:1050100000BF00BF3448408CA0EB090000B2324909
:105020004884ADF80000BDF800002844401E00B2DE
:10503000ADF804000846808CADF80200BDF802000F
:105040003844401E00B2ADF806006A46514620467C
:1050500001F060FDBDF802002349888451462046D6
:1050600001F090FB044420780A2802D020780D2813
:105070001ED11D4890F82C0000F00300012802D03A
:10508000022805D100BF0FFA88F01749488404E0D0
:105090001548008C1449488400BF00BF20780A28B6
:1050A0000CD11148808C384400B20F49888405E047
:1050B000BDF80000284400B20B494884207800B9AC
:1050C00003E0641C2078002884D100BF0648808C4F
:1050D000304400B2044988840846B0F92C0020F01E
:1050E0000300888500BF63E7E052002070B50646E4
:1050F0000C46154620B20449488428B288843046BC
:10510000FFF752FF70BD0000E05200202DE9F04192
:1051100004460D4616460949B1F92C1041F002002B
:1051200001F06EF90746324629462046FFF7DEFFBA
:10513000384601F065F9BDE8F0810000E05200203A
:1051400070B504460D46164647F6FF7332462946AB
:10515000204600F001F870BD2DE9FC4106460C46E2
:1051600017469846C6B1002564B1204605F022FBDB
:1051700005463DB12A462146684601F08BFE684649
:1051800005F018FB43463A462146304601F02CFD17
:10519000284605F00FFB00BFBDE8FC817CB5044646
:1051A0000D4616461348006C05441248406C0644F0
:1051B00028B2ADF8000021880844401E00B2ADF8C6
:1051C000040030B2ADF8020061880844401E00B20D
:1051D000ADF80600684605F097FC48B100BF3246BE
:1051E00029462046FDF7CEF805F008FC0028F6D148
:1051F0007CBD0000E05200202DE9F04F8BB004464A
:105200000D4616461F46DDF85080D4F80C90B4F8D1
:1052100000A060880990484602F01FFB8346BBF15E
:10522000000F06D1E088012801D0002000E02A48C4
:105230008346B9F1000F04D099F8041009B1022196
:1052400000E00021084601F0B1F80A902248006C05
:1052500005442148406C064428B2ADF81C000AFB06
:105260000750401E00B2ADF8200030B2ADF81E006D
:10527000099800FB0860401E00B2ADF8220007A8A4
:1052800005F042FC10B300BF206960B1D4E902010F
:105290008DE883016388228820693146D0F800C0F8
:1052A0002846E0470EE0A188E288A068CDE9040B1B
:1052B000CDE90078CDE90221524631462846099BC6
:1052C00002F06EF805F09AFB0028DDD10A9801F093
:1052D0006DF80BB0BDE8F08FE05200207CB50646BB
:1052E0000D4614461248006C06441148406C0544B3
:1052F000301B00B2ADF80000301900B2ADF8040068
:10530000281B00B2ADF80200281900B2ADF8060063
:10531000684605F0F9FB48B100BF224629463046F1
:10532000FDF782F805F06AFB0028F6D17CBD00008D
:10533000E05200207CB504460D462A4621466846C8
:1053400001F0ECFDBDF800001749B1F84010084429
:1053500000B2ADF80000BDF802001349B1F84410E6
:10536000084400B2ADF80200BDF804000E49B1F8DF
:105370004010084400B2ADF80400BDF806000A4928
:10538000B1F84410084400B2ADF80600684605F0D4
:10539000BBFB38B100BF684608F094F805F02EFB5F
:1053A0000028F8D17CBD0000E05200202DE9F0413A
:1053B00006460F4614461D460B48006C04440A4836
:1053C000406C0544002005F09FFB50B100BF2B4608
:1053D00022463946304608F09DF805F00FFB0028BC
:1053E000F5D1BDE8F0810000E05200207CB5044614
:1053F0000D4616461248006C05441148406C0444A2
:105400000F48006C064428B2ADF8000030B2ADF889
:10541000040020B2ADF80200ADF80600684605F0C1
:1054200073FB58B100BF0648806D324621460368C1
:105430002846984705F0E2FA0028F4D17CBD000028
:10544000E05200202DE9FC4105460E4617469846DD
:105450001848007D441E1748006C05441548406CF0
:1054600006441448006C07441248406C8044281BD2
:1054700000B2ADF80000381900B2ADF80400301BDE
:1054800000B2ADF8020008EB040000B2ADF806006F
:10549000684605F039FB50B100BF43463A463146F5
:1054A000284608F0B0FA05F0A9FA0028F5D1BDE8C1
:1054B000FC810000E05200207CB504460D461646F3
:1054C0001148006C04441048406C05440E48406C80
:1054D000064420B2ADF80000ADF8040028B2ADF8E3
:1054E000020030B2ADF80600684605F00DFB48B189
:1054F00000BF32462946204602F0D0F805F07EFA79
:105500000028F6D17CBD0000E052002070B50646B0
:105510000D46304600F01EF9044614B165600120C6
:105520002060304604F004FB70BD10B5002400E09C
:10553000012400F005F80028FAD1204610BD000033
:1055400010B500240648006820B10548006880476F
:1055500000B1012404F06BFB00B10124204610BD12
:105560009C00002070B504460D4616460A48006CA3
:1055700004440948406C0544002005F0C5FA48B1D0
:1055800000BF324629462046FCF782FF05F036FA76
:105590000028F6D170BD0000E05200202DE9F04156
:1055A00006460F4614461D460B48006C04440A4844
:1055B000406C0544002005F0A7FA50B100BF2B460F
:1055C000224639463046FCF7D9FF05F017FA002885
:1055D000F5D1BDE8F0810000E05200202DE9FC414A
:1055E00004460D4616461F461448006C04441348F2
:1055F000406C05441148006C06441048406C074458
:1056000020B2ADF8000030B2ADF8040028B2ADF819
:10561000020038B2ADF80600684605F075FA50B1E0
:1056200000BF3B4632462946204602F065F805F0A9
:10563000E5F90028F5D1BDE8FC810000E05200202A
:1056400070B50446B4F90630B4F90420B4F9021078
:10565000B4F90000FFF7C2FF70BD70B503460C46F9
:10566000DD88042D29D004DC012D07D0022D45D181
:1056700013E0082D30D0102D40D133E09D885543E4
:1056800005EBD4019D68685C04F00705C5F10705CA
:1056900020FA05F505F0010032E09D88554305EB41
:1056A00094019D68685C062505EA4405C5F1060578
:1056B00020FA05F505F0030022E09D88554305EB2F
:1056C00054019D68685C04F0010515B100F00F05F8
:1056D00000E00509284613E09D8802FB05419D680E
:1056E000685C0DE09D88554305EB44019D686D5C49
:1056F0009E680E44767845EA062001E0002000BF4F
:1057000000BF70BD70B502F031F8054602F0D0F868
:105710000446204670BD000070B504460348806909
:105720004168204688470546284670BDE052002063
:1057300010B5044604B910BD204604F0CBFA00BFF2
:10574000F9E770B502F018F8054602F0B1F8044622
:10575000204670BD3EB504460020009001900290A6
:105760002A2000906946204604F0ACFE02983EBD17
:1057700001498969487D7047E052002010B501F069
:10578000FFFA0446204610BD024908680021014A7C
:10579000116070475000002070B50446204601F0AB
:1057A00071FC05462946204601F0F6FA70BD10B599
:1057B00001F046F910BD000033200549087039207A
:1057C00088703020C870612008710846704700005A
:1057D0003C0000200020104991F82C1001F00C0131
:1057E000042904D008290ED00C2913D104E00A4959
:1057F0008969097D481E0DE0074A9269117D01EB18
:10580000D172501006E0044A9269117D01EBD17209
:10581000501000BF00BF7047E05200200146487D95
:10582000CA7D10FB02F070470146087DCA7D10FB5F
:1058300002F0704770B50446204609F075FE054633
:10584000284670BD70B506460C46304609F06CFE21
:105850000546204609F070FE0543284670BD00004D
:1058600010B52E200649087001F0F0F8054809F03F
:10587000BDFE02F043F8044604F04EFC204610BD85
:1058800098000020E05200202DE9FC4104460D461E
:1058900016461F46012000F089FD80461548006C21
:1058A00004441448406C05441248006C06441148F6
:1058B000406C074420B2ADF8000030B2ADF80400EF
:1058C00028B2ADF8020038B2ADF80600684605F01F
:1058D0001BF950B100BF3B4632462946204601F035
:1058E0000BFF05F08BF80028F5D1404600F05EFD77
:1058F000BDE8FC81E052002070B504460D460CB9AD
:105900000348846929462046E268904770BD00003C
:10591000E052002001460120002901DD0B4600E095
:105920004B421A4600E0401C054B53F8203093428E
:1059300001D80928F7DB002900DA401C7047000075
:10594000A83C010870B5054665B12846FEF7C2FEC1
:10595000044640F6FF70208060804FF20100A08076
:10596000E08000BF70BD000070B514242046FEF733
:105970000EFE05467DB12846FEF7ACFE06460748FA
:10598000806C0068B0600548806C4068F060284614
:10599000FFF7D8FF00BF284670BD0000E05200208E
:1059A00010B504460448A0F84C400CB100F0CCFC03
:1059B0002046FEF7FDFD10BDE052002070B5064602
:1059C0000C466EB13046FEF785FE05463CB1288890
:1059D000208068886080A888A080E888E08000BF78
:1059E00070BD000010B5044614B900F0ADFC0BE02A
:1059F00004F060F80548A0F84C4005480349886465
:105A00000020086102F036F910BD0000E0520020CD
:105A1000742D02082DE9F041044634B90C48B0F960
:105A20004C00041E01D1BDE8F0812046FEF752FE75
:105A30000746B7F9185045B12846FEF74BFE064613
:105A4000B06881683046884700BF00BFEBE70000C0
:105A5000E052002010B50446024A1146204600F0EC
:105A600003F810BD01F0FFFF2DE9FC4106460D468D
:105A70001746AEB31B48B0F94C803046FEF72AFEFD
:105A8000044600F061FC1848854203D1B4F9005087
:105A9000B4F9027028B2ADF80000A1880844401E95
:105AA00000B2ADF8040038B2ADF80200E188084455
:105AB000401E00B2ADF8060003F014FF684605F082
:105AC00023F848B100BF3A462946304600F082FA32
:105AD00004F094FF0028F6D1404600F061F900BFC1
