:020000040800F2
:100000006056002029020008CD280008FB1C0008CB
:10001000C9280008C70700080B2E000800000000D0
:10002000000000000000000000000000E92A0008B5
:10003000E907000800000000CF280008012C000894
:10004000430200084302000843020008430200087C
:10005000430200084302000843020008430200086C
:10006000430200084302000843020008430200085C
:10007000430200084302000843020008430200084C
:10008000430200084302000843020008430200083C
:10009000430200084302000843020008430200082C
:1000A000430200084302000843020008430200081C
:1000B000430200084302000843020008430200080C
:1000C00043020008430200084302000843020008FC
:1000D00043020008430200084302000843020008EC
:1000E00043020008430200084302000843020008DC
:1000F00043020008430200084302000843020008CC
:1001000043020008430200084302000843020008BB
:1001100043020008430200084302000843020008AB
:10012000430200084302000843020008430200089B
:10013000430200084302000843020008430200088B
:10014000430200084302000843020008430200087B
:10015000430200084302000843020008430200086B
:10016000430200084302000843020008430200085B
:10017000430200084302000843020008430200084B
:10018000430200084302000800F002F800F03CF8C7
:100190000AA090E8000C82448344AAF10107DA45E2
:1001A00001D100F031F8AFF2090EBAE80F0013F0F8
:1001B000010F18BFFB1A43F001031847D45F00007A
:1001C000F45F0000103A24BF78C878C1FAD852070B
:1001D00024BF30C830C144BF04680C6070470000C1
:1001E0000023002400250026103A28BF78C1FBD840
:1001F000520728BF30C148BF0B6070471FB505F0DC
:100200004CFB1FBD10B510BD00F067F91146FFF79C
:10021000F5FF04F0EBFF00F027F803B4FFF7F2FF5F
:1002200003BC00F053F90000094880470948004723
:10023000FEE7FEE7FEE7FEE7FEE7FEE7FEE7FEE796
:10024000FEE7FEE704480549054A064B70470000F3
:10025000852C0008890100086050002060560020AD
:10026000605200206052002010B50446AFF30080B9
:100270002046BDE81040FFF7D0BF40EA010310B5AB
:100280009B070FD1042A0DD310C808C9121F9C4226
:10029000F8D020BA19BA884201D9012010BD4FF018
:1002A000FF3010BD1AB1D30703D0521C07E0002065
:1002B00010BD10F8013B11F8014B1B1B07D110F8C2
:1002C000013B11F8014B1B1B01D1921EF1D11846C5
:1002D00010BD032A40F2308010F0030C00F01580AE
:1002E00011F8013BBCF1020F624498BF11F801CB39
:1002F00000F8013B38BF11F8013BA2F1040298BF9E
:1003000000F801CB38BF00F8013B11F0030300F007
:100310006780083AC0F0088051F8043B083A51F869
:1003200004CBA0E80810F5E7121D5CBF51F8043BB0
:1003300040F8043BAFF30080D20724BF11F8013B23
:1003400011F801CB48BF11F8012B24BF00F8013B85
:1003500000F801CB48BF00F8012B7047431A28BFB3
:100360009A427FF6B6AF032A1044114440F2268029
:1003700010F0030F1EBF11F8013D521E00F8013DA1
:1003800010F0030F7FF4F6AF11F0030300F070805C
:10039000083AC0F00B8051F8043D083A51F804CDFA
:1003A00040F8043D40F804CDFFF7F3BF121D5CBFD9
:1003B00051F8043D40F8043DAFF30080D20724BF5C
:1003C00011F8013D11F801CD48BF11F8012C24BFEF
:1003D00000F8013D00F801CD48BF00F8012C70473E
:1003E00010B5203AC0F00B80B1E81850203AA0E8D0
:1003F0001850B1E81850A0E81850BFF4F5AF5FEA04
:10040000027C24BFB1E81850A0E8185044BF18C9B6
:1004100018C0BDE810405FEA827C24BF51F8043B5D
:1004200040F8043B08BF7047D20728BF31F8023BB1
:1004300048BF11F8012B28BF20F8023B48BF00F845
:10044000012B7047704770477047431A28BF9A4284
:100450007FF6C6AF104410F0030F11441EBF11F811
:10046000013D521E00F8013D10F0030F7FF4F6AF7E
:10047000103AC0F00A8010B531E91850103A20E95E
:100480001850BFF4F9AFBDE81040530724BF31E95D
:10049000081020E9081044BF51F8043D40F8043D1D
:1004A00012F0030F08BF7047D20728BF31F8023D92
:1004B00048BF11F8012C28BF20F8023D48BF00F8C2
:1004C000012C704700487047FC4F0020014918205C
:1004D000ABBEFEE72600020070477546FFF7F2FF4D
:1004E000AE4605006946534620F00700854618B021
:1004F00020B5FFF7A7FEBDE820404FF000064FF003
:1005000000074FF000084FF0000B21F00701AC4648
:10051000ACE8C009ACE8C009ACE8C009ACE8C00967
:100520008D46704721B1826842F00102826003E08B
:10053000826822F001028260704700000021084AB0
:100540001168084A1140D0E900231A4383681A430E
:10055000C3681A431143044AC2F8041370470000E9
:1005600004230140E030FCFF002001400146C86C3C
:1005700080B270470246002013680B400BB1012087
:1005800000E000207047000030B502460020002344
:100590005068104C20400D790C6844EA0524204333
:1005A000506090680C4C2040D1E903542C438D6876
:1005B0002C434D7944EA450420439060D06A20F4EE
:1005C00070000C7D641EE4B2234340EA0350D06205
:1005D00030BD0000FFFEFFFCFDF7FFC0F0B5044694
:1005E0000D4600200021092D11DDE068A5F10A0665
:1005F00006EB4607072606FA07F18843A5F10A0627
:1006000006EB460603FA06F10843E0600CE02069B9
:1006100005EB4507072606FA07F1884305EB450673
:1006200003FA06F108432061072A0FDA606B561EB1
:1006300006EB86071F2606FA07F18843561E06EBCF
:10064000860605FA06F10843606322E00D2A0FDAF8
:10065000206BD61F06EB86071F2606FA07F1884394
:10066000D61F06EB860605FA06F10843206310E064
:10067000E06AA2F10D0606EB86071F2606FA07F1CF
:100680008843A2F10D0606EB860605FA06F108433B
:10069000E062F0BD816841F08041816070470000F8
:1006A00000B58DB00121084602F012F901210802BF
:1006B00002F02EF902200B9003208DF8300000206C
:1006C0008DF833000BA9154800F0C7FB0121080283
:1006D00002F02EF900214FF4807002F029F9002079
:1006E00007900A9009904FF48030089007A8FFF710
:1006F00025FF002001908DF808008DF80900039077
:10070000059001208DF8180001A90548FFF73CFF6E
:1007100001210348FFF706FF0DB000BD00000240B5
:100720000020014038B502F013F9012002F076F9FB
:1007300002F0BEF9044600BF002CFDD0002002F0FC
:1007400061F94FF4A05002F077F94FF4805002F0B5
:100750007FF9072002234FF4A87208210090C804F3
:1007600002F088F9012002F07FF900BF392002F081
:1007700021F90028FAD0022002F08EF900BF02F021
:1007800039F90828FBD1002002F050F90121084670
:1007900002F09EF80121022002F09AF801210420C3
:1007A00002F096F80121082002F092F801211020B1
:1007B00002F08EF80121202002F08AF80121402069
:1007C00002F086F838BD00BFFEE707E046F2A81148
:1007D00000BF0A1EA1F1010399B2FAD1021EA0F1D5
:1007E000010398B2F2D17047704700002DE9F0473D
:1007F0000746894614461D46DDF820802148007BC7
:1008000000F00200E0B9B8F1000F0DD009E0268831
:1008100038F816204946384601F0F1FD6D1E7F1C60
:10082000A41C002DF3DC2AE007E022884946384664
:1008300001F0E5FD6D1E7F1CA41C002DF5DC1EE003
:10084000B8F1000F0ED00AE026882EB138F8162035
:100850004946384601F0D3FD6D1E7F1CA41C002DB7
:10086000F2DC0CE009E0268826B1324649463846DB
:1008700001F0C5FD6D1E7F1CA41C002DF3DCBDE83E
:10088000F0870000784F002030B52DED068BADF5D8
:10089000217D9FED220BB0EE408AF0EE608A0024AD
:1008A0002CE00521012001F011FA00EE100AB8EE4B
:1008B000400AF3EE040A20EE200A10EE105A2846F1
:1008C00004F07AFF41EC1A0B9FED160B53EC102B42
:1008D00004F08AFD41EC190B04F056FD00B201A9A9
:1008E00021F81400601C84B29FED100B53EC102B08
:1008F00051EC180B04F0A0FC41EC180BB4F5A07FF0
:10090000CFD36E2300224FF4A07101A800F0B2FDF6
:100910000DF5217DBDEC068B30BD00000000000010
:10092000000000006666666666664A3F9A99999975
:100930009999A93F1CB5044611480078A0B101203F
:1009400000908DF8040000208DF8060003208DF83B
:10095000050001208DF8070069460A4800F07DFA7D
:1009600000200749087000BF24B10121054800F0AC
:10097000EAFA03E00121034800F0E3FA1CBD00009D
:10098000F40000200004024000B59FB0012158206F
:1009900001F09EFF0121084601F0AAFF4CF23370DE
:1009A0001D9002208DF8780000208DF87A00032039
:1009B0008DF8790001208DF87B001DA9634800F0B7
:1009C0004CFA4FF680701D9002208DF878000020C0
:1009D0008DF87A0003208DF8790001208DF87B00D6
:1009E0001DA95B4800F039FA41F201001D90022078
:1009F0008DF8780000208DF87A0003208DF87900BA
:100A000001208DF87B001DA9524800F026FA0C2227
:100A100000214E4800F069FA0C2201214B4800F0F9
:100A200064FA0C220421494800F05FFA0C220521E7
:100A3000464800F05AFA0C220821444800F055FAC2
:100A40000C220921414800F050FA0C220A213F48AB
:100A500000F04BFA0C220E213C4800F046FA0C2222
:100A60000F213A4800F041FA0C220721384800F0E3
:100A70003CFA0C220821364800F037FA0C220921F2
:100A8000334800F032FA0C220A21314800F02DFAE6
:100A90000C220B212E4800F028FA0C2211462C487B
:100AA00000F023FA0C220D21294800F01EFA0C2236
:100AB0000E21274800F019FA0C220F21244800F0DB
:100AC00014FA0C220021234800F00FFA0C221146E0
:100AD000204800F00AFA0F200790002008903C20E0
:100AE000099000200A900B900C900D900920009026
:100AF00000200190082002900020039004900590AF
:100B0000069006200E9000200F901090102011905B
:100B10000020129014901390159016904FF480506E
:100B20001790002018904FF48040199000201A90E0
:100B300007A81B90CDF870D00EA800F01BF901217A
:100B4000062000F0FDF81FB000BD0000000C0240C0
:100B50000010024000180240014800887047000061
:100B60000008006C01490880704700000008006C14
:100B70000149088070470000FE07006C1CB5044660
:100B800011480078A8B12020009001208DF80400C1
:100B900000208DF8060003208DF8050001208DF857
:100BA00007006946094800F058F900200649087016
:100BB00000BF24B92021054800F0C3F903E020213B
:100BC000024800F0C0F91CBDF500002000080240FA
:100BD0001CB504461A48007838B304200090012060
:100BE0008DF8040000208DF8060003208DF8050024
:100BF00001208DF807006946124800F02EF9002008
:100C00000F4908700C20009001208DF8040000208E
:100C10008DF8060003208DF8050001208DF80700EF
:100C20000C21094800F08FF900BF24B904210548C0
:100C300000F087F903E00421024800F084F91CBDAC
:100C4000FB00002000040240000802401CB50E48D2
:100C5000007898B14FF48070009000208DF8040067
:100C600003208DF8050001208DF80700694607482C
:100C700000F0F3F800200449087000BF4FF48071C1
:100C8000024800F055F91CBDFC0000200014024091
:100C90001CB5044613480078B0B14FF400700090C2
:100CA00001208DF8040000208DF8060003208DF847
:100CB000050001208DF8070069460B4800F0CDF8CB
:100CC00000200849087000BF2CB94FF40071064895
:100CD00000F037F904E04FF40071034800F033F9F5
:100CE0001CBD0000FD000020001402401CB504469D
:100CF00011480078A8B10220009001208DF804006E
:100D000000208DF8060003208DF8050001208DF8E5
:100D100007006946094800F0A0F80020064908705D
:100D200000BF24B90221054800F00BF903E00221BD
:100D3000024800F008F91CBDFE000020000402403B
:100D400051B18200A2F1C042126842F00103820058
:100D5000A2F1C042136009E08200A2F1C042126811
:100D6000034B1A408300A3F1C0431A607047000090
:100D7000FEFF0F00D0E901121143C268114302695E
:100D800011434269114382691143C2691143026AE6
:100D90001143426A1143826A1143C26A1143026BD2
:100DA000114302689200A2F1C042116081680829D3
:100DB0000BD101688900A1F1C041096841F04002EE
:100DC00001688900A1F1C0410A60416B0968426B6A
:100DD000526841EA0211426B926841EA0221426B79
:100DE000928941EA0241426B128A41EA0251426B06
:100DF000127D41EA0261426B926911430268521C02
:100E00009200A2F1C0421160C16AB1F5804F1BD1BE
:100E1000816B0968826B526841EA0211826B9268A9
:100E200041EA0221826B128A41EA0251826B127DF1
:100E300041EA0261826B9269114302689200A2F159
:100E4000C042C2F8041107E06FF0704201688900E7
:100E5000A1F1C041C1F804217047F0B50A46002154
:100E60000023002400BF3DE0012505FA01F31568C9
:100E700005EA03049C4234D105684F000326BE40B6
:100E8000B543056015794E00B540066835430560E9
:100E90001579012D02D01579022D16D185684F00E4
:100EA0000326BE40B543856055794E00B54086683F
:100EB00035438560456801268E40B54345604568E9
:100EC00096798E40B6B235434560C5684F0003261B
:100ED000BE40B543C560D5794E00B540C6683543C0
:100EE000C560491C1029BFD3F0BDF0B50023002414
:100EF0004D07ED0E02FA05F3CE1000F1200555F86E
:100F000026504E07F70E0F26BE40B543CF1000F116
:100F1000200646F82750CE1000F1200555F826503F
:100F200045EA0304CE1000F1200545F82640F0BD47
:100F30000246002013690B400BB1012000E00020A5
:100F40007047418370470183704700002DE9F04FDF
:100F50008BB005465D48B0F922000A905B48B0F9B5
:100F600024A080698469B4F80C80A84509DCE08974
:100F7000A84206DBD4F80090A5EB08064FF0FF3737
:100F80001DE0A068D4F80490A8B1B0F80080A8458E
:100F90000DDC4188A9420ADB0288AA1A95B2416891
:100FA00001EB8501B1F90060B1F9027006E04FF084
:100FB000FF36374602E04FF0FF36374600BF701C61
:100FC000002878D041488069007DA17C10FB01F0A9
:100FD0000990207C08903D488069007D07903B483F
:100FE000B0F92AB0584601F0E1FAC0B20690374A8B
:100FF000099806FB0090A17C0123CDE90231CDE9DF
:10100000040210468069C07D11468969897DCDE959
:1010100000105146DDE907320A9800F0F1FE781C15
:10102000D8B14BF0020001F0C1FA284A099807FB39
:101030000090A17C0123CDE90231CDE904021046E4
:101040008069C07D11468969897DCDE900105146CE
:10105000DDE907320A9800F0D3FE1C488069407D24
:101060001A498969097D884221DDBBF1020F1ED032
:101070008BF0040001F09AFA14488069007DDFF8D3
:101080004CC0DCF818C09CF815C010FB0CA10F4830
:101090008069407D00EB0A030C48806990F816E0F7
:1010A000DDF820C00A980CFB0E0201F055F80698F6
:1010B00001F07CFA00BF0548408C617C084400B216
:1010C000024948840BB0BDE8F08F0000784F002043
:1010D000014603488069826900BF507C7047000068
:1010E000784F002000BF02220A80704730B50446C6
:1010F000A26995898D4204DCD089884201DB0120F8
:1011000030BD93683BB11888884204DC5888884217
:1011100001DB0120F4E700BF0020F1E770B50446D1
:101120000CB9002070BD204602F03EFC0546284662
:10113000F8E770B504462046FFF7F0FF05463DB1DD
:10114000284600F023F806462246002100F080FCE5
:10115000284670BD40F2F5100949486088604FF498
:101160007A50C881088200200860888104200549DF
:10117000488000200880888001200349087070475B
:10118000644F0020B43F00205C000020014609B9F4
:1011900000207047024830F93100024A1044F8E755
:1011A000B43F0020340100202DE9F34F93B088486C
:1011B0000088002878D0874801681398814201D0C0
:1011C000012000E0002084490A6814998A4201D075
:1011D000012100E0002108430028EBD07F4800787F
:1011E000002870D07E480068006808907848B0F900
:1011F0000000FFF7CBFF0990794800680068B0F85D
:1012000000B0744913980968461A002E0DDD0120BC
:1012100011900020129072480068006800881090B9
:101220001098A0F1010A0F960DE04FF0FF301190D9
:10123000ABF1010012904FF0FF30109000200F90A2
:10124000129800EB060A644914980968471A002F9F
:101250000DDD01200D9000200E90614800680068AF
:1012600040880C900C98401E0A900B9710E04FF0AD
:10127000FF300D905A48006800684088401E0E906C
:101280004FF0FF300C9000200B900E9838440A90DD
:101290000E9C8DE004EB07080B98844205DB0A984E
:1012A000844202DC012001E08FE0002007900B98CF
:1012B000804504DB0A98804501DC012000E0002025
:1012C0000690129D6FE078E0099800EB450104FB61
:1012D0000BF001EB4000019005EB06092246294680
:1012E000089800F0E7F803900F98854205DB554514
:1012F00003DC079808B1012000E0002005900F985A
:10130000814505DBD14503DC069808B1012000E0EA
:1013100000200490039898B1059828B1E21BA91BFE
:10132000089800F0C7F858B9019B1A882D4BB3F9FB
:10133000023019192B4BB3F90030581903F00AFE8B
:10134000049840B1099800EB490108FB0BF031F813
:10135000100002900DE0234AB2F9022002EB0801CE
:10136000204AB2F9002002EB090003F0BBFC80B276
:101370000290DDE901100880039890B1039803F012
:1013800069FD80B20090174AB2F9022002EB080111
:10139000144AB2F9002002EB0900009A03F0DAFDCA
:1013A00000BF11980544109885428DD10D980444D2
:1013B0000C9884427FF46EAF00BF06491398086012
:1013C00005491498086002F065FB15B0BDE8F08F80
:1013D0007C0000209400002098000020870000205E
:1013E000880000207E00002010B50021084600F093
:1013F000B6F840F6FF731A465942084600F002F864
:1014000010BD00002DE9FC4104460D4616461F465E
:10141000042001F0CBF880461548006C04441448C1
:10142000406C05441248006C06441148406C074467
:1014300020B2ADF8000030B2ADF8040028B2ADF82B
:10144000020038B2ADF80600684602F07BF850B1F1
:1014500000BF3B4632462946204600F07DFE02F0A2
:1014600013F80028F5D1404601F0A0F8BDE8FC8152
:10147000784F00202DE9F04106460F4614461D46E0
:101480000B48006C04440A48406C0544002002F0FC
:1014900059F850B100BF2B4622463946304603F07A
:1014A000F9F801F0F1FF0028F5D1BDE8F081000066
:1014B000784F002070B503460C46DD88042D29D0F6
:1014C00004DC012D07D0022D45D113E0082D30D0CA
:1014D000102D40D133E09D88554305EBD4019D6824
:1014E000685C04F00705C5F1070520FA05F505F06D
:1014F000010032E09D88554305EB94019D68685CCE
:10150000062505EA4405C5F1060520FA05F505F0AE
:10151000030022E09D88554305EB54019D68685CFB
:1015200004F0010515B100F00F0500E0050928469B
:1015300013E09D8802FB05419D68685C0DE09D8875
:10154000554305EB44019D686D5C9E680E447678BA
:1015500045EA062001E0002000BF00BF70BD70B565
:1015600006460C46304603F0F7FB0546204603F0DE
:10157000FBFB0543284670BD10B52E2006490870B8
:1015800000F000FA054803F0F7FB00F03EFE0446C9
:1015900001F004FE204610BD60000020784F0020BE
:1015A00070B504460449B1F94C00FFF7EFFD05465C
:1015B0002046E969884770BD784F002010B504497E
:1015C000B1F94C00FFF7E2FD0446606A804710BDA8
:1015D000784F002070B505460B49B1F94C00FFF774
:1015E000D5FD044620882880608868802088A188EE
:1015F0000844401E00B2A8806088E1880844401E6C
:1016000000B2E88070BD0000784F002070B504463D
:101610000449B1F94C00FFF7B9FD05462046296A97
:10162000884770BD784F002010B570B371B36AB3AE
:10163000B1F90030B2F90040A34202DDB2F9003046
:1016400001E0B1F900300380B1F90230B2F9024093
:10165000A34202DDB2F9023001E0B1F90230438069
:10166000B1F90430B2F90440A34202DDB1F904300B
:1016700001E0B2F904308380B1F90630B2F90640D6
:10168000A34204DDB1F9063003E00CE003E0B2F957
:101690000630C38010BD09B10B4600E013461C683C
:1016A00004605B68436000BFF4E778B103880B44D3
:1016B0001BB2038083880B441BB28380438813448E
:1016C0001BB24380C38813441BB2C3807047000021
:1016D0000146054B0DCB81E80D00087A08B10120C9
:1016E00070470020FCE700001001002010B5044600
:1016F00003F0C8FB0C2221460448FEF7BEFD18B1DA
:10170000024894E80E000EC010BD00001001002039
:101710000246B2F90200B1F90630984213DCB1F981
:101720000200B2F9063098420DDCB2F90000B1F9BE
:101730000430984207DCB1F90000B2F90430984255
:1017400001DC012070470020FCE710B5044620466C
:1017500000F0D6FE10BD10B50446204600F008FF8C
:1017600010BD00000249096809B9014908607047C5
:101770001800002070B5374800683649496888422B
:1017800008DA344800683449086032484068334910
:10179000086007E02F480068304908602D4840681D
:1017A0002D4908602B488168C068814208DA2948C1
:1017B00080682B4908602748C0682A49086007E00C
:1017C00024488068274908602248C0682449086086
:1017D0002548007858B900F0B0F82449086000F0B6
:1017E0009CF821480078401C1F4908702FE000F049
:1017F00095F81F49086000F08FF81D4805681B48E0
:1018000004681548006885420BDB1448006885426F
:1018100007DC13480068844203DB124800688442F6
:1018200005DD4FF0FF31084603F0E6FB0BE02846EC
:1018300002F07EF80546204602F08CF80446214668
:10184000284603F0D9FB00200749087000BF00BFFD
:1018500070BD000028000020380000203C0000205F
:101860004000002044000020500000202400002000
:101870002000002070B505460C46002D08DB002C2A
:1018800006DB01200649087208460560446002E054
:10189000002003490872024800F004F870BD0000FF
:1018A0002801002010B504460C2206492046FEF708
:1018B000E4FC30B1034894E80E000EC02046FFF768
:1018C00015FF10BD1C0100202DE9F04104460D4616
:1018D0000F490968601A002801DB014600E0414217
:1018E0000E460C490968681A002801DB014600E031
:1018F00041420F46F019022807DD054804600548FB
:10190000056029462046FFF7B5FFBDE8F0810000DD
:101910005400002058000020704770471CB56946ED
:1019200001A801F0E3F928B1BDF8040040F23F112D
:10193000081A1CBD4FF0FF30FBE71CB5694601A833
:1019400001F0D4F910B1BDF800001CBD4FF0FF301C
:10195000FBE72DE9F04104460E4615461F46DDF82B
:10196000188000BF2A466D1CA0683B463146D0F85F
:1019700004C02046E047A8F10100B0F10008F1D111
:10198000BDE8F0817047B0F90020B1F900309A420B
:1019900001DA0A880280B0F90220B1F902309A42D5
:1019A00001DA4A884280B0F90420B1F904309A4241
:1019B00001DD8A888280B0F90620B1F906309A42AA
:1019C00001DDCA88C280704710B50346B1F9000036
:1019D000B2F90040A04202DDB1F9000001E0B2F925
:1019E00000001880B1F90200B2F90240A04202DD05
:1019F000B1F9020001E0B2F902005880B1F9040027
:101A0000B2F90440A04202DDB2F9040001E0B1F9EC
:101A100004009880B1F90600B2F90640A04202DD48
:101A2000B2F9060001E0B1F90600D880B3F904006C
:101A3000B3F90040A04201DA002010BDB3F906005E
:101A4000B3F90240A04201DA0020F6E70120F4E7F2
:101A500070B503460D4602E003F8015B521E1AB151
:101A600003F003000028F7D19108A9B102F00302A6
:101A700005EB054606EB0624184604E010C010C02E
:101A800010C010C0091F0429F8DA01E010C0491E77
:101A90000029FBD1034600BF02E003F8015B521EA0
:101AA000002AFAD170BD70B503460C46154603F006
:101AB000020010B123F8024B6D1E6908A9B104EBB6
:101AC00004421846042909DB00BF026042608260BC
:101AD000C26010300E1F3146042EF6DA01E004C059
:101AE000491E0029FBD1034600BF05F0010000B1EB
:101AF0001C8070BD30B504466148007801285FD174
:101B000060480088844259DD5F480088844255DA85
:101B10005E480088814251DD5D48008881424DDA8F
:101B20005C48007801280FD157480088554D2D8812
:101B3000401B4FF4A07590FBF5F0524D2D88651BAE
:101B400095FBF0F0108012E04F4800884D4D2D8835
:101B5000401B4FF4A07590FBF5F04A4D2D88651B96
:101B600095FBF0F010801088C0F5A07010804A48F6
:101B7000007801280ED146480088444D2D88401B2E
:101B8000F02590FBF5F0414D2D884D1B95FBF0F0B5
:101B9000188011E03E4800883C4D2D88401BF02500
:101BA00090FBF5F0394D2D884D1B95FBF0F018801A
:101BB0001888C0F1F0001880012030BD0020FCE73B
:101BC00030480088814259DD2F480088814255DA2B
:101BD0002E480088844251DD2D48008884424DDA29
:101BE0002C48007801280FD127480088254D2D88E2
:101BF000401B4FF4A07590FBF5F0224D2D884D1B36
:101C000095FBF0F0108012E01F4800881D4D2D88D4
:101C1000401B4FF4A07590FBF5F01A4D2D884D1B1D
:101C200095FBF0F010801088C0F5A07010801A4865
:101C3000007801280ED116480088144D2D88401BCD
:101C4000F02590FBF5F0114D2D88651B95FBF0F00C
:101C5000188011E00E4800880C4D2D88401BF0259F
:101C600090FBF5F0094D2D88651B95FBF0F0188071
:101C70001888C0F1F000188001209EE700209CE742
:101C80000001002004010020020100200A010020C0
:101C900008010020010100200701002010B50446C2
:101CA0000723012221460848FEF798FC0648FEF764
:101CB000F1FC00BF02210448FEF75CFC0028F9D0CB
:101CC0000148FEF753FC10BD002001402DE9F04112
:101CD00007460C460025002608E03846FFF7DEFFE1
:101CE0000544052003F040FA701CC6B2A642F4DB9E
:101CF000B5FBF4F080B2BDE8F08100BFFEE7000064
:101D000010B504460248806C01682046884710BD23
:101D1000784F002010B50146C1F3C402C1F38523FA
:101D2000C1F3C44404EB431000EBC22010BD07E034
:101D300041F2883100BF0A1EA1F1010399B2FAD124
:101D4000021EA0F10103D8B2F2D1704770B505466A
:101D50000E461446234601223146284600F028F854
:101D600070BD2DE9F04704460D4616461F46DDF8C6
:101D700020A03B4632462946204600F05DFB4FF04E
:101D8000000810E04FF0000906E0504600F024FC87
:101D900009F101001FFA80F9781B4845F5DA08F1CE
:101DA00001001FFA80F8301B4045EBDABDE8F087F0
:101DB0002DE9F04705460E4614461F463019401ED1
:101DC00083B22819401E82B23146284600F034FB07
:101DD0004FF000080FE04FF0000906E0384600F031
:101DE000FBFB09F101001FFA80F9A145F6DB08F1C0
:101DF00001001FFA80F8A045EDDBBDE8F087000088
:101E00002DE9FF4F8BB0054690461F46DDF860A0D8
:101E1000DDF868901C9E00200A908648006898B102
:101E20001B991D98CDE90291CDE904601998CDE97F
:101E300000A0804800683B464246046828460C994A
:101E4000A0470FB0BDE8F08F0C983844401E0890B2
:101E500005EB0800401E099019984AEA0000012885
:101E60007BD17548B0F906100C980C1A002C0ADDCD
:101E70003F1B002F00DCE4E76F48B0F906000C9030
:101E80001B9804FB00666C48B0F90A100898441AC5
:101E9000002C03DD3F1B002F00DCD2E76648B0F9C1
:101EA00008100998441A002C01DDA8EB040800244E
:101EB0006148B0F90400A84239DD5F48B0F9040078
:101EC000441BA8EB0408B9F1040F1ED006DCB9F1DD
:101ED000010F0AD0B9F1020F28D10EE0B9F1080FB5
:101EE0001BD0B9F1100F21D11BE006EBE406E01086
:101EF00005EBC00504F0070418E006EBA406A010EB
:101F000005EB800504F0030410E006EB64066010A6
:101F100005EB400504F0010408E0264425440024B4
:101F200004E006EB44062544002400BF00BFB8F1DE
:101F3000000F00DC85E71B991D98CDE90091CDE9E4
:101F4000026404903C48806C3B464246D0F80CC08A
:101F500028460C99E0476AE0FFE7C9F108000590C0
:101F60000C9C002006905EE019982044401E0490CE
:101F70003148B0F90610049881424DDC2E48B0F982
:101F80000A00A04248DB00200390019607950290CA
:101F90003EE0039838B9019800780A900198401CF7
:101FA00001900820039005990A9840FA01FB0A98CD
:101FB00000FA09F0C0B20A900398A0EB0900039060
:101FC000BBF1000F04D11C48007B00F00200C8B92F
:101FD0001948408800901D9828B11D9830F81B00C2
:101FE0001549488002E01448A0F802B00798504410
:101FF000421E2146049B079800F0AEF80E49009857
:10200000488000BF0298401C0290079850440790F7
:1020100002984045BDDB00BF0698401C0690199809
:1020200004441B9806440698B8429DDB00BF00BFDD
:1020300007E7000070000020784F002070B50446CC
:102040000D4616461348B0F90600A84200DD70BDE3
:102050001048B0F90A00A84200DAF8E70D48B0F9D4
:102060000400A04202DD0B48B0F904400948B0F971
:102070000800B04202DA0748B0F90860A64200DA68
:10208000E5E70448806C32462946036920469847B4
:1020900000BFDCE7784F002070B504460D461648B7
:1020A000B0F90600A84200DD70BD1348B0F90A007F
:1020B000A84200DAF8E71048B0F90400A04200DDB9
:1020C000F2E70D48B0F90800A04200DAECE70A4850
:1020D000007B00F0010030B10748806C2946826A1D
:1020E0002046904706E004484288806C2946436AAF
:1020F0002046984700BFD7E7784F002070B50446C8
:102100000D4616461348B0F90400A04200DD70BD2C
:102110001048B0F90800A04200DAF8E70D48B0F91D
:102120000600A84202DD0B48B0F906500948B0F994
:102130000A00B04202DA0748B0F90A60AE4200DA9B
:10214000E5E70448806C32462946436920469847B3
:1021500000BFDCE7784F00202DE9F04104460D4632
:1021600016461F461848B0F90400A04202DD164882
:10217000B0F904401448B0F90800B04202DA12483D
:10218000B0F90860A64201DABDE8F0810E48B0F966
:102190000600A84202DD0C48B0F906500A48B0F922
:1021A0000A00B84202DA0848B0F90A70AF4200DA11
:1021B000EAE70548806C3B4632462946D0F818C00D
:1021C0002046E04700BFDFE7784F00204FF6FF7062
:1021D000704730B5014601F01F03C1F34512C1F34A
:1021E000C424C4EB04201F25B0FBF5F4C2EB02208D
:1021F0003F25B0FBF5F2C3EB03201F25B0FBF5F341
:1022000004EB022000EB034030BD10B5002400F0C9
:10221000A5F900F0EBF8044300F011F8042000F0F9
:10222000C5F940F6FF731A4600210846FFF794FFF0
:10223000002000F0BBF900F0DEF8204610BD70472A
:1022400070B504462046FFF765FD0546284670BD7B
:102250002DE9FC5F82460D4616469846DDF830B003
:10226000DDF83890109F002440E0BBF1040F20D02F
:1022700006DCBBF1010F0AD0BBF1020F32D10FE037
:10228000BBF1080F1ED0BBF1100F2BD122E061195A
:10229000CDE900674A4650460F9B01F07DFD21E0E5
:1022A0006119CDE900674A4650460F9B01F05EFE7A
:1022B00018E06119CDE900674A4650460F9B01F0CE
:1022C000CBFF0FE0611933464A465046009702F0B3
:1022D000B1F807E0611933464A4650460097FEF7C9
:1022E00085FA00BF00BF0D988144641C4445BCDBE7
:1022F000BDE8FC9F70B504460E4615460C48007BB1
:1023000000F0010040B104E03146204600F084F8BE
:10231000641CAC42F8DD09E006E00548428831461D
:10232000204600F06CF8641CAC42F6DD70BD000085
:10233000784F002070B506460C4615460C48007BC9
:1023400000F0010040B104E02146304600F064F89E
:10235000641CAC42F8DD09E006E0054842882146ED
:10236000304600F04CF8641CAC42F6DD70BD000055
:10237000784F0020F8B504460D4616461F460A4819
:102380004088BBB240F23F1CACEB040C1FFA8CF24D
:10239000A9B240F23F1CACEB060C00901FFA8CF087
:1023A000FFF7DFFCF8BD0000784F002010B5FFF705
:1023B0000DFF10BD70B504460D46A9B240F23F12A4
:1023C000121B90B200F065F80646304670BD002141
:1023D0000180418040F23F118180EF21C180704730
:1023E00010B504462046FFF7F4FE10BD10B500F00E
:1023F000FFF8002010BD704700BF00BF704770B5E8
:1024000004460D461646B2B2A9B240F23F131B1B5A
:1024100098B2FFF79BFC70BD70B504460D46294687
:102420002046FFF7C7FF86B2C6F58030421E294618
:102430002046FFF7E4FF70BD2DE9F04104460D464C
:1024400016461F462A2000F0CDF8281200F0C4F8E6
:10245000E8B200F0C1F8381200F0BEF8F8B200F0AF
:10246000BBF82B2000F0BEF8201200F0B5F8E0B267
:1024700000F0B2F8301200F0AFF8F0B200F0ACF8B3
:102480002C2000F0AFF8BDE8F08110B5FEF77CFA23
:1024900010BD2DE9F04104460D462B462246294643
:1024A0002046FFF7C9FF2E2000F09CF800F015F839
:1024B000064600F012F8064600F00FF88046F7B224
:1024C0004FF6FF7000EA0727F012C002B91240EA87
:1024D000411040EAE820BDE8F08110B5FEF73CFB72
:1024E00010BD10B50020FEF749FB9620FFF71FFC3A
:1024F0000120FEF743FB3220FFF719FC10BD00005E
:1025000070B504460648406BA04207D004484463B7
:102510002046FFF7F5FB054600F004F870BD00000B
:10252000784F002010B50446002002F0CFFB02498E
:1025300021F8104010BD0000784F00201CB5044663
:102540000548806C016A684688476A462146024809
:10255000001DFFF739FA1CBD784F002010B5034865
:10256000806C016A0148001D884710BD784F00202B
:1025700070B504460648006BA04207D004480463C7
:102580002046FFF7BDFB054600F004F870BD0000D3
:10259000784F002010B50446012002F097FB024955
:1025A00021F8104010BD0000784F002010B5014602
:1025B000084A107B127B4A4002F004023AB1054BF4
:1025C0001A885B88034C238023465A8000BF014B46
:1025D000197310BD784F002010B504462046FEF751
:1025E000C1FA10BD10B504462046FEF7C1FA10BD71
:1025F00010B5FFF74AFFFFF774FFCF20FFF7F2FF98
:102600000020FFF7E9FFC120FFF7E6FF3020FFF7CA
:10261000E3FFED20FFF7E6FF6420FFF7DDFF032077
:10262000FFF7DAFF1220FFF7D7FF8120FFF7D4FF73
:10263000E820FFF7D7FF8520FFF7CEFF1020FFF738
:10264000CBFF7A20FFF7C8FFCB20FFF7CBFF392065
:10265000FFF7C2FF2C20FFF7BFFF0020FFF7BCFFF2
:102660003420FFF7B9FF0220FFF7B6FFF720FFF78E
:10267000B9FF2020FFF7B0FFEA20FFF7B3FF0020EB
:10268000FFF7AAFF0020FFF7A7FFC020FFF7AAFF70
:102690001B20FFF7A1FFC120FFF7A4FF0120FFF7D8
:1026A0009BFFC520FFF79EFF3020FFF795FF3020EE
:1026B000FFF792FFC720FFF795FFB720FFF78CFFCA
:1026C0003620FFF78FFF4820FFF786FF3A20FFF7FD
:1026D00089FF5520FFF780FFB120FFF783FF00201F
:1026E000FFF77AFF1A20FFF777FFB620FFF77AFF90
:1026F0000A20FFF771FFA220FFF76EFFF220FFF71D
:1027000071FF0020FFF768FF2620FFF76BFF012015
:10271000FFF762FFE020FFF765FF0F20FFF75CFF88
:102720002A20FFF759FF2820FFF756FF0820FFF760
:1027300053FF0E20FFF750FF0820FFF74DFF5420F6
:10274000FFF74AFFA920FFF747FF4320FFF744FFA9
:102750000A20FFF741FF0F20FFF73EFF0020FFF7A1
:102760003BFF0020FFF738FF0020FFF735FF002078
:10277000FFF732FFE120FFF735FF0020FFF72CFFC6
:102780001520FFF729FF1720FFF726FF0720FFF787
:1027900023FF1120FFF720FF0620FFF71DFF2B204E
:1027A000FFF71AFF5620FFF717FF3C20FFF714FF33
:1027B0000520FFF711FF1020FFF70EFF0F20FFF796
:1027C0000BFF3F20FFF708FF3F20FFF705FF0F201B
:1027D000FFF702FF2B20FFF705FF0020FFF7FCFEAD
:1027E0000020FFF7F9FE0120FFF7F6FE3F20FFF77C
:1027F000F3FE2A20FFF7F6FE0020FFF7EDFE002093
:10280000FFF7EAFE0020FFF7E7FEEF20FFF7E4FE08
:102810001120FFF7E7FE7820FFF789FA2920FFF75C
:10282000E1FE3620FFF7DEFEC920FFF7D5FE10BD22
:102830000120D8B902211C4A117001211B4A1170D4
:1028400040F65F711A4A11804FF4CB71194A11801A
:102850000121194A11700221184A117040F637718E
:10286000174A11809221174A11801BE0012819D1C3
:1028700002210D4A117001210C4A117040F65B7162
:102880000B4A11804FF4B4710A4A118001210A4A9F
:1028900011700A4A117040F64E71094A11809E214A
:1028A000084A11807047000000010020010100204B
:1028B0000201002004010020060100200701002081
:1028C000080100200A01002000BFFEE770477047A2
:1028D00029B1064A12680243044B1A6004E0034A15
:1028E00012688243014B1A60704700003038024082
:1028F00029B1064A12680243044B1A6004E0034AF5
:1029000012688243014B1A60704700003838024059
:1029100029B1064A12680243044B1A6004E0034AD4
:1029200012688243014B1A6070470000443802402D
:1029300029B1064A12680243044B1A6004E0034AB4
:1029400012688243014B1A6070470000243802402D
:102950001448006840F00100124908600020114945
:10296000083108600F4800680F4908400D490860A9
:102970000E48091D08600E480A49843108600B485A
:102980001038091D08600748006820F480200549B8
:102990000860002003490C31086002498C3108604E
:1029A0007047000000380240FFFFF6EA10300024B4
:1029B0000030002010B501460022002300204A11FB
:1029C000012A02D10A4C236808E0022A03D1084CEC
:1029D0007034236802E0064C7434236801F01F024F
:1029E000012494401C400CB1012000E0002010BDE7
:1029F000003802400248006800F00C0070470000F8
:102A00000838024001460020034A106820F0F00018
:102A10000843106070470000083802400021024A55
:102A20001170114608707047023802400149086071
:102A3000704700000000474201460020034A10682A
:102A400020F4E0500843106070470000083802404E
:102A500001460020034A106820F4604040EAC100AB
:102A6000106070470838024001490866704700004E
:102A70000000474270B5049C41EA82150126C6EB6E
:102A8000530645EA0645054345EA0465014E3560AF
:102A900070BD00000438024001460020034A10685F
:102AA00020F003000843106070470000083802401F
:102AB00038B5002000900024002500BF3120FFF72A
:102AC00079FF05460098401C00900098B0F5A04F93
:102AD00001D0002DF2D03120FFF76CFF08B10124A6
:102AE00000E00024204638BD704700000CB50020EF
:102AF000019000903448006840F48030324908600A
:102B000000BF3148006800F4003000900198401C7C
:102B10000190009818B90198B0F5A04FF1D12A485A
:102B2000006800F4003010B10120009001E00020A6
:102B300000900098012846D123484030006840F0BA
:102B400080502149403108602048006840F44040EE
:102B50001E4908601C48083000681B49083108609D
:102B60000846006840F4004008600846006840F4E9
:102B7000A05008601648091F0860081F006840F050
:102B80008070091F086000BF0F48006800F00070E7
:102B90000028F9D040F205700E4908600A48083054
:102BA000006820F003000849083108600846006802
:102BB00040F00200086000BF03480830006800F0E1
:102BC0000C000828F8D10CBD00380240007000400D
:102BD00008544007003C0240042808D14FF0E0218F
:102BE000096941F004014FF0E022116107E04FF064
:102BF000E021096921F004014FF0E02211617047E2
:102C000010B509480068401C07490860074800786B
:102C1000401CC0B2054908700A2803D10020087082
:102C2000FEF7A8FD10BD00000800002000000020F5
:102C300030B51149481EB0F1807F00D31BE0481E1B
:102C40004FF0E022506150170F22002807DA1307D7
:102C50001D0E0A4B00F00F04241F1D5503E013073F
:102C60001C0E074B1C5400BF00204FF0E022906167
:102C70000720106100BF30BD4090020018ED00E059
:102C800000E400E010B51548006840F470001349F6
:102C900008601348006840F00100114908600020F6
:102CA0000F49083108600E4800680E4908400C4979
:102CB00008600D48091D0860081F006820F4802086
:102CC000091F0860002006490C310860FFF70EFF5D
:102CD0004FF0006001498039086010BD88ED00E0C8
:102CE00000380240FFFFF6FE103000247CB5044699
:102CF0000D460C48007820B1FFF79AFD00200949E5
:102D00000870694601A800F00FF82B462246BDF86E
:102D10000010BDF80400FEF7EDFE08B101207CBDF7
:102D20000020FCE70C01002070B504460D46002091
:102D3000FDF74EFF902000F044F80120FDF7D6FF8C
:102D400000BF00BF00BF0020FDF7D0FF00BF00BFE5
:102D500000BF00F017F82880D02000F032F80120E2
:102D6000FDF7C4FF00BF00BF00BF0020FDF7BEFF9E
:102D700000BF00BF00BF00F005F820800120FDF774
:102D800027FF70BD70B50024002516E04FF6FF70D8
:102D900000EA44040120FDF7A9FF00BF00BF00BF07
:102DA0000020FDF7A3FF00BF00BF00BFFDF74EFFEF
:102DB00008B1601C84B2681CC5B20C2DE6DB20464D
:102DC00070BD70B504460020FDF790FF002519E0A6
:102DD00004F0800018B10120FDF75AFF02E0002046
:102DE000FDF756FF6006040E0020FDF77FFF00BFD1
:102DF00000BF00BF0120FDF779FF00BF00BF00BF8B
:102E0000681CC5B2082DE3DB70BD00BFFEE7000003
:102E10000120014908707047C40000202DE9F047E7
:102E20000546EDB12846FEF7B1F90446284600F004
:102E30006DFB0646A6B1284600F0F6F881464846E6
:102E4000FEF7A4F907463046FEF7A0F98046608BEE
:102E5000A8F81A00388B60833D83204600F0EAF919
:102E6000BDE8F0872DE9FF4704460D4616461F468C
:102E7000DDE90D9ADDF8308000203B4632462946D8
:102E80008DE80107204600F003F804B0BDE8F087A4
:102E90002DE9F84F8046894692469B46DDE90A7542
:102EA0004048008805432FB93F48008810B13F488B
:102EB000B0F90070781C00B90027F7B13846FEF76A
:102EC00065F90646B6F900008044B6F9020081446F
:102ED000BAF1000F06D1B6F90400B6F90010401A95
:102EE00000F1010ABBF1000F06D1B6F90600B6F9F0
:102EF0000210401A00F1010B00BF0D98203000B203
:102F0000FEF717F90090002849D027480088401C98
:102F1000254908800098FEF739F904460FFA88F031
:102F200020800FFA89F0608008EB0A00401E00B292
:102F3000A08009EB0B00401E00B2E0800C982061DD
:102F4000A08B43F68F7129400843A083009800F0BE
:102F500013FD3946009800F07BFB05F0200010B10E
:102F6000009800F0D3F905F0010020B11048006886
:102F7000401C0F49086005F0400010B10098FFF7B1
:102F80004DFF05F0020030B1A08B40F00200A0839D
:102F9000009800F097F90121009800F083FC009858
:102FA000BDE8F88FC6000020B0000020BC00002063
:102FB000D80000202DE9F0410446B4F90450A66879
:102FC0002846FEF7E3F80746206817280FD004DCF0
:102FD0000E280FD014281AD104E022280FD0282858
:102FE00015D110E03146384600F02BFA0FE0A5600D
:102FF000BDE8F0812146284600F0B6F9F8E76FF009
:103000007040A060F4E7284600F05CF9F0E700BFEC
:103010000020A060A06000BFEAE700000148B0F90E
:1030200000007047BC00002010B5044624B12046C3
:10303000FEF7ACF8B0F91640204610BD30B58FB0A1
:10304000002504A8FEF744FB0AA800F0C5F9504883
:103050000068049988420AD14D4840680599884221
:1030600005D14B48007A9DF81810884275D0DDE9EB
:103070000401FEF799F804A801F00CFFADF82C004C
:10308000BDF92C0000F05EFB002877D04048007AA4
:103090009DF81810884223D0BDF82C0000B3BDF96C
:1030A0002C00FEF773F804469DF818008DF80C000C
:1030B0003748007A8DF80D00B4F900100498401AD2
:1030C0000190B4F902100598401A029001A80E90E0
:1030D00011200C90BDF92C000CA900F0D7FB00BF0B
:1030E0002B48007A9DF818100843002846D00C2081
:1030F0000C9001252748B0F90400BDF92C10884236
:103100001CD024488088C8B19DF8180010B1002058
:103110000E900AE01E48006807901D48406808901D
:1031200000208DF8240007A80E901A49B1F9040078
:103130000CA900F0E2FB002016498880BDF82C00A5
:1031400060B104A807C807AB07C39DF8240030B1DD
:10315000BDF82C000F49888009E013E00EE00E480E
:10316000007808B100F0BDF800200A49888007A85F
:103170000E90BDF92C000CA900F0BFFB044804A977
:103180000EC90EC00AA800F04DFB28460FB030BD96
:10319000D84F0020EC000020CC0000200EB51A48CB
:1031A000007880BB00201949088019490880194916
:1031B000886319490880194908801949022240F694
:1031C000FF73CDE9002102901A460146FFF74AFE3F
:1031D000144908806FF07040134908601149B1F933
:1031E000000000F06FF8114800F0F6F8104800F009
:1031F000F3F80C49B1F9000000F088F8FFF708FE79
:103200000120014908700EBDE0000020B40000203C
:10321000DE000020784F0020B2000020B000002027
:10322000DD500008BC000020C0000020E4000020A9
:10323000EC00002070B504460748B0F9005008E0E3
:103240002146284601F0C8FD2846FDF79FFFB0F94A
:103250001450002DF4D170BDB40000202DE9FF41C1
:1032600005460E463DB32846FDF790FF0446A78B62
:1032700007F00200F8B1D4E90001CDE9020166B11E
:1032800030680090706801906946204600F0ACF804
:10329000694602A8FEF777FB00BF294602A800F0A6
:1032A000AEF840B140F601003840012804D129466B
:1032B00002A800F016FA03E002A9284601F08CFDEE
:1032C000BDE8FF8110B5044600212046FFF7C6FF88
:1032D00010BD70B50446204600F066FA0546284643
:1032E00070BD10B500F08AFA10BD000070B504463C
:1032F0000D462B46224600210348B0F9000001F09C
:10330000D9FD0646304670BDB400002070B50446B5
:103310000B48B0F93C6014B90A48B0F900400848BD
:1033200084872046FDF732FF0546FFF717F9B5F908
:10333000000003490864B5F902004864304670BDD6
:10334000784F0020B400002070B504460D4654B1FB
:103350002046FDF71BFF0646306918B1AC802846B1
:103360003169884700BF70BD70B505460C4654B141
:103370002846FFF759FE064626B1E580214630462D
:10338000FFF7E2FF00BF70BD1CB50F48007818B111
:103390000E4801F0BBFD16E00D49B1F93C00FDF708
:1033A000F5FE0446D4E90001CDE900010948008892
:1033B00028B10848B0F90010684600F020F86846C7
:1033C00001F0A4FD00BF1CBDC4000020EC4F002094
:1033D000784F0020DC0000200249096801600149A3
:1033E00008607047B800002070B504460D46B4F977
:1033F0000220B4F900102846FEF757F970BD70B5E9
:1034000006460D4600BF2846FDF7C0FE0446207F55
:1034100000F0020008B9002070BD21463046FEF7DA
:10342000B2FAE08A00B902E0B4F91650EBE700BF47
:10343000284600F0CDFB002801DA0020ECE701204F
:10344000EAE700224A800A8082880388D21A12B2F0
:103450008A80C2884388D21A12B2CA80704710B5D7
:1034600004462046FFF7E0FD04462CB12046FDF758
:103470008DFEB0F9180010BD0020FCE782680A60DC
:10348000C2684A607047000010B51B48007808B950
:10349000002010BD19484069012806DD1748406921
:1034A000401E164948610020F3E71548007828B10E
:1034B0000020134908701348006880470F480069CE
:1034C000401C0E49086101F059FA30B90B484069B7
:1034D000401E0A4948610020DBE7FFF755FF0A4814
:1034E000006830B105480830074909688847044931
:1034F00008700120CDE70000C4000020E44F002048
:10350000E1000020780000207400002070B505461E
:103510002846FFF7A4FF06460EE0AE4201D1002682
:103520000CE03046FDF732FE0446B4F91A00A8421A
:1035300000D103E0B4F91A60002EEED100BF30468E
:1035400070BD00007FB505463C48007820B9FFF704
:103550001BFF012004B070BD39484069401C384948
:103560004861012801DD0120F4E73649B1F93C004A
:10357000FDF70CFE04464FF0FF3031490861324838
:10358000007820B102A92046FFF778FF0FE0207FE6
:1035900000F0020020B1D4E90001CDE9020106E00B
:1035A00027484069401E264948610020D2E71DB1E6
:1035B000294602A8FEF7E7F92248806BC0B12646EB
:1035C0002048806B01680091406801901F48008886
:1035D00028B11E48B0F90000FDF7D8FD064669463F
:1035E0003046FFF701FF694602A8FEF7CCF900BF9D
:1035F0001648008868B11548B0F9001002A8FFF716
:10360000FEFE30B90E484069401E0D494861002059
:10361000A0E70C48B0F93C1002A8FFF7F0FE30B963
:1036200007484069401E06494861002092E7044867
:10363000DDE9021206C0FFF727FF8BE7C400002078
:10364000E44F0020784F0020D4000020DC00002050
:103650002DE9F84F06468846B8F1000F3FD03046B6
:10366000FDF794FD044600206083A4F816804046D0
:10367000FDF78CFD0746207F00F0080BB7F9189086
:10368000B9F1000F02D13E83BDE8F88F4846FDF73F
:103690007DFD0546BBF1000F07D1287F00F0080033
:1036A00018B1A4F81A903E83EEE700BFB5F91A00EE
:1036B000009008B96E8311E00098FDF767FD82461F
:1036C000BBF1000F08D19AF81C0000F0080018B1F7
:1036D0006E830098608301E05546E7E700BF00BFB6
:1036E000D2E770B505460C4600BF2846FFF7A2FD9D
:1036F00070BD2DE9F04104460D4600278CB185B11F
:103700000CE02046FDF742FD0646B6F91600A84239
:1037100001D1012704E0B6F9164000BF002CF0D11A
:1037200000BF3846BDE8F08170B50446012520464B
:10373000FDF72CFD007F00F0100000B100252846A9
:1037400070BD000010B504460948808858B108488B
:10375000B0F904102046FFF7CCFF20B90448B0F9B7
:103760000400A04201D1012010BD0020FCE70000B0
:10377000E40000200346187F00F0020088B1B3F98E
:10378000000088420DDCB3F90400884209DBB3F97C
:103790000200904205DCB3F90600904201DB0120F3
:1037A00070470020FCE7000070B505460848B0F9F6
:1037B000004008E0AC4201D1012070BD2046FDF779
:1037C000E5FCB0F91440002CF4D10020F5E700002E
:1037D000B40000200146B1F90000B1F90420904284
:1037E00001DD00207047B1F90200B1F906209042D6
:1037F00001DD0020F6E70120F4E700000EB50848DF
:10380000008858B11820009069460548B0F90000BA
:10381000FFF79AFD00200249088000BF0EBD00009E
:10382000C800002010B502460E480068C8B100214B
:103830000C4B186811E090420DD111B103680B6078
:1038400008E003681BB1074C0368236002E0002313
:10385000044C236003E0014600680028EBD100BF60
:1038600000BF10BDB800002070B505460C462846C4
:10387000FDF78CFC0646A580306918B120463169F9
:10388000884702E02046FFF795FB70BD70B50446FF
:103890000D462046FFF748FF18B129462046FFF79E
:1038A000E3FF70BD3EB505460C46ADF804500094EC
:1038B00069462846FFF748FD3EBD3EB504460D4625
:1038C00095E807008DE8070069462046FFF7DEFF10
:1038D000ADF806400D20009009E02046FFF7A4FB5C
:1038E000044624B1029569462046FFF7CFFF2046E3
:1038F000FFF7EFFC0028F0D13EBD2DE9F04107466F
:103900000D46AC6874B13846FDF740FC0646B6F982
:1039100000102068401A2060B6F902106068401A52
:10392000606000BF29463846FFF7C7FFBDE8F08159
:103930000146074800680A1AC2EB821000EB022217
:1039400003484068024B1B68C01A92FBF0F07047B6
:10395000280000200146074880680A1A02EB02107E
:10396000C0EB02220348C068024B9B68C01A92FB5E
:10397000F0F070472800002070B504460948008820
:1039800068B10848B0F90000FDF700FC0646204683
:10399000FDF7FCFB0546B08AA882B48201E001482D
:1039A000048070BDB400002070B5064600F0AAF88F
:1039B000304601F01BFB06463448B0F90E00B04219
:1039C00001DA002070BD00F097FF051E00D1F9E775
:1039D000304600F0A3FF0446601C18B9304600F0E2
:1039E0009BF80446601C08B90020EBE7284A32F82F
:1039F0003420274B03EBC4035B881A4411B2244ADA
:103A000002EBC4029088224A02EBC5025680204A8B
:103A100022F8351002EBC5029080002803DD1C4B14
:103A200003EBC003DD801A4B03EBC503DC80184BAE
:103A300003EBC4039D8015480068401C13490860CF
:103A400008464068401E48600846806849688842C9
:103A500003DD0E4840680D4988600C488089304479
:103A600000B20A4988810846C089801B00B2C8811B
:103A70000846B0F91000B1F90E10884203DD034882
:103A8000C0890249088228469CE70000644F002054
:103A9000B43F00201548006838B314480068808897
:103AA00013490988081A00B2124908800F480068B3
:103AB000008911490988081A00B20E494880084651
:103AC00000880A490968096809880844401E00B24C
:103AD0000849888008464088044909680968498877
:103AE0000844401E00B20349C88070478800002087
:103AF000940000207E00002098000020014600BFB6
:103B00000120704700B50348007808B9FDF722FB93
:103B100000BD00005C0000202DE9F04706464FF094
:103B2000FF39002438E0284830F83400264901EBFA
:103B3000C40149880844244931F83510081A0FFA9D
:103B400080FAB24527DA204830F834001E4901EBEC
:103B5000C401498808441C4931F83510081A07B2D5
:103B6000C7B1194830F93500184900EB010816496A
:103B700001EBC501B1F90220A8EB07004146FCF7B3
:103B8000EDFB114830F83500C01B00B20E4921F89A
:103B9000350000BF00BF2C460B4800EBC4008588F1
:103BA000002DC0D1084830F93400074901EBC401A9
:103BB000B1F902100844C0F57A50B04200DBA146CA
:103BC0000FFA89F0BDE8F087B43F002034010020EF
:103BD00001460548B0F90000884201D10020704735
:103BE0004FF0FF30FBE70000BC0000202DE9F0475C
:103BF00005460F4691461C46DDE908861348007BC2
:103C000000F0030010B102281CD106E04FEA480280
:103C100021463046FCF75DFB14E000BF208840B130
:103C2000208830802DB1A8684A4639460368284666
:103C300098477F1CB61CA41CA8F10100B0F1000835
:103C4000ECD100BF00BFBDE8F0870000784F002036
:103C50002DE9FF4F81B081468A469846129E0F9DFE
:103C60000E98C0F1080498F800004949085C0E99C4
:103C700040FA01F74748007B00F0030020B101281B
:103C800062D0022879D11CE000BFAC4200D92C469A
:103C90002D1B00BF07F00101109830F8110026F825
:103CA000020B7F08601E041EF4D115B905B0BDE8F3
:103CB000F08F082408F101008046007834490F5C39
:103CC000E3E71098B0F802B000BFAC4200D92C4630
:103CD0002D1BB9F1000F1BD000BF1FB906EB440626
:103CE000A24414E007F0010040B1D9F808000368CD
:103CF00051464846039A9847A6F800B00AF1010ACF
:103D0000B61C601E041E00D101E07F08E5E711E04B
:103D100000BF17B906EB44060BE007F0010008B13D
:103D2000A6F800B0B61C601E041E00D101E07F089A
:103D3000EFE700BF05B9B9E7082408F101008046A4
:103D4000007813490F5CC0E71199486A804780B238
:103D5000009000BFAC4200D92C462D1B00BF07F0DD
:103D6000010018B13088009948403080B61C7F08A7
:103D7000601E041EF3D10DB998E707E0082408F18E
:103D800001008046007802490F5CE3E700BF8DE741
:103D9000FC580008784F00202DE9F84F0646894668
:103DA00015461C46DDE90A78B8F800000090B8F81E
:103DB00002A026442D48007B00F0030020B101281A
:103DC00031D002284ED118E000BF2978802323414A
:103DD000194009B1514600E000990A463046761C68
:103DE0004946FEF70CFB601C0446082801D100245C
:103DF0006D1C781E071EE8D134E000BF28788021B2
:103E00002141084020B1524649463046FEF7F7FAB4
:103E1000761C601C0446082801D100246D1C781E05
:103E2000071EEBD11EE000BF287880212141084009
:103E300068B149463046FEF7BDFA83464FF6FF703B
:103E4000A0EB0B0249463046FEF7D9FA00BF761CBC
:103E5000601C0446082801D100246D1C781E071E32
:103E6000E2D100BF00BFBDE8F88F0000784F00200E
:103E70002DE9FF5F81468A469846DDE910B60F9C22
:103E80000E98C0F10400C5B298F800000E994900E0
:103E90008840C7B23448007B00F0030020B10128FD
:103EA00043D002285DD118E000BFA54200DDE5B295
:103EB000641B00BFB8113BF8100026F8020BB806CF
:103EC000070E681EC0B2051EF4D12CB1042508F1FE
:103ED000010080460778E8E743E000BFA54200DD27
:103EE000E5B2641B00BF07F0C00068B1B8113BF831
:103EF00010003080B9F1000F06D0D9F8080003682F
:103F000051464846029A9847B61C0AF1010AB8067B
:103F1000070E681EC0B2051EE5D12CB1042508F1BC
:103F2000010080460778D9E71BE000BFA54200DD0D
:103F3000E5B2641B00BF07F0C00018B1308880F004
:103F4000FF003080B61CB806070E681EC0B2051E02
:103F5000F1D12CB1042508F1010080460778E5E78E
:103F600000BF00BFBDE8FF9F784F00202DE9FF4F45
:103F700083B0054616469A46DDE9107896F800901B
:103F8000544655445248007B00F0030010B102280B
:103F900048D148E0B8F1000F24D000BFC4F10300BD
:103FA0004FEA400BCBF10601C020084100EA0900AE
:103FB00040FA0BF00290029838F810000190284661
:103FC0006D1C019A0499FEF71AFA601C0446042835
:103FD00004D10024701C064690F80090781E071E3D
:103FE000DCD11FE000BFC4F103004FEA400BCBF16E
:103FF0000601C020084100EA090040FA0BF00290D7
:1040000028466D1C029A0499FEF7F9F9601C0446D3
:10401000042804D10024701C064690F80090781EF5
:10402000071EE0D14FE0B8F1000F27D000BFC4F168
:1040300003004FEA400BCBF10601C020084100EA23
:10404000090040FA0BF00290029848B1029838F843
:10405000100001902846019A0499FEF7D0F900BF9C
:104060006D1C601C0446042804D10024701C064604
:1040700090F80090781E071ED9D123E000BFC4F14C
:104080000300400002900298C0F10601C0200841E0
:1040900000EA0900029940FA01FBBBF1000F04D0CD
:1040A0005A4628460499FEF7AAF96D1C601C04467E
:1040B000042804D10024701C064690F80090781E55
:1040C000071EDCD100BF00BF07B0BDE8F08F0000C5
:1040D000784F00202DE9FF4F81B007468A46994668
:1040E000DDE90EB6DDE91084CBF10200C0B200902C
:1040F00099F800004FEA8B018840C5B25548007B13
:1041000000F0030020B101287ED002282AD12AE045
:10411000BBF1000F09D0281138F810002080A41C32
:10412000761E09F1010081460578022E15DB70101C
:1041300006F0010600BF291138F81110218005F0A2
:104140000F0138F811106180241D09F10101894621
:104150000D78411E081EEED100BF1EB1281138F89F
:104160001000208072E0BBF1000F15D005F0F000C8
:1041700050B1281138F8100020802FB1B8680368BA
:1041800051463846039A9847A41C0AF1010A761E44
:1041900009F101008146057824E005F0F00050B1F6
:1041A000281138F8100020802FB1B86803685146F4
:1041B0003846039A984705F00F00051E0AD038F8D4
:1041C0001500608037B1B86803680AF1010138460C
:1041D000039A9847241D0AF1020AB61E09F101004C
:1041E00081460578022ED8DA66B12811051E09D05D
:1041F00038F8150020802FB1B8680368514638465A
:10420000039A984722E0FFE700BF0098B04201DD23
:10421000F0B200900098361A00BF05F0C00018B147
:10422000208880F0FF002080A41C2807050E00983D
:10423000401EC0B200900028EFD136B1022000909D
:1042400009F1010081460578DFE700BF00BF05B036
:10425000BDE8F08F784F00202DE9FF4F83B0054671
:1042600016469A46DDE9107896F800905446554473
:104270005248007B00F0030010B1022848D148E00A
:10428000B8F1000F24D000BFC4F101004FEA800B49
:10429000CBF10401F020084100EA090040FA0BF0DC
:1042A0000290029838F81000019028466D1C019A7F
:1042B0000499FEF7A4F8601C0446022804D10024E7
:1042C000701C064690F80090781E071EDCD11FE097
:1042D00000BFC4F101004FEA800BCBF10401F020D4
:1042E000084100EA090040FA0BF0029028466D1CD4
:1042F000029A0499FEF783F8601C0446022804D150
:104300000024701C064690F80090781E071EE0D12D
:104310004FE0B8F1000F27D000BFC4F101004FEA11
:10432000800BCBF10401F020084100EA090040FABB
:104330000BF00290029848B1029838F810000190F2
:104340002846019A0499FEF75AF800BF6D1C601CBC
:104350000446022804D10024701C064690F8009000
:10436000781E071ED9D123E000BFC4F101008000F0
:1043700002900298C0F10401F020084100EA09000F
:10438000029940FA01FBBBF1000F04D05A462846BF
:104390000499FEF734F86D1C601C0446022804D111
:1043A0000024701C064690F80090781E071EDCD191
:1043B00000BF00BF07B0BDE8F08F0000784F0020BD
:1043C0002DE9F04706460F4692461C46DDE908896E
:1043D0000A9D1748007B00F0030010B1022824D189
:1043E0000CE000BF207839F810002880AD1C641C58
:1043F000A8F10100B0F10008F4D116E000BF207868
:1044000050B1207839F8100028802EB1B06852469B
:1044100039460368304698477F1CAD1C641CA8F1E0
:104420000100B0F10008EAD100BF00BFBDE8F0878D
:10443000784F00202DE9F0470746894614461D466F
:10444000DDF820802348007B00F0030010B1022833
:104450003DD11CE0B8F1000F0DD009E0267838F806
:10446000162049463846FDF7CAFF6D1E7F1C641CA6
:10447000002DF3DC0AE007E0227849463846FDF7D4
:10448000BEFF6D1E7F1C641C002DF5DC1FE0B8F123
:10449000000F0ED00AE026782EB138F816204946D3
:1044A0003846FDF7ACFF6D1E7F1C641C002DF2DC4E
:1044B0000CE009E0267826B1324649463846FDF739
:1044C0009EFF6D1E7F1C641C002DF3DC00BF00BF2F
:1044D000BDE8F087784F00202DE9F04705460F46EC
:1044E00091461C46DDE908861248007B00F0030077
:1044F00010B102281BD105E0424621463046FBF7A9
:10450000E8FE14E000BF207840B1207830802DB163
:10451000A8684A4639460368284698477F1CB61C57
:10452000641CA8F10100B0F10008ECD100BF00BF8D
:10453000BDE8F087784F00202DE9FF4F89B00E4687
:1045400017469946DDE918ABDDF868804F49B1F9A7
:104550004C00FCF71BFE08900898008B28B10899C6
:10456000B1F91800FCF712FE00E00020079008984F
:10457000C0680690099858440990079860B143486C
:10458000007B00F0020038B93B463246CDF800907F
:1045900009990798FDF7DDF93146099800F052FDB9
:1045A00005461698102813D100240CE0A219534692
:1045B000CDE9007509990798FFF718FB1798824411
:1045C00006980544641C4C45F0DB0DB0BDE8F08F47
:1045D000169808281ED1002419E0B8F1000F09D060
:1045E000A2195346CDE90078029509990798FFF77B
:1045F000E7FE07E0A2195346CDE90075099907982F
:10460000FFF76AFF1798824406980544641C4C45DE
:10461000E3DBDAE7B8F1000F01D1DFF874800024A2
:1046200030E01698012804D002280FD0042823D1A6
:1046300017E00898A2195346CDE900B7CDE90280EA
:10464000049509990798FFF703FB15E0A219534653
:10465000CDE900B7CDE9028509990798FFF708FC75
:104660000AE0A2195346CDE900B7CDE902850999C0
:104670000798FFF72FFD00BF00BF179882440698E8
:104680000544641C4C45CCDB00BF9EE7784F0020FE
:10469000306100082DE9FC5F8146884614469A4641
:1046A00033480069B0F90200019031480069B0F95F
:1046B0000600009000252E480069D0B12C48006902
:1046C000B0F90000A04204DD29480069B0F90000FB
:1046D000051B04EB0800401E25490969B1F90410C7
:1046E000884206DD22480069B0F90400001B00F191
:1046F0000108454539DA28466D1C39F9100000EBF0
:104700000A0730E039F9150000EB0A0601988742E4
:1047100002DA0198864224DB0098874202DD009885
:1047200086421EDCF01900EBD0714FEA610BB742F4
:104730000BDC2919481E5A463946FDF7DFFC2819BB
:1047400032465946FDF7DAFC0AE02919481E3A4676
:104750005946FDF7D3FC28195A463146FDF7CEFCE1
:1047600000BF37466D1C4545CCDBBDE8FC9F000013
:10477000784F002070B505460C4616462346324653
:104780002146284600F066F870BD00002DE9F84F7C
:1047900083460D4616462C49B1F94C00FCF7F6FC51
:1047A0000746B7F91880B8F1000F03D04046FCF770
:1047B000EDFC00E0002081462946584600F042FC0E
:1047C0000446D7F80CA02048007B00F00100C8B1D7
:1047D000786A804780B2009000BFB8F1000F06D021
:1047E000D9F808002A465946036848469847208861
:1047F000009948402080F8680444681C0546B0428F
:10480000EBDD1EE0B8F1000F10D000BFD9F80800B2
:104810002A4659460368484698470B4840882080F6
:104820005444681C0546B042F0DD0AE0711B481C88
:1048300000BF0549498821805444411E081EF8D113
:1048400000BFBDE8F88F0000784F002002461170CD
:10485000012070472DE9FE4F06460C4693461F4641
:104860002449B1F94C00FCF791FC0546214630463D
:1048700000F0E8FB8146E8680290ABEB060000F12F
:104880000108288B68B1B5F91800FCF77FFC824657
:10489000381B401C43462246314600905046FDF7E7
:1048A00058F823E01348007B00F00100A8B1CDF8D0
:1048B0000480CA46686A804780B2009000BFBAF898
:1048C000000000994840AAF800000AF1020A019885
:1048D000401E01900028F2D105E00648418842467A
:1048E0004846FDF7E0F802988144641CBC42D9DDDB
:1048F000BDE8FE8F784F0020012107E0064800EB5D
:10490000C100408808B908B27047491CB1F5FB7F67
:10491000F4DB0020F8E70000B43F002030B5024689
:10492000002111E0144830F93100134D05EBC105A9
:10493000B5F902502844104D35F933502C1A9442E1
:1049400001DB08B230BD19460B4800EBC10083887B
:10495000002BE7D1084830F93100074C04EBC104C3
:10496000B4F902402044C0F57A50904201DB08B20D
:10497000E8E74FF0FF30E5E7B43F00207CB55C4945
:10498000D1E90201CDE900015948006940B9584810
:104990000088ADF8000056484088ADF802001BE0E2
:1049A00053488089401C00B2ADF80000504840894F
:1049B000ADF80200BDF900004D49B1F9041088427C
:1049C0000ADD00BF4A480088ADF800004848C089A9
:1049D000401C00B2ADF80200BDF902004449B1F933
:1049E0000610884201DD00207CBD4249B1F93C003F
:1049F000FCF7CCFB0546BDF900003D49B1F90010BC
:104A000088421FD13A48C088ADF8060038488088EF
:104A1000ADF804003748B0F93C600BE03046FCF7D5
:104A2000B5FB0446B4F91A000022694600F0EEF81E
:104A3000B4F91660002EF1D1B5F9180000226946CC
:104A400000F0E4F800BFBDF80000ADF8040029480C
:104A5000B0F93C600DE03046FCF798FB0446B4F931
:104A60001A000022694600F047F800B1EBE7B4F9FC
:104A70001660002EEFD1B5F918000022694600F04B
:104A80003BF800B1DFE71A488088ADF80400BDF9B3
:104A90000400BDF90010884205DA1548DDE900126E
:104AA000C0E902128EE71348B0F93C600BE03046D3
:104AB000FCF76CFB0446B4F91A000022694600F0CA
:104AC00064F8B4F91660002EF1D1B5F9180000228F
:104AD000694600F05AF806480069C82801DD002040
:104AE00082E70348DDE90012C0E9021201207BE7FA
:104AF000E44F0020784F00202DE9FC5F06460D466C
:104B000017464FF0000B3BE03046FCF73FFB0446F6
:104B1000B0F81C8008F0020080B32FB13A4621465D
:104B20006846FCF751FF03E0D4E90001CDE900013C
:104B300069462846FCF7ECFDF8B108F0010038B9E9
:104B4000BDF80400401C00B228804FF0010B14E0B7
:104B5000B4F918900DE04846FCF718FB82466A4607
:104B600029464846FFF7C8FF08B14FF0010BBAF9D4
:104B70001A90B9F1000FEED100BF00BFB4F91A606E
:104B8000002EC1D15846BDE8FC9F2DE9FC470646E2
:104B90000D46174636E03046FCF7F8FA0446B0F802
:104BA0001C8008F0020058B32FB13A4621466846EF
:104BB000FCF70AFF03E0D4E90001CDE900016946F2
:104BC0002846FCF7A5FDD0B108F0010028B9BDF8D2
:104BD0000000401E00B2A88011E0B4F918900AE06D
:104BE0004846FCF7D3FA82466A4629464846FFF70C
:104BF000CCFFBAF91A90B9F1000FF1D100BF00BF94
:104C0000B4F91A60002EC6D1BDE8FC872DE9FC4737
:104C100006460C4617464EE03046FCF7B7FA054606
:104C2000B0F81C8008F00200002842D02FB13A46AC
:104C300029466846FCF7C8FE03E0D5E90001CDE946
:104C4000000169462046FCF763FD88B308F00100C7
:104C5000E0B9B5F90200B4F9021088420CDDBDF9E3
:104C60000200401EB4F90610884221DABDF80200A5
:104C7000401E00B2E0801BE0BDF90600B4F906104A
:104C8000884215DABDF80600E08011E0B5F9189009
:104C90000AE04846FCF77AFA82466A4621464846C8
:104CA000FFF7B4FFBAF91A90B9F1000FF1D100BFC4
:104CB00000BFB5F91A60002EAED1BDE8FC870146F1
:104CC00008787047014600BF01207047014604483C
:104CD000007B00F0040008B1481E70470846FCE75E
:104CE000784F002070B504460D460D48B0F902001B
:104CF000A84213DC0A48B0F90600A8420EDB0848B7
:104D0000B0F90000A04209DC0548B0F90400A04257
:104D100004DB29462046FDF74DFB70BD0020FCE773
:104D20009C00002070B504460D462946204600F040
:104D300089F90646308870BD0549098819B10449CA
:104D4000B1F9000002E00349B1F93C0070470000EE
:104D5000DC000020784F0020014608B2014A508450
:104D600000207047784F0020014608B2014A908425
:104D700000207047784F002010B5044611480068A5
:104D8000A06411482061201DFDF721FB0F48A0659C
:104D90000F48A0610C48206101202075FEF73EF904
:104DA000A087032084F85C006FF07040206360638C
:104DB0000020FDF7A5FB6FF07F40FDF7D9FB05480C
:104DC000E06110BDAC0000207C4F0020B45800080A
:104DD000F0600008A45800082DE9FC4107460D4684
:104DE0003846FCF7D3F90446A68B06F0020008B952
:104DF000BDE8FC8140F601003040012800D1F7E712
:104E00002846FEF7E7FC00B9F2E722462946684645
:104E1000FCF7DAFD6846FEF7DDFCB8B1207F00F054
:104E2000200030B16A4604F108010846FCF7FCFB9B
:104E30000CE00098A0600198E060A08B40F020009A
:104E4000A08303480088401C0149088000BFCFE7C9
:104E5000B200002070B50446042C03DA074830F88D
:104E6000140070BD064800680068C068806850F88B
:104E700024502846FCF744FFF3E70000A40000207C
:104E80008800002001480249086070473D30000852
:104E90006800002010B504460548008820B9D4E910
:104EA0000001FEF723FA10BD0148B0F90000FAE74F
:104EB000C80000202DE9F05F82460E46174698464E
:104EC0005046FCF763F98146424639464846FEF7AC
:104ED00051FC10B90020BDE8F09FB9F918400FE06F
:104EE0002046FCF753F9834643463A46314620466E
:104EF000FFF7E0FF051E00D0AA46BBF91A4000BF2D
:104F00000CB1B442ECD15046E5E700007CB5044654
:104F10000F48806B18B92046FDF710FB16E00C48CF
:104F2000806B0168009140680190FFF705FF06461D
:104F3000FCF72CF905466946FEF756FA2146684605
:104F4000FCF721FD6846FDF7F9FA00BF7CBD0000C3
:104F5000784F002070B504460D4616460D48B0F94E
:104F60000200A84215DC0B48B0F90600A84210DB8D
:104F70000848B0F90000A0420BDC0648B0F9040074
:104F8000A04206DB0448006832462946436A2046B0
:104F9000984770BD9C000020AC0000202DE9F05F18
:104FA00004460D4616461049B1F94C00FCF7EEF8E0
:104FB0008046B8F918702946204600F043F881462B
:104FC000A9F800606FB13846FCF7E0F88346384630
:104FD000FCF7DCF880682A462146D0F800A0584645
:104FE000D047BDE8F09F0000784F00200146C81C64
:104FF00020F0030000B270472DE9F04107460C464F
:10500000781C70B1601C60B10C480068401C40B155
:105010000B480068401C20B108480568084806682D
:1050200002E04FF0FF352E46044807600448046054
:1050300031462846FCF748FCBDE8F08148000020D6
:105040004C0000202DE9F04105460E460B49B1F910
:105050004C00FCF79BF8044604F12C076088301ADA
:1050600080B2A18989B200FB017707EB4500B4F952
:105070000010A0EB4100BDE8F0810000784F002057
:105080002DE9F05F04460D461349B1F94C00FCF7D9
:105090007DF80646B6F9187029462046FFF7D2FF7C
:1050A0008046706A80471FFA80F9B8F8000080EAED
:1050B0000900A8F800006FB13846FCF767F883468E
:1050C0003846FCF763F880682A462146D0F800A0ED
:1050D0005846D047BDE8F09F784F002070B5044691
:1050E00020680E2802D00F2818D107E0A56868684C
:1050F000012802D12868FCF735FB13E000260A4896
:1051000050F826006FF07041884206D0064951F8E9
:105110002600FCF71AFBFCF767F900BF2046FDF7F5
:1051200049FF00BF00BF70BDC000002010B504469D
:105130006FF00400FDF750FDE11704EB5171C1F36E
:10514000C701074A11701046007800EB4001C1EB1F
:10515000C0104FF6FF7101EAC0000249088010BD7F
:10516000020000200400002070B504464FF40770D0
:1051700094FBF0F0C6B24FF4077094FBF0F100FB23
:10518000114085B205E04FF4077000F009F8701E79
:10519000C6B2002EF7D115B1284600F001F870BD57
:1051A0000146114A12884A434FF0E0235A61002217
:1051B0009A611A46126942F001021A6100BF4FF06B
:1051C000E022106900F001021AB100F48032002AD6
:1051D000F5D04FF0E022126922F001024FF0E023F7
:1051E0001A6100229A61704704000020A820FFF78E
:1051F0009DFFFBF755FAFBF795FAFCF7BDF9012087
:10520000FBF798FBFDF714FD6FF07F40FCF79DFA6C
:10521000FCF7EAF80020FCF79EFA0BE0FBF734FB02
:1052200040F6C410FBF7D1FAFCF7DEF840F6C410E4
:10523000FBF7CBFAF2E7000010B591EA030F48BF85
:1052400083F0004300F1D681841A71EB030C05D280
:10525000121943EB0C03001B61EB0C01DFF824E196
:105260004FEA1154A4EB135C1EEA430F18BF9EEAE9
:10527000445F73D023EA0E03DCF1200E21EA0451CF
:1052800043F4801332D322FA0CFE10EB0E0023FA03
:105290000CFE41EB0E01CCF1200E03FA0EFE10EBDA
:1052A0000E0051F10001B1F5801FCCF1200E32D279
:1052B00001EB045112FA0EF2BDE8104058BF7047DE
:1052C000401C38BF5FEA420218BF7047002814BF75
:1052D00020F0010041F100014FEA410313F5001FE6
:1052E00038BF7047A1F1C04100F076B9012A43EB05
:1052F0000302ACF1200CDCF11F0E32BF4FF0000EA8
:1053000023FA0CF310EB030041EB0451B4EB115FF3
:10531000D0D0A1EB045101F5801149085FEA3000BB
:1053200001EB04510ED350F1000038BF12FA0EFE0B
:1053300008D1BDE81040C9E7401C38BF5FEA42020F
:10534000CAD1C3E7BDE810404FEA410313F5001F7F
:1053500038BF7047A1F1C04100F03EB99EEA445FFA
:1053600008D011EA5E0FBDE8104004BF01F0004113
:1053700000207047BDE8104070B500F0DFF800BFB6
:1053800064FBBE3E0000E0FF4FEA41034FEA535387
:10539000A3F58063D3F11E03C8BFD3F1210C0CDD4C
:1053A0004FF0004242EAC12242EA505232FA03FC74
:1053B0008CEAE17CACEBE1707047102BC4BF00209D
:1053C000704703F5787CBCF1FF3F04D06FF00042DA
:1053D00082EA2100704770B500F0B0F8499224804D
:1053E00000207047F2E70000DFF848C170B51CEA02
:1053F000111E1EBF1CEA13159EEA0C0F95EA0C0F36
:1054000000F06F8081EA030423EA4C134EEAD47E55
:1054100021EA4C1141F4801143F48013AE44A1FB06
:10542000024CA0FB0365AEF17F7E361955EB0C05EF
:10543000A1FB034C4CF10003A0FB021C16EB0C0675
:10544000654153F10003094218BF46F0010613F409
:10545000007F0BD14FEA03314FEA0530340341EAB4
:10546000155140EA16506FF003020AE04FEAC321DB
:105470004FEAC520F40241EA555140EA56506FF018
:10548000020202EB2E4201EB025585EACE710AD0F0
:105490005FEA440C18BF24F0004450F1000041F1D1
:1054A000000120EAD47040F2FE7C624500D270BD5B
:1054B000A84214BF4FF080444FF04044002E08BF74
:1054C0000024BEF1806FA8BFA1F1C041BDE87040CB
:1054D00080F282804FF0000001F1C04101F00041F4
:1054E00070479EEA0C0F0CEA131518BF95EA0C0FD3
:1054F00006D04FF0000081EA030E0EF0004170BDAF
:1055000000F01CF88900013E00F007B800F009B86F
:105510004FEA430C5FEA5C5C08D081EA030100F0CB
:105520005BB84FEA410C5FEA5C5CF6D14FF00000DB
:10553000014970470000FF070000F87F0EF1020EDE
:105540002EF0030E5EF8046B364205D4012A43EBBD
:10555000030515F5001F12D8012841EB010C1CF5BD
:10556000001F0CD80ED14FEAD17C15F5001F0CEBB3
:105570004C0C0CF1020C08BF4CEBD37C04E04FF058
:10558000080C01E04FEAD37C0CEB4C0526FA05F63B
:1055900006F00706B6F1040C06D20EEB860CBDE849
:1055A00070404CF0010C6047DFE80CF0090B020280
:1055B0004FF000414FF00000A1F5002170BD1946E9
:1055C0001046012851EB010418BFD4F5001484BF24
:1055D000002001F0004170BD0808A0F500114FEA5D
:1055E0003101704710B591EA030F48BF83F00043C3
:1055F0003FF52AAE841A71EB030C07D212198CF016
:10560000004C43EB0C03001B61EB0C01DFF8A4E141
:105610004FEA1154A4EB135C1EEA430F18BF9EEA35
:10562000445F00F0B08023EA6E03524221EA045145
:10563000C3EB6E0338BF5B1EDCF1200E25D322FACC
:105640000CFE10EB0E0043FA0CFE41EB0E01CCF108
:10565000200E03FA0EFE10EB0E0051F10001CCF10A
:10566000200E29D412FA0EF201EB0451BDE81040CD
:1056700058BF7047401C1CBFB2F1004F7047002854
:105680000CBF491C20F00100704712EB020E43EBE7
:10569000030218BF4FF0010E4EEA4202ACF1200C9B
:1056A000DCF11E0E54D943FA0CFE10EB0E0051F142
:1056B000FF31CCF11E0ED5D50EF1010E12FA0EFE01
:1056C000404141EB010101EB445C5FEA5C5C10D9B5
:1056D00010EBDE7001EB045138BFBEF1004FBDE8A6
:1056E000104018BF704700280CBF491C20F0010073
:1056F000704730D24FEAD42C11F5001124F4006425
:105700001BD0B1FA81F20B3AA41AA41ED2F12003E5
:10571000914030FA03F31943904001EBCC71002C17
:1057200001EB0451BDE81040A8BF704701F1C04132
:105730004FF0000001F000417047B0FA80F310FA1A
:1057400003F100D110BDE41A173C4805C90AE4E78B
:1057500001EB045110BD491001EB0451BDE81040AC
:105760004FEA300002E04FF0000170474A0008BFE6
:105770000042F8D0B2F5001F28BF704701F0004189
:105780004FF0000070479EEA445F07D011EA5E0FB9
:10579000BDE8104004BF002100207047BDE8104064
:1057A00070B5FFF7CBFE00BF40DFF63E83F000414F
:1057B000104670470000E0FF43004FEAD30C4FEA69
:1057C0003C0C43401FBF40070CF1605113F0FE4FEB
:1057D00070471CF0006F03D100200CF000417047AF
:1057E0000CF0004343EA507010B540EACC0000F0E2
:1057F0000EF800BF000000924FEA0001FFF7ECBE78
:105800004FF000414FF00000A1F5002170470EF16C
:10581000020E2EF0030E5EF8044B244204D44FEA2D
:105820004102B2F17F4F11D84FEA4003B3F17F4FED
:105830000CD80ED14FEAD07CB2F17F4F0CEB4C0C60
:105840000CF1020C08BF4CEBD17C04E04FF0080CCB
:1058500001E04FEAD17C0CEB4C0324FA03F404F092
:105860000704B4F1040C06D20EEB840CBDE8104022
:105870004CF0010C6047DFE80CF0070802024FF023
:105880000040A0F5800010BD0846420018BFD2F1CC
:10589000807288BF00F0004010BD4FF04070E1EE14
:1058A000100A7047BF4C0008C54C0008FD3A0008BC
:1058B0004D4800083D2000089920000841220008BA
:1058C000E1230008AD23000851220008F52200085A
:1058D0003523000875230008B5230008CF230008EE
:1058E000FF23000819240008F92300080000000025
:1058F000000000005061000800000000008040C06F
:1059000020A060E0109050D030B070F0088848C8F7
:1059100028A868E8189858D838B878F8048444C497
:1059200024A464E4149454D434B474F40C8C4CCC97
:105930002CAC6CEC1C9C5CDC3CBC7CFC028242C24F
:1059400022A262E2129252D232B272F20A8A4ACA97
:105950002AAA6AEA1A9A5ADA3ABA7AFA068646C637
:1059600026A666E6169656D636B676F60E8E4ECE37
:105970002EAE6EEE1E9E5EDE3EBE7EFE018141C1FB
:1059800021A161E1119151D131B171F1098949C967
:1059900029A969E9199959D939B979F9058545C507
:1059A00025A565E5159555D535B575F50D8D4DCD07
:1059B0002DAD6DED1D9D5DDD3DBD7DFD038343C3BF
:1059C00023A363E3139353D333B373F30B8B4BCB07
:1059D0002BAB6BEB1B9B5BDB3BBB7BFB078747C7A7
:1059E00027A767E7179757D737B777F70F8F4FCFA7
:1059F0002FAF6FEF1F9F5FDF3FBF7FFF00000000F3
:105A000000000000202020202000200048484800FE
:105A1000000000005050F850F85050002078A0705E
:105A200028F02000C0C81020409818006090A040C6
:105A3000A890680060204000000000001020404056
:105A4000402010004020101010204000005020F88E
:105A500020500000002020F820200000000000005E
:105A600000602040000000F800000000000000007E
:105A7000006060000008102040800000708898A836
:105A8000C8887000206020202020700070880830B6
:105A90004080F800708808300888700010305090FE
:105AA000F8101000F880F00808887000304080F08E
:105AB00088887000F8081020404040007088887086
:105AC0008888700070888878081060000060600026
:105AD0006060000000006060006020401020408096
