:020000040800F2
:10000000505C0020A1020008E1860008877100080A
:10001000DD8600085B0A0008119A00080000000055
:10002000000000000000000000000000218F000818
:100030008B0B000800000000B9890008119000082F
:10004000BB020008BB020008BB020008BB0200089C
:10005000BB020008BB020008BB020008BB0200088C
:10006000BB020008BB020008BB020008BB0200087C
:10007000BB020008BB020008BB020008BB0200086C
:10008000BB020008BB020008BB020008BB0200085C
:10009000BB020008BB020008BB020008BB0200084C
:1000A000BB020008BB020008BB020008BB0200083C
:1000B000BB020008BB020008BB020008BB0200082C
:1000C000BB020008BB020008BB020008BB0200081C
:1000D000BB020008BB020008BB020008BB0200080C
:1000E000BB020008BB020008BB020008BB020008FC
:1000F000BB020008BB020008BB020008BB020008EC
:10010000BB020008BB020008BB020008BB020008DB
:10011000BB020008BB020008BB020008BB020008CB
:10012000BB020008BB020008BB020008BB020008BB
:10013000BB020008BB020008BB020008BB020008AB
:10014000BB020008BB020008BB020008BB0200089B
:10015000BB020008BB020008BB020008BB0200088B
:10016000BB020008BB020008BB020008BB0200087B
:10017000BB020008BB020008BB020008BB0200086B
:10018000BB020008BB02000800F002F800F05EF8B5
:100190000AA090E8000C82448344AAF10107DA45E2
:1001A00001D100F053F8AFF2090EBAE80F0013F0D6
:1001B000010F18BFFB1A43F00103184740F102007A
:1001C00060F102000A444FF0000C10F8013B13F0FC
:1001D000070408BF10F8014B1D1108BF10F8015BA0
:1001E000641E05D010F8016B641E01F8016BF9D193
:1001F00013F0080F1EBF10F8014BAD1C0C1B09D1EA
:100200006D1E58BF01F801CBFAD505E014F8016B5B
:1002100001F8016B6D1EF9D59142D6D370470000ED
:100220000023002400250026103A28BF78C1FBD8FF
:10023000520728BF30C148BF0B6070471FB513F08D
:1002400064FE00F062F81FBD10B510BD00F04FFA5B
:100250001146FFF7F3FF13F071F800F05FF803B4F5
:10026000FFF7F2FF03BC00F03BFA00000B49D1F8A6
:1002700000C04A685CF8043B1068184442F8040B5C
:100280008C4528BFA1F1DC0C8A4228BFA1F1DC0219
:10029000C1F800C04A6020F000407047E4550020DB
:1002A0000948804709480047FEE7FEE7FEE7FEE70A
:1002B000FEE7FEE7FEE7FEE7FEE7FEE70448054946
:1002C000054A064B70470000E990000889010008C4
:1002D00050560020505C00205058002050580020FC
:1002E0000B4910B5A1F17C020A4CC2E93712372143
:1002F00006E000EB104342F82130074B00FB0340BF
:100300000B1EA1F10101F4DC10BD0120E8E70000A3
:1003100084550020E119D666CD0D010010B50446C4
:10032000AFF300802046BDE81040FFF798BF40EAD9
:10033000010310B59B070FD1042A0DD310C808C9BB
:10034000121F9C42F8D020BA19BA884201D9012064
:1003500010BD4FF0FF3010BD1AB1D30703D0521CAF
:1003600007E0002010BD10F8013B11F8014B1B1BEA
:1003700007D110F8013B11F8014B1B1B01D1921E54
:10038000F1D1184610BD40EA0103024630B59B0783
:1003900010D14FF0013400E008C208C91D1B9D4375
:1003A00015EAC41FF8D013F0FF0102F8011B0DD0AD
:1003B0001B0AF8E711F8013B002B02F8013B05D0BE
:1003C00011F8013B002B02F8013BF3D130BD10B511
:1003D000431C02E010F8011B71B18107FAD14FF004
:1003E000013202C88C1A8C4314EAC211F9D0C01A27
:1003F0000A0603D0C01E10BDC01A10BD0A0401D0E9
:10040000801E10BD0902FCD0401E10BD421E12F815
:10041000013F002BFBD111F8013B002B02F8013BFF
:10042000F9D17047032A40F2308010F0030C00F03D
:10043000158011F8013BBCF1020F624498BF11F81E
:1004400001CB00F8013B38BF11F8013BA2F10402D7
:1004500098BF00F801CB38BF00F8013B11F003034F
:1004600000F06780083AC0F0088051F8043B083A71
:1004700051F804CBA0E80810F5E7121D5CBF51F855
:10048000043B40F8043BAFF30080D20724BF11F8CF
:10049000013B11F801CB48BF11F8012B24BF00F834
:1004A000013B00F801CB48BF00F8012B7047431A0D
:1004B00028BF9A427FF6B6AF032A1044114440F297
:1004C000268010F0030F1EBF11F8013D521E00F8E8
:1004D000013D10F0030F7FF4F6AF11F0030300F0BD
:1004E000CC80083AC0F00B8051F8043D083A51F82E
:1004F00004CD40F8043D40F804CDFFF7F3BF121DD2
:100500005CBF51F8043D40F8043DAFF30080D207D2
:1005100024BF11F8013D11F801CD48BF11F8012C9D
:1005200024BF00F8013D00F801CD48BF00F8012CC0
:10053000704710B5203AC0F00B80B1E81850203A4F
:10054000A0E81850B1E81850A0E81850BFF4F5AF73
:100550005FEA027C24BFB1E81850A0E8185044BFFD
:1005600018C918C0BDE810405FEA827C24BF51F86A
:10057000043B40F8043B08BF7047D20728BF31F85E
:10058000023B48BF11F8012B28BF20F8023B48BFAF
:1005900000F8012B704702F0FF0343EA032242EA0E
:1005A000024200F002B84FF000020429C0F01280AD
:1005B00010F0030C00F01B80CCF1040CBCF1020F16
:1005C00018BF00F8012BA8BF20F8022BA1EB0C01EB
:1005D00000F00DB85FEAC17C24BF00F8012B00F8E1
:1005E000012B48BF00F8012B70474FF0000200B507
:1005F000134694469646203922BFA0E80C50A0E846
:100600000C50B1F12001BFF4F7AF090728BFA0E8F3
:100610000C5048BF0CC05DF804EB890028BF40F8BF
:10062000042B08BF704748BF20F8022B11F0804F01
:1006300018BF00F8012B704770477047704710B51E
:1006400000F04AF8006810BD10B5044600F044F808
:10065000046010BD431A28BF9A427FF66AAF104467
:1006600010F0030F11441EBF11F8013D521E00F897
:10067000013D10F0030F7FF4F6AF103AC0F00A808E
:1006800010B531E91850103A20E91850BFF4F9AF0D
:10069000BDE81040530724BF31E9081020E90810D5
:1006A00044BF51F8043D40F8043D12F0030F08BF69
:1006B0007047D20728BF31F8023D48BF11F8012C1E
:1006C00028BF20F8023D48BF00F8012C7047000009
:1006D00000487047EC55002000487047EC5500205A
:1006E00001491820ABBEFEE72600020070477546A0
:1006F000FFF7EEFFAE4605006946534620F00700BF
:10070000854618B020B5FFF7D9FDBDE820404FF071
:1007100000064FF000074FF000084FF0000B21F0EB
:100720000701AC46ACE8C009ACE8C009ACE8C009B8
:10073000ACE8C0098D46704738B508F05FF9012074
:1007400008F0C2F908F00AFA044600BF002CFDD0F8
:10075000002008F0ADF94FF4A05008F0C3F94FF4B1
:10076000805008F0CBF9072002234FF4A87208212B
:100770000090C80408F0D4F9012008F0CBF900BFBC
:10078000392008F06DF90028FAD0022008F0DAF9D3
:1007900000BF08F085F90828FBD1002008F09CF97B
:1007A0000121084608F00AF90121022008F006F9A3
:1007B0000121042008F002F90121082008F0FEF8C8
:1007C0000121102008F0FAF80121202008F0F6F8A5
:1007D0000121402008F0F2F838BD70B50446B4F9A4
:1007E0000450284603F0F0FF06462146284609F04B
:1007F0002FF900B970BD20680B280FD00C2802D04B
:100800000F280FD105E022463146284610F081F826
:10081000F0E72946304610F0DEF9EBE730460BF002
:100820007FFE00BF00BF204609F08EFC00BFE1E75D
:100830002DE9FF4704460D4616461F46DDE90C9894
:100840000020CDE900083B4632462946CDE90209A1
:10085000204600F01BF804B0BDE8F0872DE9FF4703
:1008600004460D4616461F46DDE90DA9DDF8308029
:1008700000203B4632462946CDE9020ACDE90089EF
:10088000204600F003F804B0BDE8F0872DE9FF4FE3
:1008900085B006460F469046DDE913ABDDF848907B
:1008A00000BF3021114A1FFA8AF0CDE90090CDE94E
:1008B0000221424639463046089B09F0A9FB04460E
:1008C0007CB1204603F080FF05461022284615998A
:1008D00009F010FB2022064905F12800FFF729FE48
:1008E00000BF204609B0BDE8F08F0000DB0700081C
:1008F000E40000202DE9FF4704460D4616461F463A
:10090000DDF8308000BFB4F90800618A0022CDE92B
:100910000052CDE90210B4F91030B4F90E20B4F948
:100920000CC00CEB0701B4F90AC00CEB0600FFF792
:10093000ADFF81464846616800F060F8484604B063
:10094000BDE8F0872DE9F04105460C4616466DB12D
:10095000022C0BD8284603F037FF074607F1280082
:1009600040F82460284609F09DFF00BFBDE8F081F3
:1009700070B505460C4624B11021284609F0E7F869
:1009800003E01021284609F045F870BD70B5044613
:100990000D4644B1204603F017FF06463564204655
:1009A00009F080FF00BF70BDF8B504460D4616463D
:1009B00000200346324629460090204600F001F808
:1009C000F8BD2DE9F04706460F4614461D46DDF8F2
:1009D000208042462946204604F06EFA81464A4667
:1009E0003946304600F01DF8BDE8F08770B5044682
:1009F0000D462946204609F0CDF870BD70B5044675
:100A00000D466CB1204603F0DFFE0646294606F18E
:100A1000480006F00AFB10B1204609F043FF00BF72
:100A200070BD2DE9F04105460C4616469DB128469D
:100A300003F0CAFE0746032C0CD807F14A0101EB6C
:100A4000440003F038FE07F14A0020F814602846FD
:100A500009F028FF00BFBDE8F08100BFFEE70000FD
:100A60001CB504462648408C2549B1F8401008447E
:100A700000B2234948840846808CB1F844100844E9
:100A800000B21F498884204604F0C0FE1C49498CEE
:100A9000ADF800100844401E00B2ADF8040004F0A8
:100AA000E7FE1749898CADF802100844401E00B2D9
:100AB000ADF8060068460AF059FB38B100BF204681
:100AC00001F070FC0AF0CCFA0028F8D10A2C05D00D
:100AD000BDF80400401C00B2094948840848408C15
:100AE0000749B1F84010401A00B205494884084649
:100AF000808CB1F84410401A00B2014988841CBDB2
:100B00005852002015488088144991F85C1010FB59
:100B100001F000B2124908801048C0880F4991F8CE
:100B20005C1010FB01F000B20D4948800B480089B1
:100B3000401C0A4991F85C104843401E00B2084925
:100B4000888006484089401C044991F85C1048435D
:100B5000401E00B20249C880704700005852002071
:100B600020000020024641EA0220704707E046F2DA
:100B7000A81100BF0A1EA1F1010399B2FAD1021E09
:100B8000A0F1010398B2F2D1704770472DE9F0410E
:100B900005460E4617461C463119E819184B9B6D41
:100BA0005A6890473119E81B154B9B6D5A6890475E
:100BB000F1192819124B9B6D5A689047F11B28199F
:100BC0000F4B9B6D5A689047BCB1311BE8190C4B19
:100BD0009B6D5A689047311BE81B094B9B6D5A6807
:100BE0009047F119281B064B9B6D5A689047F11BE3
:100BF000281B034B9B6D5A689047BDE8F0810000AD
:100C0000585200202DE9F0470746894614461D46F4
:100C1000DDF820802148007B00F00200E0B9B8F147
:100C2000000F0DD009E0268838F8162049463846CE
:100C300006F0B8FF6D1E7F1CA41C002DF3DC2AE01B
:100C400007E022884946384606F0ACFF6D1E7F1C3F
:100C5000A41C002DF5DC1EE0B8F1000F0ED00AE058
:100C600026882EB138F816204946384606F09AFFF5
:100C70006D1E7F1CA41C002DF2DC0CE009E0268810
:100C800026B132464946384606F08CFF6D1E7F1C61
:100C9000A41C002DF3DCBDE8F087000058520020B2
:100CA00072B670472DE9F04104460D4616460448D9
:100CB0002718324639462846FFF7B4FBBDE8F081D5
:100CC00000F80F08F8B507460D461646012007F054
:100CD00003FFFFF7E5FF00F0BFFE1A4800F016FE25
:100CE0000221582000F018FE002421E0002000908E
:100CF000285D8DF80000601CB04203DA28194078A6
:100D00008DF80100A01CB04203DA281980788DF814
:100D10000200E01CB04203DA2819C0788DF8030005
:100D2000094A3A441019009900F06EFE201D84B261
:100D3000B442DBDB00F05EFE00F098F9002007F023
:100D4000CBFEF8BDE300010000F80F081CB50D480C
:100D5000007890B10120009000208DF8040003205D
:100D60008DF8050002208DF807006946064801F05D
:100D7000EFFC00200349087000BF0121024801F088
:100D800052FD1CBDE4010020000002401CB50E48CD
:100D9000007898B14FF40060009000208DF80400B6
:100DA00003208DF8050002208DF8070069460748EA
:100DB00001F0CEFC00200449087000BF4FF4006130
:100DC000024801F030FD1CBDE50100200014024086
:100DD0001CB5044611480078A0B1012000908DF8A0
:100DE000040000208DF8060003208DF80500012086
:100DF0008DF8070069460A4801F0AAFC002007495F
:100E0000087000BF24B10121054801F017FD03E07F
:100E10000121034801F010FD1CBD0000D801002095
:100E20000004024000B59FB00121582007F0C6FD24
:100E30000121084607F0D2FD4CF233701D900220CC
:100E40008DF8780000208DF87A0003208DF8790065
:100E500001208DF87B001DA9634801F079FC4FF655
:100E600080701D9002208DF8780000208DF87A00A7
:100E700003208DF8790001208DF87B001DA95B48C7
:100E800001F066FC41F201001D9002208DF878000F
:100E900000208DF87A0003208DF8790001208DF86C
:100EA0007B001DA9524801F053FC0C2200214E4842
:100EB00001F096FC0C2201214B4801F091FC0C2220
:100EC0000421494801F08CFC0C220521464801F020
:100ED00087FC0C220821444801F082FC0C220921E5
:100EE000414801F07DFC0C220A213F4801F078FCCA
:100EF0000C220E213C4801F073FC0C220F213A48D1
:100F000001F06EFC0C220721384801F069FC0C222C
:100F10000821364801F064FC0C220921334801F015
:100F20005FFC0C220A21314801F05AFC0C220B21F3
:100F30002E4801F055FC0C2211462C4801F050FCC3
:100F40000C220D21294801F04BFC0C220E212748D0
:100F500001F046FC0C220F21244801F041FC0C2238
:100F60000021234801F03CFC0C221146204801F0EE
:100F700037FC0F200790002008903C2009900020AB
:100F80000A900B900C900D90092000900020019089
:100F900008200290002003900490059006900620FF
:100FA0000E9000200F9010901020119000201290B1
:100FB00014901390159016904FF4805017900020C5
:100FC00018904FF48040199000201A9007A81B90A9
:100FD000CDF870D00EA801F00DF90121062001F026
:100FE000EFF81FB000BD0000000C024000100240EE
:100FF0000018024001480088704700000008006C9B
:1010000001490880704700000008006C0149088011
:1010100070470000FE07006C1CB5044611480078BC
:10102000A8B12020009001208DF8040000208DF848
:10103000060003208DF8050001208DF807006946A1
:10104000094801F085FB00200649087000BF24B95B
:101050002021054801F0F0FB03E02021024801F0C7
:10106000EDFB1CBDD90100200008024062B67047AC
:101070001CB504461A48007838B3042000900120BB
:101080008DF8040000208DF8060003208DF805007F
:1010900001208DF807006946124801F059FB002035
:1010A0000F4908700C20009001208DF804000020EA
:1010B0008DF8060003208DF8050001208DF807004B
:1010C0000C21094801F0BAFB00BF24B904210548EE
:1010D00001F0B2FB03E00421024801F0AFFB1CBDAC
:1010E000DF01002000040240000802401CB50E4849
:1010F000007898B14FF48070009000208DF80400C3
:1011000003208DF8050001208DF807006946074887
:1011100001F01EFB00200449087000BF4FF48071ED
:10112000024801F080FB1CBDE001002000140240D9
:101130001CB5044613480078B0B14FF4007000901D
:1011400001208DF8040000208DF8060003208DF8A2
:10115000050001208DF8070069460B4801F0F8FAF8
:1011600000200849087000BF2CB94FF400710648F0
:1011700001F062FB04E04FF40071034801F05EFBF4
:101180001CBD0000E1010020001402401CB5044613
:1011900011480078A8B10220009001208DF80400C9
:1011A00000208DF8060003208DF8050001208DF841
:1011B00007006946094801F0CBFA0020064908708B
:1011C00000BF24B90221054801F036FB03E00221EB
:1011D000024801F033FB1CBDE20100200004024084
:1011E0001CB50E48007898B14FF480600090002044
:1011F0008DF8040003208DF8050001208DF807000C
:101200006946074801F0A4FA00200449087000BFAD
:101210004FF48061024801F006FB1CBDE301002091
:10122000001402402DE9F04107460D46002F6FD013
:10123000384603F0C9FA0446002C6AD0E06C20B1AD
:1012400029463846E26C904794E0122D4AD008DCDB
:10125000082D53D00D2D75D0102D49D0112D73D1DF
:1012600008E0132D22D01B2D6DD01D2D57D01E2D23
:101270006AD14FE0208DC0B1B4F9280003F0A4FA80
:1012800006463046216C05F0F3FA0644304605F078
:10129000B9FA8046B8F17F0F06DA08F10100307024
:1012A0000521384609F071FB00BF62E0208DC0B116
:1012B000B4F9280003F088FA06463046216C05F0A0
:1012C000D7FA0644304605F09DFA8046B8F1200F63
:1012D00006DDA8F1010030700521384609F055FB04
:1012E00000BF46E0206C411C204600F0E1FA40E0DF
:1012F000206C411E204600F0DBFA3AE0206C411ED3
:10130000204600F0D5FA214638460BF03CF930E093
:1013100034E032E0214638460BF035F929E094F804
:101320004800012803D1002084F8480006E001208D
:1013300084F848002046216C00F0BAFA19E001E078
:1013400002E000E000BF14E0202D11DB94F848001B
:1013500018B1214638460BF016F9AAB22146384694
:101360000EF076FC20B1206C411C204600F0A0FA63
:1013700000BF00BF384609F095FA00BFBDE8F08114
:101380002DE9F04786B004460D4616461F46DDE9B6
:101390000FA9DDF838800020CDE901903B463246A8
:1013A0002946CDE9038A0090204600F003F806B0F4
:1013B000BDE8F0872DE9FF4F85B007468846914686
:1013C000DDF858B0DDE9135A00BF45F480555022CE
:1013D0001E4BA8B240F002001299CDE90232CDE9CD
:1013E00000104A4641463846089B08F011FE064662
:1013F00046B3304603F0E8F904461022204615991A
:1014000008F078FD1C22124904F15400FFF791F80E
:10141000012084F84900BBF1000F01D1082000E051
:10142000584600B260850020A0852085B4F92A00C6
:10143000411C20460EF0AAFB18B9304608F0B8FE51
:10144000002600BF304609B0BDE8F08F271800081D
:10145000040100202DE9F04385B004460D461646F0
:101460001F46DDF8309000BFB4F90810628A0023EF
:101470006069CDE90053CDE902210490B4F9103040
:10148000B4F90E20B4F90CC00CEB0701B4F90AC092
:101490000CEB0600FFF78EFF8046B8F1000F03D07B
:1014A000618A404600F08EF9404605B0BDE8F08301
:1014B0002DE9F0470746884691461E4657B3384601
:1014C00003F082F904461448E06414482065C4F827
:1014D0003C8000202064B4F92A50002D03DC304603
:1014E0000EF03EF90546202D00DD2025B4F92A0036
:1014F000A84203D02946384600F0D6F8C4F8309008
:101500006663012084F84800384610F0E1FD384653
:1015100009F0C8F9BDE8F08713BA0008D120010826
:101520002DE9F34F83B00C46039800286ED0039842
:1015300003F04AF90546288D002866D0B5F9280041
:1015400003F042F90190E86D04F0B2FF02900398B5
:1015500009F020F88346019804F098F9804695F840
:10156000540000F00300012809D002280ED1ABEB93
:101570000801481C00EBD071A4EB61040DE0ABEB5B
:101580000801A86D401C081A241A06E0A86D401C2A
:10159000296A49690844241A00BF00BF019805F070
:1015A000B5FC0646002C04DA0021284600F080F93C
:1015B00024E0444504DD3146284600F079F91DE079
:1015C0004FF00009CA460FE001A805F03DF9009070
:1015D000009804F01BF907460AEB0700A04200DD63
:1015E00006E0BA4409F10109B14501DAA245EBDB95
:1015F00000BF4946284600F05BF900BF029804F09E
:1016000057FF039809F04EF900BF00BF05B0BDE8D1
:10161000F08F70B505460E4605B970BD284603F03B
:10162000D3F804461CB1E665284609F03BF900BF33
:10163000F3E700002DE9F0470746884691461E462D
:101640005FB3384603F0C0F804461548E064154817
:101650002065C4F83C8000202064B4F92A50002D95
:1016600003DC30460EF084F80546082D00DD082521
:10167000B4F92A00A84203D02946384600F014F8ED
:10168000C4F830906663012084F84800384610F0B2
:1016900031FD384609F006F900BFBDE8F0870000CB
:1016A000B3BA0008F52001082DE9F04706460D46BB
:1016B00076B3304603F088F80446B4F92A00A8420D
:1016C00025D0B4F92A00A84216DD208DA0B1B4F9C6
:1016D000280003F079F80746384605F017FC8046E5
:1016E000A84508DD2946384605F0C2F881460020A5
:1016F00007F8090000BF00BFA08D281A411C204632
:101700000EF044FA28B26085304609F0CBF800BFED
:10171000BDE8F0872DE9F04780460F46B8F1000F8D
:101720004ED0404603F050F80446002F3DD04FF015
:101730000009208D50B1B4F9280003F045F8824625
:101740005046FEF744FE00F1010900BF384605F09F
:10175000DDFB0646B4F92A10B14201DAB4F92A6079
:101760003146384605F084F8451CA5EB09012046B2
:101770000EF063FBC0B1B4F9280003F025F88246EF
:101780002A4639465046FEF74DFE681E2064B4F9DD
:101790002A10206C884206D194F84800012802D112
:1017A000206C401E206400BF06E004F1280002F017
:1017B00082FF0020A0852064404609F073F800BF36
:1017C000BDE8F08770B505460E4605B970BD2846E0
:1017D00002F0FAFF04461CB16665284609F062F87B
:1017E00000BFF3E770B506460D46DEB1304602F0A5
:1017F000EBFF0446206BA84200DD256B606BA8421E
:1018000000DA656BE06BA8420CD0E563206D10B187
:101810003046216D8847304609F044F805213046AE
:1018200009F0B3F870BD2DE9F0410446B4F9045055
:10183000284602F0C9FF8046284609F0A9FD074660
:101840002146284608F004F908B9BDE8F08120686F
:101850000B2811D00C2804D00E2811D00F2821D12C
:1018600005E02246414628460FF077F81AE029465F
:1018700040460FF03DFAE8E740460AF060FE11E00E
:101880007FB1A068406800280BDDA0680668092EBB
:1018900000D104E031462846FFF7C4FCD5E700BF7D
:1018A00000BF00BF00BF204608F04EFC00BFCCE7E1
:1018B0002DE9F04104460D46208D20B3B4F92800EF
:1018C00002F082FF8046404605F020FB064694F871
:1018D000480008B1012000E000200746002D00DA92
:1018E0000025B54200DD3546B4F92A00C01BA842E8
:1018F00002DAB4F92A00C51B206CA84200D0256486
:101900000020606400BFBDE8F0810000014908606C
:10191000704700000C3C024070B504460A460026A1
:10192000092502B909E0012A01D1160205E0022ABF
:1019300001D1160201E04FF4407600F09FF8054611
:10194000092D28D11548006820F44070134908601B
:1019500008460068304308600846006820F0F80038
:1019600008600846006844F0020108430B4908601B
:101970000846006840F48030086000F07FF80546B3
:101980000648006820F00200044908600846006824
:1019900020F0F8000860284670BD0000103C0240AE
:1019A00009201349096801F48031B1F5803F01D164
:1019B00001201CE00E49096801F0100109B1062060
:1019C00015E00B49096801F4807109B102200EE0AD
:1019D0000749096801F0EF0109B1072007E0044950
:1019E000096801F0020109B1082000E009207047F0
:1019F0000C3C02400348006840F000400149086088
:101A000070470000103C024030B502460C460925E4
:101A100000F034F80546092D19D10E48006820F46D
:101A200040700C4908600846006840F40070086087
:101A30000846006840F001000860146000F01EF8DD
:101A400005460448006820F0010002490860284665
:101A500030BD0000103C02400548006800F0004026
:101A600028B1044802490C390860034808607047EF
:101A7000103C024023016745AB89EFCD08B5092032
:101A80000090FFF78DFF009002E0FFF789FF0090C4
:101A90009DF800000128F8D09DF8000008BD2DE950
:101AA000F04F8BB00446894615469A464FF0000B1E
:101AB00074B3204600F028F90646204600F017F9D6
:101AC0000490204602F080FE0A9005A90A9800F0D2
:101AD000ABF909F0010038B1BDF92410701E081AE5
:101AE000A0EB0508822704E0BDF9200000EB050803
:101AF000022733463246CDE901A7009440460499B7
:101B0000FEF7ACFE834600215846FEF731FF00BFCA
:101B100058460BB0BDE8F08F2DE9F04104460D4664
:101B200016460723324629462046FFF7B8FF0746E8
:101B3000054A00213846FEF737FF0449384609F0C8
:101B40001BF83846BDE8F0813DCA00086531010840
:101B50002DE9F04104460D46164608233246294633
:101B60002046FFF79CFF0746054A00213846FEF74E
:101B70001BFF0449384608F0FFFF3846BDE8F081F6
:101B80006BCA00089F3101082DE9F04786B0044672
:101B90000D4616461F46DDE90F9ADDF83880002015
:101BA0000290CDE9030453464A464146CDE900067A
:101BB0000595384600F004F806B0BDE8F08700004F
:101BC0002DE9F04F89B00746884691469B46DDE9EE
:101BD000135A45F4805548222E4BA8B21299CDE9EC
:101BE0000232CDE900105B464A464146384608F0CD
:101BF0000FFA0646002E49D0304602F0E5FD0446B5
:101C000030222046159908F075F92022224904F166
:101C10002800FEF78EFC0020483460821798206070
:101C2000A4F814A00020E082E080E061483C04A910
:101C3000204600F0F9F80020184941F28272CDE9FF
:101C40000062CDE90210BDF91AE0BDF916C0AEEB95
:101C50000C0C0CF10103BDF918C0BDF914E0ACEB9C
:101C60000E0C0CF10102BDF91610704608F0D0F907
:101C7000A4F84C0042F20400284010B9304608F0A5
:101C8000F9FA3046169900F0BCF800BF304609B0AA
:101C9000BDE8F08F35E9000820010020C9200008C8
:101CA0002DE9F04387B004460D4616461F46DDF881
:101CB0003880B4F90810628A6068CDE90408CDE97B
:101CC00002210020CDE90050B4F91030B4F90E2003
:101CD000B4F90CC00CEB0701B4F90AC00CEB060018
:101CE000FFF76EFF8146484607B0BDE8F08370B548
:101CF0000446002534B1204602F066FD0646B6F9DA
:101D0000425000BF284670BD70B586B0044600251D
:101D10006CB1204602F058FD064601A9304600F09D
:101D200083F8B6F940500DB9BDF9045000BF2846FC
:101D300006B070BD70B5044644B1204602F044FDC3
:101D40000546294620460EF0D3FA00BF70BD70B597
:101D5000044644B1204602F037FD05462946204698
:101D60000EF01DFB00BF70BD70B5044664B1204687
:101D700002F02AFD0546294620460FF06EFC294652
:101D800020460FF037FC00BF70BD70B504460D460D
:101D90001CB1294620460FF088FD70BD2DE9F041A9
:101DA00004460D469CB1204602F00EFD0646304624
:101DB00000F0C1F80746B562304600F04CF93946EC
:101DC000304600F0C9F8204608F06CFD00BFBDE8C1
:101DD000F08170B505460E4695B1284602F0F4FC38
:101DE000044636B1B4F85C0040F01000A4F85C0082
:101DF00005E0B4F85C0020F01000A4F85C0000BF1F
:101E000070BD70B504460D466CB1204602F0DCFC96
:101E10000646294606F1500005F007F910B12046A4
:101E200008F040FD00BF70BD2DE9F04F85B00546BC
:101E30000C46002004900390B5F94260284609F052
:101E400084F90290284609F088F9019095F8260057
:101E500000F0200010B1B5F944000390284600F0CE
:101E60006AF88046B5F84E0020B1B5F94E0008F08A
:101E7000A1FB04900FFA88F02080049800B26080E3
:101E800030B2A0800298801B401E01B221810398CD
:101E9000304400EB08010498084401B2E180019845
:101EA000801B401E01B2618130B2A0810298801B6C
:101EB000401E01B2218231B2E18106EB0800401ED2
:101EC00001B26182B5F918902FE0484602F07CFC1F
:101ED0000746B7F90000B5F90010A0EB010AB7F901
:101EE0000400B5F90010A0EB010BB7F90200B5F939
:101EF0000210401A00900098B04214D1387F00F0D0
:101F0000800040B1B4F9100050450CDBAAF101008B
:101F100001B2218207E0B4F90C00584503DC0BF153
:101F2000010000B2A081B7F91A90B9F1000FCCD12D
:101F300005B0BDE8F08F70B50446002594F8260082
:101F400000F0200030B1B4F940501DB9A06A03F090
:101F5000E5FC851C284670BD2DE9F04F85B0044690
:101F600088462046FFF7E7FF04900498A0EB080599
:101F7000002D6DD04FF0000B00BF0020824681463F
:101F800040F6FF70019040420090B4F9186037E0CD
:101F9000304602F019FC0746D7E90001CDE90201FD
:101FA000B4F902004242B4F90000414202A804F030
:101FB00057F9BDF90A10B4F9420081421ED1BDF9AA
:101FC0000E00BDF90A10401A401C404516D1387F5A
:101FD00000F0800048B1BDF90C10009881420DDD81
:101FE000B246BDF90800009008E0BDF9081001985C
:101FF000814203DAB146BDF908000190B7F91A60D1
:10200000002EC5D1B9F1000F0AD02A46294648460C
:1020100008F0E6FC0BFB05F10022484608F0ABFC9B
:10202000BAF1000F0BD02A462946504608F0D8FCDA
:102030000BFB05F041420022504608F09CFC0BF1DE
:10204000010BB9F1000F98D1BAF1000F95D100BF83
:1020500005B0BDE8F08F30B585B00446B4F84C004B
:1020600010B9B4F84E0068B369462046FFF7DCFEAD
:10207000B4F84C00B8B1BDF90620BDF90410B4F9AC
:102080004C0008F046FCBDF90A50BDF90630EB1AC9
:102090005A1CBDF90830BDF904505B1B591CB4F93A
:1020A0004C0008F098FEB4F84E0050B1BDF906306F
:1020B000BDF902505A1BBDF90410B4F94E0008F0E6
:1020C00028FC00BF05B030BD2DE9FE430446B4F93D
:1020D0000470B4F9040008F015FA8046404602F096
:1020E00073FB0546AE6C2068172858D008DC0E2814
:1020F0003ED00F280BD014284FD0152853D14DE0D7
:102100001F281AD020282ED022284CD142E06FF070
:102110007041E86B884204D0E86B05F0D3FD02F013
:102120001DFE46B194E807008DE80700ADF8047085
:102130006846B04700BFBDE8FE83A06890B1B5F81F
:102140005E0040B1B5F95E00B84204D0B5F95E005A
:1021500008F0B6FD04E0384608F006FEA5F85E007B
:102160000020A060E7E72146404607F071FCE2E767
:10217000A068406800280CDDA068D0F80090B9F194
:10218000090F05D1384608F0EFFDA5F85E00D2E74B
:1021900000BF08E0E86BA060CDE700BF00BF2046AD
:1021A00007F0D2FFC7E700BF26B1A4F8048020469D
:1021B000B04702E0204607F0C7FF00BFBBE70000C2
:1021C00051B18200A2F1C042126842F001038200C4
:1021D000A2F1C042136009E08200A2F1C04212687D
:1021E000034B1A408300A3F1C0431A6070470000FC
:1021F000FEFF0F00D0E901121143C26811430269CA
:1022000011434269114382691143C2691143026A51
:102210001143426A1143826A1143C26A1143026B3D
:10222000114302689200A2F1C0421160816808293E
:102230000BD101688900A1F1C041096841F0400259
:1022400001688900A1F1C0410A60416B0968426BD5
:10225000526841EA0211426B926841EA0221426BE4
:10226000928941EA0241426B128A41EA0251426B71
:10227000127D41EA0261426B926911430268521C6D
:102280009200A2F1C0421160C16AB1F5804F1BD12A
:10229000816B0968826B526841EA0211826B926815
:1022A00041EA0221826B128A41EA0251826B127D5D
:1022B00041EA0261826B9269114302689200A2F1C5
:1022C000C042C2F8041107E06FF070420168890053
:1022D000A1F1C041C1F80421704700002DE9F84F79
:1022E000074688461446204604EBD071491004FB8B
:1022F00004110091A8EB040908EB040A28480069BE
:1023000098B127480069B0F90600504503DA24481F
:102310000069B0F906A022480069B0F902004845FA
:1023200003DD1F480069B0F902900026254616E03B
:10233000A8EB060BCB4511DBD3450FDC00E06D1E8F
:1023400006FB06F005FB050100988142F7DC7A19CF
:10235000781B1349896D0B6859469847761CA6422D
:10236000E6DB0026254616E008EB060BCB4511DB25
:10237000D3450FDC00E06D1E06FB06F005FB0501F2
:1023800000988142F7DC7A19781B0549896D0B6842
:1023900059469847761CA642E6DBBDE8F88F000058
:1023A0005852002010B504460A2C02D102F044FE17
:1023B0000DE00D2C0BD00648806901682046884747
:1023C0000448006818B1204602490968884710BDD2
:1023D00058520020A00000202DE9F04387B00446A9
:1023E0000E461746D4F80C80002004F059F8054634
:1023F000B8F1000F05D098F8041011B145F00201B2
:1024000001E025F00201084604F04AF8206970B1A5
:102410000122D4E902018DE8070003926388228833
:1024200020693946D0F800C03046E0471EE0E06839
:1024300005F079FA8146B9F1000F06D1E08801284C
:1024400001D0002000E00C488146A188E288A06805
:10245000CDE90409CDE902210120009001906388B3
:1024600022883946304605F001F800BF284604F0BE
:1024700017F807B0BDE8F083585200202DE9F04767
:1024800007468846144640F2C32060434FF47A71F1
:1024900090FBF1F000F1010904EBD471491004FB49
:1024A000041A26460023224641463846FEF76EFBB4
:1024B000012513E005FB05F006FB0600504506DD8F
:1024C00033462A4641463846FEF760FB761E3346C1
:1024D0002A4641463846FEF759FB6D1C4D45E9DD5D
:1024E000BDE8F0872DE9F04705468846164640F2DC
:1024F000C32070434FF47A7190FBF1F000F10109B1
:1025000006EBD671491006FB061A3446AA19A81B19
:102510002649896D0B6841469847012741E007FB32
:1025200007F004FB0400504524DD4C4521DD05EB9C
:10253000070CACF1010208EB0401A5EB070C0CF150
:102540000100DFF868C0DCF858C0DCF800309847BC
:1025500005EB070CACF10102A8EB0401A5EB070C9D
:102560000CF10100DFF844C0DCF858C0DCF80030A2
:102570009847641E2A1908EB0701281BDFF82CC0B6
:10258000DCF858C0DCF8003098472A19A8EB07019E
:10259000281BDFF818C0DCF858C0DCF8003098477A
:1025A0007F1C4F45BBDDBDE8F0870000585200207E
:1025B00070B504460E4615466119601B02F018F806
:1025C0002A4631462046FFF789FE01F043FF70BDE1
:1025D0002DE9F04F87B00646894692461F4640F6E1
:1025E000FF7006904042059000250CE006EB850048
:1025F000B0F902400698844200DA069405988442B5
:1026000000DD05946D1C4D45F0DB41480069D8B1F3
:102610003F480069B0F90600C11B0598814205DA00
:102620003B480069B0F90600C01B059038480069B6
:10263000B0F90200C11B0698814205DD34480069EB
:10264000B0F90200C01B0690069C5BE00DF0CAFAD0
:10265000002550E0A9F10100A84201DD681C00E05E
:102660000020049006EB8500B0F902B0049806EB58
:102670008000B0F90280A34524D1A0450CD1049B71
:1026800036F9233003EB0A02E11936F9253003EB62
:102690000A000BF073FB2DE023464A4629463046DC
:1026A0000DF0CBF803900398A0420AD0A8EB0403E6
:1026B000CDE900A703990A1B36F92500214609F048
:1026C0003BFA17E0A04515D0A04501DBA34503DD8B
:1026D000A3450FDBA0450DDC049806EB800306EB59
:1026E000850203A9204609F031FE10B1039809F0D4
:1026F00013F900BF6D1C4D45ACDBE11950460CF0E1
:1027000011FD641C05988442A0DD07B0BDE8F08F80
:102710005852002010B5002003F0A5FE6FF07F4056
:1027200003F0A7FE012003F0DDFE002003F0E2FE2F
:10273000002003F0E9FE002003F0B2FE034803F09E
:10274000B7FE002003F0C6FE10BD0000804E010859
:10275000F0B50A4600210023002400BF3DE001251A
:1027600005FA01F3156805EA03049C4234D10568B3
:102770004F000326BE40B543056015794E00B540B5
:102780000668354305601579012D02D01579022DB3
:1027900016D185684F000326BE40B5438560557944
:1027A0004E00B540866835438560456801268E40F9
:1027B000B5434560456896798E40B6B2354345606D
:1027C000C5684F000326BE40B543C560D5794E00AD
:1027D000B540C6683543C560491C1029BFD3F0BD5C
:1027E000F0B5002300244D07ED0E02FA05F3CE10DC
:1027F00000F1200555F826504E07F70E0F26BE4073
:10280000B543CF1000F1200646F82750CE1000F156
:10281000200555F8265045EA0304CE1000F12005A6
:1028200045F82640F0BD0246002013690B400BB16D
:10283000012000E00020704741837047018370470A
:1028400010B509A112A001F0FFF800F055FE00201C
:1028500003F009FE02F082FA01F0F4FD032001F01A
:10286000DBFE09F033FA10BD0A4578616D706C65C6
:102870007320666F72207468650A6175746F6D6F7E
:102880007469766520696E64757374726965000099
:102890004175746F6D6F746976652073616D706CCE
:1028A0006573000010B507A114A001F0CDF84FF436
:1028B0007F0000F031FE02F051FA09F0EDFA01F06C
:1028C000F3FA10BD53686F77696E670A64696666CC
:1028D0006572656E74206269746D617073207769CA
:1028E00074680A616E6420776974686F7574206318
:1028F0006F6D7072657373696F6E00004269746DFD
:102900006170730010B502F0B9FF044607F0CFFC08
:102910006E2C01D04E2C02D101200C490870682C7D
:1029200001D0482C0ED14FF4FA7002F0F6FA00BF35
:102930000A2002F0F2FA07F0BAFC02F09FFF044608
:10294000002CF5D00148007810BD000020020020C6
:1029500070B520A127A001F077F802F0FFF9274811
:1029600003F0A6FD6FF07F4003F083FD7825A026DD
:1029700032240022114622A002F032FC22463146C7
:10298000284602F069FE01F08FFA012003F088FD6D
:1029900004F10A023146284602F05EFE002003F0F0
:1029A0007FFD01F081FA18A000F084FF02F0D6F953
:1029B0006FF07F4003F05DFD0022114619A002F088
:1029C0000FFCA21E3146284601F052FD01F06CFAC0
:1029D00070BD00000A41726269747261727920638D
:1029E0006972636C65730A616E6420617263732E31
:1029F00000000000436972636C657300287F010862
:102A0000436972636C650000436972636C6573208F
:102A1000776974680A416E7469616C696173696E83
:102A200067000000416E7469616C69617365640AD6
:102A3000636972636C65000010B5002414A11CA0CA
:102A400001F002F84FF47F0000F066FD02F086F915
:102A500009F0FAFE40F2DC5000F032F800F04CFDD4
:102A600002F04EF900BF05E0134951F824000DF0C3
:102A7000D4FC641C042C03D2FFF744FF0028F3D0DD
:102A80000021084602F01CF80C4801F0C7FF10BDF9
:102A90000A656D57696E20737570706F7274730A72
:102AA000736F66747761726520637572736F7200FD
:102AB000437572736F7200006C020020444001087D
:102AC0002DE9FE43044600271E49B1F9000007F036
:102AD00073FA642C0EDD0E2100221B48B0F90200AF
:102AE0000723CDE9012100903C220A21084605F088
:102AF0000EFE00E00020804622460021404605F000
:102B000089FE02F0CEFE064600BF02F0CAFE851B1B
:102B10002946404605F0DFFE07F0C9FB0A2002F017
:102B2000FCF9A54203D2FFF7EDFE0028EDD04046A8
:102B300007F03EFB0FF000FB07F0B9FB3846BDE89D
:102B4000FE830000FC010020100200202DE9F04F60
:102B500087B004F0E3FE834604F0E2FE06904548A9
:102B60000590002144A000F06FFFFF2000F0D4FC8E
:102B70000490049808F086F804900A274FF04B0858
:102B8000ABEB0700A0F10A090698A0EB0800A0F142
:102B90000A0AB9F18C0F01DD4FF08C09BAF1780FF8
:102BA00001DD4FF0780A3B460222002138A08DE873
:102BB0000007FEF7E9FF054601212846FFF7E5F883
:102BC00001212846FFF705F9002201212846FEF7DA
:102BD000A3FF012211462846FEF7BAFF30492846D6
:102BE000FFF7DCF8284607F0CBFB039040F2827039
:102BF000002100910B460A46CDE9011029480399AE
:102C000005F0C0FA0646304608F05AF830460599F5
:102C100005F041FC01F048F9002406E0304605F0DB
:102C200043FBFA20FFF74CFF641C0A2C03DAFFF782
:102C300069FE0028F2D0002406E0304605F01EFBB5
:102C4000FA20FFF73DFF641C0A2C03DAFFF75AFE57
:102C50000028F2D04FF4FA70FFF732FF304607F049
:102C6000A7FA284607F0A4FA049808F00BF807B072
:102C7000BDE8F08F500602084672616D6520576905
:102C80006E646F772026204C697374626F78000041
:102C900053656C656374206C616E67756167650070
:102CA0005C970108808D020870B52DED028B88B00D
:102CB0007824A02545A14CA000F0C6FE6FF07F400F
:102CC00003F0D7FB4D4803F0F3FB002211464CA064
:102CD00002F086FA0A35B6EE080AB0EE408AB0EE87
:102CE000480A07224B4968460DF045FA00EE104AA3
:102CF000B8EEC00ADFED480A00EEC80ABDEEC00A11
:102D000010EE102A2B460721684602F0C1FC00EEA7
:102D1000104AB8EEC00ADFED400A00EE880ABDEEA8
:102D2000C00A10EE102A2B460721684602F0B0FCBC
:102D3000B0EE480A0322394968460DF01CFA4FF4F8
:102D40007F4000F0F7FB0646B6F57F4F03D04FF605
:102D5000FF7003F08EFB00EE105AB8EEC00AF2EEE0
:102D6000040A00EE880ABDEEC00A10EE103A2246B0
:102D70000321684602F08CFC6FF07F4003F079FB82
:102D800001F060FBB0EE480A0422254968460DF0C8
:102D9000F2F900EE105AB8EEC00AF2EE040A00EEA4
:102DA000C80AF0EE080A20EE200ABDEEC00A10EEB6
:102DB000103A04EB44020421684601F099FB01F04B
:102DC00073F808B0BDEC028B70BD00000A5374614B
:102DD0006E6461726420616E6420616E7469616CFE
:102DE00069617365640000004172626974726172A6
:102DF0007920506F6C79676F6E7300004814020879
:102E00004172626974726172790A506F6C79676F8E
:102E10006E73000054DE02080000484270DE0208B3
:102E20007CDE02082DE9F04F87B004F077FD824682
:102E300000EBDA70471004F073FD824600EBDA70A5
:102E400045104FF00208894903C9CDE904018749BB
:102E5000083103C9CDE90201A5F1280B4FF00A0999
:102E6000282D05DA0E2002904FF0010B4FF00409D7
:102E70007FA187A000F0E8FD01F070FF6FF07F40B8
:102E800003F0F7FA844803F013FB5A46394683A04F
:102E900002F0B6F902200090DDF810A00AEBDA7C0F
:102EA000A7EB6C005246029BE91A05F01AFCADF83C
:102EB000180002200090DDF814A00AEBDA7CA7EBE2
:102EC0006C00524605EB0901039B05F00AFCADF8C6
:102ED0001A00BDF9180007F0DCF9BDF91A0007F077
:102EE000D8F94FF44870FFF7EBFDBDF91A004FF425
:102EF000FA72002105F08EFC00269DE0BDF9180055
:102F0000654905F07AFCBDF918004FF47F420021B5
:102F100005F05EFCBDF91800FF22012105F058FC08
:102F200000240DE0BDF91800214605F0D4FCBDF9E0
:102F30001A00214605F0CFFC052001F0EEFF641CCD
:102F4000642C03DCFFF7DEFC0028EBD0BDF9180091
:102F500056A105F078FC0EE0BDF91800214605F0F9
:102F6000BAFCC4F1C801BDF91A0005F0B4FC052093
:102F700001F0D3FF641E002C03DBFFF7C3FC002825
:102F8000EAD0BDF918004CA105F05DFCBDF91800B0
:102F9000002105F091FC0EE0BDF91800214605F076
:102FA0009AFC04F1C801BDF91A0005F094FC052053
:102FB00001F0B3FF641C642C03DCFFF7A3FC0028C2
:102FC000EAD00EE0BDF91800214605F084FCC4F5F6
:102FD000C871BDF91A0005F07EFC052001F09DFFC7
:102FE000641E002C03DBFFF78DFC0028EAD0BDF93E
:102FF0001800354905F001FCBDF9180033A105F0B2
:1030000022FC0EE0BDF91800214605F064FC04F531
:10301000C871BDF91A0005F05EFC052001F07DFFC6
:10302000641C642C03DCFFF76DFC0028EAD04FF42D
:103030007A70FFF745FD761C4645FFF65FAF4FF40B
:103040007A70FFF73DFDBDF9180007F0B1F8BDF942
:103050001A0007F0ADF84FF47A70FFF731FD1F4802
:1030600003F026FA07B0BDE8F08F00008CDE0208FE
:103070000A50726F67726573736261727320696E52
:103080000A616C6C20766172696174696F6E73009D
:103090005769646765747300287F010850726F6711
:1030A00072657373206261720000000054616E6B80
:1030B00020656D7074790000416E792074657874B4
:1030C000202E2E2E0000000050060208416E7920AE
:1030D000666F6E74202E2E2E00000000D48601082C
:1030E0002DE9FC4136A13FA000F0AEFC00F0C6F88F
:1030F000FF2000F011FA0646304607F0C3FD0646F1
:103100000020009003463B4A0E2101903A4801F00E
:1031100097FE054600240CE0384901EBC4014868DD
:10312000FFF7CEFC354911F83400012103F08EF988
:10313000641C0C2CF0D34FF47A70FFF7C1FC002410
:1031400010E0284607F0DDFB40B14FF498712846A7
:1031500007F02AF90746214605F0C6FE6420FFF76E
:10316000AFFC0A34642CECDD4FF44870FFF7A8FC88
:10317000284607F0C6FB40B114221146284607F046
:10318000F0FB4FF4FA70FFF79BFC284607F0B9FB01
:1031900040B114223C21284607F0E3FB4FF448706D
:1031A000FFF78EFC284607F0ACFB10B1284606F06E
:1031B000FFFF00F0A1F9304607F064FDBDE8FC8197
:1031C0000A4469616C6F6720626F7865730A636196
:1031D0006E20656173696C79206265206372656138
:1031E000746564004469616C6F6720626F78657311
:1031F00000000000812F0108EC8502083C870208CE
:1032000010B5DC200A4908600AA117A000F01CFCD8
:1032100001F0A4FD0CF0F0FE09F02EFA00F06CF9BC
:1032200009F092FA00F068F909F0D4F910BD000035
:10323000C00200200A4F7074696D697A6564206469
:10324000726177696E6720726F7574696E650A6660
:103250006F722064726177696E672067726170684F
:10326000206461746100000044726177696E6720B8
:1032700061206772617068007047000010B50349F3
:10328000B1F9000007F062FA10BD00000002002052
:10329000F0B58DB0782634224C496846FDF749F9DF
:1032A00002F004FB074639466846FDF7AFF84FF4D5
:1032B0007F0000F031F96FF07F4000F03BF901F042
:1032C0004DFD434803F0F4F80C2004460246314615
:1032D00040A001F095FF414803F0EAF804F117001F
:1032E0000446024631463EA001F08AFFFF2003F06B
:1032F000C0F8494803F0DCF804F120000446024617
:10330000314646A001F07CFF4D4803F0D1F804F1AE
:1033100012000446024631464AA001F071FF5148AE
:1033200003F0C6F86FF07F4003F0A3F804F10F003C
:10333000044602463146684601F062FF244803F025
:10334000B7F86FF07F4003F094F84FF4967278214D
:1033500045A001F055FFC4F5A070213804F10F011C
:1033600001EB600544484088A5EB6005A02D00DD19
:10337000A02541480088C0F1F00041102A463E488F
:1033800001F086FF2E4803F093F84FF4917200216C
:103390003AA001F025FF002001F00CFE4FF49672D8
:1033A000002139A001F01CFF4FF47A5001F002FE19
:1033B0004FF49B72002139A001F012FF41F28830D6
:1033C000FFF77EFB00F098F80DB0F0BD988D020875
:1033D00048140208656D57696E000000C8A801080E
:1033E000556E6976657273616C2067726170686989
:1033F0006320736F6674776172650A666F72206509
:103400006D626564646564206170706C6963617489
:10341000696F6E7300000000C4C70108416E792017
:10342000435055202D20416E79204C4344202D20BF
:10343000416E79204170706C69636174696F6E00D0
:10344000D4860108436F6D70696C6564204E6F7699
:1034500020323320323031362031393A35383A345F
:1034600031000000ECB101087777772E736567674C
:1034700065722E636F6D000078F002084755495F52
:103480004F533A20000000004755495F414C4C4FD4
:10349000435F53495A453A2000000000436F6D7066
:1034A000696C65723A20556E6B6E6F776E00000026
:1034B00010B503A10BA000F0C7FA0EF011FC10BD6F
:1034C0000A53616D706C6573207573656420696E55
:1034D0000A4E617669676174696F6E2073797374DF
:1034E000656D73004E617669676174696F6E2073F4
:1034F000797374656D00000010B5002004490870F0
:103500000EF01AFE03480068401C0249086010BD16
:10351000200200201C02002070B50546FF2001F0AB
:1035200084FC08B12C4600E00024204602F09BFFFA
:10353000204670BD70B50546FF2001F076FC08B14D
:103540002C4601E06FF07F44204602F092FF2046B7
:1035500070BD00002DE9F84F4FF00D0A002004F077
:1035600077F900904FF0F00846244FF03C09A84945
:10357000A8A000F069FAA8EB0908C4F5827090FBD6
:10358000FAF56FF07F4002F074FF002002F06BFF4D
:1035900001F0E4FBA24802F08BFFA2A001F07EFD47
:1035A000A34802F085FFA3A001F078FD4FF0FF30A3
:1035B00001F000FDA4A001F071FD102001F0FAFC63
:1035C000A2A001F06BFDA3A001F068FD009801F03E
:1035D000F1FCA1A001F062FDA2A001F05FFD40F2AC
:1035E000352001F0E7FCA34802F062FF6FF07F4056
:1035F00002F03FFF621900219FA001F0F1FD0320BE
:1036000000FB054200219DA001F0EAFD052000FB22
:10361000054200219BA001F0E3FD062000FB0542CE
:1036200000219AA001F0DCFD082000FB05420021EA
:1036300098A001F0D5FD0A2000FB0542002197A0CB
:1036400001F0CEFD0C2000FB0542002195A001F009
:10365000C7FD0027D0E0C7EB0720B0FBF8F086B22B
:1036600009EB07001FFA80FB304602F002FF6019E9
:10367000421E2146584601F099FFC6F1FF0101EBB9
:103680000121FF2202EB012002F0F3FE022000FBE9
:103690000540421E6119584601F088FF300202F0D1
:1036A000E8FE032000FB0540421E022000FB05410E
:1036B000584601F07BFFC6F1FF0101EB014101F526
:1036C0007F4002F0D6FE042000FB0540421E03208E
:1036D00000FB0541584601F069FF300402F0C9FEC5
:1036E000052000FB0540421E042000FB0541584612
:1036F00001F05CFFC6F1FF0101EB012101F57F0044
:1037000002F0B7FE062000FB0540421E052000FB2C
:103710000541584601F04AFF06EB062101EB064041
:1037200002F0A7FE072000FB0540421E062000FB1A
:103730000541584601F03AFF06EB062002F099FEDB
:10374000082000FB0540421E072000FB05415846AB
:1037500001F02CFFC6F1FF014FF6FF7202EB0140B2
:1037600002F087FE092000FB0540421E082000FBF6
:103770000541584601F01AFF06EB0621080202F047
:1037800078FE0A2000FB0540421E092000FB05418F
:10379000584601F00BFFC6F1FF01444A881802F0B9
:1037A00068FE0B2000FB0540421E0A2000FB05417D
:1037B000584601F0FBFE06EB064002F05AFE0C20D4
:1037C00000FB0540421E0B2000FB0541584601F05E
:1037D000EDFEC6F1FF014FF0FF1202EB012002F0F7
:1037E00048FE0D2000FB0540421E0C2000FB054159
:1037F000584601F0DBFE7F1C474504DAFFF782F8EC
:1038000000283FF428AF00F04FFBBDE8F88F000020
:10381000B0F10208436F6C6F7220626172000000A9
:10382000287F0108436F6C6F7220626172730A0017
:10383000F05A01080A4C43445F434F4E54524F4CD8
:103840004C45523A200000000A00000020627070CF
:10385000000000002C20000020636F6C6F72730A60
:103860000000000046697865642070616C657474BE
:10387000653A20000462010852656400477265657C
:103880006E000000426C75650000000047726579AB
:103890000000000059656C6C6F7700004379616E21
:1038A000000000004D6167656E74610000FFFF005D
:1038B0007047000010B50446024804600EF046FC54
:1038C00010BD00002402002010B511A120A000F0BE
:1038D000BBF80EF09BF90D22224923A00EF0DEF872
:1038E00010222B492BA00EF0D9F82F4A2FA13CA073
:1038F0000EF066F93F4A40A148A00EF061F94C4A2B
:103900004CA14FA00EF05CF9FFF7F6FD10BD0000D2
:10391000656D57696E20737570706F7274730A5598
:103920004E49434F44452028616C6C2063686172A6
:10393000616374657273290A616E642053686966F5
:1039400074204A495320284A6170616E29000000A2
:10395000496E7465726E6174696F6E616C20666F1A
:103960006E7473003C8F01084153434949206368DA
:1039700061726163746572730A26204575726F7097
:1039800065616E0A657874656E73696F6E730000A9
:1039900064E201084869726167616E6120260A4B22
:1039A0006174616B616E61007C020020466F6E7411
:1039B000436F6E76657274657220617661696C61C1
:1039C000626C6520746F2063726561746520796F25
:1039D0007572206F776E20666F6E74732E2E2E00B8
:1039E00050726F706F7274696F6E616C0A466F6EA1
:1039F0007473000098020020466F6E74732077691C
:103A000074682066697865642063686172616374B4
:103A100065722077696474682E2E2E004D6F6E6F6C
:103A20007370616365640A466F6E74730000000012
:103A3000B40200200A2B2D20302E31323334000006
:103A400044696769747300002DE9F04198B0044639
:103A50000D46684602F0E8FC2E4804602E480560DA
:103A600002F01AFDFFF70AFC4FF47F00FFF754FD48
:103A70006FF07F4002F0FDFC01F070F9274802F082
:103A800017FD03F04DFF032190FBF1F0A0F10A07B1
:103A900003F044FF064600EBD67041103A4620463C
:103AA00001F0AEFB1C480068A8B11D4802F000FD03
:103AB00003F036FF064600EBD6704010A0F10A086E
:103AC00003F02CFF074600EBD77041104246124826
:103AD000006801F095FB1049096811B14FF4FA61D3
:103AE00001E04FF47A610846FEF7EAFF0EF02EFB84
:103AF0000EF022FB684602F023FC06F0D8FBFFF72D
:103B0000FBFCFF20FFF708FD01F028F918B0BDE825
:103B1000F081000014020020240200204814020852
:103B2000F05A0108F0B587B000265DA168A0FFF744
:103B30008BFF002508E0694951F8250001F061F983
:103B400003A921F815006D1C082DF4DB01F0A9FE76
:103B5000044600256FE005F0070103AA32F81100C2
:103B600002F08EFCFCF782FBF02190FBF1F201FBEE
:103B70001200783800B2ADF80400FCF777FB4FF480
:103B8000A07190FBF1F201FB1200A03800B2ADF879
:103B90000600FCF76BFBF02190FBF1F201FB120138
:103BA000BDF804001430084400B2ADF80800FCF77A
:103BB0005DFB4FF4A07190FBF1F201FB1201BDF827
:103BC00006001430084400B2ADF80A00BDF90A300E
:103BD000BDF90820BDF90610BDF9040001F078FD1B
:103BE000BDF90800F02802DBEF20ADF80800BDF9B0
:103BF0000A00B0F5A07F03DB40F23F10ADF80A00E9
:103C0000BDF90400002802DA0020ADF80400BDF977
:103C10000A00002802DA0020ADF80A00BDF9080009
:103C2000BDF90410401ABDF90A10BDF90620891A21
:103C300000FB01666D1C01F034FE001BB0F5FA5F5D
:103C400003DAFEF75FFE002885D001F02AFE001B94
:103C5000642190FBF1F401F081F8FFF74DFC20485E
:103C600002F026FC6FF07F4002F003FC01F000FE42
:103C7000C0F5A07707EBD7704210052119A001F01D
:103C8000AFFA04B9641C96FBF4F000EB8000470027
:103C9000384601F08FF900F007F907B0F0BD0000D9
:103CA0000A6D756C7469206C6179657220636C694A
:103CB0007070696E670A686967686C79206F7074E4
:103CC000696D697A65642064726976657273000053
:103CD0004869676820737065656400009CDE0208AF
:103CE00044290208506978656C732F7365633A2024
:103CF000000000002DE9F04786B003F00FFE0546F6
:103D000003F00EFE8146284605EBD0714F10484661
:103D100009EBD0714FEA6108FFF7EEFBFFF7AEFA4F
:103D200000BF0020ADF810005020ADF8120028B2FE
:103D3000ADF814007820ADF816004FF47F0002F0C3
:103D400092FB01F00BF8681E44490988A0EB010AB8
:103D50000AEBDA7041100F22404801F099FA40480E
:103D600002F0A6FB0E2204A93EA001F063FA022095
:103D70000321CDE90010A8F11401A7F1320032238C
:103D80006422FCF755FDADF8080002200121CDE9C1
:103D90000010A7F15A001E23502208F12801FCF759
:103DA00047FDADF80A00022000901E23502208F1C2
:103DB0002801019007F10A00FCF73AFDADF80C006C
:103DC000BDF908002DA1FCF719FEBDF90800FF227E
:103DD0000021FCF7B7FDBDF90A002BA1FCF70EFE90
:103DE000BDF90C002BA1FCF709FEBDF908001C4928
:103DF000FCF7CCFD00F060F804464CB90124BDF995
:103E00000A002102FCF7F2FD4FF4FA70FEF758FEAB
:103E1000002605E002A931F9160006F0C9F9761C62
:103E2000032EF7D3012C04D0022C09D0032C0AD185
:103E300003E00AF093FC044605E00AF06FFB02E0A1
:103E40000EF076F800BF00BF24B16E2C02D04E2CCD
:103E50007FF467AF06B0BDE8F087000078F0020895
:103E600048140208656D57696E20546F75636820A9
:103E700073637265656E2064656D6F0043616C6984
:103E800062726174650000004B6579626F617264F3
:103E900000000000546573742063616C6962726194
:103EA00074696F6E0000000010B54FF47A60FEF781
:103EB00007FEFFF721FB10BD2DE9F843002501F0B7
:103EC000F0FC00F57A6603F02BFDA0F1280803F062
:103ED00025FDA0F14609022005235022414600900D
:103EE000484604F0FEFB074604E001F0C7FC051E4F
:103EF00000D00BE001F0D5FC341A24B1FEF702FD2E
:103F000008B9012000E000200028EED100BF3846AB
:103F100006F04EF906F0CBF92846BDE8F88300001C
:103F20002DE9F04798B000F0EBFE00F017FF0420F9
:103F300006F096FE1E205949086014205849086072
:103F400003F0EEFCA0F13C0903F0E8FCA0F1500AFC
:103F50003C20502153460A22CDE90091029051495C
:103F600051A0FDF711FE52494880B1F9020006F058
:103F700007FA504948800E2148224E48B0F9020005
:103F8000CDE90121009046480368444814210268A5
:103F90000420FCF763FC484908800E214E22454866
:103FA000B0F90200CDE9012100903D4803683B488B
:103FB000142102682820FCF751FC3F494880B1F9E0
:103FC00000003EA1FCF71AFD3B49B1F902003DA1FA
:103FD000FCF714FD0EF0B0F806F069F9FFF758F998
:103FE00003F09CFC814600EBD9704510412603F09C
:103FF00095FC471B4FF000083B460822002133A0E8
:10400000CDE900850296FDF7BFFD29490880B1F989
:10401000000006F0D5F9814600200A22CDE90120F2
:10402000034602460146CDF80090039005F0F0FFEC
:104030002049088006F03BF900202749086018E075
:10404000684602F0F1F90020244908600EF074F887
:104050002349214A126851F8220080470020214953
:104060000870684602F06CF91B480068401C1A4949
:1040700008601B481849096850F821000028DFD162
:10408000002405E00A4931F9140006F091F8641C97
:10409000032CF7D318B0BDE8F08700000802002019
:1040A0000C020020E9300108436F6E74726F6C00DF
:1040B0000002002010020020FC01002048616C7406
:1040C000000000004E65787400000000656D5769BF
:1040D0006E2044656D6F0000180200201C02002055
:1040E00028020020200200202DE9F04F8BB0054669
:1040F0005D48B0F922000A905B48B0F924A08069BD
:104100008469B4F80C80A84509DCE089A84206DB84
:10411000D4F80090A5EB08064FF0FF371DE0A0682B
:10412000D4F80490A8B1B0F80080A8450DDC41880F
:10413000A9420ADB0288AA1A95B2416801EB8501FF
:10414000B1F90060B1F9027006E04FF0FF36374672
:1041500002E04FF0FF36374600BF701C002878D0D1
:1041600041488069007DA17C10FB01F00990207C12
:1041700008903D488069007D07903B48B0F92AB01F
:10418000584603F0F5FDC0B20690374A099806FB81
:104190000090A17C0123CDE90231CDE90402104653
:1041A0008069C07D11468969897DCDE9001051463D
:1041B000DDE907320A9803F059F9781CD8B14BF0C1
:1041C000020003F0D5FD284A099807FB0090A17C66
:1041D0000123CDE90231CDE9040210468069C07D9A
:1041E00011468969897DCDE900105146DDE9073224
:1041F0000A9803F03BF91C488069407D1A49896997
:10420000097D884221DDBBF1020F1ED08BF0040036
:1042100003F0AEFD14488069007DDFF84CC0DCF887
:1042200018C09CF815C010FB0CA10F488069407D98
:1042300000EB0A030C48806990F816E0DDF820C016
:104240000A980CFB0E0203F0BDFA069803F090FDED
:1042500000BF0548408C617C084400B20249488494
:104260000BB0BDE8F08F0000585200200146034813
:104270008069826900BF507C70470000585200205E
:1042800000BF02220A80704730B50446A2699589B2
:104290008D4204DCD089884201DB012030BD936867
:1042A0003BB11888884204DC5888884201DB012031
:1042B000F4E700BF0020F1E72DE9F04F87B0054695
:1042C0004248B0F92A80014689698869294600F088
:1042D0007FF80646002E76D03188691A706800EBA8
:1042E000C104A778404603F043FD069037490122F8
:1042F0006068CDE90227CDE9040108468069C07DE8
:104300008969897DDFF8C4C0CDE90010DCF818C0E8
:104310009CF814302278DFF8B4C0BCF92410BCF942
:10432000220003F0A3F829488069407D2749896964
:10433000097D884237DD2548806990F81790234829
:104340008069407D10FB09FA20488069007D10FBE0
:1043500009FBB8F1020F25D001F06DFA059001F0CC
:104360004BFA049002F085F8DFF860C0BCF922C077
:1043700094F800E00CEB0E02DFF850C0BCF924C04A
:104380000CEB0A03DFF844C0BCF924C00CEB0B01B2
:10439000DFF838C0BCF9220003F014FA059802F0E7
:1043A00068F800BF00BF069803F0E2FC0748B0F9C8
:1043B00022006178054A9269927D11FB020000B2E9
:1043C0000249488400BF07B0BDE8F08F5852002072
:1043D00007E002888A4203DC42888A4200DB02E06E
:1043E00080680028F5D100BF7047000070B5044612
:1043F0000A49896988692146FFF7EAFF054655B1F0
:104400002988611A686810F8310004498969897D32
:1044100010FB01F070BD0020FCE7000058520020A6
:1044200000BF01220A80704770B504460D46294638
:10443000A069FFF7CDFF06460EB1012070BD002038
:10444000FCE700000120024981F85D007047000090
:104450005852002010B50AF08BFE0348006803494B
:104460008865081D086110BD3000002058520020EA
:104470007CB505460E46144606F034FE054406F0AB
:104480003DFE0644194890F85D0058B9174890F869
:104490005C004543154890F85C004643134890F88B
:1044A0005C004443281B00F051F8ADF800002819C7
:1044B00000F04CF8ADF80400301B00F047F8ADF800
:1044C0000200301900F042F8ADF80600684606F028
:1044D0004DFE48B100BF224631462846FEF768F837
:1044E00006F0BEFD0028F6D17CBD00005852002029
:1044F0002DE9F04106460F4614461D4606F0F2FD32
:10450000044406F0FBFD0544002006F02FFEC0B178
:1045100000BF0D48806C406B48B10B48806C2B4647
:1045200022463946D0F834C03046E04705E02B46F5
:104530002246394630460AF0CBFA06F091FD0028B3
:10454000E7D1BDE8F081000058520020014606483E
:1045500090F85C0028B1044890F85C0091FBF0F002
:1045600000E0084600B270475852002070B504467B
:104570000D460026002C00DA0024281BEF2801DD60
:1045800004F1EF05A54201DA254601260F48826DA8
:104590000F4806CA06C00D48806D0E4908600E48D7
:1045A0000B4908600846094988650C480C490860B1
:1045B0000C4804600C48056007F024FFFCF7A2FAE1
:1045C0000A4802490861304670BD00005852002078
:1045D0002800002030000020FDDB0008E802002059
:1045E000080000200C000020100000202000002007
:1045F00070B504460D46074890F85C0094FBF0F453
:10460000044890F85C0095FBF0F529462046FFF73A
:10461000ADFF70BD5852002010B50446024981F824
:104620005C40FCF76FFA10BD585200202DE9F041B4
:1046300005460C4614B90020BDE8F081204600F084
:1046400015F8064686B1304600F0BEF807462DB193
:10465000224629463846FBF7E5FE04E022460021C3
:10466000384602F00AFD00BF3046E5E770B5044663
:104670000CB9002070BD204607F0B2FA0546284666
:10468000F8E770B504462046FFF7F0FF05463DB158
:10469000284600F099F806462246002102F0EDFC7B
:1046A000284670BD10B5044604B910BD20460AF076
:1046B000C9FD00BFF9E710B50446B4F90000FFF7E3
:1046C000F1FF0020208010BD2DE9F041002607F009
:1046D00033FE002510E0144830F83500124901EB94
:1046E000C50149880844104931F83710081A04B246
:1046F000B44200DD26463D460B4800EBC5008788E6
:10470000002FE8D1084830F93500074901EBC50111
:10471000B1F902100844C0F57A5004B2B44200DD89
:1047200026463046BDE8F0819442002010B504468C
:104730000CB9002010BD20460BF048F9FAE7000044
:1047400040F2F5100949486088604FF47A50C881FA
:1047500008820020086088810420054948800020E4
:104760000880888001200349087070474452002067
:1047700094420020900000202DE9F04705460C46A9
:1047800020B2FFF773FF0646DEB1D5B12846FFF72A
:10479000CDFF8046A04501DA404600E020460746AE
:1047A000304600F011F88246284600F00DF88146A8
:1047B0003A4649465046FBF735FE2846FFF772FF5A
:1047C00000BF3046BDE8F087014609B900207047B8
:1047D000024830F93100024A1044F8E794420020C0
:1047E000140400202DE9F05F0446884616464FF079
:1047F0000009CA4646B131B24046FFF717FFB0F193
:10480000000901D14FF0010ABAF1000F1BD1B4F831
:1048100000B00BF101025100B4F90200FFF7ACFF48
:1048200005462DB94846FFF73DFF4FF0010A09E064
:104830002846FFF7C9FF074627F81B9065802088A8
:10484000401C208000BF5046BDE8F09F2DE9F0419C
:104850000446B4F9027097B13846FFF7B5FF064633
:10486000002504E006EB4500FFF725FF6D1C2088BE
:10487000A842F7DCA01CFFF71EFF00202080BDE847
:10488000F0810146088870472DE9F04104460D4645
:104890004FF000082088A84209D9B4F902702FB15E
:1048A0003846FFF791FF064636F9158000BF4046AF
:1048B000BDE8F0812DE9F04105460E46002731465E
:1048C0002846FFF7E1FF04461CB12046FFF77CFFB6
:1048D00007463846BDE8F08130B5136814680C44CB
:1048E0001460002415682C7004E000F001043034DA
:1048F0005C5440080C1EA1F10105E9B2F5D130BDB0
:1049000070B505460C46284601F07EF8C6B223462F
:1049100000223146284600F001F870BD2DE9FF4124
:104920000D4616461C462146684607F05AFD281AD1
:10493000C5B20EB1681EC5B2174850F825000099DF
:10494000884204D8144850F82500401E00901CE00E
:104950002846691ECDB2B04205D1104801782268C0
:10496000501C206011700C4850F82580009890FB76
:10497000F8F0C7B2009807FB1800009007F130006C
:10498000C1B22268501C20601170002DE0D10020BF
:1049900021680870BDE8FF81203F010894000020D5
:1049A00030B51368082900DD30BD14680C4414606C
:1049B000002415682C7005E000F00F04054D2C5DF7
:1049C0005C5400090C1EA1F10105E9B2F4D100BF4D
:1049D000EAE70000483F010810B5002802DA2D225E
:1049E000404200E02B220C68631C0B602270002305
:1049F0000C68237010BD000010B50BF0BBF8002050
:104A000003490870034908600349086010BD0000AD
:104A1000BB000020A8000020AC0000202DE9F047DA
:104A200005462248D0F80080006885423AD02C68BC
:104A3000E0680068042801DD042001E0E068006807
:104A400007460AE0E068806850F82790484602F080
:104A500027FC174921F8170000BF381EA7F10107EE
:104A6000F0D10BF087F82088618848434600114850
:104A70000068864207D01048B0F90000FFF712FE28
:104A800000200D49088030B2FFF7FBFD0A4908807D
:104A900001200A4908700548056007F0A1FB0CF0E9
:104AA000E9FF00BF4046BDE8F0870000BC000020E1
:104AB000D8000020C4000020B0000020BB0000206F
:104AC0002DE9F34F93B088480088002878D08748B4
:104AD00001681398814201D0012000E00020844940
:104AE0000A6814998A4201D0012100E0002108439C
:104AF0000028EBD07F480078002870D07E480068FE
:104B0000006808907848B0F90000FFF75DFE099052
:104B1000794800680068B0F800B0744913980968D3
:104B2000461A002E0DDD01201190002012907248CF
:104B300000680068008810901098A0F1010A0F9694
:104B40000DE04FF0FF301190ABF1010012904FF0EB
:104B5000FF30109000200F90129800EB060A644975
:104B600014980968471A002F0DDD01200D900020D0
:104B70000E9061480068006840880C900C98401EB8
:104B80000A900B9710E04FF0FF300D905A480068E4
:104B900000684088401E0E904FF0FF300C900020BF
:104BA0000B900E9838440A900E9C8DE004EB070899
:104BB0000B98844205DB0A98844202DC012001E064
:104BC0008FE0002007900B98804504DB0A98804511
:104BD00001DC012000E000200690129D6FE078E0EB
:104BE000099800EB450104FB0BF001EB400001903C
:104BF00005EB060922462946089800F0A8FD039017
:104C00000F98854205DB554503DC079808B1012064
:104C100000E0002005900F98814505DBD14503DCBD
:104C2000069808B1012000E000200490039898B194
:104C3000059828B1E21BA91B089800F088FD58B917
:104C4000019B1A882D4BB3F9023019192B4BB3F97C
:104C5000003058190CF098FE049840B1099800EB08
:104C6000490108FB0BF031F8100002900DE0234AD7
:104C7000B2F9022002EB0801204AB2F9002002EB4F
:104C800009000AF0ABFD80B20290DDE90110088056
:104C9000039890B103980BF04BFA80B20090174A3A
:104CA000B2F9022002EB0801144AB2F9002002EB2B
:104CB0000900009A0CF068FE00BF11980544109896
:104CC00085428DD10D9804440C9884427FF46EAFD8
:104CD00000BF06491398086005491498086007F05A
:104CE0007FFA15B0BDE8F08FB0000020C8000020AA
:104CF000CC000020BB000020BC000020B20000203F
:104D000010B50D48806C016A0C4888470AF032FFE4
:104D100001200B4908700B480B4908600B480C49EF
:104D200008600C48006818B90B48FFF777FE01E0EF
:104D30000CF0A0FE10BD000058520020D000002052
:104D4000BB000020F91E0108A8000020291F01084F
:104D5000AC000020BC0000204440010810B5002138
:104D6000084600F0E9FD40F6FF731A46594208462E
:104D700000F002F810BD00002DE9FC4104460D468C
:104D800016461F46042002F0F3FF80461548006CCB
:104D900004441448406C05441248006C0644114811
:104DA000406C074420B2ADF8000030B2ADF804000A
:104DB00028B2ADF8020038B2ADF80600684606F039
:104DC000D5F950B100BF3B4632462946204602F095
:104DD000F9FC06F045F90028F5D1404602F0C8FF7D
:104DE000BDE8FC815852002070B50446B4F9063085
:104DF000B4F90420B4F90210B4F90000FFF7BCFFC5
:104E000070BD70B50446204602F04AFA05462846B1
:104E100070BD70B50446204602F042FA05B228463D
:104E200002F0ACFD0646304670BD10B50446204683
:104E3000FFF7EFFFA04201D1012010BD0020FCE7E9
:104E40002DE9FC5F04460D4616461F46DDE90C8938
:104E500000964B46424639462046D4F800C0E0470B
:104E60008246504605F08CFA0190618A504604F063
:104E70006EFE504606F01EF8019806F01BF80EE094
:104E800018340020009003460246D4F800C02046A3
:104E90000199E0478346584606F00CF800BF681EAB
:104EA000051EEDDC504605F05FFF1E21019805F060
:104EB0004BFE5046BDE8FC9F2DE9F04105460E46ED
:104EC00017460C20FFF7DDFB8046B8F1000F0BD032
:104ED0004046FFF779FC044605482060656030B223
:104EE000208138B2608100BF4046BDE8F0810000FB
:104EF000443002082DE9F04104460E46174654B1ED
:104F00002046FFF761FC054628683A4631460368AB
:104F10002846984700BFBDE8F08170B5054600F00F
:104F2000C0FC461909E000F07AFB052C01DD0521E3
:104F300000E02146084601F0EDFD00F0B2FC341A15
:104F4000002C01DD012000E000200028EBD170BD25
:104F500010B504462046FBF783FD10BD70B506462C
:104F60000C4615460348448485843046FBF778FD9B
:104F700070BD00005852002070B504460D46002256
:104F80002946204600F022F870BD2DE9FF41054674
:104F90000E4617461C4601A800906B46002221468B
:104FA0002846FFF7BBFC3A46314601A800F018F945
:104FB000BDE8FF811FB5044601A800906946204660
:104FC000FFF79EFC01A800F069F81FBD7FB50446FD
:104FD0000D46164601A800906B46324629462046EB
:104FE000FFF79CFC01A800F059F87FBD7FB505468E
:104FF0000C4601A80090002D06DA69462846FFF706
:10500000EBFC0546601EC4B2284600F0FDFCC6B2AB
:1050100005E02020009908700098401C0090304660
:10502000711CCEB2A042F4DB69462846FFF768FC4B
:1050300001A800F033F87FBD00B500F013FC05496E
:10504000898C084400B2034988840846008C48844F
:1050500000BD00005852002070B504460D460022E5
:105060002946204600F001F870BD7FB505460C4684
:10507000164601A8009069462846FFF7ADFC054694
:10508000601EC0B2044601466B4632462846FFF712
:1050900045FC01A800F002F87FBD00002DE9FC47A7
:1050A00004460CB9BDE8FC8700F0DCFB07464B4822
:1050B000B0F9228000F008FC06464848808C801B2E
:1050C00000B24649888477E047F6FF71204601F038
:1050D000FBFE82465146204601F0D4FE05463F487D
:1050E00090F82C0000F00300012807D0022807D117
:1050F000284605EBD0714FEA610904E0A94602E0B9
:105100004FF0000900BF00BF3448408CA0EB0900FD
:1051100000B232494884ADF80000BDF800002844D0
:10512000401E00B2ADF804000846808CADF80200C5
:10513000BDF802003844401E00B2ADF806006A46D1
:105140005146204601F05CFDBDF8020023498884E9
:105150005146204601F08CFB044420780A2802D0F6
:1051600020780D281ED11D4890F82C0000F0030077
:10517000012802D0022805D100BF0FFA88F0174994
:10518000488404E01548008C1449488400BF00BFDF
:1051900020780A280CD11148808C384400B20F497D
:1051A000888405E0BDF80000284400B20B4948841B
:1051B000207800B903E0641C2078002884D100BF67
:1051C0000648808C304400B2044988840846B0F90F
:1051D0002C0020F00300888500BF63E758520020B0
:1051E00070B506460C46154620B20449488428B2DC
:1051F00088843046FFF752FF70BD000058520020EF
:105200002DE9F04104460D4616460949B1F92C1026
:1052100041F0020001F06EF9074632462946204669
:10522000FFF7DEFF384601F065F9BDE8F0810000C8
:105230005852002070B504460D46164647F6FF73D7
:1052400032462946204600F001F870BD2DE9FC41A8
:1052500006460C4617469846C6B1002564B120465E
:1052600005F0DAFD05463DB12A462146684601F0C3
:1052700087FE684605F0D0FD43463A462146304653
:1052800001F028FD284605F0C7FD00BFBDE8FC8100
:105290007CB504460D4616461348006C054412487A
:1052A000406C064428B2ADF8000021880844401E36
:1052B00000B2ADF8040030B2ADF8020061880844D5
:1052C000401E00B2ADF80600684605F04FFF48B139
:1052D00000BF324629462046FDF77EF805F0C0FEA5
:1052E0000028F6D17CBD0000585200202DE9F04F77
:1052F0008BB004460D4616461F46DDF85080D4F8A4
:105300000C90B4F800A060880990484602F00BFBAE
:105310008346BBF1000F06D1E088012801D00020B0
:1053200000E02A488346B9F1000F04D099F8041030
:1053300009B1022100E00021084601F0B1F80A900D
:105340002248006C05442148406C064428B2ADF860
:105350001C000AFB0750401E00B2ADF8200030B21E
:10536000ADF81E00099800FB0860401E00B2ADF8C1
:10537000220007A805F0FAFE10B300BF206960B153
:10538000D4E902018DE883016388228820693146CF
:10539000D0F800C02846E0470EE0A188E288A06867
:1053A000CDE9040BCDE90078CDE902215246314622
:1053B0002846099B02F05AF805F052FE0028DDD17C
:1053C0000A9801F06DF80BB0BDE8F08F585200203C
:1053D0007CB506460D4614461248006C064411483A
:1053E000406C0544301B00B2ADF80000301900B22B
:1053F000ADF80400281B00B2ADF80200281900B275
:10540000ADF80600684605F0B1FE48B100BF22467F
:1054100029463046FDF732F805F022FE0028F6D185
:105420007CBD0000585200207CB504460D462A463B
:105430002146684601F0E8FDBDF800001749B1F8C3
:105440004010084400B2ADF80000BDF80200134956
:10545000B1F84410084400B2ADF80200BDF80400F1
:105460000E49B1F84010084400B2ADF80400BDF890
:1054700006000A49B1F84410084400B2ADF806002D
:10548000684605F073FE38B100BF684608F01EFBA1
:1054900005F0E6FD0028F8D17CBD00005852002040
:1054A0002DE9F04106460F4614461D460B48006C98
:1054B00004440A48406C0544002005F057FE50B1F2
:1054C00000BF2B4622463946304608F027FB05F040
:1054D000C7FD0028F5D1BDE8F0810000585200203A
:1054E0007CB504460D4616461248006C054411482A
:1054F000406C04440F48006C064428B2ADF800002C
:1055000030B2ADF8040020B2ADF80200ADF80600EC
:10551000684605F02BFE58B100BF0648806D324644
:10552000214603682846984705F09AFD0028F4D1E3
:105530007CBD0000585200202DE9FC4105460E4676
:10554000174698461848007D441E1748006C0544CD
:105550001548406C06441448006C07441248406CDF
:105560008044281B00B2ADF80000381900B2ADF835
:105570000400301B00B2ADF8020008EB040000B2DA
:10558000ADF80600684605F0F1FD50B100BF434696
:105590003A463146284608F038FD05F061FD0028FE
:1055A000F5D1BDE8FC810000585200207CB50446CE
:1055B0000D4616461148006C04441048406C0544E2
:1055C0000E48406C064420B2ADF80000ADF804006F
:1055D00028B2ADF8020030B2ADF80600684605F01A
:1055E000C5FD48B100BF32462946204602F0BCF84E
:1055F00005F036FD0028F6D17CBD00005852002091
:1056000070B506460D46304600F01EF9044614B14A
:10561000656001202060304604F0CAFD70BD10B501
:10562000002400E0012400F005F80028FAD120460B
:1056300010BD000010B500240648006820B10548E0
:105640000068804700B1012404F031FE00B101245C
:10565000204610BD9800002070B504460D46164641
:105660000A48006C04440948406C0544002005F0D9
:105670007DFD48B100BF324629462046FCF732FF87
:1056800005F0EEFC0028F6D170BD00005852002055
:105690002DE9F04106460F4614461D460B48006CA6
:1056A00004440A48406C0544002005F05FFD50B1F9
:1056B00000BF2B46224639463046FCF789FF05F0ED
:1056C000CFFC0028F5D1BDE8F08100005852002041
:1056D0002DE9FC4104460D4616461F461448006C51
:1056E00004441348406C05441148006C06441048BB
:1056F000406C074420B2ADF8000030B2ADF80400B1
:1057000028B2ADF8020038B2ADF80600684605F0E0
:105710002DFD50B100BF3B4632462946204602F0DF
:1057200051F805F09DFC0028F5D1BDE8FC81000092
:105730005852002070B50446B4F90630B4F904207C
:10574000B4F90210B4F90000FFF7C2FF70BD70B5E4
:1057500003460C46DD88042D29D004DC012D07D03A
:10576000022D45D113E0082D30D0102D40D133E06B
:105770009D88554305EBD4019D68685C04F00705DE
:10578000C5F1070520FA05F505F0010032E09D8816
:10579000554305EB94019D68685C062505EA4405C0
:1057A000C5F1060520FA05F505F0030022E09D8805
:1057B000554305EB54019D68685C04F0010515B183
:1057C00000F00F0500E00509284613E09D8802FB64
:1057D00005419D68685C0DE09D88554305EB4401DB
:1057E0009D686D5C9E680E44767845EA062001E06F
:1057F000002000BF00BF70BD70B502F01DF8054667
:1058000002F0BCF80446204670BD000070B50446A6
:10581000034880694168204688470546284670BD90
:105820005852002010B5044604B910BD204604F0BB
:1058300083FD00BFF9E770B502F004F8054602F0F9
:105840009DF80446204670BD3EB5044600200090F9
:10585000019002902A2000906946204605F064F9E4
:1058600002983EBD01498969487D70475852002021
:1058700010B501F0FBFA0446204610BD0249086845
:105880000021014A116070474C00002070B50446A9
:10589000204601F06DFC05462946204601F0F2FA4B
:1058A00070BD10B501F042F910BD0000332005496C
:1058B0000870392088703020C8706120087108464F
:1058C00070470000380000200020104991F82C108B
:1058D00001F00C01042904D008290ED00C2913D1A1
:1058E00004E00A498969097D481E0DE0074A92696A
:1058F000117D01EBD172501006E0044A9269117DCE
:1059000001EBD172501000BF00BF70475852002009
:105910000146487DCA7D10FB02F070470146087DB4
:10592000CA7D10FB02F0704770B5044620460AF0AD
:10593000FDF80546284670BD70B506460C46304653
:105940000AF0F4F8054620460AF0F8F80543284620
:1059500070BD000010B52E200649087001F0ECF86B
:1059600005480AF045F902F02FF8044604F006FF56
:10597000204610BD94000020585200202DE9FC4123
:1059800004460D4616461F46012000F089FD80465C
:105990001548006C04441448406C05441248006CDF
:1059A00006441148406C074420B2ADF8000030B204
:1059B000ADF8040028B2ADF8020038B2ADF8060028
:1059C000684605F0D3FB50B100BF3B46324629463E
:1059D000204601F0F7FE05F043FB0028F5D14046D4
:1059E00000F05EFDBDE8FC815852002070B5044611
:1059F0000D460CB90348846929462046E268904761
:105A000070BD00005852002001460120002901DD30
:105A10000B4600E04B421A4600E0401C054B53F891
:105A20002030934201D80928F7DB002900DA401C16
:105A300070470000203F010870B5054665B1284653
:105A4000FEF7C2FE044640F6FF70208060804FF2F1
:105A50000100A080E08000BF70BD000070B514247C
:105A60002046FEF70EFE05467DB12846FEF7ACFE49
:105A700006460748806C0068B0600548806C406846
:105A8000F0602846FFF7D8FF00BF284670BD000031
:105A90005852002010B504460448A0F84C400CB100
:105AA00000F0CCFC2046FEF7FDFD10BD5852002052
:105AB00070B506460C466EB13046FEF785FE0546CB
:105AC0003CB12888208068886080A888A080E88809
:105AD000E08000BF70BD000010B5044614B900F0AE
