:020000040800F2
:100000003857002029020008912D0008C52100085A
:100010008D2D000847070008053700080000000084
:100020000000000000000000000000001131000886
:1000300069070008000000000D2E000829320008A2
:10004000430200084302000843020008430200087C
:10005000430200084302000843020008430200086C
:10006000430200084302000843020008430200085C
:10007000430200084302000843020008430200084C
:10008000430200084302000843020008430200083C
:10009000430200084302000843020008430200082C
:1000A000430200084302000843020008430200081C
:1000B000430200084302000843020008430200080C
:1000C00043020008430200084302000843020008FC
:1000D00043020008353400084302000843020008C8
:1000E00043020008430200084302000843020008DC
:1000F00043020008430200084302000843020008CC
:1001000043020008430200084302000843020008BB
:1001100043020008430200084302000843020008AB
:10012000430200084302000843020008430200089B
:10013000430200084302000843020008430200088B
:10014000430200084302000843020008430200087B
:10015000430200084302000843020008430200086B
:10016000430200084302000843020008430200085B
:10017000430200084302000843020008430200084B
:10018000430200084302000800F002F800F03CF8C7
:100190000AA090E8000C82448344AAF10107DA45E2
:1001A00001D100F031F8AFF2090EBAE80F0013F0F8
:1001B000010F18BFFB1A43F0010318470C6600003B
:1001C0002C660000103A24BF78C878C1FAD85207CC
:1001D00024BF30C830C144BF04680C6070470000C1
:1001E0000023002400250026103A28BF78C1FBD840
:1001F000520728BF30C148BF0B6070471FB505F0DC
:1002000019FE1FBD10B510BD00F067F91146FFF7CC
:10021000F5FF05F0EDFD00F027F803B4FFF7F2FF5E
:1002200003BC00F053F90000094880470948004723
:10023000FEE7FEE7FEE7FEE7FEE7FEE7FEE7FEE796
:10024000FEE7FEE704480549054A064B70470000F3
:10025000AD320008890100083851002038570020CD
:10026000385300203853002010B50446AFF3008007
:100270002046BDE81040FFF7D0BF40EA010310B5AB
:100280009B070FD1042A0DD310C808C9121F9C4226
:10029000F8D020BA19BA884201D9012010BD4FF018
:1002A000FF3010BD1AB1D30703D0521C07E0002065
:1002B00010BD10F8013B11F8014B1B1B07D110F8C2
:1002C000013B11F8014B1B1B01D1921EF1D11846C5
:1002D00010BD032A40F2308010F0030C00F01580AE
:1002E00011F8013BBCF1020F624498BF11F801CB39
:1002F00000F8013B38BF11F8013BA2F1040298BF9E
:1003000000F801CB38BF00F8013B11F0030300F007
:100310006780083AC0F0088051F8043B083A51F869
:1003200004CBA0E80810F5E7121D5CBF51F8043BB0
:1003300040F8043BAFF30080D20724BF11F8013B23
:1003400011F801CB48BF11F8012B24BF00F8013B85
:1003500000F801CB48BF00F8012B7047431A28BFB3
:100360009A427FF6B6AF032A1044114440F2268029
:1003700010F0030F1EBF11F8013D521E00F8013DA1
:1003800010F0030F7FF4F6AF11F0030300F070805C
:10039000083AC0F00B8051F8043D083A51F804CDFA
:1003A00040F8043D40F804CDFFF7F3BF121D5CBFD9
:1003B00051F8043D40F8043DAFF30080D20724BF5C
:1003C00011F8013D11F801CD48BF11F8012C24BFEF
:1003D00000F8013D00F801CD48BF00F8012C70473E
:1003E00010B5203AC0F00B80B1E81850203AA0E8D0
:1003F0001850B1E81850A0E81850BFF4F5AF5FEA04
:10040000027C24BFB1E81850A0E8185044BF18C9B6
:1004100018C0BDE810405FEA827C24BF51F8043B5D
:1004200040F8043B08BF7047D20728BF31F8023BB1
:1004300048BF11F8012B28BF20F8023B48BF00F845
:10044000012B7047704770477047431A28BF9A4284
:100450007FF6C6AF104410F0030F11441EBF11F811
:10046000013D521E00F8013D10F0030F7FF4F6AF7E
:10047000103AC0F00A8010B531E91850103A20E95E
:100480001850BFF4F9AFBDE81040530724BF31E95D
:10049000081020E9081044BF51F8043D40F8043D1D
:1004A00012F0030F08BF7047D20728BF31F8023D92
:1004B00048BF11F8012C28BF20F8023D48BF00F8C2
:1004C000012C704700487047D45000200149182083
:1004D000ABBEFEE72600020070477546FFF7F2FF4D
:1004E000AE4605006946534620F00700854618B021
:1004F00020B5FFF7A7FEBDE820404FF000064FF003
:1005000000074FF000084FF0000B21F00701AC4648
:10051000ACE8C009ACE8C009ACE8C009ACE8C00967
:100520008D46704721B1826842F00102826003E08B
:10053000826822F001028260704700000021084AB0
:100540001168084A1140D0E900231A4383681A430E
:10055000C3681A431143044AC2F8041370470000E9
:1005600004230140E030FCFF0020014030B502468A
:10057000002000235068104C20400D790C6844EA9C
:1005800005242043506090680C4C2040D1E903546E
:100590002C438D682C434D7944EA450420439060F8
:1005A000D06A20F470000C7D641EE4B2234340EA5C
:1005B0000350D06230BD0000FFFEFFFCFDF7FFC01E
:1005C00000B58DB001210D2002F022FC01210802AE
:1005D00002F03EFC02200B9003208DF8300000203A
:1005E0008DF833000BA92B4800F00BFC0121080209
:1005F00002F03EFC00214FF4807002F039FC002034
:1006000007900A9009904FF48030089007A8FFF7F0
:1006100095FF002001908DF808008DF809000390E7
:10062000059001208DF8180001A91B48FFF79EFFD7
:1006300001211948FFF776FF01200B908DF830005B
:1006400003208DF8310000208DF8320001208DF854
:1006500033000BA9114800F0D4FB08200B900120B7
:100660008DF8300003208DF8310000208DF8320025
:1006700001208DF833000BA9094800F0C2FB0121CD
:10068000064800F032FC0821054800F02EFC0DB0B1
:1006900000BD0000000002400020014000080240B0
:1006A000000C024038B502F0F3FB012002F0CAFC56
:1006B00002F012FD044600BF002CFDD0002002F025
:1006C000B5FC4FF4A05002F0CBFC4FF4805002F088
:1006D000D3FC072002234FF4A87208210090C8041D
:1006E00002F0DCFC012002F0D3FC00BF392002F054
:1006F00075FC0028FAD0022002F0E2FC00BF02F0F4
:100700008DFC0828FBD1002002F0A4FC0121084642
:1007100002F07EFB0121022002F07AFB012104207D
:1007200002F076FB0121082002F072FB012110206B
:1007300002F06EFB0121202002F06AFB0121402023
:1007400002F066FB38BD00BFFEE707E046F2A811E5
:1007500000BF0A1EA1F1010399B2FAD1021EA0F155
:10076000010398B2F2D17047704710B500F002F85B
:1007700010BD00002DE9F0412948008800F4004038
:1007800000284BD02648077826488078000625495F
:10079000C97800EB01402349097900EB0120214988
:1007A000497946184FF47A70B6FBF0F41D48807909
:1007B00000061C49C97900EB01401A49097A00EB8F
:1007C00001201849497A08444FF47A7190FBF1F5F9
:1007D0006FF07F4001F077F9DC234FF496723C21F3
:1007E0000A2000F0B5FF50220A210FA000F0A0FF60
:1007F0000521204600F0E0FE0DA000F0F7FE642287
:100800000A210DA000F094FF0521284600F0D4FE37
:1008100007A000F0EBFE002001490880BDE8F08150
:100820000600002020010020467265713A20000079
:10083000206B487A00000000537465703A20000075
:100840002DE9F0470746894614461D46DDF820800D
:100850002148007B00F00200E0B9B8F1000F0DD094
:1008600009E0268838F816204946384602F029F86B
:100870006D1E7F1CA41C002DF3DC2AE007E02288FB
:100880004946384602F01DF86D1E7F1CA41C002D41
:10089000F5DC1EE0B8F1000F0ED00AE026882EB17C
:1008A00038F816204946384602F00BF86D1E7F1CBA
:1008B000A41C002DF2DC0CE009E0268826B13246AB
:1008C0004946384601F0FDFF6D1E7F1CA41C002D1B
:1008D000F3DCBDE8F0870000505000201CB5044652
:1008E00011480078A0B1012000908DF8040000208C
:1008F0008DF8060003208DF8050001208DF8070013
:1009000069460A4800F07DFA00200749087000BFD8
:1009100024B10121054800F0EAFA03E0012103486F
:1009200000F0E3FA1CBD00000401002000040240B6
:1009300000B59FB00121582002F06AFA0121084653
:1009400002F076FA4CF233701D9002208DF8780098
:1009500000208DF87A0003208DF8790001208DF8B1
:100960007B001DA9634800F04CFA4FF680701D9083
:1009700002208DF8780000208DF87A0003208DF891
:10098000790001208DF87B001DA95B4800F039FA41
:1009900041F201001D9002208DF8780000208DF8B2
:1009A0007A0003208DF8790001208DF87B001DA9C5
:1009B000524800F026FA0C2200214E4800F069FA55
:1009C0000C2201214B4800F064FA0C220421494812
:1009D00000F05FFA0C220521464800F05AFA0C227A
:1009E0000821444800F055FA0C220921414800F042
:1009F00050FA0C220A213F4800F04BFA0C220E213B
:100A00003C4800F046FA0C220F213A4800F041FA27
:100A10000C220721384800F03CFA0C220821364805
:100A200000F037FA0C220921334800F032FA0C2288
:100A30000A21314800F02DFA0C220B212E4800F03B
:100A400028FA0C2211462C4800F023FA0C220D2122
:100A5000294800F01EFA0C220E21274800F019FA4E
:100A60000C220F21244800F014FA0C220021234804
:100A700000F00FFA0C221146204800F00AFA0F206D
:100A80000790002008903C20099000200A900B90CD
:100A90000C900D90092000900020019008200290F9
:100AA0000020039004900590069006200E900020F0
:100AB0000F9010901020119000201290149013901D
:100AC000159016904FF480501790002018904FF416
:100AD0008040199000201A9007A81B90CDF870D084
:100AE0000EA800F01BF90121062000F0FDF81FB050
:100AF00000BD0000000C024000100240001802403F
:100B000001480088704700000008006C0149088017
:100B1000704700000008006C014908807047000021
:100B2000FE07006C1CB5044611480078A8B12020CF
:100B3000009001208DF8040000208DF806000320AD
:100B40008DF8050001208DF807006946094800F07E
:100B500058F900200649087000BF24B92021054833
:100B600000F0C3F903E02021024800F0C0F91CBDE9
:100B700005010020000802401CB504461A48007810
:100B800038B30420009001208DF8040000208DF877
:100B9000060003208DF8050001208DF80700694646
:100BA000124800F02EF900200F4908700C20009028
:100BB00001208DF8040000208DF8060003208DF838
:100BC000050001208DF807000C21094800F08FF97D
:100BD00000BF24B90421054800F087F903E004218F
:100BE000024800F084F91CBD0B0100200004024003
:100BF000000802401CB50E48007898B14FF4807090
:100C0000009000208DF8040003208DF805000120DD
:100C10008DF807006946074800F0F3F80020044902
:100C2000087000BF4FF48071024800F055F91CBDF8
:100C30000C010020001402401CB504461348007843
:100C4000B0B14FF40070009001208DF80400002036
:100C50008DF8060003208DF8050001208DF80700AF
:100C600069460B4800F0CDF800200849087000BF25
:100C70002CB94FF40071064800F037F904E04FF446
:100C80000071034800F033F91CBD00000D01002085
:100C9000001402401CB5044611480078A8B1022097
:100CA000009001208DF8040000208DF8060003203C
:100CB0008DF8050001208DF807006946094800F00D
:100CC000A0F800200649087000BF24B90221054899
:100CD00000F00BF903E00221024800F008F91CBD06
:100CE0000E0100200004024051B18200A2F1C04276
:100CF000126842F001038200A2F1C042136009E0D1
:100D00008200A2F1C0421268034B1A408300A3F193
:100D1000C0431A6070470000FEFF0F00D0E90112C7
:100D20001143C26811430269114342691143826948
:100D30001143C2691143026A1143426A1143826A34
:100D40001143C26A1143026B114302689200A2F17F
:100D5000C0421160816808290BD101688900A1F1A6
:100D6000C041096841F0400201688900A1F1C04119
:100D70000A60416B0968426B526841EA0211426B9A
:100D8000926841EA0221426B928941EA0241426B38
:100D9000128A41EA0251426B127D41EA0261426BC2
:100DA000926911430268521C9200A2F1C042116084
:100DB000C16AB1F5804F1BD1816B0968826B5268A3
:100DC00041EA0211826B926841EA0221826B128A27
:100DD00041EA0251826B127D41EA0261826B9269A3
:100DE000114302689200A2F1C042C2F8041107E068
:100DF0006FF0704201688900A1F1C041C1F804217F
:100E00007047F0B50A4600210023002400BF3DE0F2
:100E1000012505FA01F3156805EA03049C4234D163
:100E200005684F000326BE40B543056015794E00A6
:100E3000B5400668354305601579012D02D0157956
:100E4000022D16D185684F000326BE40B54385604C
:100E500055794E00B5408668354385604568012662
:100E60008E40B5434560456896798E40B6B23543AD
:100E70004560C5684F000326BE40B543C560D579BF
:100E80004E00B540C6683543C560491C1029BFD324
:100E9000F0BDF0B5002300244D07ED0E02FA05F376
:100EA000CE1000F1200555F826504E07F70E0F26FC
:100EB000BE40B543CF1000F1200646F82750CE10B3
:100EC00000F1200555F8265045EA0304CE1000F144
:100ED000200545F82640F0BD0246002013690B406E
:100EE0000BB1012000E0002070474183704701836F
:100EF00070474161704700002DE9F04F8BB0054607
:100F00005D48B0F922000A905B48B0F924A08069DE
:100F10008469B4F80C80A84509DCE089A84206DBA6
:100F2000D4F80090A5EB08064FF0FF371DE0A0684D
:100F3000D4F80490A8B1B0F80080A8450DDC418831
:100F4000A9420ADB0288AA1A95B2416801EB850121
:100F5000B1F90060B1F9027006E04FF0FF36374694
:100F600002E04FF0FF36374600BF701C002878D0F3
:100F700041488069007DA17C10FB01F00990207C34
:100F800008903D488069007D07903B48B0F92AB041
:100F9000584601F06DFDC0B20690374A099806FB2D
:100FA0000090A17C0123CDE90231CDE90402104675
:100FB0008069C07D11468969897DCDE9001051465F
:100FC000DDE907320A9801F0ABF9781CD8B14BF093
:100FD000020001F04DFD284A099807FB0090A17C12
:100FE0000123CDE90231CDE9040210468069C07DBC
:100FF00011468969897DCDE900105146DDE9073246
:101000000A9801F08DF91C488069407D1A49896968
:10101000097D884221DDBBF1020F1ED08BF0040058
:1010200001F026FD14488069007DDFF84CC0DCF833
:1010300018C09CF815C010FB0CA10F488069407DBA
:1010400000EB0A030C48806990F816E0DDF820C038
:101050000A980CFB0E0201F0E1FA069801F008FD77
:1010600000BF0548408C617C084400B202494884B6
:101070000BB0BDE8F08F000050500020014603483F
:101080008069826900BF507C70470000505000208A
:1010900000BF02220A80704730B50446A2699589D4
:1010A0008D4204DCD089884201DB012030BD936889
:1010B0003BB11888884204DC5888884201DB012053
:1010C000F4E700BF0020F1E770B504460CB900203A
:1010D00070BD204603F0E4F805462846F8E770B5F1
:1010E00004462046FFF7F0FF05463DB1284600F0D4
:1010F0002DF806462246002100F03DFF284670BD2F
:1011000010B5044604B910BD204604F085FA00BFAE
:10111000F9E7000040F2F5100949486088604FF493
:101120007A50C8810882002008608881042005491F
:10113000488000200880888001200349087070479B
:101140003C5000208C4000206C000020014609B972
:1011500000207047024830F93100024A1044F8E795
:101160008C4000200C0200202DE9FF410D46164660
:101170001C462146684603F04BF9281AC5B20EB149
:10118000681EC5B2174850F825000099884204D857
:10119000144850F82500401E00901CE02846691EA7
:1011A000CDB2B04205D1104801782268501C2060B1
:1011B00011700C4850F82580009890FBF8F0C7B2E9
:1011C000009807FB1800009007F13000C1B22268B8
:1011D000501C20601170002DE0D1002021680870A3
:1011E000BDE8FF81405E0008700000202DE9F04757
:1011F00005462248D0F80080006885423AD02C6825
:10120000E0680068042801DD042001E0E06800686F
:1012100007460AE0E068806850F82790484600F0EA
:10122000FFFF174921F8170000BF381EA7F101077B
:10123000F0D104F08BFA20886188484346001148B9
:101240000068864207D01048B0F90000FFF758FF49
:1012500000200D49088030B2FFF741FF0A4908809D
:1012600001200A4908700548056003F08FF804F072
:10127000B3FB00BF4046BDE8F087000098000020A7
:10128000B4000020A00000208C0000209700002067
:101290002DE9F34F93B088480088002878D087481C
:1012A00001681398814201D0012000E000208449A8
:1012B0000A6814998A4201D0012100E00021084304
:1012C0000028EBD07F480078002870D07E48006866
:1012D000006808907848B0F90000FFF737FF0990E0
:1012E000794800680068B0F800B07449139809683C
:1012F000461A002E0DDD0120119000201290724838
:1013000000680068008810901098A0F1010A0F96FC
:101310000DE04FF0FF301190ABF1010012904FF053
:10132000FF30109000200F90129800EB060A6449DD
:1013300014980968471A002F0DDD01200D90002038
:101340000E9061480068006840880C900C98401E20
:101350000A900B9710E04FF0FF300D905A4800684C
:1013600000684088401E0E904FF0FF300C90002027
:101370000B900E9838440A900E9C8DE004EB070801
:101380000B98844205DB0A98844202DC012001E0CC
:101390008FE0002007900B98804504DB0A98804579
:1013A00001DC012000E000200690129D6FE078E053
:1013B000099800EB450104FB0BF001EB40000190A4
:1013C00005EB060922462946089800F0F3F9039038
:1013D0000F98854205DB554503DC079808B10120CD
:1013E00000E0002005900F98814505DBD14503DC26
:1013F000069808B1012000E000200490039898B1FD
:10140000059828B1E21BA91B089800F0D3F958B938
:10141000019B1A882D4BB3F9023019192B4BB3F9E4
:101420000030581904F08CFA049840B1099800EB88
:10143000490108FB0BF031F8100002900DE0234A3F
:10144000B2F9022002EB0801204AB2F9002002EBB7
:10145000090004F031F980B20290DDE90110088042
:10146000039890B1039804F0EBF980B20090174A0A
:10147000B2F9022002EB0801144AB2F9002002EB93
:101480000900009A04F05CFA00BF11980544109816
:1014900085428DD10D9804440C9884427FF46EAF40
:1014A00000BF06491398086005491498086002F0C7
:1014B0006DFF15B0BDE8F08F8C000020A400002067
:1014C000A800002097000020980000208E00002037
:1014D00010B50D48806C016A0C48884704F036F955
:1014E00001200B4908700B480B4908600B480C4958
:1014F00008600C48006818B90B48FFF777FE01E058
:1015000004F06AFA10BD000050500020AC0000202A
:1015100097000020595A000884000020895A0008CA
:1015200088000020980000207C5E000810B5002193
:10153000084600F0CBF940F6FF731A4659420846B8
:1015400000F002F810BD00002DE9FC4104460D46F4
:1015500016461F46042001F08BFA80461548006CA1
:1015600004441448406C05441248006C0644114879
:10157000406C074420B2ADF8000030B2ADF8040072
:1015800028B2ADF8020038B2ADF80600684602F0A5
:1015900055FC50B100BF3B4632462946204601F07B
:1015A0003DF802F0EDFB0028F5D1404601F060FA6D
:1015B000BDE8FC815050002070B504460D46002265
:1015C0002946204600F001F870BD7FB504460D465F
:1015D000164601A800906B46324629462046FFF782
:1015E000C3FD01A800F002F87FBD00002DE9FC4713
:1015F00004460CB9BDE8FC8700F03EF907464B48AD
:10160000B0F9228000F03EF906464848808C801BE5
:1016100000B24649888477E047F6FF71204600F023
:1016200023FC82465146204600F0FCFB05463F481D
:1016300090F82C0000F00300012807D0022807D101
:10164000284605EBD0714FEA610904E0A94602E0A3
:101650004FF0000900BF00BF3448408CA0EB0900E8
:1016600000B232494884ADF80000BDF800002844BB
:10167000401E00B2ADF804000846808CADF80200B0
:10168000BDF802003844401E00B2ADF806006A46BC
:101690005146204600F05CFBBDF8020023498884D7
:1016A0005146204600F022FB044420780A2802D04C
:1016B00020780D281ED11D4890F82C0000F0030062
:1016C000012802D0022805D100BF0FFA88F017497F
:1016D000488404E01548008C1449488400BF00BFCA
:1016E00020780A280CD11148808C384400B20F4968
:1016F000888405E0BDF80000284400B20B49488406
:10170000207800B903E0641C2078002884D100BF51
:101710000648808C304400B2044988840846B0F9F9
:101720002C0020F00300888500BF63E750500020A4
:1017300070B506460C46154620B20449488428B2C6
:1017400088843046FFF752FF70BD000050500020E3
:101750002DE9FC4104460D4616461F461448006C10
:1017600004441348406C05441148006C064410487A
:10177000406C074420B2ADF8000030B2ADF8040070
:1017800028B2ADF8020038B2ADF80600684602F0A3
:1017900055FB50B100BF3B4632462946204600F07B
:1017A0003DFF02F0EDFA0028F5D1BDE8FC81000014
:1017B0005050002070B503460C46DD88042D29D01A
:1017C00004DC012D07D0022D45D113E0082D30D0C7
:1017D000102D40D133E09D88554305EBD4019D6821
:1017E000685C04F00705C5F1070520FA05F505F06A
:1017F000010032E09D88554305EB94019D68685CCB
:10180000062505EA4405C5F1060520FA05F505F0AB
:10181000030022E09D88554305EB54019D68685CF8
:1018200004F0010515B100F00F0500E00509284698
:1018300013E09D8802FB05419D68685C0DE09D8872
:10184000554305EB44019D686D5C9E680E447678B7
:1018500045EA062001E0002000BF00BF70BD000087
:1018600070B50446034880694168204688470546AC
:10187000284670BD5050002001498969487D704755
:10188000505000200020104991F82C1001F00C015C
:10189000042904D008290ED00C2913D104E00A49E8
:1018A0008969097D481E0DE0074A9269117D01EBA7
:1018B000D172501006E0044A9269117D01EBD17299
:1018C000501000BF00BF70475050002070B5064652
:1018D0000C46304603F02AFF0546204603F02EFF53
:1018E0000543284670BD000010B52E20064908703B
:1018F00000F02DFA054803F035FF00F0E8FE04463D
:1019000002F0C8F8204610BD7000002050500020A2
:1019100070B504460449B1F94C00FFF717FC0546C1
:101920002046E969884770BD5050002010B5044931
:10193000B1F94C00FFF70AFC0446606A804710BD0D
:101940005050002070B505460B49B1F94C00FFF727
:10195000FDFB044620882880608868802088A18854
:101960000844401E00B2A8806088E1880844401EF8
:1019700000B2E88070BD00005050002070B50446F1
:101980000449B1F94C00FFF7E1FB05462046296AFE
:10199000884770BD5050002010B570B371B36AB362
:1019A000B1F90030B2F90040A34202DDB2F90030D3
:1019B00001E0B1F900300380B1F90230B2F9024020
:1019C000A34202DDB2F9023001E0B1F902304380F6
:1019D000B1F90430B2F90440A34202DDB1F9043098
:1019E00001E0B2F904308380B1F90630B2F9064063
:1019F000A34204DDB1F9063003E00CE003E0B2F9E4
:101A00000630C38010BD09B10B4600E013461C68C8
:101A100004605B68436000BFF4E778B103880B445F
:101A20001BB2038083880B441BB28380438813441A
:101A30001BB24380C38813441BB2C38070470000AD
:101A40000146054B0DCB81E80D00087A08B1012055
:101A500070470020FCE70000E801002010B50446B4
:101A600003F006FF0C2221460448FEF706FC18B1DD
:101A7000024894E80E000EC010BD0000E8010020EE
:101A80000246B2F90200B1F90630984213DCB1F90E
:101A90000200B2F9063098420DDCB2F90000B1F94B
:101AA0000430984207DCB1F90000B2F904309842E2
:101AB00001DC012070470020FCE710B504462046F9
:101AC00000F080FF10BD10B50446204600F0B2FFC4
:101AD00010BD00000249096809B901490860704752
:101AE0002800002070B537480068364949688842A8
:101AF00008DA34480068344908603248406833499D
:101B0000086007E02F480068304908602D484068A9
:101B10002D4908602B488168C068814208DA29484D
:101B200080682B4908602748C0682A49086007E098
:101B300024488068274908602248C0682449086012
:101B40002548007858B900F0B0F82449086000F042
:101B50009CF821480078401C1F4908702FE000F0D5
:101B600095F81F49086000F08FF81D4805681B486C
:101B700004681548006885420BDB144800688542FC
:101B800007DC13480068844203DB12480068844283
:101B900005DD4FF0FF31084603F038FF0BE0284623
:101BA00002F042FB0546204602F050FB0446214667
:101BB000284603F02BFF00200749087000BF00BF34
:101BC00070BD000038000020480000204C000020BC
:101BD000500000205400002060000020340000204D
:101BE0003000002070B505460C46002D08DB002CA7
:101BF00006DB01200649087208460560446002E0E1
:101C0000002003490872024800F004F870BD00008B
:101C10000002002010B504460C2206492046FEF7BB
:101C20002CFB30B1034894E80E000EC02046FFF7AD
:101C300015FF10BDF40100202DE9F04104460D46CA
:101C40000F490968601A002801DB014600E04142A3
:101C50000E460C490968681A002801DB014600E0BD
:101C600041420F46F019022807DD05480460054887
:101C7000056029462046FFF7B5FFBDE8F08100006A
:101C80006400002068000020704770471CB569465A
:101C900001A801F03FFB28B1BDF8040040F23F115C
:101CA000081A1CBD4FF0FF30FBE71CB5694601A8C0
:101CB00001F030FB10B1BDF800001CBD4FF0FF304B
:101CC000FBE7000070B5044625680748C069016855
:101CD0002846884706460448C06941682846884720
:101CE00005442560304670BD505000202DE9F0417C
:101CF00005460E46002707E00748C06941682846A8
:101D00008847044625442744301EA6F10106F3D136
:101D10003846BDE8F0810000505000202DE9F04128
:101D200004460E4615461F46DDF8188000BF2A46B9
:101D30006D1CA0683B463146D0F804C02046E04701
:101D4000A8F10100B0F10008F1D1BDE8F0817047C1
:101D50007CB505460E4614463048006878B1002030
:101D600002F06CF8002858D000BF6A463146284679
:101D700002F0CAFB02F004F80028F6D14DE020681A
:101D8000009060680190BDF800002549B1F840104E
:101D9000084400B2ADF80000BDF802002049B1F8D7
:101DA0004410084400B2ADF80200BDF804001C491C
:101DB000B1F84010084400B2ADF80400BDF80600C8
:101DC0001749B1F84410084400B2ADF8060068465F
:101DD00002F034F880B100BFBDF80000104948841B
:101DE000BDF8020088846A463146284602F08CFB22
:101DF00001F0C6FF0028EFD10948408C0849B1F82E
:101E00004010401A00B2064948840846808CB1F858
:101E10004410401A00B2024988847CBD8000002032
:101E20005050002073B50C4600250098C0B10D48F5
:101E30008069006938B10B488069006921460268F1
:101E4000009890477CBD07E06846FFF73BFF0646D9
:101E50003046FFF705FD0544601E041EF4DA00BF9E
:101E60002846EFE75050002073B50D460024009837
:101E7000C0B10D488069006938B10B4880690069BC
:101E800029464268009890477CBD08E06846FFF705
:101E900019FF06460EB10A2E00D102E0641CAC42C6
:101EA000F4DB00BF2046EFE750500020B0F90020DF
:101EB000B1F900309A4201DA0A880280B0F90220B2
:101EC000B1F902309A4201DA4A884280B0F904201E
:101ED000B1F904309A4201DD8A888280B0F9062087
:101EE000B1F906309A4201DDCA88C280704710B548
:101EF0000346B1F90000B2F90040A04202DDB1F999
:101F0000000001E0B2F900001880B1F90200B2F956
:101F10000240A04202DDB1F9020001E0B2F9020084
:101F20005880B1F90400B2F90440A04202DDB2F9D0
:101F3000040001E0B1F904009880B1F90600B2F99B
:101F40000640A04202DDB2F9060001E0B1F9060048
:101F5000D880B3F90400B3F90040A04201DA0020B0
:101F600010BDB3F90600B3F90240A04201DA002027
:101F7000F6E70120F4E770B503460D4602E003F8EA
:101F8000015B521E1AB103F003000028F7D191083B
:101F9000A9B102F0030205EB054606EB062418463C
:101FA00004E010C010C010C010C0091F0429F8DAE6
:101FB00001E010C0491E0029FBD1034600BF02E02A
:101FC00003F8015B521E002AFAD170BD70B50346BA
:101FD0000C46154603F0020010B123F8024B6D1EAB
:101FE0006908A9B104EB04421846042909DB00BFC3
:101FF000026042608260C26010300E1F3146042EC3
:10200000F6DA01E004C0491E0029FBD1034600BFF7
:1020100005F0010000B11C8070BD000030B5044621
:102020006148007801285FD160480088844259DD0A
:102030005F480088844255DA5E480088814251DD5D
:102040005D48008881424DDA5C48007801280FD154
:1020500057480088554D2D88401B4FF4A07590FBC4
:10206000F5F0524D2D88651B95FBF0F0108012E0C5
:102070004F4800884D4D2D88401B4FF4A07590FBB4
:10208000F5F04A4D2D88651B95FBF0F01080108807
:10209000C0F5A07010804A48007801280ED146484B
:1020A0000088444D2D88401BF02590FBF5F0414DF4
:1020B0002D884D1B95FBF0F0188011E03E480088FC
:1020C0003C4D2D88401BF02590FBF5F0394D2D88B7
:1020D0004D1B95FBF0F018801888C0F1F0001880B7
:1020E000012030BD0020FCE730480088814259DDE6
:1020F0002F480088814255DA2E480088844251DDFD
:102100002D48008884424DDA2C48007801280FD1F0
:1021100027480088254D2D88401B4FF4A07590FB63
:10212000F5F0224D2D884D1B95FBF0F0108012E04C
:102130001F4800881D4D2D88401B4FF4A07590FB53
:10214000F5F01A4D2D884D1B95FBF0F0108010888E
:10215000C0F5A07010801A48007801280ED11648EA
:102160000088144D2D88401BF02590FBF5F0114D93
:102170002D88651B95FBF0F0188011E00E48008853
:102180000C4D2D88401BF02590FBF5F0094D2D8856
:10219000651B95FBF0F018801888C0F1F0001880DE
:1021A00001209EE700209CE7100100201401002080
:1021B000120100201A010020180100201101002046
:1021C0001701002000BFFEE71CB50121602000F0D0
:1021D0001FFE5520009001208DF8040000208DF88E
:1021E000060003208DF8050001208DF807006946E0
:1021F0000948FEF706FEF020009000208DF804004C
:1022000003208DF8050002208DF807006946034879
:10221000FEF7F7FD1CBD000000140240001802404C
:1022200010B504460248806C01682046884710BDFE
:102230005050002010B50146C1F3C402C1F38523FC
:10224000C1F3C44404EB431000EBC22010BD07E00F
:1022500041F2883100BF0A1EA1F1010399B2FAD1FF
:10226000021EA0F10103D8B2F2D1704770B5054645
:102270000E461446234601223146284600F028F82F
:1022800070BD2DE9F04704460D4616461F46DDF8A1
:1022900020A03B4632462946204600F02FFB4FF057
:1022A000000810E04FF0000906E0504600F0F6FB91
:1022B00009F101001FFA80F9781B4845F5DA08F1A9
:1022C00001001FFA80F8301B4045EBDABDE8F087CB
:1022D0002DE9F04705460E4614461F463019401EAC
:1022E00083B22819401E82B23146284600F006FB10
:1022F0004FF000080FE04FF0000906E0384600F00C
:10230000CDFB09F101001FFA80F9A145F6DB08F1C8
:1023100001001FFA80F8A045EDDBBDE8F087000062
:102320002DE9FF4F8BB0054690461F46DDF860A0B3
:10233000DDF868901C9E00200A908648006898B1DD
:102340001B991D98CDE90291CDE904601998CDE95A
:1023500000A0804800683B464246046828460C9925
:10236000A0470FB0BDE8F08F0C983844401E08908D
:1023700005EB0800401E099019984AEA0000012860
:102380007BD17548B0F906100C980C1A002C0ADDA8
:102390003F1B002F00DCE4E76F48B0F906000C900B
:1023A0001B9804FB00666C48B0F90A100898441AA0
:1023B000002C03DD3F1B002F00DCD2E76648B0F99C
:1023C00008100998441A002C01DDA8EB0408002429
:1023D0006148B0F90400A84239DD5F48B0F9040053
:1023E000441BA8EB0408B9F1040F1ED006DCB9F1B8
:1023F000010F0AD0B9F1020F28D10EE0B9F1080F90
:102400001BD0B9F1100F21D11BE006EBE406E01060
:1024100005EBC00504F0070418E006EBA406A010C5
:1024200005EB800504F0030410E006EB6406601081
:1024300005EB400504F0010408E02644254400248F
:1024400004E006EB44062544002400BF00BFB8F1B9
:10245000000F00DC85E71B991D98CDE90091CDE9BF
:10246000026404903C48806C3B464246D0F80CC065
:1024700028460C99E0476AE0FFE7C9F1080005909B
:102480000C9C002006905EE019982044401E0490A9
:102490003148B0F90610049881424DDC2E48B0F95D
:1024A0000A00A04248DB00200390019607950290A5
:1024B0003EE0039838B9019800780A900198401CD2
:1024C00001900820039005990A9840FA01FB0A98A8
:1024D00000FA09F0C0B20A900398A0EB090003903B
:1024E000BBF1000F04D11C48007B00F00200C8B90A
:1024F0001948408800901D9828B11D9830F81B009D
:102500001549488002E01448A0F802B007985044EA
:10251000421E2146049B079800F080F80E4900985F
:10252000488000BF0298401C0290079850440790D2
:1025300002984045BDDB00BF0698401C06901998E4
:1025400004441B9806440698B8429DDB00BF00BFB8
:1025500007E70000800000205050002070B50446BE
:102560000D4616461348B0F90600A84200DD70BDBE
:102570001048B0F90A00A84200DAF8E70D48B0F9AF
:102580000400A04202DD0B48B0F904400948B0F94C
:102590000800B04202DA0748B0F90860A64200DA43
:1025A000E5E70448806C324629460369204698478F
:1025B00000BFDCE75050002070B504460D461648B9
:1025C000B0F90600A84200DD70BD1348B0F90A005A
:1025D000A84200DAF8E71048B0F90400A04200DD94
:1025E000F2E70D48B0F90800A04200DAECE70A482B
:1025F000007B00F0010030B10748806C2946826AF8
:102600002046904706E004484288806C2946436A89
:102610002046984700BFD7E7505000202DE9F041F1
:1026200004460D4616461F461848B0F90400A0425D
:1026300002DD1648B0F904401448B0F90800B04271
:1026400002DA1248B0F90860A64201DABDE8F0816A
:102650000E48B0F90600A84202DD0C48B0F9065059
:102660000A48B0F90A00B84202DA0848B0F90A701C
:10267000AF4200DAEAE70548806C3B46324629461D
:10268000D0F818C02046E04700BFDFE750500020D8
:102690004FF6FF70704730B5014601F01F03C1F3DC
:1026A0004512C1F3C424C4EB04201F25B0FBF5F48C
:1026B000C2EB02203F25B0FBF5F2C3EB03201F2540
:1026C000B0FBF5F304EB022000EB034030BD10B586
:1026D000002400F0A5F900F0EBF8044300F011F835
:1026E000042000F0C5F940F6FF731A4600210846A1
:1026F000FFF794FF002000F0BBF900F0DEF8204661
:1027000010BD704770B504462046FFF793FD05469F
:10271000284670BD2DE9FC5F82460D461646984658
:10272000DDF830B0DDF83890109F002440E0BBF1B8
:10273000040F20D006DCBBF1010F0AD0BBF1020F61
:1027400032D10FE0BBF1080F1ED0BBF1100F2BD11F
:1027500022E06119CDE900674A4650460F9B02F01E
:1027600037F821E06119CDE900674A4650460F9BD2
:1027700002F018F918E06119CDE900674A465046A1
:102780000F9B02F085FA0FE0611933464A46504626
:10279000009702F06BFB07E0611933464A4650464A
:1027A0000097FEF74DF800BF00BF0D988144641CF0
:1027B0004445BCDBBDE8FC9F70B504460E4615469B
:1027C0000C48007B00F0010040B104E03146204697
:1027D00000F084F8641CAC42F8DD09E006E005482E
:1027E00042883146204600F06CF8641CAC42F6DDAD
:1027F00070BD00005050002070B506460C461546CE
:102800000C48007B00F0010040B104E02146304656
:1028100000F064F8641CAC42F8DD09E006E005480D
:1028200042882146304600F04CF8641CAC42F6DD8C
:1028300070BD000050500020F8B504460D46164605
:102840001F460A484088BBB240F23F1CACEB040C68
:102850001FFA8CF2A9B240F23F1CACEB060C0090C0
:102860001FFA8CF0FFF70DFDF8BD0000505000205E
:1028700010B5FFF70DFF10BD70B504460D46A9B2A7
:1028800040F23F12121B90B200F065F80646304647
:1028900070BD00210180418040F23F118180EF2115
:1028A000C180704710B504462046FFF7F4FE10BD06
:1028B00010B500F0FFF8002010BD704700BF00BF4A
:1028C000704770B504460D461646B2B2A9B240F242
:1028D0003F131B1B98B2FFF7C9FC70BD70B50446CF
:1028E0000D4629462046FFF7C7FF86B2C6F5803061
:1028F000421E29462046FFF7E4FF70BD2DE9F04156
:1029000004460D4616461F462A2000F0CDF8281230
:1029100000F0C4F8E8B200F0C1F8381200F0BEF8D8
:10292000F8B200F0BBF82B2000F0BEF8201200F047
:10293000B5F8E0B200F0B2F8301200F0AFF8F0B243
:1029400000F0ACF82C2000F0AFF8BDE8F08110B535
:10295000FDF7EEFF10BD2DE9F04104460D462B4674
:10296000224629462046FFF7C9FF2E2000F09CF89A
:1029700000F015F8064600F012F8064600F00FF8D1
:102980008046F7B24FF6FF7000EA0727F012C00248
:10299000B91240EA411040EAE820BDE8F08110B5E4
:1029A000FEF7AEF810BD10B50020FEF7BBF896207C
:1029B000FFF74DFC0120FEF7B5F83220FFF747FC8A
:1029C00010BD000070B504460648406BA04207D019
:1029D000044844632046FFF723FC054600F004F852
:1029E00070BD00005050002010B50446002002F0D9
:1029F00057FE024921F8104010BD00005050002041
:102A00001CB504460548806C016A684688476A46DA
:102A100021460248001DFFF76AFA1CBD50500020F5
:102A200010B50348806C016A0148001D884710BD3D
:102A30005050002070B504460648006BA04207D0F5
:102A4000044804632046FFF7EBFB054600F004F85A
:102A500070BD00005050002010B50446012002F067
:102A60001FFE024921F8104010BD00005050002008
:102A700010B50146084A107B127B4A4002F004025E
:102A80003AB1054B1A885B88034C238023465A8051
:102A900000BF014B197310BD5050002010B5044603
:102AA0002046FEF733F810BD10B504462046FEF769
:102AB00033F810BD10B5FFF74AFFFFF774FFCF20C2
:102AC000FFF7F2FF0020FFF7E9FFC120FFF7E6FF65
:102AD0003020FFF7E3FFED20FFF7E6FF6420FFF76C
:102AE000DDFF0320FFF7DAFF1220FFF7D7FF812079
:102AF000FFF7D4FFE820FFF7D7FF8520FFF7CEFFD1
:102B00001020FFF7CBFF7A20FFF7C8FFCB20FFF79D
:102B1000CBFF3920FFF7C2FF2C20FFF7BFFF0020BB
:102B2000FFF7BCFF3420FFF7B9FF0220FFF7B6FF25
:102B3000F720FFF7B9FF2020FFF7B0FFEA20FFF7EB
:102B4000B3FF0020FFF7AAFF0020FFF7A7FFC02078
:102B5000FFF7AAFF1B20FFF7A1FFC120FFF7A4FF8B
:102B60000120FFF79BFFC520FFF79EFF3020FFF7F6
:102B700095FF3020FFF792FFC720FFF795FFB720A2
:102B8000FFF78CFF3620FFF78FFF4820FFF786FF07
:102B90003A20FFF789FF5520FFF780FFB120FFF7AC
:102BA00083FF0020FFF77AFF1A20FFF777FFB62098
:102BB000FFF77AFF0A20FFF771FFA220FFF76EFFF1
:102BC000F220FFF771FF0020FFF768FF2620FFF7D4
:102BD0006BFF0120FFF762FFE020FFF765FF0F208A
:102BE000FFF75CFF2A20FFF759FF2820FFF756FF69
:102BF0000820FFF753FF0E20FFF750FF0820FFF7D4
:102C00004DFF5420FFF74AFFA920FFF747FF43205D
:102C1000FFF744FF0A20FFF741FF0F20FFF73EFFB9
:102C20000020FFF73BFF0020FFF738FF0020FFF7F1
:102C300035FF0020FFF732FFE120FFF735FF0020CE
:102C4000FFF72CFF1520FFF729FF1720FFF726FFBE
:102C50000720FFF723FF1120FFF720FF0620FFF7D3
:102C60001DFF2B20FFF71AFF5620FFF717FF3C2010
:102C7000FFF714FF0520FFF711FF1020FFF70EFFED
:102C80000F20FFF70BFF3F20FFF708FF3F20FFF764
:102C900005FF0F20FFF702FF2B20FFF705FF0020A5
:102CA000FFF7FCFE0020FFF7F9FE0120FFF7F6FE1C
:102CB0003F20FFF7F3FE2A20FFF7F6FE0020FFF784
:102CC000EDFE0020FFF7EAFE0020FFF7E7FEEF2011
:102CD000FFF7E4FE1120FFF7E7FE7820FFF7B7FAD1
:102CE0002920FFF7E1FE3620FFF7DEFEC920FFF7BF
:102CF000D5FE10BD0120D8B902211C4A1170012156
:102D00001B4A117040F65F711A4A11804FF4CB7163
:102D1000194A11800121194A11700221184A1170B3
:102D200040F63771174A11809221174A11801BE033
:102D3000012819D102210D4A117001210C4A11708C
:102D400040F65B710B4A11804FF4B4710A4A11804E
:102D500001210A4A11700A4A117040F64E71094A5F
:102D600011809E21084A1180704700001001002048
:102D70001101002012010020140100201601002082
:102D800017010020180100201A01002000BFFEE7F3
:102D90007047000070B5002100230F22C4781CB3D7
:102DA000174C246804F4E064C4F5E064C4F307211C
:102DB000C1F10404E3B20A4144789C40E1B2847852
:102DC000144021430C07210E0E4C05786155047800
:102DD00004F01F050124AC4005786D11AD0005F12C
:102DE000E025C5F8004109E0047804F01F0501243E
:102DF000AC40054D0678761145F8264070BD0000C0
:102E00000CED00E000E400E080E100E0704700002D
:102E100029B1064A12680243044B1A6004E0034ACF
:102E200012688243014B1A6070470000303802403C
:102E300029B1064A12680243044B1A6004E0034AAF
:102E400012688243014B1A60704700003838024014
:102E500029B1064A12680243044B1A6004E0034A8F
:102E600012688243014B1A607047000044380240E8
:102E700029B1064A12680243044B1A6004E0034A6F
:102E800012688243014B1A607047000024380240E8
:102E90001448006840F00100124908600020114900
:102EA000083108600F4800680F4908400D49086064
:102EB0000E48091D08600E480A49843108600B4815
:102EC0001038091D08600748006820F48020054973
:102ED0000860002003490C31086002498C31086009
:102EE0007047000000380240FFFFF6EA103000246F
:102EF00000300020F0B50021002200240225002629
:102F00000223324F3F6807F00C0121B1042905D09C
:102F1000082937D105E02E4F076036E02D4F0760B6
:102F200033E02A4F3F1F3F68C7F38056274F3F1FAC
:102F30003F6807F03F036EB1264FB7FBF3F7DFF8AA
:102F40008CC0ACF1040CDCF800C0CCF3881C07FB8F
:102F50000CF40CE01E4FB7FBF3F7DFF870C0ACF1D8
:102F6000040CDCF800C0CCF3881C07FB0CF4174FF2
:102F70003F1F3F68C7F301477F1C7D00B4FBF5F797
:102F8000076002E0124F076000BF00BF0F4F3F68AD
:102F900007F0F0010909104F7A5C0768D7404760D5
:102FA0000A4F3F6807F4E051890A0B4F7A5C476883
:102FB000D7408760054F3F6807F46041490B064FD3
:102FC0007A5C4768D740C760F0BD0000083802400F
:102FD0000024F40000127A000800002010B5014619
:102FE0000022002300204A11012A02D10A4C236842
:102FF00008E0022A03D1084C7034236802E0064C32
:103000007434236801F01F02012494401C400CB169
:10301000012000E0002010BD003802400248006896
:1030200000F00C0070470000083802400146002004
:10303000034A106820F0F000084310607047000059
:10304000083802400021024A11701146087070478A
:103050000238024001490860704700000000474202
:1030600001460020034A106820F4E0500843106035
:10307000704700000838024001460020034A1068EB
:1030800020F4604040EAC1001060704708380240F8
:1030900001490866704700000000474270B5049C73
:1030A00041EA82150126C6EB530645EA064505436B
:1030B00045EA0465014E356070BD000004380240E9
:1030C00001460020034A106820F003000843106006
:1030D000704700000838024038B5002000900024F6
:1030E000002500BF3120FFF779FF05460098401CFE
:1030F00000900098B0F5A04F01D0002DF2D0312003
:10310000FFF76CFF08B1012400E00024204638BD21
:10311000704700000CB50020019000903448006812
:1031200040F480303249086000BF3148006800F444
:10313000003000900198401C0190009818B9019847
:10314000B0F5A04FF1D12A48006800F4003010B16A
:103150000120009001E0002000900098012846D155
:1031600023484030006840F08050214940310860D9
:103170002048006840F440401E4908601C48083060
:1031800000681B49083108600846006840F40040A8
:1031900008600846006840F4A05008601648091FFF
:1031A0000860081F006840F08070091F086000BFB9
:1031B0000F48006800F000700028F9D040F2057058
:1031C0000E4908600A480830006820F003000849EA
:1031D000083108600846006840F00200086000BF3F
:1031E00003480830006800F00C000828F8D10CBD36
:1031F000003802400070004008544007003C024084
:10320000042808D14FF0E021096941F004014FF092
:10321000E022116107E04FF0E021096921F004018B
:103220004FF0E0221161704710B509480068401C5A
:103230000749086007480078401CC0B2054908707B
:103240000A2803D100200870FEF74CFC10BD0000D6
:10325000180000200000002030B51149481EB0F1D0
:10326000807F00D31BE0481E4FF0E02250615017D2
:103270000F22002807DA13071D0E0A4B00F00F0477
:10328000241F1D5503E013071C0E074B1C5400BFE1
:1032900000204FF0E02290610720106100BF30BD98
:1032A0004090020018ED00E000E400E010B5154881
:1032B000006840F47000134908601348006840F04B
:1032C00001001149086000200F49083108600E48CC
:1032D00000680E4908400C4908600D48091D086047
:1032E000081F006820F48020091F0860002006499C
:1032F0000C310860FFF70EFF4FF000600149803984
:10330000086010BD88ED00E000380240FFFFF6FEC7
:10331000103000247CB504460D460C48007820B1DE
:10332000FFF7E8FC002009490870694601A800F091
:103330000FF82B462246BDF80010BDF80400FEF73A
:103340006DFE08B101207CBD0020FCE71C010020BF
:1033500070B504460D460020FDF70EFC902000F0ED
:1033600044F80120FDF796FC00BF00BF00BF00201D
:10337000FDF790FC00BF00BF00BF00F017F82880E9
:10338000D02000F032F80120FDF784FC00BF00BF20
:1033900000BF0020FDF77EFC00BF00BF00BF00F0B3
:1033A00005F820800120FDF7E7FB70BD70B5002413
:1033B000002516E04FF6FF7000EA44040120FDF7F7
:1033C00069FC00BF00BF00BF0020FDF763FC00BF29
:1033D00000BF00BFFDF70EFC08B1601C84B2681C82
:1033E000C5B20C2DE6DB204670BD70B5044600204A
:1033F000FDF750FC002519E004F0800018B1012011
:10340000FDF71AFC02E00020FDF716FC6006040E32
:103410000020FDF73FFC00BF00BF00BF0120FDF70B
:1034200039FC00BF00BF00BF681CC5B2082DE3DB3C
:1034300070BD000010B540F225511E4800F04CF858
:1034400010B31C4800F002F9C4B21B48008800F415
:103450000040C8B91848008800F4804060B10A2CC8
:1034600003D000201449088020E01348008840F46D
:1034700000401149088019E00D2C06D10E48008843
:1034800040F480400C49088010E00B480088C0F3ED
:103490000D000A490C5408480088401C0649088061
:1034A00008460088C72801DD00200880FDF75DF987
:1034B00010BD000000100140060000202001002087
:1034C00021B1828942F40052828104E082894DF662
:1034D000FF731A408281704770B5024600240023B2
:1034E0000025002040F66A16B14200D100BFC1F3AA
:1034F000421501F01F03012606FA03F3012D02D144
:103500009689334006E0022D02D1168A334001E04D
:10351000968A33400C12012606FA04F416883440C9
:1035200013B10CB1012000E0002070BDF0B50346DE
:10353000002400260025002040F66A17B94200D179
:1035400000BF1846C1F3421401F01F06012707FA15
:1035500006F5012C01D10C3004E0022C01D1103011
:1035600000E014301AB107682F43076002E00768D3
:10357000AF430760F0BD00002DE9FF4705460E464A
:103580000024A14600BFA046B08900B100BF2C8A2C
:1035900024F44054F08804432C82AC8941F20C603E
:1035A0008443B08831890843718908430443AC815E
:1035B000AC8A24F44074B0890443AC826846FFF7B7
:1035C00099FC2048854202D01F48854202D1DDF88F
:1035D0000C9001E0DDF80890A88900F4004040B1AB
:1035E00009EBC90000EB091031684900B0FBF1F7A5
:1035F00007E009EBC90000EB091031688900B0FB56
:10360000F1F76420B7FBF0F004012009642101FB0D
:103610001078A88900F4004040B1322000EBC800C7
:10362000B0FBF1F000F00700044308E0322000EBAB
:1036300008106421B0FBF1F000F00F0004432C816E
:10364000BDE8FF8700100140001401400146888852
:10365000C0F308007047000010B588B0044601218F
:103660000846FFF7D5FB01211020FFF7F1FB0722E9
:1036700009212248FDF70DFC07220A211F48FDF70A
:1036800008FC4FF4C060069002208DF81C008DF8F5
:103690001D0000208DF81E0001208DF81F0006A9D6
:1036A0001648FDF7AEFB02940020ADF80C00ADF813
:1036B0000E00ADF81000ADF814000C20ADF81200AB
:1036C00002A90F48FFF758FF01210D48FFF7F8FE48
:1036D000012240F225510A48FFF728FF25208DF8E6
:1036E000040003208DF805008DF8060001208DF8F8
:1036F000070001A8FFF74EFB08B010BD0000024014
:103700000010014000BFFEE701200149087070472A
:10371000D40000202DE9F0470546EDB12846FDF71D
:1037200015FD0446284600F06DFB0646A6B1284666
:1037300000F0F6F881464846FDF708FD074630469A
:10374000FDF704FD8046608BA8F81A00388B608373
:103750003D83204600F0EAF9BDE8F0872DE9FF47F8
:1037600004460D4616461F46DDE90D9ADDF8308009
:1037700000203B46324629468DE80107204600F0EE
:1037800003F804B0BDE8F0872DE9F84F804689467C
:1037900092469B46DDE90A754048008805432FB9EB
:1037A0003F48008810B13F48B0F90070781C00B95C
:1037B0000027F7B13846FDF7C9FC0646B6F9000008
:1037C0008044B6F902008144BAF1000F06D1B6F97F
:1037D0000400B6F90010401A00F1010ABBF1000F15
:1037E00006D1B6F90600B6F90210401A00F1010B35
:1037F00000BF0D98203000B2FDF771FC009000284A
:1038000049D027480088401C254908800098FDF7CA
:103810009DFC04460FFA88F020800FFA89F0608042
:1038200008EB0A00401E00B2A08009EB0B00401E0E
:1038300000B2E0800C982061A08B43F68F71294084
:103840000843A083009800F013FD3946009800F06B
:103850007BFB05F0200010B1009800F0D3F905F0D3
:10386000010020B110480068401C0F49086005F0B5
:10387000400010B10098FFF74DFF05F0020030B195
:10388000A08B40F00200A083009800F097F901217E
:10389000009800F083FC0098BDE8F88FD600002067
:1038A000C0000020CC000020E80000202DE9F041FD
:1038B0000446B4F90450A6682846FDF747FC0746BD
:1038C000206817280FD004DC0E280FD014281AD136
:1038D00004E022280FD0282815D110E031463846C0
:1038E00000F02BFA0FE0A560BDE8F08121462846E4
:1038F00000F0B6F9F8E76FF07040A060F4E72846F2
:1039000000F05CF9F0E700BF0020A060A06000BFFD
:10391000EAE700000148B0F900007047CC00002041
:1039200010B5044624B12046FDF710FCB0F916404E
:10393000204610BD30B58FB0002504A8FEF780F8F2
:103940000AA800F0C5F950480068049988420AD1D5
:103950004D4840680599884205D14B48007A9DF84A
:103960001810884275D0DDE90401FDF791FC04A828
:1039700001F086FFADF82C00BDF92C0000F05EFBD5
:10398000002877D04048007A9DF81810884223D04C
:10399000BDF82C0000B3BDF92C00FDF7D7FB0446A1
:1039A0009DF818008DF80C003748007A8DF80D004E
:1039B000B4F900100498401A0190B4F90210059867
:1039C000401A029001A80E9011200C90BDF92C0015
:1039D0000CA900F0D7FB00BF2B48007A9DF8181007
:1039E0000843002846D00C200C9001252748B0F948
:1039F0000400BDF92C1088421CD024488088C8B12E
:103A00009DF8180010B100200E900AE01E480068D2
:103A100007901D484068089000208DF8240007A8F2
:103A20000E901A49B1F904000CA900F0E2FB002045
:103A300016498880BDF82C0060B104A807C807AB00
:103A400007C39DF8240030B1BDF82C000F498880D1
:103A500009E013E00EE00E48007808B100F0BDF870
:103A600000200A49888007A80E90BDF92C000CA9F7
:103A700000F0BFFB044804A90EC90EC00AA800F05C
:103A80004DFB28460FB030BDB0500020FC00002098
:103A9000DC0000200EB51A48007880BB00201949D0
:103AA000088019490880194988631949088019490B
:103AB00008801949022240F6FF73CDE900210290E7
:103AC0001A460146FFF74AFE144908806FF070401D
:103AD000134908601149B1F9000000F06FF811486E
:103AE00000F0F6F8104800F0F3F80C49B1F90000C6
:103AF00000F088F8FFF708FE0120014908700EBDAC
:103B0000F0000020C4000020EE00002050500020F3
:103B1000C2000020C0000020A95B0008CC000020EB
:103B2000D0000020F4000020FC00002070B5044606
:103B30000748B0F9005008E02146284601F042FE4F
:103B40002846FDF703FBB0F91450002DF4D170BDE9
:103B5000C40000202DE9FF4105460E463DB328462E
:103B6000FDF7F4FA0446A78B07F00200F8B1D4E998
:103B70000001CDE9020166B13068009070680190E3
:103B80006946204600F0ACF8694602A8FEF78EF9B7
:103B900000BF294602A800F0AEF840B140F601008F
:103BA0003840012804D1294602A800F016FA03E0A3
:103BB00002A9284601F006FEBDE8FF8110B50446C3
:103BC00000212046FFF7C6FF10BD70B50446204611
:103BD00000F066FA0546284670BD10B500F08AFA76
:103BE00010BD000070B504460D462B46224600214C
:103BF0000348B0F9000001F053FE0646304670BDA0
:103C0000C400002070B504460B48B0F93C6014B9FC
:103C10000A48B0F90040084884872046FDF796FA24
:103C20000546FEF7FDFEB5F9000003490864B5F945
:103C300002004864304670BD50500020C40000208F
:103C400070B504460D4654B12046FDF77FFA06468E
:103C5000306918B1AC8028463169884700BF70BD13
:103C600070B505460C4654B12846FFF759FE064686
:103C700026B1E58021463046FFF7E2FF00BF70BD68
:103C80001CB50F48007818B10E4801F035FE16E05B
:103C90000D49B1F93C00FDF759FA0446D4E9000199
:103CA000CDE900010948008828B10848B0F90010A2
:103CB000684600F020F8684601F01EFE00BF1CBDFB
:103CC000D4000020C450002050500020EC00002000
:103CD000024909680160014908607047C800002076
:103CE00070B504460D46B4F90220B4F90010284618
:103CF000FDF793FE70BD70B506460D4600BF284621
:103D0000FDF724FA0446207F00F0020008B90020E5
:103D100070BD21463046FEF7C9F8E08A00B902E0DE
:103D2000B4F91650EBE700BF284600F0DFFB00288F
:103D300001DA0020ECE70120EAE700224A800A804D
:103D400082880388D21A12B28A80C2884388D21A23
:103D500012B2CA80704710B504462046FFF7E0FD56
:103D600004462CB12046FDF7F1F9B0F9180010BD5A
:103D70000020FCE782680A60C2684A607047000061
:103D800010B51B48007808B9002010BD19484069DB
:103D9000012806DD17484069401E16494861002089
:103DA000F3E71548007828B100201349087013483C
:103DB000006880470F480069401C0E49086101F007
:103DC00089FA30B90B484069401E0A494861002011
:103DD000DBE7FFF755FF0A48006830B105480830B7
:103DE000074909688847044908700120CDE70000A9
:103DF000D4000020BC500020F100002088000020EA
:103E00008400002070B505462846FFF7A4FF06464B
:103E10000EE0AE4201D100260CE03046FDF796F9E7
:103E20000446B4F91A00A84200D103E0B4F91A60BC
:103E3000002EEED100BF304670BD00007FB50546B4
:103E40003C48007820B9FFF71BFF012004B070BD8B
:103E500039484069401C38494861012801DD01208A
:103E6000F4E73649B1F93C00FDF770F904464FF02C
:103E7000FF30314908613248007820B102A920465C
:103E8000FFF778FF0FE0207F00F0020020B1D4E9B7
:103E90000001CDE9020106E027484069401E26499D
:103EA00048610020D2E71DB1294602A8FDF7FEFFB8
:103EB0002248806BC0B126462048806B0168009183
:103EC000406801901F48008828B11E48B0F90000E2
:103ED000FDF73CF9064669463046FFF701FF6946A3
:103EE00002A8FDF7E3FF00BF1648008868B1154837
:103EF000B0F9001002A8FFF7FEFE30B90E48406985
:103F0000401E0D4948610020A0E70C48B0F93C1064
:103F100002A8FFF7F0FE30B907484069401E064985
:103F20004861002092E70448DDE9021206C0FFF76D
:103F300027FF8BE7D4000020BC5000205050002009
:103F4000E4000020EC0000202DE9F84F06468846EA
:103F5000B8F1000F3FD03046FDF7F8F804460020D6
:103F60006083A4F816804046FDF7F0F80746207FEE
:103F700000F0080BB7F91890B9F1000F02D13E8399
:103F8000BDE8F88F4846FDF7E1F80546BBF1000FA4
:103F900007D1287F00F0080018B1A4F81A903E83DA
:103FA000EEE700BFB5F91A00009008B96E8311E082
:103FB0000098FDF7CBF88246BBF1000F08D19AF8C4
:103FC0001C0000F0080018B16E830098608301E0C7
:103FD0005546E7E700BF00BFD2E770B505460C467F
:103FE00000BF2846FFF7A2FD70BD2DE9F041044651
:103FF0000D4600278CB185B10CE02046FDF7A6F8F0
:104000000646B6F91600A84201D1012704E0B6F928
:10401000164000BF002CF0D100BF3846BDE8F0814B
:1040200070B5044601252046FDF790F8007F00F0AA
:10403000100000B10025284670BD000010B50446F0
:104040000948808858B10848B0F904102046FFF7A5
:10405000CCFF20B90448B0F90400A04201D10120EE
:1040600010BD0020FCE70000F40000200346187F8C
:1040700000F0020088B1B3F9000088420DDCB3F90A
:104080000400884209DBB3F90200904205DCB3F971
:104090000600904201DB012070470020FCE7000091
:1040A00070B505460848B0F9004008E0AC4201D1BF
:1040B000012070BD2046FDF749F8B0F91440002CEE
:1040C000F4D10020F5E70000C40000200146B1F95A
:1040D0000000B1F90420904201DD00207047B1F9E1
:1040E0000200B1F90620904201DD0020F6E7012030
:1040F000F4E700000EB50848008858B11820009079
:1041000069460548B0F90000FFF79AFD0020024912
:10411000088000BF0EBD0000D800002010B5024688
:104120000E480068C8B100210C4B186811E090429D
:104130000DD111B103680B6008E003681BB1074C97
:104140000368236002E00023044C236003E001467F
:1041500000680028EBD100BF00BF10BDC8000020E0
:1041600070B505460C462846FCF7F0FF0646A580CC
:10417000306918B120463169884702E02046FFF7D0
:1041800095FB70BD70B504460D462046FFF748FF0D
:1041900018B129462046FFF7E3FF70BD3EB505463E
:1041A0000C46ADF80450009469462846FFF748FDD8
:1041B0003EBD3EB504460D4695E807008DE8070074
:1041C00069462046FFF7DEFFADF806400D2000905F
:1041D00009E02046FFF7A4FB044624B10295694696
:1041E0002046FFF7CFFF2046FFF7EFFC0028F0D175
:1041F0003EBD2DE9F04107460D46AC6874B1384626
:10420000FCF7A4FF0646B6F900102068401A2060AB
:10421000B6F902106068401A606000BF294638464F
:10422000FFF7C7FFBDE8F0810146074800680A1A9A
:10423000C2EB821000EB022203484068024B1B686D
:10424000C01A92FBF0F07047380000200146074882
:1042500080680A1A02EB0210C0EB02220348C06811
:10426000024B9B68C01A92FBF0F0704738000020A8
:1042700070B504460948008868B10848B0F90000E4
:10428000FCF764FF06462046FCF760FF0546B08A4F
:10429000A882B48201E00148048070BDC4000020FF
:1042A00070B5064600F0AAF8304601F0A9FB0646B4
:1042B0003448B0F90E00B04201DA002070BD00F0C1
:1042C000C7FF051E00D1F9E7304600F0D3FF0446D2
:1042D000601C18B9304600F0ADF80446601C08B9FF
:1042E0000020EBE7284A32F83420274B03EBC403C5
:1042F0005B881A4411B2244A02EBC4029088224A15
:1043000002EBC5025680204A22F8351002EBC502A6
:104310009080002803DD1C4B03EBC003DD801A4BAB
:1043200003EBC503DC80184B03EBC4039D801548E9
:104330000068401C1349086008464068401E4860F9
:10434000084680684968884203DD0E4840680D4988
:1043500088600C488089304400B20A498881084648
:10436000C089801B00B2C8810846B0F91000B1F9BD
:104370000E10884203DD0348C0890249088228469E
:104380009CE700003C5000208C400020154800684D
:1043900038B314480068808813490988081A00B2A5
:1043A000124908800F480068008911490988081AD5
:1043B00000B20E494880084600880A490968096821
:1043C00009880844401E00B2084988800846408891
:1043D00004490968096849880844401E00B2034935
:1043E000C880704798000020A40000208E000020A4
:1043F000A8000020014600BF0120704700B5034817
:10440000007808B9FCF786FE00BD00006C000020B3
:1044100010B502461068002809DA2D230C68601CCC
:1044200008602370106840421060012010BD002019
:10443000FCE700002DE9F04706464FF0FF39002465
:1044400038E0284830F83400264901EBC401498897
:104450000844244931F83510081A0FFA80FAB24599
:1044600027DA204830F834001E4901EBC40149889E
:1044700008441C4931F83510081A07B2C7B1194869
:1044800030F93500184900EB0108164901EBC50168
:10449000B1F90220A8EB07004146FBF75FFF114886
:1044A00030F83500C01B00B20E4921F8350000BFBE
:1044B00000BF2C460B4800EBC4008588002DC0D1FE
:1044C000084830F93400074901EBC401B1F9021082
:1044D0000844C0F57A50B04200DBA1460FFA89F0DB
:1044E000BDE8F0878C4000200C0200200146054802
:1044F000B0F90000884201D1002070474FF0FF3032
:10450000FBE70000CC000020F7B50C461546164826
:10451000006930B1144908692946FDF7B1FA00B9BC
:10452000FEBD11488069006938B10F488069006993
:10453000214682680098904714E00FE06846FDF736
:10454000C1FB06460848806901683046884707482D
:10455000006818B13046054909688847601E041E86
:10456000ECDA00BF00BFDBE7505000207C000020E9
:104570002DE9F05F2848008800284BD027480068C4
:1045800007682548B0F90000FCF7E0FD064624481E
:10459000B0F904002249B1F90010401A00F10108F5
:1045A0001F48B0F906001E49B1F90210401A00F187
:1045B000010900252CE0002424E0194AB2F9022068
:1045C0005119174AB2F90020101901F075F826F8B0
:1045D00014002A4621463846FDF7ECF88246BAF127
:1045E000000F0ED0504601F02BF983460C4AB2F969
:1045F000022051190A4AB2F9002010195A4601F056
:104600009FF9641C4445D8DB388806EB40066D1CD6
:104610004D45D0DBBDE8F09F8C00002098000020C5
:104620008E0000202DE9F04705460F4691461C46B6
:10463000DDE908861348007B00F0030010B1022872
:104640001CD106E04FEA480221463046FBF741FE06
:1046500014E000BF208840B1208830802DB1A868C8
:104660004A4639460368284698477F1CB61CA41C56
:10467000A8F10100B0F10008ECD100BF00BFBDE817
:10468000F0870000505000202DE9FF4F81B0814697
:104690008A469846129E0F9D0E98C0F1080498F81D
:1046A00000004949085C0E9940FA01F74748007B31
:1046B00000F0030020B1012862D0022879D11CE06B
:1046C00000BFAC4200D92C462D1B00BF07F00101F2
:1046D000109830F8110026F8020B7F08601E041EA7
:1046E000F4D115B905B0BDE8F08F082408F1010038
:1046F0008046007834490F5CE3E71098B0F802B0C8
:1047000000BFAC4200D92C462D1BB9F1000F1BD0C5
:1047100000BF1FB906EB4406A24414E007F00100F5
:1047200040B1D9F80800036851464846039A9847B3
:10473000A6F800B00AF1010AB61C601E041E00D1E2
:1047400001E07F08E5E711E000BF17B906EB44067A
:104750000BE007F0010008B1A6F800B0B61C601E1F
:10476000041E00D101E07F08EFE700BF05B9B9E7FB
:10477000082408F101008046007813490F5CC0E767
:104780001199486A804780B2009000BFAC4200D9BE
:104790002C462D1B00BF07F0010018B1308800998E
:1047A00048403080B61C7F08601E041EF3D10DB94E
:1047B00098E707E0082408F10100804600780249E4
:1047C0000F5CE3E700BF8DE7345F00085050002026
:1047D0002DE9F84F0646894615461C46DDE90A785C
:1047E000B8F800000090B8F802A026442D48007BDD
:1047F00000F0030020B1012831D002284ED118E08A
:1048000000BF297880232341194009B1514600E0B7
:1048100000990A463046761C4946FEF752F8601C5D
:104820000446082801D100246D1C781E071EE8D11B
:1048300034E000BF287880212141084020B1524651
:1048400049463046FEF73DF8761C601C04460828B1
:1048500001D100246D1C781E071EEBD11EE000BFA5
:10486000287880212141084068B149463046FEF74A
:1048700003F883464FF6FF70A0EB0B024946304623
:10488000FEF71FF800BF761C601C0446082801D103
:1048900000246D1C781E071EE2D100BF00BFBDE8DA
:1048A000F88F0000505000202DE9FF5F81468A46B6
:1048B0009846DDE910B60F9C0E98C0F10400C5B211
:1048C00098F800000E9949008840C7B23448007B30
:1048D00000F0030020B1012843D002285DD118E088
:1048E00000BFA54200DDE5B2641B00BFB8113BF874
:1048F000100026F8020BB806070E681EC0B2051E8F
:10490000F4D12CB1042508F1010080460778E8E7CE
:1049100043E000BFA54200DDE5B2641B00BF07F025
:10492000C00068B1B8113BF810003080B9F1000F39
:1049300006D0D9F80800036851464846029A9847BD
:10494000B61C0AF1010AB806070E681EC0B2051EA1
:10495000E5D12CB1042508F1010080460778D9E79C
:104960001BE000BFA54200DDE5B2641B00BF07F0FD
:10497000C00018B1308880F0FF003080B61CB80647
:10498000070E681EC0B2051EF1D12CB1042508F136
:10499000010080460778E5E700BF00BFBDE8FF9F44
:1049A000505000202DE9FF4F83B0054616469A4629
:1049B000DDE9107896F80090544655445248007B43
:1049C00000F0030010B1022848D148E0B8F1000F10
:1049D00024D000BFC4F103004FEA400BCBF1060125
:1049E000C020084100EA090040FA0BF0029002984A
:1049F00038F81000019028466D1C019A0499FDF7C3
:104A000060FF601C0446042804D10024701C064684
:104A100090F80090781E071EDCD11FE000BFC4F1A3
:104A200003004FEA400BCBF10601C020084100EA29
:104A3000090040FA0BF0029028466D1C029A049976
:104A4000FDF73FFF601C0446042804D10024701CBD
:104A5000064690F80090781E071EE0D14FE0B8F1AE
:104A6000000F27D000BFC4F103004FEA400BCBF189
:104A70000601C020084100EA090040FA0BF002904C
:104A8000029848B1029838F8100001902846019A1F
:104A90000499FDF716FF00BF6D1C601C0446042836
:104AA00004D10024701C064690F80090781E071E62
:104AB000D9D123E000BFC4F1030040000290029866
:104AC000C0F10601C020084100EA0900029940FA3D
:104AD00001FBBBF1000F04D05A4628460499FDF7AC
:104AE000F0FE6D1C601C0446042804D10024701CD8
:104AF000064690F80090781E071EDCD100BF00BF6C
:104B000007B0BDE8F08F0000505000202DE9FF4FA6
:104B100081B007468A469946DDE90EB6DDE9108484
:104B2000CBF10200C0B2009099F800004FEA8B016F
:104B30008840C5B25548007B00F0030020B1012831
:104B40007ED002282AD12AE0BBF1000F09D028111B
:104B500038F810002080A41C761E09F1010081465F
:104B60000578022E15DB701006F0010600BF291132
:104B700038F81110218005F00F0138F8111061800C
:104B8000241D09F1010189460D78411E081EEED150
:104B900000BF1EB1281138F81000208072E0BBF170
:104BA000000F15D005F0F00050B1281138F81000B2
:104BB00020802FB1B868036851463846039A984759
:104BC000A41C0AF1010A761E09F10100814605784C
:104BD00024E005F0F00050B1281138F810002080D2
:104BE0002FB1B868036851463846039A984705F0D4
:104BF0000F00051E0AD038F81500608037B1B8687C
:104C000003680AF101013846039A9847241D0AF106
:104C1000020AB61E09F1010081460578022ED8DA93
:104C200066B12811051E09D038F8150020802FB173
:104C3000B868036851463846039A984722E0FFE770
:104C400000BF0098B04201DDF0B200900098361A23
:104C500000BF05F0C00018B1208880F0FF00208060
:104C6000A41C2807050E0098401EC0B20090002822
:104C7000EFD136B10220009009F10100814605789C
:104C8000DFE700BF00BF05B0BDE8F08F5050002047
:104C90002DE9FF4F83B0054616469A46DDE91078A8
:104CA00096F80090544655445248007B00F00300AB
:104CB00010B1022848D148E0B8F1000F24D000BF5D
:104CC000C4F101004FEA800BCBF10401F020084150
:104CD00000EA090040FA0BF00290029838F8100040
:104CE000019028466D1C019A0499FDF7EAFD601CAD
:104CF0000446022804D10024701C064690F8009057
:104D0000781E071EDCD11FE000BFC4F101004FEA8E
:104D1000800BCBF10401F020084100EA090040FAC1
:104D20000BF0029028466D1C029A0499FDF7C9FD0C
:104D3000601C0446022804D10024701C064690F82A
:104D40000090781E071EE0D14FE0B8F1000F27D089
:104D500000BFC4F101004FEA800BCBF10401F02049
:104D6000084100EA090040FA0BF00290029848B1AD
:104D7000029838F8100001902846019A0499FDF72E
:104D8000A0FD00BF6D1C601C0446022804D1002455
:104D9000701C064690F80090781E071ED9D123E0BB
:104DA00000BFC4F10100800002900298C0F104012C
:104DB000F020084100EA0900029940FA01FBBBF12A
:104DC000000F04D05A4628460499FDF77AFD6D1C61
:104DD000601C0446022804D10024701C064690F88A
:104DE0000090781E071EDCD100BF00BF07B0BDE8F1
:104DF000F08F0000505000202DE9F04706460F4686
:104E000092461C46DDE908890A9D1748007B00F0A0
:104E1000030010B1022824D10CE000BF207839F83B
:104E200010002880AD1C641CA8F10100B0F100083E
:104E3000F4D116E000BF207850B1207839F8100086
:104E400028802EB1B06852463946036830469847EC
:104E50007F1CAD1C641CA8F10100B0F10008EAD170
:104E600000BF00BFBDE8F087505000202DE9F0479B
:104E70000746894614461D46DDF820802348007BFE
:104E800000F0030010B102283DD11CE0B8F1000F82
:104E90000DD009E0267838F8162049463846FDF747
:104EA00010FD6D1E7F1C641C002DF3DC0AE007E082
:104EB000227849463846FDF704FD6D1E7F1C641CB0
:104EC000002DF5DC1FE0B8F1000F0ED00AE02678C7
:104ED0002EB138F8162049463846FDF7F2FC6D1E13
:104EE0007F1C641C002DF2DC0CE009E0267826B162
:104EF000324649463846FDF7E4FC6D1E7F1C641CB3
:104F0000002DF3DC00BF00BFBDE8F087505000204B
:104F10002DE9F04705460F4691461C46DDE9088617
:104F20001248007B00F0030010B102281BD105E0FD
:104F3000424621463046FBF7CCF914E000BF20780A
:104F400040B1207830802DB1A8684A4639460368C0
:104F5000284698477F1CB61C641CA8F10100B0F1DC
:104F60000008ECD100BF00BFBDE8F0875050002022
:104F70002DE9FF4F89B00E4617469946DDE918AB7B
:104F8000DDF868804F49B1F94C00FCF7DFF8089074
:104F90000898008B28B10899B1F91800FCF7D6F8E9
:104FA00000E0002007900898C068069009985844CF
:104FB0000990079860B14348007B00F0020038B9BF
:104FC0003B463246CDF8009009990798FCF7A6FEBB
:104FD0003146099800F09CFD05461698102813D11B
:104FE00000240CE0A2195346CDE9007509990798F1
:104FF000FFF718FB1798824406980544641C4C453B
:10500000F0DB0DB0BDE8F08F169808281ED1002403
:1050100019E0B8F1000F09D0A2195346CDE9007884
:10502000029509990798FFF7E7FE07E0A219534692
:10503000CDE9007509990798FFF76AFF1798824430
:1050400006980544641C4C45E3DBDAE7B8F1000F31
:1050500001D1DFF87480002430E01698012804D0D4
:1050600002280FD0042823D117E00898A21953462C
:10507000CDE900B7CDE90280049509990798FFF7BB
:1050800003FB15E0A2195346CDE900B7CDE902852F
:1050900009990798FFF708FC0AE0A2195346CDE9E1
:1050A00000B7CDE9028509990798FFF72FFD00BFEA
:1050B00000BF1798824406980544641C4C45CCDB1D
:1050C00000BF9EE7505000206867000870B5054695
:1050D0000C461646234632462146284600F066F81E
:1050E00070BD00002DE9F84F83460D4616462C4949
:1050F000B1F94C00FCF72AF80746B7F91880B8F167
:10510000000F03D04046FCF721F800E00020814664
:105110002946584600F0FCFC0446D7F80CA020486D
:10512000007B00F00100C8B1786A804780B200902F
:1051300000BFB8F1000F06D0D9F808002A4659463A
:105140000368484698472088009948402080F868BE
:105150000444681C0546B042EBDD1EE0B8F1000FC8
:1051600010D000BFD9F808002A46594603684846BF
:1051700098470B48408820805444681C0546B0423C
:10518000F0DD0AE0711B481C00BF054949882180F9
:105190005444411E081EF8D100BFBDE8F88F00003E
:1051A0005050002002461170012070472DE9FE4F3B
:1051B00006460C4693461F462449B1F94C00FBF7BE
:1051C000C5FF05462146304600F0A2FC8146E8684E
:1051D0000290ABEB060000F10108288B68B1B5F92D
:1051E0001800FBF7B3FF8246381B401C434622469B
:1051F000314600905046FCF791FD23E01348007BB8
:1052000000F00100A8B1CDF80480CA46686A804762
:1052100080B2009000BFBAF8000000994840AAF898
:1052200000000AF1020A0198401E01900028F2D104
:1052300005E00648418842464846FCF7C7FE02980A
:105240008144641CBC42D9DDBDE8FE8F5050002073
:10525000012107E0064800EBC100408808B908B208
:105260007047491CB1F5FB7FF4DB0020F8E7000034
:105270008C40002030B50246002111E0144830F97E
:105280003100134D05EBC105B5F902502844104D0E
:1052900035F933502C1A944201DB08B230BD19465F
:1052A0000B4800EBC1008388002BE7D1084830F998
:1052B0003100074C04EBC104B4F902402044C0F5AE
:1052C0007A50904201DB08B2E8E74FF0FF30E5E7A3
:1052D0008C4000207CB55C49D1E90201CDE9000198
:1052E0005948006940B958480088ADF80000564850
:1052F0004088ADF802001BE053488089401C00B292
:10530000ADF8000050484089ADF80200BDF900003A
:105310004D49B1F9041088420ADD00BF4A480088AF
:10532000ADF800004848C089401C00B2ADF802004A
:10533000BDF902004449B1F90610884201DD0020A0
:105340007CBD4249B1F93C00FBF700FF0546BDF9C1
:1053500000003D49B1F9001088421FD13A48C08889
:10536000ADF8060038488088ADF804003748B0F939
:105370003C600BE03046FBF7E9FE0446B4F91A0046
:105380000022694600F0EEF8B4F91660002EF1D163
:10539000B5F918000022694600F0E4F800BFBDF836
:1053A0000000ADF804002948B0F93C600DE030463B
:1053B000FBF7CCFE0446B4F91A000022694600F05F
:1053C00047F800B1EBE7B4F91660002EEFD1B5F95C
:1053D00018000022694600F03BF800B1DFE71A48E8
:1053E0008088ADF80400BDF90400BDF900108842C2
:1053F00005DA1548DDE90012C0E902128EE713480C
:10540000B0F93C600BE03046FBF7A0FE0446B4F96F
:105410001A000022694600F064F8B4F91660002E04
:10542000F1D1B5F918000022694600F05AF8064893
:105430000069C82801DD002082E70348DDE9001289
:10544000C0E9021201207BE7BC5000205050002030
:105450002DE9FC5F06460D4617464FF0000B3BE07A
:105460003046FBF773FE0446B0F81C8008F00200DB
:1054700080B32FB13A4621466846FCF738FD03E079
:10548000D4E90001CDE9000169462846FCF7F8FAA5
:10549000F8B108F0010038B9BDF80400401C00B2B2
:1054A00028804FF0010B14E0B4F918900DE0484645
:1054B000FBF74CFE82466A4629464846FFF7C8FF7E
:1054C00008B14FF0010BBAF91A90B9F1000FEED103
:1054D00000BF00BFB4F91A60002EC1D15846BDE824
:1054E000FC9F2DE9FC4706460D46174636E0304640
:1054F000FBF72CFE0446B0F81C8008F0020058B3FD
:105500002FB13A4621466846FCF7F1FC03E0D4E9A6
:105510000001CDE9000169462846FCF7B1FAD0B197
:1055200008F0010028B9BDF80000401E00B2A880B4
:1055300011E0B4F918900AE04846FBF707FE8246EE
:105540006A4629464846FFF7CCFFBAF91A90B9F1E6
:10555000000FF1D100BF00BFB4F91A60002EC6D110
:10556000BDE8FC872DE9FC4706460C4617464EE091
:105570003046FBF7EBFD0546B0F81C8008F0020052
:10558000002842D02FB13A4629466846FCF7AFFCC6
:1055900003E0D5E90001CDE9000169462046FCF7AA
:1055A0006FFA88B308F00100E0B9B5F90200B4F968
:1055B000021088420CDDBDF90200401EB4F906104D
:1055C000884221DABDF80200401E00B2E0801BE0F4
:1055D000BDF90600B4F90610884215DABDF80600D8
:1055E000E08011E0B5F918900AE04846FBF7AEFDFF
:1055F00082466A4621464846FFF7B4FFBAF91A9038
:10560000B9F1000FF1D100BF00BFB5F91A60002E4B
:10561000AED1BDE8FC87000030B51B4901EBC001ED
:10562000498801B930BD184901EBC001B1F9022028
:105630001649C989114409B2144BD981194689897F
:10564000891A09B2998100210F4B03EBC0035980DD
:105650000D4C04EBC004A1880B4C04EBC004E388A0
:10566000094C04EBC304A18019B1074D05EBC1053A
:10567000EB8006494968491C044B59601946096882
:10568000491E196000BFCDE78C4000203C5000202F
:10569000014608787047014600BF012070470000AE
:1056A00001460448007B00F0040008B1481E704722
:1056B0000846FCE75050002070B504460D460D48E2
:1056C000B0F90200A84213DC0A48B0F90600A8426B
:1056D0000EDB0848B0F90000A04209DC0548B0F92B
:1056E0000400A04204DB29462046FDF7C5F870BD42
:1056F0000020FCE7AC00002070B504460D462946AA
:10570000204600F005FA0646308870BD0549098834
:1057100019B10449B1F9000002E00349B1F93C00B4
:1057200070470000EC00002050500020014608B2F5
:10573000014A50840020704750500020014608B2B2
:10574000014A9084002070475050002010B5044852
:10575000007820B100F09CF900200149087010BDCC
:105760009600002010B5044611480068A064114856
:105770002061201DFDF78DF80F48A0650F48A0613E
:105780000C48206101202075FEF7C4F8A087032093
:1057900084F85C006FF07040206360630020FDF7C8
:1057A00011F96FF07F40FDF745F90548E06110BD44
:1057B000BC00002054500020EC5E00082867000860
:1057C000DC5E00082DE9FC4107460D463846FBF734
:1057D000BDFC0446A68B06F0020008B9BDE8FC81BA
:1057E00040F601003040012800D1F7E72846FEF7D7
:1057F0006DFC00B9F2E7224629466846FCF777FBC4
:105800006846FEF763FCB8B1207F00F0200030B19D
:105810006A4604F108010846FCF7BEF80CE000985F
:10582000A0600198E060A08B40F02000A0830348B6
:105830000088401C0149088000BFCFE7C20000205B
:1058400070B50446042C03DA074830F8140070BD24
:10585000064800680068C068806850F824502846F0
:10586000FCF7DEFCF3E70000B40000209800002005
:105870000148024908607047353900087800002067
:1058800010B504460548008820B9D4E90001FEF7A8
:10589000A9F910BD0148B0F90000FAE7D8000020CE
:1058A0002DE9F05F82460E46174698465046FBF7B4
:1058B0004DFC8146424639464846FEF7D7FB10B9B3
:1058C0000020BDE8F09FB9F918400FE02046FBF733
:1058D0003DFC834643463A4631462046FFF7E0FF0B
:1058E000051E00D0AA46BBF91A4000BF0CB1B44255
:1058F000ECD15046E5E700007CB504460F48806BCC
:1059000018B92046FDF77CF816E00C48806B01685A
:10591000009140680190FFF7F9FE0646FBF716FC80
:1059200005466946FEF7DCF921466846FCF7BEFAF3
:105930006846FDF765F800BF7CBD000050500020B0
:1059400070B504460D4616460D48B0F90200A8424F
:1059500015DC0B48B0F90600A84210DB0848B0F986
:105960000000A0420BDC0648B0F90400A04206DBB0
:105970000448006832462946436A2046984770BD6D
:10598000AC000020BC0000202DE9F05F04460D466D
:1059900016461049B1F94C00FBF7D8FB8046B8F920
:1059A00018702946204600F0B3F88146A9F8006037
:1059B0006FB13846FBF7CAFB83463846FBF7C6FB98
:1059C00080682A462146D0F800A05846D047BDE856
:1059D000F09F00005050002010B50648007838B104
:1059E0000548007820B9012004490870FEF7C0FD81
:1059F00010BD0000970000209C00002096000020B1
:105A00000146C81C20F0030000B270472DE9F041A8
:105A100007460C46781C70B1601C60B10C480068E9
:105A2000401C40B10B480068401C20B10848056884
:105A30000848066802E04FF0FF352E46044807602C
:105A40000448046031462846FCF7F6F8BDE8F081CA
:105A5000580000205C00002010B50446084800787B
:105A600008B9002010BD24B106492046FCF708F80B
:105A700018B1FFF76BFE0120F4E70020F2E7000009
:105A8000960000208E00002010B5FFF7A5FF10BD86
:105A90002DE9F0411B48008890B31A48B0F9000086
:105AA000FBF754FB06461848B0F904001649B1F953
:105AB0000010401A471C1448B0F906001249B1F909
:105AC0000210401A00F10108002517E000240CE044
:105AD00036F814200C4BB3F9023059190A4BB3F9BC
